{
  "_format": "hh-sol-artifact-1",
  "contractName": "VerifierTest",
  "sourceName": "contracts/TestContract.sol",
  "abi": [
    {
      "inputs": [],
      "name": "verifier",
      "outputs": [
        {
          "internalType": "contract HonkVerifier",
          "name": "",
          "type": "address"
        }
      ],
      "stateMutability": "view",
      "type": "function"
    },
    {
      "inputs": [
        {
          "internalType": "bytes",
          "name": "_proof",
          "type": "bytes"
        },
        {
          "internalType": "uint256",
          "name": "_pubkey",
          "type": "uint256"
        },
        {
          "internalType": "uint256",
          "name": "_nullifier",
          "type": "uint256"
        }
      ],
      "name": "verify",
      "outputs": [
        {
          "internalType": "bool",
          "name": "",
          "type": "bool"
        }
      ],
      "stateMutability": "view",
      "type": "function"
    }
  ],
  "bytecode": "0x6080604052604051600e906079565b604051809103906000f0801580156029573d6000803e3d6000fd5b506000806101000a81548173ffffffffffffffffffffffffffffffffffffffff021916908373ffffffffffffffffffffffffffffffffffffffff160217905550348015607457600080fd5b506086565b617d99806106b783390190565b610622806100956000396000f3fe608060405234801561001057600080fd5b50600436106100365760003560e01c8063198e744a1461003b5780632b7ac3f31461006b575b600080fd5b61005560048036038101906100509190610292565b610089565b6040516100629190610321565b60405180910390f35b6100736101c9565b60405161008091906103bb565b60405180910390f35b600080600267ffffffffffffffff8111156100a7576100a66103d6565b5b6040519080825280602002602001820160405280156100d55781602001602082028036833780820191505090505b5090508360001b816000815181106100f0576100ef610405565b5b6020026020010181815250508260001b8160018151811061011457610113610405565b5b60200260200101818152505060008054906101000a900473ffffffffffffffffffffffffffffffffffffffff1673ffffffffffffffffffffffffffffffffffffffff1663ea50d0e48787846040518463ffffffff1660e01b815260040161017d9392919061055a565b602060405180830381865afa15801561019a573d6000803e3d6000fd5b505050506040513d601f19601f820116820180604052508101906101be91906105bf565b915050949350505050565b60008054906101000a900473ffffffffffffffffffffffffffffffffffffffff1681565b600080fd5b600080fd5b600080fd5b600080fd5b600080fd5b60008083601f84011261021c5761021b6101f7565b5b8235905067ffffffffffffffff811115610239576102386101fc565b5b60208301915083600182028301111561025557610254610201565b5b9250929050565b6000819050919050565b61026f8161025c565b811461027a57600080fd5b50565b60008135905061028c81610266565b92915050565b600080600080606085870312156102ac576102ab6101ed565b5b600085013567ffffffffffffffff8111156102ca576102c96101f2565b5b6102d687828801610206565b945094505060206102e98782880161027d565b92505060406102fa8782880161027d565b91505092959194509250565b60008115159050919050565b61031b81610306565b82525050565b60006020820190506103366000830184610312565b92915050565b600073ffffffffffffffffffffffffffffffffffffffff82169050919050565b6000819050919050565b600061038161037c6103778461033c565b61035c565b61033c565b9050919050565b600061039382610366565b9050919050565b60006103a582610388565b9050919050565b6103b58161039a565b82525050565b60006020820190506103d060008301846103ac565b92915050565b7f4e487b7100000000000000000000000000000000000000000000000000000000600052604160045260246000fd5b7f4e487b7100000000000000000000000000000000000000000000000000000000600052603260045260246000fd5b600082825260208201905092915050565b82818337600083830152505050565b6000601f19601f8301169050919050565b60006104718385610434565b935061047e838584610445565b61048783610454565b840190509392505050565b600081519050919050565b600082825260208201905092915050565b6000819050602082019050919050565b6000819050919050565b6104d1816104be565b82525050565b60006104e383836104c8565b60208301905092915050565b6000602082019050919050565b600061050782610492565b610511818561049d565b935061051c836104ae565b8060005b8381101561054d57815161053488826104d7565b975061053f836104ef565b925050600181019050610520565b5085935050505092915050565b60006040820190508181036000830152610575818587610465565b9050818103602083015261058981846104fc565b9050949350505050565b61059c81610306565b81146105a757600080fd5b50565b6000815190506105b981610593565b92915050565b6000602082840312156105d5576105d46101ed565b5b60006105e3848285016105aa565b9150509291505056fea2646970667358221220906c53600e0600188b06782274268e37a536a6aa0e0a3177f60ec567936810c164736f6c634300081c00336080604052348015600f57600080fd5b50617d7a8061001f6000396000f3fe608060405234801561001057600080fd5b506004361061002b5760003560e01c8063ea50d0e414610030575b600080fd5b61004a600480360381019061004591906171c5565b610060565b6040516100579190617261565b60405180910390f35b60008061006b6101db565b9050600061007987876101f0565b9050816040015185859050146100bb576040517ffa06659300000000000000000000000000000000000000000000000000000000815260040160405180910390fd5b60006100cd8287878660400151610e1d565b905061012d868680806020026020016040519081016040528093929190818152602001838360200280828437600081840152601f19601f820116905080830192505050505050508260600151836080015186600001518660400151610f1c565b816101800181815250506000610143838361101b565b90508061017c576040517f9fc3a21800000000000000000000000000000000000000000000000000000000815260040160405180910390fd5b6000610189848685611103565b9050806101c2576040517fa5d82e8a00000000000000000000000000000000000000000000000000000000815260040160405180910390fd5b8180156101cc5750805b95505050505050949350505050565b6101e3616987565b6101eb611d7a565b905090565b6101f8616b08565b610200616b08565b838360009060209261021493929190617286565b9061021f91906172e3565b60001c816000018181525050838360209060409261023f93929190617286565b9061024a91906172e3565b60001c816020018181525050838360409060609261026a93929190617286565b9061027591906172e3565b60001c816040018181525050604051806080016040528085856060906080926102a093929190617286565b906102ab91906172e3565b60001c8152602001858560809060a0926102c793929190617286565b906102d291906172e3565b60001c8152602001858560a09060c0926102ee93929190617286565b906102f991906172e3565b60001c8152602001858560c09060e09261031593929190617286565b9061032091906172e3565b60001c81525081606001819052506040518060800160405280858560e0906101009261034e93929190617286565b9061035991906172e3565b60001c81526020018585610100906101209261037793929190617286565b9061038291906172e3565b60001c8152602001858561012090610140926103a093929190617286565b906103ab91906172e3565b60001c8152602001858561014090610160926103c993929190617286565b906103d491906172e3565b60001c815250816080018190525060405180608001604052808585610160906101809261040393929190617286565b9061040e91906172e3565b60001c81526020018585610180906101a09261042c93929190617286565b9061043791906172e3565b60001c815260200185856101a0906101c09261045593929190617286565b9061046091906172e3565b60001c815260200185856101c0906101e09261047e93929190617286565b9061048991906172e3565b60001c8152508160a00181905250604051806080016040528085856101e090610200926104b893929190617286565b906104c391906172e3565b60001c8152602001858561020090610220926104e193929190617286565b906104ec91906172e3565b60001c81526020018585610220906102409261050a93929190617286565b9061051591906172e3565b60001c81526020018585610240906102609261053393929190617286565b9061053e91906172e3565b60001c81525081610100018190525060405180608001604052808585610260906102809261056e93929190617286565b9061057991906172e3565b60001c81526020018585610280906102a09261059793929190617286565b906105a291906172e3565b60001c815260200185856102a0906102c0926105c093929190617286565b906105cb91906172e3565b60001c815260200185856102c0906102e0926105e993929190617286565b906105f491906172e3565b60001c815250816101200181905250604051806080016040528085856102e0906103009261062493929190617286565b9061062f91906172e3565b60001c81526020018585610300906103209261064d93929190617286565b9061065891906172e3565b60001c81526020018585610320906103409261067693929190617286565b9061068191906172e3565b60001c81526020018585610340906103609261069f93929190617286565b906106aa91906172e3565b60001c8152508160c001819052506040518060800160405280858561036090610380926106d993929190617286565b906106e491906172e3565b60001c81526020018585610380906103a09261070293929190617286565b9061070d91906172e3565b60001c815260200185856103a0906103c09261072b93929190617286565b9061073691906172e3565b60001c815260200185856103c0906103e09261075493929190617286565b9061075f91906172e3565b60001c815250816101400181905250604051806080016040528085856103e0906104009261078f93929190617286565b9061079a91906172e3565b60001c8152602001858561040090610420926107b893929190617286565b906107c391906172e3565b60001c8152602001858561042090610440926107e193929190617286565b906107ec91906172e3565b60001c81526020018585610440906104609261080a93929190617286565b9061081591906172e3565b60001c8152508160e001819052506000610460905060005b601c8110156109125760006008602083610847919061737b565b610851919061737b565b8361085c91906173bd565b905060005b6008811015610903576000602082610879919061737b565b8361088491906173bd565b9050600060208261089591906173bd565b90506108bc8a8a849084926108ac93929190617286565b906108b791906172e3565b6126eb565b87610160015186601c81106108d4576108d36173f1565b5b602002015184600881106108eb576108ea6173f1565b5b60200201818152505050508080600101915050610861565b5050808060010191505061082d565b5060206008601c610923919061737b565b61092d919061737b565b8161093891906173bd565b905060005b602c8110156109c8576000602082610955919061737b565b8361096091906173bd565b9050600060208261097191906173bd565b905061099888888490849261098893929190617286565b9061099391906172e3565b6126eb565b85610180015184602c81106109b0576109af6173f1565b5b6020020181815250505050808060010191505061093d565b506020602c6109d7919061737b565b816109e291906173bd565b905060005b6001601c6109f59190617420565b811015610b3d576000608082610a0b919061737b565b83610a1691906173bd565b90506000602082610a2791906173bd565b905060008190506000602082610a3d91906173bd565b905060008190506000602082610a5391906173bd565b905060008190506000602082610a6991906173bd565b905060405180608001604052808f8f8b908b92610a8893929190617286565b90610a9391906172e3565b60001c81526020018f8f89908992610aad93929190617286565b90610ab891906172e3565b60001c81526020018f8f87908792610ad293929190617286565b90610add91906172e3565b60001c81526020018f8f85908592610af793929190617286565b90610b0291906172e3565b60001c8152508b6101a001518a601b8110610b2057610b1f6173f1565b5b6020020181905250505050505050505080806001019150506109e7565b5060806001601c610b4e9190617420565b610b58919061737b565b81610b6391906173bd565b905060005b601c811015610bf3576000602082610b80919061737b565b83610b8b91906173bd565b90506000602082610b9c91906173bd565b9050610bc3888884908492610bb393929190617286565b90610bbe91906172e3565b6126eb565b856101c0015184601c8110610bdb57610bda6173f1565b5b60200201818152505050508080600101915050610b68565b506020601c610c02919061737b565b81610c0d91906173bd565b9050604051806080016040528086868490602086610c2b91906173bd565b92610c3893929190617286565b90610c4391906172e3565b60001c81526020018686602085610c5a91906173bd565b90604086610c6891906173bd565b92610c7593929190617286565b90610c8091906172e3565b60001c81526020018686604085610c9791906173bd565b90606086610ca591906173bd565b92610cb293929190617286565b90610cbd91906172e3565b60001c81526020018686606085610cd491906173bd565b90608086610ce291906173bd565b92610cef93929190617286565b90610cfa91906172e3565b60001c815250826101e00181905250608081610d1691906173bd565b9050604051806080016040528086868490602086610d3491906173bd565b92610d4193929190617286565b90610d4c91906172e3565b60001c81526020018686602085610d6391906173bd565b90604086610d7191906173bd565b92610d7e93929190617286565b90610d8991906172e3565b60001c81526020018686604085610da091906173bd565b90606086610dae91906173bd565b92610dbb93929190617286565b90610dc691906172e3565b60001c81526020018686606085610ddd91906173bd565b90608086610deb91906173bd565b92610df893929190617286565b90610e0391906172e3565b60001c815250826102000181905250819250505092915050565b610e25616be0565b6000610e3386868686612723565b85600001866020018760400183975084815250848152508481525050505050610e5c8187612c0f565b84606001856080018295508381525083815250505050610e7c8187612e80565b8360a0018193508290525050610e91816131a4565b8360c0018193508290525050610ea78682613230565b8360e0018193508290525050610ebd868261335b565b8361010001819350828152505050610ed58682613430565b8361012001819350828152505050610eed8682613620565b8361014001819350828152505050610f0586826136f5565b836101600181935082815250505050949350505050565b600080600190506000600190506000610f5187610f4c8a610f47898b610f4291906173bd565b613807565b61383c565b613878565b90506000610f7c88610f778b610f7260018b610f6d91906173bd565b613807565b61383c565b6138b4565b905060005b6002811015611001576000610faf8c8381518110610fa257610fa16173f1565b5b60200260200101516126eb565b9050610fc486610fbf8684613878565b61383c565b9550610fd985610fd48584613878565b61383c565b9450610fe5848c613878565b9350610ff1838c6138b4565b9250508080600101915050610f81565b5061100c848461391b565b94505050505095945050505050565b60008060006001905060005b60128110156110de57600086610160015182601c811061104a576110496173f1565b5b60200201519050600061105d8286613937565b905080611096576040517f9fc3a21800000000000000000000000000000000000000000000000000000000815260040160405180910390fd5b60008760e0015184601c81106110af576110ae6173f1565b5b602002015190506110c08382613989565b95506110ce88868387613bd2565b9450505050806001019050611027565b5060006110ec868684613c25565b90506110f88184613cac565b935050505092915050565b600061110d616c5a565b600061111d846101200151613cb9565b9050611127616c89565b61112f616cac565b600061113b8785613d48565b9050611185816000601d8110611154576111536173f1565b5b6020020151611180896101400151846001601d8110611176576111756173f1565b5b602002015161383c565b613878565b8560000181815250506111ec61119f886101200151613e2c565b6111e7836000601d81106111b6576111b56173f1565b5b60200201516111e28b6101400151866001601d81106111d8576111d76173f1565b5b602002015161383c565b6138b4565b61383c565b8560200181815250506001836000604a811061120b5761120a6173f1565b5b602002018181525050611222896101e00151613ec3565b826000604a8110611236576112356173f1565b5b6020020181905250600185606001818152505060008560800181815250506000600190505b602381116113125761127d6112738760000151613f03565b876060015161383c565b8482604a81106112905761128f6173f1565b5b6020020181815250506112dc86608001516112d78c61018001516001856112b79190617420565b602c81106112c8576112c76173f1565b5b6020020151896060015161383c565b613878565b8660800181815250506112f8866060015189610100015161383c565b8660600181815250508061130b90617454565b905061125b565b5060006001602361132391906173bd565b90505b602c81116113dd5761134861133e8760200151613f03565b876060015161383c565b8482604a811061135b5761135a6173f1565b5b6020020181815250506113a786608001516113a28c61018001516001856113829190617420565b602c8110611393576113926173f1565b5b6020020151896060015161383c565b613878565b8660800181815250506113c3866060015189610100015161383c565b866060018181525050806113d690617454565b9050611326565b508760600151826001604a81106113f7576113f66173f1565b5b60200201819052508760800151826002604a8110611418576114176173f1565b5b60200201819052508760a00151826003604a8110611439576114386173f1565b5b60200201819052508760c00151826004604a811061145a576114596173f1565b5b60200201819052508760e00151826005604a811061147b5761147a6173f1565b5b6020020181905250876101000151826006604a811061149d5761149c6173f1565b5b6020020181905250876101200151826007604a81106114bf576114be6173f1565b5b6020020181905250876101400151826008604a81106114e1576114e06173f1565b5b6020020181905250876101800151826009604a8110611503576115026173f1565b5b602002018190525087610160015182600a604a8110611525576115246173f1565b5b6020020181905250876101a0015182600b604a8110611547576115466173f1565b5b6020020181905250876101c0015182600c604a8110611569576115686173f1565b5b6020020181905250876101e0015182600d604a811061158b5761158a6173f1565b5b602002018190525087610200015182600e604a81106115ad576115ac6173f1565b5b602002018190525087610220015182600f604a81106115cf576115ce6173f1565b5b6020020181905250876102400151826010604a81106115f1576115f06173f1565b5b6020020181905250876102600151826011604a8110611613576116126173f1565b5b6020020181905250876102800151826012604a8110611635576116346173f1565b5b6020020181905250876102a00151826013604a8110611657576116566173f1565b5b6020020181905250876102c00151826014604a8110611679576116786173f1565b5b6020020181905250876102e00151826015604a811061169b5761169a6173f1565b5b6020020181905250876103000151826016604a81106116bd576116bc6173f1565b5b6020020181905250876103200151826017604a81106116df576116de6173f1565b5b6020020181905250876103400151826018604a8110611701576117006173f1565b5b6020020181905250876103600151826019604a8110611723576117226173f1565b5b602002018190525087610380015182601a604a8110611745576117446173f1565b5b6020020181905250876103a0015182601b604a8110611767576117666173f1565b5b602002018190525061177c8960600151613ec3565b82601c604a81106117905761178f6173f1565b5b60200201819052506117a58960800151613ec3565b82601d604a81106117b9576117b86173f1565b5b60200201819052506117ce8960a00151613ec3565b82601e604a81106117e2576117e16173f1565b5b60200201819052506117f78960c00151613ec3565b82601f604a811061180b5761180a6173f1565b5b60200201819052506118208960e00151613ec3565b826020604a8110611834576118336173f1565b5b602002018190525061184a896101400151613ec3565b826021604a811061185e5761185d6173f1565b5b6020020181905250611874896101000151613ec3565b826022604a8110611888576118876173f1565b5b602002018190525061189e896101200151613ec3565b826023604a81106118b2576118b16173f1565b5b6020020181905250876103000151826024604a81106118d4576118d36173f1565b5b6020020181905250876103200151826025604a81106118f6576118f56173f1565b5b6020020181905250876103400151826026604a8110611918576119176173f1565b5b6020020181905250876103600151826027604a811061193a576119396173f1565b5b602002018190525061194f8960600151613ec3565b826028604a8110611963576119626173f1565b5b60200201819052506119788960800151613ec3565b826029604a811061198c5761198b6173f1565b5b60200201819052506119a18960a00151613ec3565b82602a604a81106119b5576119b46173f1565b5b60200201819052506119ca8960c00151613ec3565b82602b604a81106119de576119dd6173f1565b5b60200201819052506119f38960e00151613ec3565b82602c604a8110611a0757611a066173f1565b5b60200201819052506000856040018181525050611a28876101400151613f38565b85606001818152505060005b6001601c611a429190617420565b811015611b9f57600060016012611a599190617420565b8210159050600081611ad657611a96886060015185600286611a7b91906173bd565b601d8110611a8c57611a8b6173f1565b5b602002015161383c565b9050611aa181613f03565b86846001602c611ab191906173bd565b611abb91906173bd565b604a8110611acc57611acb6173f1565b5b6020020181815250505b611b158860400151611b10838f6101c00151600188611af591906173bd565b601c8110611b0657611b056173f1565b5b602002015161383c565b613878565b886040018181525050611b3188606001518b610140015161383c565b886060018181525050611b5f8c6101a0015184601b8110611b5557611b546173f1565b5b6020020151613ec3565b85846001602c611b6f91906173bd565b611b7991906173bd565b604a8110611b8a57611b896173f1565b5b60200201819052505050806001019050611a34565b506000611bb78887608001518c6101c0015188613f4b565b9050611be88660400151611be383856000601d8110611bd957611bd86173f1565b5b602002015161383c565b613878565b866040018181525050611c4b8660400151611c46611c288d6101c001516000601c8110611c1857611c176173f1565b5b60200201518c610140015161383c565b856001601d8110611c3c57611c3b6173f1565b5b602002015161383c565b613878565b866040018181525050604051806040016040528060018152602001600281525083601c602c611c7a91906173bd565b604a8110611c8b57611c8a6173f1565b5b6020020181905250856040015184601c602c611ca791906173bd565b604a8110611cb857611cb76173f1565b5b6020020181815250506000611cd18b6102000151613ec3565b905080846001601c602c611ce591906173bd565b611cef91906173bd565b604a8110611d0057611cff6173f1565b5b6020020181905250886101600151856001601c602c611d1f91906173bd565b611d2991906173bd565b604a8110611d3a57611d396173f1565b5b6020020181815250506000611d4f8587614081565b90506000611d5c8361414e565b9050611d6882826141c2565b99505050505050505050509392505050565b611d82616987565b6000604051806103c00160405280620400008152602001601281526020016002815260200160405180604001604052807f10873af40c9608f678a69c1a06ad4ab41d98a8286e49218360f12b85ece36ae281526020017f0607a2da2658276e624d5bfa21602933491a9c260cd9cc0aee5dd8e30d41ab4f815250815260200160405180604001604052807f157736420a0d167c15762806ef149a0c4d28e6d7f2c18c8244037b01ae1c826a81526020017f2ffda8a0c6dd33910522bf6a6a667c41c13c5c2e6085afac74ffb1c4ec203279815250815260200160405180604001604052807f1bbe09cd8a7ad1a16da7d9687bdedd41b709e679292baaa40499e2bcf0b4d75c81526020017f0c31d2bd0987f7383eeac16cf1f075b5f00c05291a9b6b7f65c01036894b373d815250815260200160405180604001604052807f19ed02ab39ed62c4f9c95f52049fd01470080429b362885672a3ecb4b013ffef81526020017f061551554b7e834ca0760750e14426ec27e95f0fcd8904e662762f8617f4d0f4815250815260200160405180604001604052807f1f4dda2e995abe91594841e78b060d3b3a2f886b7d4c2febdd24bdaf77bc7dd481526020017f1bac2e05b05878d14d12beb1adc45bcaba3d0e2af1307abf0cecbb401d64f61a815250815260200160405180604001604052807f1f047792d07e30d18ba56153fe8f5affa6cc808382557a2f2099da5fce0cd1e381526020017f21f42ab18718442e09463e0d9732cf09c80bc1b3c5c182f6553af421eea2ed12815250815260200160405180604001604052807f2d4e7cbbbd9ebe8536fdb5735ae20838c53ddce9e43b38e34c70e10b3be63de581526020017f03527de4205a08da76f5d3ff3ca4c836fce8d08552a7388977ae2c8fc5f4eb04815250815260200160405180604001604052807f09476da83cd2503c9f4f572a409601403e8272d61fa859e66c3e392c2ec818cd81526020017f069805f91d9642c12853b83c0e5ad902c248f1ace489a3fe5135c934de5be349815250815260200160405180604001604052807f0d2d77001b7637993a31fd404a8387856bdc72dc4bca5997a524678c16ecf2e781526020017f026bd1de60f4710d459f8f13ea837f073295d07fcc73e94310fa8e2795a49ee7815250815260200160405180604001604052807f02cf7a799c5155e8c8db2270248f4048a802331cb741afe5be71a0ae00f5a6d481526020017e3384aa6495959cad2ffc43ca70baa6050fd0abd32c90fe167f493036844d96815250815260200160405180604001604052807f079aa6883c2daa8e4d47374cd1138294d111eda00344bff5d56ff0cf1d49dcaf81526020017f0d54f43f43bb548c8206ca312f0acc180fe2a2b904df309a23758f8be4226d50815250815260200160405180604001604052807f07de740a97665e865ae113f4d5a361c9a987e31ee0731b6013b218edd311136481526020017f1a3c57bc8fca89a02547a42cc5669115567f47d026b8c1ca19f1ce39ec69cecc815250815260200160405180604001604052807f1a8ceb2043c9bf341d0fbe8c0a533bcbc389a922431f2d4289610d585597899781526020017f0c6e75386cbd0be4eca7af2134d8940d598d53bdf9660c3a4870c425f68d380b815250815260200160405180604001604052807f18b27c452deba83a6d3d0ae7185e766d59f212180611aef50f520bfb212facbc81526020017f2cede90ae63e10bc3eb7c97a8c0b4875f15c43ff48910b243ce9f09067d6a402815250815260200160405180604001604052807f06d9bfca61c0328d9adefe99df95baedc130597792426820eadecefef61f356781526020017f1c041daf02d5c16c63aad3d485022b682ca19984a9c6e1eb8725a98f4dce3d42815250815260200160405180604001604052807f1d9705f26bdcb8c6853bc95b10f5b891ee2811d0680c2487f94dcc0d5e0c2adb81526020017f0c55defb44ca30be61096b7431d20a2064e5fee56c8b91aaa572f56b39a0fc20815250815260200160405180604001604052807f210cd78f8abdf0dcc947f9fadd05aae669dae339997b18f0845a9d67c230302481526020017f252a0bb1a772d3ef9c33223420f77bc8e1617122752795fb671c84c477623444815250815260200160405180604001604052807f13bc217d58725b76f9d000250db272eda13a1bc29268657e4171a2be0b445cc981526020017f0e61c9e163d23b503b013202c67efb40191cbf93311d01fab00f58aa59eff8c2815250815260200160405180604001604052807f135fc20591e64da028dafaed1d439528071da81328f567ebcc0b4ab9baf732f581526020017f1bf786d9438cdf5109069397a30fde635dd23832cee1ff50955968ad4f7ad38c815250815260200160405180604001604052807f17a40a114bb76cc7d065272a0ca943926dc0c24879c0628a793a4624f668a10681526020017f1dabcacfa17c371d769c7446404080138314eef01aa47f5e1e5bc3b535bd435f815250815260200160405180604001604052807f1b79177d03efb9e36f6ce65beb8c9b8c9b968feda24cec54dae90044c9b89ac581526020017f0686b416b3456d69682abf17ba5c971474271bc2f1faeab689fcadeb08da6853815250815260200160405180604001604052807f2456f961d0b86605dcb817520567534f153aa0e6bcb19e20004a1f944fe3ea9481526020017ec777e267f596e3d7945765146a70c7248cb2032b82e73692b8e8d0bdccd606815250815260200160405180604001604052807f246fd4811f690574ddc55745590439a8f73455e78fdd3521d65c7e007e6b451e81526020017f132a30f5aa1d892595234280dd91b7728b3dadc7b72e58f2a95148f38ba2101e815250815260200160405180604001604052807f0181f12b41a00b4ee891ed5a942bfdbae834b4faf95ce9e9aaa9bd2500ce63dd81526020017e3cf62b76f6ccbf957b772b67ee10ba4b55c20ddad2c4cdb3fada2ed419cb4a815250815260200160405180604001604052807f14e915dde4eb0e38d4a05b2ed83873ae2feee46958c10439d8db62ac1382628a81526020017f262751bf31978e94767a6a0dae1ded7696f8cfa579020156f6be9e24ea2d639a81525081526020016040518060400160405280600181526020016002815250815260200160405180604001604052807f14e1195ffd01622d7634b09b688b1c0afde7ea6d975d546e435a3fb5cab11f8681526020017f2a68d60aa0ab708804b2bdfff3446f96c5446fe91f24e97decafe4095a0f4d2e81525081525090508091505090565b60007f30644e72e131a029b85045b68181585d2833e84879b9709143e1f593f00000018260001c61271c91906174cb565b9050919050565b6000806000806000600c86600361273a91906173bd565b61274491906173bd565b67ffffffffffffffff81111561275d5761275c6174fc565b5b60405190808252806020026020018201604052801561278b5781602001602082028036833780820191505090505b509050886000015160001b816000815181106127aa576127a96173f1565b5b602002602001018181525050886020015160001b816001815181106127d2576127d16173f1565b5b602002602001018181525050886040015160001b816002815181106127fa576127f96173f1565b5b60200260200101818152505060005b8681101561286357888882818110612824576128236173f1565b5b905060200201358282600361283991906173bd565b8151811061284a576128496173f1565b5b6020026020010181815250508080600101915050612809565b5088606001516000015160001b8187600361287e91906173bd565b8151811061288f5761288e6173f1565b5b60200260200101818152505088606001516020015160001b8160018860036128b791906173bd565b6128c191906173bd565b815181106128d2576128d16173f1565b5b60200260200101818152505088606001516040015160001b8160028860036128fa91906173bd565b61290491906173bd565b81518110612915576129146173f1565b5b60200260200101818152505088606001516060015160001b81600388600361293d91906173bd565b61294791906173bd565b81518110612958576129576173f1565b5b60200260200101818152505088608001516000015160001b81600488600361298091906173bd565b61298a91906173bd565b8151811061299b5761299a6173f1565b5b60200260200101818152505088608001516020015160001b8160058860036129c391906173bd565b6129cd91906173bd565b815181106129de576129dd6173f1565b5b60200260200101818152505088608001516040015160001b816006886003612a0691906173bd565b612a1091906173bd565b81518110612a2157612a206173f1565b5b60200260200101818152505088608001516060015160001b816007886003612a4991906173bd565b612a5391906173bd565b81518110612a6457612a636173f1565b5b6020026020010181815250508860a001516000015160001b816008886003612a8c91906173bd565b612a9691906173bd565b81518110612aa757612aa66173f1565b5b6020026020010181815250508860a001516020015160001b816009886003612acf91906173bd565b612ad991906173bd565b81518110612aea57612ae96173f1565b5b6020026020010181815250508860a001516040015160001b81600a886003612b1291906173bd565b612b1c91906173bd565b81518110612b2d57612b2c6173f1565b5b6020026020010181815250508860a001516060015160001b81600b886003612b5591906173bd565b612b5f91906173bd565b81518110612b7057612b6f6173f1565b5b602002602001018181525050612bab81604051602001612b9091906175e3565b604051602081830303815290604052805190602001206126eb565b9150612bb6826143a9565b8095508196505050612bed82604051602001612bd2919061761b565b604051602081830303815290604052805190602001206126eb565b91506000612bfa836143a9565b80925081955050505050945094509450949050565b6000806000612c1c616cda565b612c25866143f5565b816000600d8110612c3957612c386173f1565b5b6020020181815250508461010001516000015160001b816001600d8110612c6357612c626173f1565b5b6020020181815250508461010001516020015160001b816002600d8110612c8d57612c8c6173f1565b5b6020020181815250508461010001516040015160001b816003600d8110612cb757612cb66173f1565b5b6020020181815250508461010001516060015160001b816004600d8110612ce157612ce06173f1565b5b6020020181815250508461012001516000015160001b816005600d8110612d0b57612d0a6173f1565b5b6020020181815250508461012001516020015160001b816006600d8110612d3557612d346173f1565b5b6020020181815250508461012001516040015160001b816007600d8110612d5f57612d5e6173f1565b5b6020020181815250508461012001516060015160001b816008600d8110612d8957612d886173f1565b5b6020020181815250508460c001516000015160001b816009600d8110612db257612db16173f1565b5b6020020181815250508460c001516020015160001b81600a600d8110612ddb57612dda6173f1565b5b6020020181815250508460c001516040015160001b81600b600d8110612e0457612e036173f1565b5b6020020181815250508460c001516060015160001b81600c600d8110612e2d57612e2c6173f1565b5b602002018181525050612e6581604051602001612e4a91906176ba565b604051602081830303815290604052805190602001206126eb565b9150612e70826143a9565b8094508195505050509250925092565b612e88616cfd565b6000612e92616d20565b8481600060098110612ea757612ea66173f1565b5b6020020181815250508361014001516000015181600160098110612ece57612ecd6173f1565b5b6020020181815250508361014001516020015181600260098110612ef557612ef46173f1565b5b6020020181815250508361014001516040015181600360098110612f1c57612f1b6173f1565b5b6020020181815250508361014001516060015181600460098110612f4357612f426173f1565b5b6020020181815250508360e001516000015181600560098110612f6957612f686173f1565b5b6020020181815250508360e001516020015181600660098110612f8f57612f8e6173f1565b5b6020020181815250508360e001516040015181600760098110612fb557612fb46173f1565b5b6020020181815250508360e001516060015181600860098110612fdb57612fda6173f1565b5b60200201818152505061301381604051602001612ff89190617781565b604051602081830303815290604052805190602001206126eb565b915061301e826143a9565b84600060198110613032576130316173f1565b5b602002018560016019811061304a576130496173f1565b5b60200201828152508281525050506000600190505b6002601961306d919061779d565b811015613117576130a383604051602001613088919061761b565b604051602081830303815290604052805190602001206126eb565b92506130ae836143a9565b858360026130bc919061737b565b601981106130cd576130cc6173f1565b5b602002018660018560026130e1919061737b565b6130eb91906173bd565b601981106130fc576130fb6173f1565b5b6020020182815250828152505050808060010191505061305f565b5060018060191614801561312c575060026019115b1561319c5761316082604051602001613145919061761b565b604051602081830303815290604052805190602001206126eb565b9150600061316d836143a9565b856001601961317c9190617420565b6019811061318d5761318c6173f1565b5b60200201819350828152505050505b509250929050565b6131ac616d43565b600080600090505b601c811015613227576131ec846040516020016131d1919061761b565b604051602081830303815290604052805190602001206126eb565b935060006131f9856143a9565b8584601c811061320c5761320b6173f1565b5b602002018193508281525050505080806001019150506131b4565b50829050915091565b613238616d43565b600080600090505b601c81101561335057613251616d66565b8481600060098110613266576132656173f1565b5b60200201818152505060005b60088110156132e45786610160015183601c8110613293576132926173f1565b5b602002015181600881106132aa576132a96173f1565b5b6020020151826001836132bd91906173bd565b600981106132ce576132cd6173f1565b5b6020020181815250508080600101915050613272565b50613314816040516020016132f9919061789a565b604051602081830303815290604052805190602001206126eb565b94506000613321866143a9565b8685601c8110613334576133336173f1565b5b6020020181935082815250505050508080600101915050613240565b508290509250929050565b600080613366616d89565b83816000602d811061337b5761337a6173f1565b5b60200201818152505060005b602c8110156133e25785610180015181602c81106133a8576133a76173f1565b5b6020020151826001836133bb91906173bd565b602d81106133cc576133cb6173f1565b5b6020020181815250508080600101915050613387565b50613412816040516020016133f7919061793a565b604051602081830303815290604052805190602001206126eb565b9150600061341f836143a9565b809250819550505050509250929050565b60008061343b616dac565b83816000606d81106134505761344f6173f1565b5b60200201818152505060005b6001601c61346a9190617420565b8110156135d257856101a0015181601b8110613489576134886173f1565b5b602002015160000151826004836134a0919061737b565b60016134ac91906173bd565b606d81106134bd576134bc6173f1565b5b602002018181525050856101a0015181601b81106134de576134dd6173f1565b5b602002015160200151826004836134f5919061737b565b600261350191906173bd565b606d8110613512576135116173f1565b5b602002018181525050856101a0015181601b8110613533576135326173f1565b5b6020020151604001518260048361354a919061737b565b600361355691906173bd565b606d8110613567576135666173f1565b5b602002018181525050856101a0015181601b8110613588576135876173f1565b5b6020020151606001518260048361359f919061737b565b60046135ab91906173bd565b606d81106135bc576135bb6173f1565b5b602002018181525050808060010191505061345c565b50613602816040516020016135e791906179da565b604051602081830303815290604052805190602001206126eb565b9150600061360f836143a9565b809250819550505050509250929050565b60008061362b616dcf565b83816000601d81106136405761363f6173f1565b5b60200201818152505060005b601c8110156136a757856101c0015181601c811061366d5761366c6173f1565b5b60200201518260018361368091906173bd565b601d8110613691576136906173f1565b5b602002018181525050808060010191505061364c565b506136d7816040516020016136bc9190617a7a565b604051602081830303815290604052805190602001206126eb565b915060006136e4836143a9565b809250819550505050509250929050565b600080613700616df2565b8381600060058110613715576137146173f1565b5b602002018181525050846101e00151600001518160016005811061373c5761373b6173f1565b5b602002018181525050846101e001516020015181600260058110613763576137626173f1565b5b602002018181525050846101e00151604001518160036005811061378a576137896173f1565b5b602002018181525050846101e0015160600151816004600581106137b1576137b06173f1565b5b6020020181815250506137e9816040516020016137ce9190617b1a565b604051602081830303815290604052805190602001206126eb565b915060006137f6836143a9565b809250819550505050509250929050565b60007f30644e72e131a029b85045b68181585d2833e84879b9709143e1f593f00000018261383591906174cb565b9050919050565b60007f30644e72e131a029b85045b68181585d2833e84879b9709143e1f593f00000018061386d5761386c61749c565b5b828409905092915050565b60007f30644e72e131a029b85045b68181585d2833e84879b9709143e1f593f0000001806138a9576138a861749c565b5b828408905092915050565b60007f30644e72e131a029b85045b68181585d2833e84879b9709143e1f593f0000001806138e5576138e461749c565b5b827f30644e72e131a029b85045b68181585d2833e84879b9709143e1f593f00000016139119190617420565b8408905092915050565b600061392f8361392a84613e2c565b61383c565b905092915050565b60008061397484600060088110613951576139506173f1565b5b60200201518560016008811061396a576139696173f1565b5b6020020151613878565b90506139808184613cac565b91505092915050565b6000806040518061010001604052807f30644e72e131a029b85045b68181585d2833e84879b9709143e1f593efffec5181526020016102d081526020017f30644e72e131a029b85045b68181585d2833e84879b9709143e1f593efffff118152602001609081526020017f30644e72e131a029b85045b68181585d2833e84879b9709143e1f593efffff71815260200160f081526020017f30644e72e131a029b85045b68181585d2833e84879b9709143e1f593effffd3181526020016113b081525090506000604051806101000160405280600081526020016001815260200160028152602001600381526020016004815260200160058152602001600681526020016007815250905060006001905060005b6008811015613ac657613ab982613ab488846138b4565b61383c565b9150806001019050613a9d565b50613acf616e14565b60005b6008811015613b57576000858260088110613af057613aef6173f1565b5b60200201519050613b2181613b1c8a888660088110613b1257613b116173f1565b5b60200201516138b4565b61383c565b9050613b2c81613e2c565b905080838360088110613b4257613b416173f1565b5b60200201818152505050806001019050613ad2565b5060005b6008811015613bbb576000888260088110613b7957613b786173f1565b5b60200201519050613ba181848460088110613b9757613b966173f1565b5b602002015161383c565b9050613bad8782613878565b965050806001019050613b5b565b50613bc6858361383c565b94505050505092915050565b600080613c0e6001613c0986613c048a60c0015188601c8110613bf857613bf76173f1565b5b602002015160016138b4565b61383c565b613878565b9050613c1a858261383c565b915050949350505050565b6000808461018001519050613c38616e37565b613c43828286614402565b613c4f82868387614647565b613c5b82868387614944565b613c66828286614bea565b613c71828286614ec2565b613c7d8286838761530f565b613c88828286615fa9565b613c93828286616469565b613ca1818660a001516168bc565b925050509392505050565b6000818314905092915050565b613cc1616d43565b81816000601c8110613cd657613cd56173f1565b5b6020020181815250506000600190505b601c811015613d4257613d1b82600183613d009190617420565b601c8110613d1157613d106173f1565b5b6020020151613f38565b8282601c8110613d2e57613d2d6173f1565b5b602002018181525050806001019050613ce6565b50919050565b613d50616e5a565b60008361016001519050613d84613d7f82856000601c8110613d7557613d746173f1565b5b60200201516138b4565b613e2c565b826000601d8110613d9857613d976173f1565b5b60200201818152505060005b601c811015613e2457600060016012613dbd91906173bd565b8211613def57613dec613de7848785601c8110613ddd57613ddc6173f1565b5b6020020151613878565b613e2c565b90505b8084600184613dfe91906173bd565b601d8110613e0f57613e0e6173f1565b5b60200201818152505050806001019050613da4565b505092915050565b6000808290506000604051602081526020808201526020604082015282606082015260027f30644e72e131a029b85045b68181585d2833e84879b9709143e1f593f00000010360808201527f30644e72e131a029b85045b68181585d2833e84879b9709143e1f593f000000160a08201526020600060c08360055afa80613eb257600080fd5b600051925050508092505050919050565b613ecb616e7d565b604051806040016040528060888460200151901b846000015117815260200160888460600151901b8460400151178152509050919050565b6000817f30644e72e131a029b85045b68181585d2833e84879b9709143e1f593f0000001613f319190617420565b9050919050565b6000613f44828361383c565b9050919050565b600080601c90505b600081111561407557600083600183613f6c9190617420565b601c8110613f7d57613f7c6173f1565b5b6020020151905060008760e00151600184613f989190617420565b601c8110613fa957613fa86173f1565b5b60200201519050600086600185613fc09190617420565b601c8110613fd157613fd06173f1565b5b60200201519050600061401c613ff1613fea868c61383c565b600261383c565b6140178461401261400c8961400760018b6138b4565b61383c565b886138b4565b61383c565b6138b4565b905061404c8161404761404261403c8861403760018a6138b4565b61383c565b87613878565b613e2c565b61383c565b905060006012861190508061405f578199505b50505050508061406e90617b35565b9050613f53565b50839050949350505050565b614089616e7d565b60006002601c602c61409b91906173bd565b6140a591906173bd565b90506001604051855151604082015285516020015160608201528451608082015260408160606040840160075afa8216915060015b83811015614136576020810287016020820287018151516040850152815160200151606085015280516080850152604080850160606040870160075afa8516945060408460808660065afa8516945050506001810190506140da565b81518552602082015160208601525050505092915050565b614156616e7d565b7f30644e72e131a029b85045b68181585d97816a916871ca8d3c208c16d87cfd4782602001517f30644e72e131a029b85045b68181585d97816a916871ca8d3c208c16d87cfd476141a79190617420565b6141b191906174cb565b826020018181525050819050919050565b600080836000015184602001517f198e9393920d483a7260bfb731fb5d25f1aa493335a9e71297e485b7aef312c27f1800deef121f1e76426a00665e5c4479674322d4f75edadd46debd5cd992f6ed7f090689d0585ff075ec9e99ad690c3395bc4b313370b38ef355acdadcd122975b7f12c85ea5db8c6deb4aab71808dcb408fe3d1e7690c43d37b4ce6cc0166fa7daa886000015189602001517f260e01b251f6f1c7e7ff4e580791dee8ea51d87a358e038b4efe30fac09383c17f0118c4d5b837bcc2bc89b5b398b5974e9f5944073b32078b7e231fec938883b07f04fc6369f7110fe3d25156c1bb9a72859cf2a04641f99ba4ee413c80da6a5fe47f22febda3c0c0632a56475b4214e5615e11e6dd3f96e6cea2854a87d4dacc5e556040516020016142fc9c9b9a99989796959493929190617b5e565b6040516020818303038152906040529050600080600873ffffffffffffffffffffffffffffffffffffffff16836040516143369190617ca5565b600060405180830381855afa9150503d8060008114614371576040519150601f19603f3d011682016040523d82523d6000602084013e614376565b606091505b50915091506000818060200190518101906143919190617ce8565b905082801561439d5750805b94505050505092915050565b600080600083905060006fffffffffffffffffffffffffffffffff821690506000608083901c90506143dd8260001b6126eb565b94506143eb8160001b6126eb565b9350505050915091565b60008160001b9050919050565b600061440f846006616953565b905060007f183227397098d014dc2822db40c0ac2e9419f4243cdcb848a1f0fac9f80000009050600061448561447f6144498560036138b4565b61447a61446a61445a8b6000616953565b6144658c601c616953565b61383c565b6144758b601b616953565b61383c565b61383c565b8361383c565b90506145336145236145006144dd6144ba856144b56144a58d6002616953565b6144b08e601b616953565b61383c565b613878565b6144d86144c88c6003616953565b6144d38d601c616953565b61383c565b613878565b6144fb6144eb8b6004616953565b6144f68c601d616953565b61383c565b613878565b61451e61450e8a6005616953565b6145198b601e616953565b61383c565b613878565b61452e886001616953565b613878565b905061455c816145576145478660016138b4565b6145528a602a616953565b61383c565b613878565b9050614568818461383c565b9050614574818561383c565b905080856000601a811061458b5761458a6173f1565b5b602002018181525050505060006145dc6145cc6145bc6145ac88601b616953565b6145b789601e616953565b613878565b6145c7886027616953565b6138b4565b6145d7876000616953565b613878565b90506145f2816145ed8460026138b4565b61383c565b9050614608816146038460016138b4565b61383c565b9050614614818361383c565b9050614620818461383c565b905080846001601a8110614637576146366173f1565b5b6020020181815250505050505050565b600080600061468461467a61465d89601b616953565b61467561466b8b6011616953565b8a6060015161383c565b613878565b8760800151613878565b90506146c7816146c26146b861469b8b601c616953565b6146b36146a98d6012616953565b8c6060015161383c565b613878565b8960800151613878565b61383c565b905061470a816147056146fb6146de8b601d616953565b6146f66146ec8d6013616953565b8c6060015161383c565b613878565b8960800151613878565b61383c565b905061474d8161474861473e6147218b601e616953565b61473961472f8d6014616953565b8c6060015161383c565b613878565b8960800151613878565b61383c565b905080925050600061478d61478361476689601b616953565b61477e6147748b600d616953565b8a6060015161383c565b613878565b8760800151613878565b90506147d0816147cb6147c16147a48b601c616953565b6147bc6147b28d600e616953565b8c6060015161383c565b613878565b8960800151613878565b61383c565b90506148138161480e6148046147e78b601d616953565b6147ff6147f58d600f616953565b8c6060015161383c565b613878565b8960800151613878565b61383c565b90506148568161485161484761482a8b601e616953565b6148426148388d6010616953565b8c6060015161383c565b613878565b8960800151613878565b61383c565b905080915050600061488561487f61486f89601f616953565b61487a8a6019616953565b613878565b8461383c565b90506148c5816148c06148ba61489c8b602b616953565b6148b56148aa8d601a616953565b8c610180015161383c565b613878565b8561383c565b6138b4565b90506148d1818561383c565b905080856002601a81106148e8576148e76173f1565b5b60200201818152505050600061491b61491561490589601a616953565b6149108a602b616953565b61383c565b8561383c565b905080856003601a8110614932576149316173f1565b5b60200201818152505050505050505050565b6000806149bf6149a261498561496861495e8a6015616953565b8960800151613878565b6149806149768b6016616953565b8a6000015161383c565b613878565b61499d6149938a6017616953565b896020015161383c565b613878565b6149ba6149b0896018616953565b886040015161383c565b613878565b91506000614a016149de6149d489601b616953565b8860800151613878565b6149fc6149ec8a6003616953565b6149f78b6027616953565b61383c565b613878565b90506000614a36614a1389601c616953565b614a31614a218b6000616953565b614a2c8c6028616953565b61383c565b613878565b90506000614a6b614a488a601d616953565b614a66614a568c6001616953565b614a618d6029616953565b61383c565b613878565b9050614aba614a9d614a8a85614a85868d6000015161383c565b613878565b614a98848c6020015161383c565b613878565b614ab5614aab8c6004616953565b8b6040015161383c565b613878565b93505050506000614ad5614acf886020616953565b8461383c565b90506000614aed614ae7896020616953565b8461383c565b90506000614b35614b12614b028b6022616953565b614b0d8c600a616953565b613878565b614b30614b208c6022616953565b614b2b8d600a616953565b61383c565b6138b4565b90506000614b5f614b59614b49878961383c565b614b548d6020616953565b61383c565b836138b4565b9050614b6b818861383c565b90506000614b9f614b86614b808d600a616953565b8761383c565b614b9a614b948e6021616953565b8761383c565b6138b4565b905081896004601a8110614bb657614bb56173f1565b5b60200201818152505080896005601a8110614bd457614bd36173f1565b5b6020020181815250505050505050505050505050565b6000614bf8600060016138b4565b90506000614c08600060026138b4565b90506000614c18600060036138b4565b90506000614c3a614c2a88601c616953565b614c3589601b616953565b6138b4565b90506000614c5c614c4c89601d616953565b614c578a601c616953565b6138b4565b90506000614c7e614c6e8a601e616953565b614c798b601d616953565b6138b4565b90506000614ca0614c908b6027616953565b614c9b8c601e616953565b6138b4565b90506000849050614cba81614cb5878b613878565b61383c565b9050614ccf81614cca878a613878565b61383c565b9050614ce481614cdf8789613878565b61383c565b9050614cfa81614cf58d6007616953565b61383c565b9050614d06818a61383c565b9050808a6006601a8110614d1d57614d1c6173f1565b5b602002018181525050506000839050614d3f81614d3a868b613878565b61383c565b9050614d5481614d4f868a613878565b61383c565b9050614d6981614d648689613878565b61383c565b9050614d7f81614d7a8d6007616953565b61383c565b9050614d8b818a61383c565b9050808a6007601a8110614da257614da16173f1565b5b602002018181525050506000829050614dc481614dbf858b613878565b61383c565b9050614dd981614dd4858a613878565b61383c565b9050614dee81614de98589613878565b61383c565b9050614e0481614dff8d6007616953565b61383c565b9050614e10818a61383c565b9050808a6008601a8110614e2757614e266173f1565b5b602002018181525050506000819050614e4981614e44848b613878565b61383c565b9050614e5e81614e59848a613878565b61383c565b9050614e7381614e6e8489613878565b61383c565b9050614e8981614e848d6007616953565b61383c565b9050614e95818a61383c565b9050808a6009601a8110614eac57614eab6173f1565b5b6020020181815250505050505050505050505050565b614eca616e97565b614ed584601c616953565b816000018181525050614ee984601d616953565b816020018181525050614efd846027616953565b816040018181525050614f1184602a616953565b816060018181525050614f25846029616953565b816080018181525050614f39846028616953565b8160a00181815250506000614f4f856002616953565b90506000614f5e866000616953565b90506000614f74846040015185600001516138b4565b90506000614f8a8560200151866020015161383c565b905060008690506000614fa58760600151886060015161383c565b90506000614fc4614fbe89602001518a6060015161383c565b8861383c565b90506000614fe7614fdd8a60a001518b60400151613878565b8a60000151613878565b9050614ffc614ff6828861383c565b8761383c565b905061502361501d61501761501184876138b4565b886138b4565b84613878565b83613878565b9050615055615045615035838761383c565b6150408f6008616953565b61383c565b61505060018a6138b4565b61383c565b8b600a601a8110615069576150686173f1565b5b60200201818152505050505050600061508a86602001518760800151613878565b905060006150a961509f88606001518861383c565b88602001516138b4565b905060006150da6150ba848761383c565b6150d56150cf8b60a001518c600001516138b4565b8561383c565b613878565b905061510c6150fc6150ec838c61383c565b6150f78e6008616953565b61383c565b6151076001896138b4565b61383c565b8a600b601a81106151205761511f6173f1565b5b602002018181525050505050600061514661513c836011613878565b876000015161383c565b905060006151548384613878565b90506151608182613878565b9050600061516f83600961383c565b90506151a261519c61519661518c8b60a001518c60000151613878565b8b60000151613878565b8461383c565b826138b4565b8860c001818152505060006151d76151d16151c18b60c001518d61383c565b6151cc8f6008616953565b61383c565b8861383c565b90506151fb8b600a601a81106151f0576151ef6173f1565b5b602002015182613878565b8b600a601a811061520f5761520e6173f1565b5b60200201818152505050505050600061524a61524061523688600001518960000151613878565b8860000151613878565b876000015161383c565b9050600061529d61526c836152678a600001518b60a001516138b4565b61383c565b6152986152818a602001518b60200151613878565b6152938b602001518c60800151613878565b61383c565b6138b4565b90506152e689600b601a81106152b6576152b56173f1565b5b60200201516152e16152db6152cb858d61383c565b6152d68f6008616953565b61383c565b8861383c565b613878565b89600b601a81106152fa576152f96173f1565b5b60200201818152505050505050505050505050565b615317616ed4565b61535b61533861532887601b616953565b615333886028616953565b61383c565b615356615346886027616953565b61535189601c616953565b61383c565b613878565b8160000181815250506153bb6153ab61538861537888601b616953565b61538389601e616953565b61383c565b6153a661539689601c616953565b6153a18a601d616953565b61383c565b613878565b6153b6876029616953565b6138b4565b8160400181815250506153d7816040015160446001901b61383c565b8160400181815250506153f881604001516153f387602a616953565b6138b4565b81604001818152505061541381604001518260000151613878565b816040018181525050615434816040015161542f876005616953565b61383c565b816040018181525050615450816000015160446001901b61383c565b816000018181525050615484816000015161547f61546f886027616953565b61547a896028616953565b61383c565b613878565b81600001818152505080600001518160200181815250506154c681602001516154c16154b188601d616953565b6154bc89601e616953565b613878565b6138b4565b8160200181815250506154e781602001516154e2876004616953565b61383c565b8160200181815250508060000151816060018181525050615516816060015161551187601e616953565b613878565b81606001818152505061554a8160600151615545615535886029616953565b61554089602a616953565b613878565b6138b4565b81606001818152505061556b8160600151615566876000616953565b61383c565b816060018181525050600061559561558b83602001518460400151613878565b8360600151613878565b90506155ab816155a6886003616953565b61383c565b90506155c66155bb876028616953565b600e6001901b61383c565b8260800181815250506155e782608001516155e2886027616953565b613878565b8260800181815250506156038260800151600e6001901b61383c565b826080018181525050615624826080015161561f88601d616953565b613878565b8260800181815250506156408260800151600e6001901b61383c565b826080018181525050615661826080015161565c88601c616953565b613878565b82608001818152505061567d8260800151600e6001901b61383c565b82608001818152505061569e826080015161569988601b616953565b613878565b8260800181815250506156bf82608001516156ba88601e616953565b6138b4565b8260800181815250506156e082608001516156db886005616953565b61383c565b8260800181815250506157026156f7876029616953565b600e6001901b61383c565b8260a00181815250506157238260a0015161571e886028616953565b613878565b8260a001818152505061573f8260a00151600e6001901b61383c565b8260a00181815250506157608260a0015161575b886027616953565b613878565b8260a001818152505061577c8260a00151600e6001901b61383c565b8260a001818152505061579d8260a0015161579888601e616953565b613878565b8260a00181815250506157b98260a00151600e6001901b61383c565b8260a00181815250506157da8260a001516157d588601d616953565b613878565b8260a00181815250506157fb8260a001516157f688602a616953565b6138b4565b8260a001818152505061581c8260a00151615817886000616953565b61383c565b8260a0018181525050600061583983608001518460a00151613878565b905061584f8161584a896004616953565b61383c565b905061586961585f88601d616953565b876040015161383c565b8360c00181815250506158978360c001516158926158888a601c616953565b896020015161383c565b613878565b8360c00181815250506158c58360c001516158c06158b68a601b616953565b896000015161383c565b613878565b8360c00181815250506158e68360c001516158e1896001616953565b613878565b8360c00181815250508260c001518360e00181815250506159158360c0015161591089601e616953565b6138b4565b8360c001818152505061593c61592c886027616953565b61593789601b616953565b6138b4565b8361014001818152505061596461595488602a616953565b61595f89601e616953565b6138b4565b8361012001818152505061599061598584610140015185610140015161383c565b8461014001516138b4565b836102800181815250506159ed6159e26159db85610140015160017f30644e72e131a029b85045b68181585d2833e84879b9709143e1f593f00000016159d69190617420565b61383c565b6001613878565b84610120015161383c565b83610160018181525050615a3f615a26846101600151615a21615a118b6002616953565b615a1c8c6003616953565b61383c565b61383c565b615a3a615a348a6009616953565b8761383c565b61383c565b85600d601a8110615a5357615a526173f1565b5b602002018181525050615aa4615a8b846102800151615a86615a768b6002616953565b615a818c6003616953565b61383c565b61383c565b615a9f615a998a6009616953565b8761383c565b61383c565b85600e601a8110615ab857615ab76173f1565b5b602002018181525050615aec8360c00151615ae7615ad78a6002616953565b615ae28b6003616953565b61383c565b61383c565b836101e00181815250506000615b10615b0689601e616953565b8560e001516138b4565b9050615b25615b1f828361383c565b826138b4565b846101a0018181525050615b47615b3d896029616953565b886040015161383c565b84610100018181525050615b77846101000151615b72615b688b6028616953565b8a6020015161383c565b613878565b84610100018181525050615ba7846101000151615ba2615b988b6027616953565b8a6000015161383c565b613878565b84610100018181525050615bca615bbf89602a616953565b8561010001516138b4565b846101000181815250506000615bf4615be48a6029616953565b615bef8b601d616953565b6138b4565b9050615c91615c47615c41615c3a88610140015160017f30644e72e131a029b85045b68181585d2833e84879b9709143e1f593f0000001615c359190617420565b61383c565b6001613878565b8361383c565b615c8c615c8588610100015160017f30644e72e131a029b85045b68181585d2833e84879b9709143e1f593f0000001615c809190617420565b61383c565b6001613878565b61383c565b85610180018181525050615cbd615cb286610100015187610100015161383c565b8661010001516138b4565b856101c0018181525050615cfc615ce3866101800151615cde8c6006616953565b61383c565b615cf7615cf18c6009616953565b8961383c565b61383c565b87600f601a8110615d1057615d0f6173f1565b5b602002018181525050615d4e615d35866102800151615d308c6006616953565b61383c565b615d49615d438c6009616953565b8961383c565b61383c565b876010601a8110615d6257615d616173f1565b5b602002018181525050615da0615d87866101c00151615d828c6006616953565b61383c565b615d9b615d958c6009616953565b8961383c565b61383c565b876011601a8110615db457615db36173f1565b5b602002018181525050615dd6856101a00151615dd18b6006616953565b61383c565b85610200018181525050615dfe615dee8a6028616953565b615df98b601c616953565b6138b4565b85610220018181525050615e6e615e5e615e53615e4c88610140015160017f30644e72e131a029b85045b68181585d2833e84879b9709143e1f593f0000001615e479190617420565b61383c565b6001613878565b87610220015161383c565b615e698b601d616953565b6138b4565b85610240018181525050846101e0015185610260018181525050615ec2856102600151615ebd876102400151615eb8615ea88e6005616953565b615eb38f6002616953565b61383c565b61383c565b613878565b85610260018181525050615f05856102600151615f008760c00151615efb615eeb8e6000616953565b615ef68f6002616953565b61383c565b61383c565b613878565b85610260018181525050615f23856102600151866102000151613878565b85610260018181525050615f45615f3f86610260015186613878565b84613878565b856102a0018181525050615f71856102a00151615f6c615f668c6009616953565b8961383c565b61383c565b856102a0018181525050846102a0015187600c601a8110615f9557615f946173f1565b5b602002018181525050505050505050505050565b615fb1616f7b565b615fcf615fbf85601b616953565b615fca866002616953565b613878565b816000018181525050615ff6615fe685601c616953565b615ff1866003616953565b613878565b81602001818152505061601d61600d85601d616953565b616018866004616953565b613878565b81604001818152505061604461603485601e616953565b61603f866005616953565b613878565b81606001818152505061608661607c6160726160688460000151856000015161383c565b846000015161383c565b836000015161383c565b826000015161383c565b8160800181815250506160c86160be6160b46160aa8460200151856020015161383c565b846020015161383c565b836020015161383c565b826020015161383c565b8160a001818152505061610a6161006160f66160ec8460400151856040015161383c565b846040015161383c565b836040015161383c565b826040015161383c565b8160c001818152505061614c61614261613861612e8460600151856060015161383c565b846060015161383c565b836060015161383c565b826060015161383c565b8160e001818152505061616781608001518260a00151613878565b816101000181815250506161838160c001518260e00151613878565b816101200181815250506161ad6161a28260a001518360a00151613878565b826101200151613878565b816101400181815250506161d76161cc8260e001518360e00151613878565b826101000151613878565b816101600181815250506161f5816101200151826101200151613878565b816101e0018181525050616221616216826101e00151836101e00151613878565b826101600151613878565b816101e001818152505061623f816101000151826101000151613878565b816101a001818152505061626b616260826101a00151836101a00151613878565b826101400151613878565b816101a0018181525050616289816101600151826101a00151613878565b816101800181815250506162a7816101400151826101e00151613878565b816101c00181815250506162c56162bf85600b616953565b8361383c565b81610200018181525050616317836012601a81106162e6576162e56173f1565b5b602002015161631283610200015161630d8561018001516163088a6027616953565b6138b4565b61383c565b613878565b836012601a811061632b5761632a6173f1565b5b60200201818152505061637c836013601a811061634b5761634a6173f1565b5b6020020151616377836102000151616372856101a0015161636d8a6028616953565b6138b4565b61383c565b613878565b836013601a81106163905761638f6173f1565b5b6020020181815250506163e1836014601a81106163b0576163af6173f1565b5b60200201516163dc8361020001516163d7856101c001516163d28a6029616953565b6138b4565b61383c565b613878565b836014601a81106163f5576163f46173f1565b5b602002018181525050616446836015601a8110616415576164146173f1565b5b602002015161644183610200015161643c856101e001516164378a602a616953565b6138b4565b61383c565b613878565b836015601a811061645a576164596173f1565b5b60200201818152505050505050565b616471616fff565b600060405180608001604052806164a77f10dc6e9c006ea38b04b1e03b4bd9490c0d03f98929ca1d7fb56821fd19d3b6e7613807565b81526020016164d57f0c28145b6a44df3e0149b3d0a30b3bb599df9756d4dd9b84a86b38cfb45a740b613807565b81526020016165027e544b8338791518b2c7645a50392798b21f75bb60e3596170067d00141cac15613807565b81526020016165307f222c01175718386f2e2e82eb122789e352e105a3b8fa852613bc534433ee428b613807565b815250905061655361654386601b616953565b61654e876002616953565b613878565b8261012001818152505061659b61659061658561657a85610120015186610120015161383c565b85610120015161383c565b84610120015161383c565b83610120015161383c565b8260000181815250506165af85601c616953565b8260200181815250506165c385601d616953565b8260400181815250506165d785601e616953565b82606001818152505061660c6166026165f884600001518560200151613878565b8460400151613878565b8360600151613878565b82608001818152505061662961662386600c616953565b8461383c565b8261014001818152505061666661665c836000015183600060048110616652576166516173f1565b5b602002015161383c565b8360800151613878565b8260a00181815250506166b6846016601a8110616686576166856173f1565b5b60200201516166b18461014001516166ac8660a001516166a78b6027616953565b6138b4565b61383c565b613878565b846016601a81106166ca576166c96173f1565b5b6020020181815250506167066166fc8360200151836001600481106166f2576166f16173f1565b5b602002015161383c565b8360800151613878565b8260c0018181525050616756846017601a8110616726576167256173f1565b5b602002015161675184610140015161674c8660c001516167478b6028616953565b6138b4565b61383c565b613878565b846017601a811061676a576167696173f1565b5b6020020181815250506167a661679c836040015183600260048110616792576167916173f1565b5b602002015161383c565b8360800151613878565b8260e00181815250506167f6846018601a81106167c6576167c56173f1565b5b60200201516167f18461014001516167ec8660e001516167e78b6029616953565b6138b4565b61383c565b613878565b846018601a811061680a576168096173f1565b5b60200201818152505061684661683c836060015183600360048110616832576168316173f1565b5b602002015161383c565b8360800151613878565b82610100018181525050616898846019601a8110616867576168666173f1565b5b602002015161689384610140015161688e8661010001516168898b602a616953565b6138b4565b61383c565b613878565b846019601a81106168ac576168ab6173f1565b5b6020020181815250505050505050565b60006168e081846000601a81106168d6576168d56173f1565b5b6020020151613878565b90506000600190505b601a81101561694c5761693f8261693a8684601a811061690c5761690b6173f1565b5b60200201518660018661691f9190617420565b601981106169305761692f6173f1565b5b602002015161383c565b613878565b91508060010190506168e9565b5092915050565b60008282602b81111561696957616968617d15565b5b602c811061697a576169796173f1565b5b6020020151905092915050565b604051806103c001604052806000815260200160008152602001600081526020016169b0616e7d565b81526020016169bd616e7d565b81526020016169ca616e7d565b81526020016169d7616e7d565b81526020016169e4616e7d565b81526020016169f1616e7d565b81526020016169fe616e7d565b8152602001616a0b616e7d565b8152602001616a18616e7d565b8152602001616a25616e7d565b8152602001616a32616e7d565b8152602001616a3f616e7d565b8152602001616a4c616e7d565b8152602001616a59616e7d565b8152602001616a66616e7d565b8152602001616a73616e7d565b8152602001616a80616e7d565b8152602001616a8d616e7d565b8152602001616a9a616e7d565b8152602001616aa7616e7d565b8152602001616ab4616e7d565b8152602001616ac1616e7d565b8152602001616ace616e7d565b8152602001616adb616e7d565b8152602001616ae8616e7d565b8152602001616af5616e7d565b8152602001616b02616e7d565b81525090565b604051806102200160405280600081526020016000815260200160008152602001616b31617059565b8152602001616b3e617059565b8152602001616b4b617059565b8152602001616b58617059565b8152602001616b65617059565b8152602001616b72617059565b8152602001616b7f617059565b8152602001616b8c617059565b8152602001616b99617081565b8152602001616ba66170af565b8152602001616bb36170d2565b8152602001616bc0616d43565b8152602001616bcd617059565b8152602001616bda617059565b81525090565b604051806101a001604052806000815260200160008152602001600081526020016000815260200160008152602001616c17616cfd565b8152602001616c24616d43565b8152602001616c31616d43565b815260200160008152602001600081526020016000815260200160008152602001600081525090565b6040518060a0016040528060008152602001600081526020016000815260200160008152602001600081525090565b604051806109400160405280604a90602082028036833780820191505090505090565b604051806109400160405280604a905b616cc4616e7d565b815260200190600190039081616cbc5790505090565b604051806101a00160405280600d90602082028036833780820191505090505090565b604051806103200160405280601990602082028036833780820191505090505090565b604051806101200160405280600990602082028036833780820191505090505090565b604051806103800160405280601c90602082028036833780820191505090505090565b604051806101200160405280600990602082028036833780820191505090505090565b604051806105a00160405280602d90602082028036833780820191505090505090565b60405180610da00160405280606d90602082028036833780820191505090505090565b604051806103a00160405280601d90602082028036833780820191505090505090565b6040518060a00160405280600590602082028036833780820191505090505090565b604051806101000160405280600890602082028036833780820191505090505090565b604051806103400160405280601a90602082028036833780820191505090505090565b604051806103a00160405280601d90602082028036833780820191505090505090565b604051806040016040528060008152602001600081525090565b6040518060e00160405280600081526020016000815260200160008152602001600081526020016000815260200160008152602001600081525090565b604051806102c00160405280600081526020016000815260200160008152602001600081526020016000815260200160008152602001600081526020016000815260200160008152602001600081526020016000815260200160008152602001600081526020016000815260200160008152602001600081526020016000815260200160008152602001600081526020016000815260200160008152602001600081525090565b60405180610220016040528060008152602001600081526020016000815260200160008152602001600081526020016000815260200160008152602001600081526020016000815260200160008152602001600081526020016000815260200160008152602001600081526020016000815260200160008152602001600081525090565b60405180610160016040528060008152602001600081526020016000815260200160008152602001600081526020016000815260200160008152602001600081526020016000815260200160008152602001600081525090565b6040518060800160405280600081526020016000815260200160008152602001600081525090565b604051806103800160405280601c905b617099616e14565b8152602001906001900390816170915790505090565b604051806105800160405280602c90602082028036833780820191505090505090565b604051806103600160405280601b905b6170ea617059565b8152602001906001900390816170e25790505090565b600080fd5b600080fd5b600080fd5b600080fd5b600080fd5b60008083601f84011261712f5761712e61710a565b5b8235905067ffffffffffffffff81111561714c5761714b61710f565b5b60208301915083600182028301111561716857617167617114565b5b9250929050565b60008083601f8401126171855761718461710a565b5b8235905067ffffffffffffffff8111156171a2576171a161710f565b5b6020830191508360208202830111156171be576171bd617114565b5b9250929050565b600080600080604085870312156171df576171de617100565b5b600085013567ffffffffffffffff8111156171fd576171fc617105565b5b61720987828801617119565b9450945050602085013567ffffffffffffffff81111561722c5761722b617105565b5b6172388782880161716f565b925092505092959194509250565b60008115159050919050565b61725b81617246565b82525050565b60006020820190506172766000830184617252565b92915050565b600080fd5b600080fd5b6000808585111561729a5761729961727c565b5b838611156172ab576172aa617281565b5b6001850283019150848603905094509492505050565b600082905092915050565b6000819050919050565b600082821b905092915050565b60006172ef83836172c1565b826172fa81356172cc565b9250602082101561733a576173357fffffffffffffffffffffffffffffffffffffffffffffffffffffffffffffffff836020036008026172d6565b831692505b505092915050565b6000819050919050565b7f4e487b7100000000000000000000000000000000000000000000000000000000600052601160045260246000fd5b600061738682617342565b915061739183617342565b925082820261739f81617342565b915082820484148315176173b6576173b561734c565b5b5092915050565b60006173c882617342565b91506173d383617342565b92508282019050808211156173eb576173ea61734c565b5b92915050565b7f4e487b7100000000000000000000000000000000000000000000000000000000600052603260045260246000fd5b600061742b82617342565b915061743683617342565b925082820390508181111561744e5761744d61734c565b5b92915050565b600061745f82617342565b91507fffffffffffffffffffffffffffffffffffffffffffffffffffffffffffffffff82036174915761749061734c565b5b600182019050919050565b7f4e487b7100000000000000000000000000000000000000000000000000000000600052601260045260246000fd5b60006174d682617342565b91506174e183617342565b9250826174f1576174f061749c565b5b828206905092915050565b7f4e487b7100000000000000000000000000000000000000000000000000000000600052604160045260246000fd5b600081519050919050565b600081905092915050565b6000819050602082019050919050565b61755a816172cc565b82525050565b600061756c8383617551565b60208301905092915050565b6000602082019050919050565b60006175908261752b565b61759a8185617536565b93506175a583617541565b8060005b838110156175d65781516175bd8882617560565b97506175c883617578565b9250506001810190506175a9565b5085935050505092915050565b60006175ef8284617585565b915081905092915050565b6000819050919050565b61761561761082617342565b6175fa565b82525050565b60006176278284617604565b60208201915081905092915050565b6000600d9050919050565b600081905092915050565b6000819050919050565b6000602082019050919050565b61766c81617636565b6176768184617641565b92506176818261764c565b8060005b838110156176b25781516176998782617560565b96506176a483617656565b925050600181019050617685565b505050505050565b60006176c68284617663565b6101a08201915081905092915050565b600060099050919050565b600081905092915050565b6000819050919050565b6176ff81617342565b82525050565b600061771183836176f6565b60208301905092915050565b6000602082019050919050565b617733816176d6565b61773d81846176e1565b9250617748826176ec565b8060005b838110156177795781516177608782617705565b965061776b8361771d565b92505060018101905061774c565b505050505050565b600061778d828461772a565b6101208201915081905092915050565b60006177a882617342565b91506177b383617342565b9250826177c3576177c261749c565b5b828204905092915050565b600060099050919050565b6000819050919050565b6000819050919050565b60006178086178036177fe84617342565b6177e3565b617342565b9050919050565b617818816177ed565b82525050565b600061782a838361780f565b60208301905092915050565b6000602082019050919050565b61784c816177ce565b61785681846176e1565b9250617861826177d9565b8060005b83811015617892578151617879878261781e565b965061788483617836565b925050600181019050617865565b505050505050565b60006178a68284617843565b6101208201915081905092915050565b6000602d9050919050565b600081905092915050565b6000819050919050565b6000602082019050919050565b6178ec816178b6565b6178f681846178c1565b9250617901826178cc565b8060005b83811015617932578151617919878261781e565b9650617924836178d6565b925050600181019050617905565b505050505050565b600061794682846178e3565b6105a08201915081905092915050565b6000606d9050919050565b600081905092915050565b6000819050919050565b6000602082019050919050565b61798c81617956565b6179968184617961565b92506179a18261796c565b8060005b838110156179d25781516179b98782617705565b96506179c483617976565b9250506001810190506179a5565b505050505050565b60006179e68284617983565b610da08201915081905092915050565b6000601d9050919050565b600081905092915050565b6000819050919050565b6000602082019050919050565b617a2c816179f6565b617a368184617a01565b9250617a4182617a0c565b8060005b83811015617a72578151617a598782617705565b9650617a6483617a16565b925050600181019050617a45565b505050505050565b6000617a868284617a23565b6103a08201915081905092915050565b600060059050919050565b600081905092915050565b6000819050919050565b6000602082019050919050565b617acc81617a96565b617ad68184617aa1565b9250617ae182617aac565b8060005b83811015617b12578151617af98782617705565b9650617b0483617ab6565b925050600181019050617ae5565b505050505050565b6000617b268284617ac3565b60a08201915081905092915050565b6000617b4082617342565b915060008203617b5357617b5261734c565b5b600182039050919050565b6000617b6a828f617604565b602082019150617b7a828e617604565b602082019150617b8a828d617604565b602082019150617b9a828c617604565b602082019150617baa828b617604565b602082019150617bba828a617604565b602082019150617bca8289617604565b602082019150617bda8288617604565b602082019150617bea8287617604565b602082019150617bfa8286617604565b602082019150617c0a8285617604565b602082019150617c1a8284617604565b6020820191508190509d9c50505050505050505050505050565b600081519050919050565b600081905092915050565b60005b83811015617c68578082015181840152602081019050617c4d565b60008484015250505050565b6000617c7f82617c34565b617c898185617c3f565b9350617c99818560208601617c4a565b80840191505092915050565b6000617cb18284617c74565b915081905092915050565b617cc581617246565b8114617cd057600080fd5b50565b600081519050617ce281617cbc565b92915050565b600060208284031215617cfe57617cfd617100565b5b6000617d0c84828501617cd3565b91505092915050565b7f4e487b7100000000000000000000000000000000000000000000000000000000600052602160045260246000fdfea2646970667358221220f236808752bdc525472b6251415cbebcc7443b0c310377c840d6c58de5a46d5d64736f6c634300081c0033",
  "linkReferences": {},
  "deployedLinkReferences": {}
}