{"contracts/TestContract.sol":{"VerifierTest":{"abi":[{"inputs":[],"name":"verifier","outputs":[{"internalType":"contract HonkVerifier","name":"","type":"address"}],"stateMutability":"view","type":"function"},{"inputs":[{"internalType":"bytes","name":"_proof","type":"bytes"},{"internalType":"uint256","name":"_pubkey","type":"uint256"},{"internalType":"uint256","name":"_nullifier","type":"uint256"}],"name":"verify","outputs":[{"internalType":"bool","name":"","type":"bool"}],"stateMutability":"view","type":"function"}],"evm":{"bytecode":{"linkReferences":{},"object":"6080604052604051600e906079565b604051809103906000f0801580156029573d6000803e3d6000fd5b506000806101000a81548173ffffffffffffffffffffffffffffffffffffffff021916908373ffffffffffffffffffffffffffffffffffffffff160217905550348015607457600080fd5b506086565b617d99806106b783390190565b610622806100956000396000f3fe608060405234801561001057600080fd5b50600436106100365760003560e01c8063198e744a1461003b5780632b7ac3f31461006b575b600080fd5b61005560048036038101906100509190610292565b610089565b6040516100629190610321565b60405180910390f35b6100736101c9565b60405161008091906103bb565b60405180910390f35b600080600267ffffffffffffffff8111156100a7576100a66103d6565b5b6040519080825280602002602001820160405280156100d55781602001602082028036833780820191505090505b5090508360001b816000815181106100f0576100ef610405565b5b6020026020010181815250508260001b8160018151811061011457610113610405565b5b60200260200101818152505060008054906101000a900473ffffffffffffffffffffffffffffffffffffffff1673ffffffffffffffffffffffffffffffffffffffff1663ea50d0e48787846040518463ffffffff1660e01b815260040161017d9392919061055a565b602060405180830381865afa15801561019a573d6000803e3d6000fd5b505050506040513d601f19601f820116820180604052508101906101be91906105bf565b915050949350505050565b60008054906101000a900473ffffffffffffffffffffffffffffffffffffffff1681565b600080fd5b600080fd5b600080fd5b600080fd5b600080fd5b60008083601f84011261021c5761021b6101f7565b5b8235905067ffffffffffffffff811115610239576102386101fc565b5b60208301915083600182028301111561025557610254610201565b5b9250929050565b6000819050919050565b61026f8161025c565b811461027a57600080fd5b50565b60008135905061028c81610266565b92915050565b600080600080606085870312156102ac576102ab6101ed565b5b600085013567ffffffffffffffff8111156102ca576102c96101f2565b5b6102d687828801610206565b945094505060206102e98782880161027d565b92505060406102fa8782880161027d565b91505092959194509250565b60008115159050919050565b61031b81610306565b82525050565b60006020820190506103366000830184610312565b92915050565b600073ffffffffffffffffffffffffffffffffffffffff82169050919050565b6000819050919050565b600061038161037c6103778461033c565b61035c565b61033c565b9050919050565b600061039382610366565b9050919050565b60006103a582610388565b9050919050565b6103b58161039a565b82525050565b60006020820190506103d060008301846103ac565b92915050565b7f4e487b7100000000000000000000000000000000000000000000000000000000600052604160045260246000fd5b7f4e487b7100000000000000000000000000000000000000000000000000000000600052603260045260246000fd5b600082825260208201905092915050565b82818337600083830152505050565b6000601f19601f8301169050919050565b60006104718385610434565b935061047e838584610445565b61048783610454565b840190509392505050565b600081519050919050565b600082825260208201905092915050565b6000819050602082019050919050565b6000819050919050565b6104d1816104be565b82525050565b60006104e383836104c8565b60208301905092915050565b6000602082019050919050565b600061050782610492565b610511818561049d565b935061051c836104ae565b8060005b8381101561054d57815161053488826104d7565b975061053f836104ef565b925050600181019050610520565b5085935050505092915050565b60006040820190508181036000830152610575818587610465565b9050818103602083015261058981846104fc565b9050949350505050565b61059c81610306565b81146105a757600080fd5b50565b6000815190506105b981610593565b92915050565b6000602082840312156105d5576105d46101ed565b5b60006105e3848285016105aa565b9150509291505056fea2646970667358221220906c53600e0600188b06782274268e37a536a6aa0e0a3177f60ec567936810c164736f6c634300081c00336080604052348015600f57600080fd5b50617d7a8061001f6000396000f3fe608060405234801561001057600080fd5b506004361061002b5760003560e01c8063ea50d0e414610030575b600080fd5b61004a600480360381019061004591906171c5565b610060565b6040516100579190617261565b60405180910390f35b60008061006b6101db565b9050600061007987876101f0565b9050816040015185859050146100bb576040517ffa06659300000000000000000000000000000000000000000000000000000000815260040160405180910390fd5b60006100cd8287878660400151610e1d565b905061012d868680806020026020016040519081016040528093929190818152602001838360200280828437600081840152601f19601f820116905080830192505050505050508260600151836080015186600001518660400151610f1c565b816101800181815250506000610143838361101b565b90508061017c576040517f9fc3a21800000000000000000000000000000000000000000000000000000000815260040160405180910390fd5b6000610189848685611103565b9050806101c2576040517fa5d82e8a00000000000000000000000000000000000000000000000000000000815260040160405180910390fd5b8180156101cc5750805b95505050505050949350505050565b6101e3616987565b6101eb611d7a565b905090565b6101f8616b08565b610200616b08565b838360009060209261021493929190617286565b9061021f91906172e3565b60001c816000018181525050838360209060409261023f93929190617286565b9061024a91906172e3565b60001c816020018181525050838360409060609261026a93929190617286565b9061027591906172e3565b60001c816040018181525050604051806080016040528085856060906080926102a093929190617286565b906102ab91906172e3565b60001c8152602001858560809060a0926102c793929190617286565b906102d291906172e3565b60001c8152602001858560a09060c0926102ee93929190617286565b906102f991906172e3565b60001c8152602001858560c09060e09261031593929190617286565b9061032091906172e3565b60001c81525081606001819052506040518060800160405280858560e0906101009261034e93929190617286565b9061035991906172e3565b60001c81526020018585610100906101209261037793929190617286565b9061038291906172e3565b60001c8152602001858561012090610140926103a093929190617286565b906103ab91906172e3565b60001c8152602001858561014090610160926103c993929190617286565b906103d491906172e3565b60001c815250816080018190525060405180608001604052808585610160906101809261040393929190617286565b9061040e91906172e3565b60001c81526020018585610180906101a09261042c93929190617286565b9061043791906172e3565b60001c815260200185856101a0906101c09261045593929190617286565b9061046091906172e3565b60001c815260200185856101c0906101e09261047e93929190617286565b9061048991906172e3565b60001c8152508160a00181905250604051806080016040528085856101e090610200926104b893929190617286565b906104c391906172e3565b60001c8152602001858561020090610220926104e193929190617286565b906104ec91906172e3565b60001c81526020018585610220906102409261050a93929190617286565b9061051591906172e3565b60001c81526020018585610240906102609261053393929190617286565b9061053e91906172e3565b60001c81525081610100018190525060405180608001604052808585610260906102809261056e93929190617286565b9061057991906172e3565b60001c81526020018585610280906102a09261059793929190617286565b906105a291906172e3565b60001c815260200185856102a0906102c0926105c093929190617286565b906105cb91906172e3565b60001c815260200185856102c0906102e0926105e993929190617286565b906105f491906172e3565b60001c815250816101200181905250604051806080016040528085856102e0906103009261062493929190617286565b9061062f91906172e3565b60001c81526020018585610300906103209261064d93929190617286565b9061065891906172e3565b60001c81526020018585610320906103409261067693929190617286565b9061068191906172e3565b60001c81526020018585610340906103609261069f93929190617286565b906106aa91906172e3565b60001c8152508160c001819052506040518060800160405280858561036090610380926106d993929190617286565b906106e491906172e3565b60001c81526020018585610380906103a09261070293929190617286565b9061070d91906172e3565b60001c815260200185856103a0906103c09261072b93929190617286565b9061073691906172e3565b60001c815260200185856103c0906103e09261075493929190617286565b9061075f91906172e3565b60001c815250816101400181905250604051806080016040528085856103e0906104009261078f93929190617286565b9061079a91906172e3565b60001c8152602001858561040090610420926107b893929190617286565b906107c391906172e3565b60001c8152602001858561042090610440926107e193929190617286565b906107ec91906172e3565b60001c81526020018585610440906104609261080a93929190617286565b9061081591906172e3565b60001c8152508160e001819052506000610460905060005b601c8110156109125760006008602083610847919061737b565b610851919061737b565b8361085c91906173bd565b905060005b6008811015610903576000602082610879919061737b565b8361088491906173bd565b9050600060208261089591906173bd565b90506108bc8a8a849084926108ac93929190617286565b906108b791906172e3565b6126eb565b87610160015186601c81106108d4576108d36173f1565b5b602002015184600881106108eb576108ea6173f1565b5b60200201818152505050508080600101915050610861565b5050808060010191505061082d565b5060206008601c610923919061737b565b61092d919061737b565b8161093891906173bd565b905060005b602c8110156109c8576000602082610955919061737b565b8361096091906173bd565b9050600060208261097191906173bd565b905061099888888490849261098893929190617286565b9061099391906172e3565b6126eb565b85610180015184602c81106109b0576109af6173f1565b5b6020020181815250505050808060010191505061093d565b506020602c6109d7919061737b565b816109e291906173bd565b905060005b6001601c6109f59190617420565b811015610b3d576000608082610a0b919061737b565b83610a1691906173bd565b90506000602082610a2791906173bd565b905060008190506000602082610a3d91906173bd565b905060008190506000602082610a5391906173bd565b905060008190506000602082610a6991906173bd565b905060405180608001604052808f8f8b908b92610a8893929190617286565b90610a9391906172e3565b60001c81526020018f8f89908992610aad93929190617286565b90610ab891906172e3565b60001c81526020018f8f87908792610ad293929190617286565b90610add91906172e3565b60001c81526020018f8f85908592610af793929190617286565b90610b0291906172e3565b60001c8152508b6101a001518a601b8110610b2057610b1f6173f1565b5b6020020181905250505050505050505080806001019150506109e7565b5060806001601c610b4e9190617420565b610b58919061737b565b81610b6391906173bd565b905060005b601c811015610bf3576000602082610b80919061737b565b83610b8b91906173bd565b90506000602082610b9c91906173bd565b9050610bc3888884908492610bb393929190617286565b90610bbe91906172e3565b6126eb565b856101c0015184601c8110610bdb57610bda6173f1565b5b60200201818152505050508080600101915050610b68565b506020601c610c02919061737b565b81610c0d91906173bd565b9050604051806080016040528086868490602086610c2b91906173bd565b92610c3893929190617286565b90610c4391906172e3565b60001c81526020018686602085610c5a91906173bd565b90604086610c6891906173bd565b92610c7593929190617286565b90610c8091906172e3565b60001c81526020018686604085610c9791906173bd565b90606086610ca591906173bd565b92610cb293929190617286565b90610cbd91906172e3565b60001c81526020018686606085610cd491906173bd565b90608086610ce291906173bd565b92610cef93929190617286565b90610cfa91906172e3565b60001c815250826101e00181905250608081610d1691906173bd565b9050604051806080016040528086868490602086610d3491906173bd565b92610d4193929190617286565b90610d4c91906172e3565b60001c81526020018686602085610d6391906173bd565b90604086610d7191906173bd565b92610d7e93929190617286565b90610d8991906172e3565b60001c81526020018686604085610da091906173bd565b90606086610dae91906173bd565b92610dbb93929190617286565b90610dc691906172e3565b60001c81526020018686606085610ddd91906173bd565b90608086610deb91906173bd565b92610df893929190617286565b90610e0391906172e3565b60001c815250826102000181905250819250505092915050565b610e25616be0565b6000610e3386868686612723565b85600001866020018760400183975084815250848152508481525050505050610e5c8187612c0f565b84606001856080018295508381525083815250505050610e7c8187612e80565b8360a0018193508290525050610e91816131a4565b8360c0018193508290525050610ea78682613230565b8360e0018193508290525050610ebd868261335b565b8361010001819350828152505050610ed58682613430565b8361012001819350828152505050610eed8682613620565b8361014001819350828152505050610f0586826136f5565b836101600181935082815250505050949350505050565b600080600190506000600190506000610f5187610f4c8a610f47898b610f4291906173bd565b613807565b61383c565b613878565b90506000610f7c88610f778b610f7260018b610f6d91906173bd565b613807565b61383c565b6138b4565b905060005b6002811015611001576000610faf8c8381518110610fa257610fa16173f1565b5b60200260200101516126eb565b9050610fc486610fbf8684613878565b61383c565b9550610fd985610fd48584613878565b61383c565b9450610fe5848c613878565b9350610ff1838c6138b4565b9250508080600101915050610f81565b5061100c848461391b565b94505050505095945050505050565b60008060006001905060005b60128110156110de57600086610160015182601c811061104a576110496173f1565b5b60200201519050600061105d8286613937565b905080611096576040517f9fc3a21800000000000000000000000000000000000000000000000000000000815260040160405180910390fd5b60008760e0015184601c81106110af576110ae6173f1565b5b602002015190506110c08382613989565b95506110ce88868387613bd2565b9450505050806001019050611027565b5060006110ec868684613c25565b90506110f88184613cac565b935050505092915050565b600061110d616c5a565b600061111d846101200151613cb9565b9050611127616c89565b61112f616cac565b600061113b8785613d48565b9050611185816000601d8110611154576111536173f1565b5b6020020151611180896101400151846001601d8110611176576111756173f1565b5b602002015161383c565b613878565b8560000181815250506111ec61119f886101200151613e2c565b6111e7836000601d81106111b6576111b56173f1565b5b60200201516111e28b6101400151866001601d81106111d8576111d76173f1565b5b602002015161383c565b6138b4565b61383c565b8560200181815250506001836000604a811061120b5761120a6173f1565b5b602002018181525050611222896101e00151613ec3565b826000604a8110611236576112356173f1565b5b6020020181905250600185606001818152505060008560800181815250506000600190505b602381116113125761127d6112738760000151613f03565b876060015161383c565b8482604a81106112905761128f6173f1565b5b6020020181815250506112dc86608001516112d78c61018001516001856112b79190617420565b602c81106112c8576112c76173f1565b5b6020020151896060015161383c565b613878565b8660800181815250506112f8866060015189610100015161383c565b8660600181815250508061130b90617454565b905061125b565b5060006001602361132391906173bd565b90505b602c81116113dd5761134861133e8760200151613f03565b876060015161383c565b8482604a811061135b5761135a6173f1565b5b6020020181815250506113a786608001516113a28c61018001516001856113829190617420565b602c8110611393576113926173f1565b5b6020020151896060015161383c565b613878565b8660800181815250506113c3866060015189610100015161383c565b866060018181525050806113d690617454565b9050611326565b508760600151826001604a81106113f7576113f66173f1565b5b60200201819052508760800151826002604a8110611418576114176173f1565b5b60200201819052508760a00151826003604a8110611439576114386173f1565b5b60200201819052508760c00151826004604a811061145a576114596173f1565b5b60200201819052508760e00151826005604a811061147b5761147a6173f1565b5b6020020181905250876101000151826006604a811061149d5761149c6173f1565b5b6020020181905250876101200151826007604a81106114bf576114be6173f1565b5b6020020181905250876101400151826008604a81106114e1576114e06173f1565b5b6020020181905250876101800151826009604a8110611503576115026173f1565b5b602002018190525087610160015182600a604a8110611525576115246173f1565b5b6020020181905250876101a0015182600b604a8110611547576115466173f1565b5b6020020181905250876101c0015182600c604a8110611569576115686173f1565b5b6020020181905250876101e0015182600d604a811061158b5761158a6173f1565b5b602002018190525087610200015182600e604a81106115ad576115ac6173f1565b5b602002018190525087610220015182600f604a81106115cf576115ce6173f1565b5b6020020181905250876102400151826010604a81106115f1576115f06173f1565b5b6020020181905250876102600151826011604a8110611613576116126173f1565b5b6020020181905250876102800151826012604a8110611635576116346173f1565b5b6020020181905250876102a00151826013604a8110611657576116566173f1565b5b6020020181905250876102c00151826014604a8110611679576116786173f1565b5b6020020181905250876102e00151826015604a811061169b5761169a6173f1565b5b6020020181905250876103000151826016604a81106116bd576116bc6173f1565b5b6020020181905250876103200151826017604a81106116df576116de6173f1565b5b6020020181905250876103400151826018604a8110611701576117006173f1565b5b6020020181905250876103600151826019604a8110611723576117226173f1565b5b602002018190525087610380015182601a604a8110611745576117446173f1565b5b6020020181905250876103a0015182601b604a8110611767576117666173f1565b5b602002018190525061177c8960600151613ec3565b82601c604a81106117905761178f6173f1565b5b60200201819052506117a58960800151613ec3565b82601d604a81106117b9576117b86173f1565b5b60200201819052506117ce8960a00151613ec3565b82601e604a81106117e2576117e16173f1565b5b60200201819052506117f78960c00151613ec3565b82601f604a811061180b5761180a6173f1565b5b60200201819052506118208960e00151613ec3565b826020604a8110611834576118336173f1565b5b602002018190525061184a896101400151613ec3565b826021604a811061185e5761185d6173f1565b5b6020020181905250611874896101000151613ec3565b826022604a8110611888576118876173f1565b5b602002018190525061189e896101200151613ec3565b826023604a81106118b2576118b16173f1565b5b6020020181905250876103000151826024604a81106118d4576118d36173f1565b5b6020020181905250876103200151826025604a81106118f6576118f56173f1565b5b6020020181905250876103400151826026604a8110611918576119176173f1565b5b6020020181905250876103600151826027604a811061193a576119396173f1565b5b602002018190525061194f8960600151613ec3565b826028604a8110611963576119626173f1565b5b60200201819052506119788960800151613ec3565b826029604a811061198c5761198b6173f1565b5b60200201819052506119a18960a00151613ec3565b82602a604a81106119b5576119b46173f1565b5b60200201819052506119ca8960c00151613ec3565b82602b604a81106119de576119dd6173f1565b5b60200201819052506119f38960e00151613ec3565b82602c604a8110611a0757611a066173f1565b5b60200201819052506000856040018181525050611a28876101400151613f38565b85606001818152505060005b6001601c611a429190617420565b811015611b9f57600060016012611a599190617420565b8210159050600081611ad657611a96886060015185600286611a7b91906173bd565b601d8110611a8c57611a8b6173f1565b5b602002015161383c565b9050611aa181613f03565b86846001602c611ab191906173bd565b611abb91906173bd565b604a8110611acc57611acb6173f1565b5b6020020181815250505b611b158860400151611b10838f6101c00151600188611af591906173bd565b601c8110611b0657611b056173f1565b5b602002015161383c565b613878565b886040018181525050611b3188606001518b610140015161383c565b886060018181525050611b5f8c6101a0015184601b8110611b5557611b546173f1565b5b6020020151613ec3565b85846001602c611b6f91906173bd565b611b7991906173bd565b604a8110611b8a57611b896173f1565b5b60200201819052505050806001019050611a34565b506000611bb78887608001518c6101c0015188613f4b565b9050611be88660400151611be383856000601d8110611bd957611bd86173f1565b5b602002015161383c565b613878565b866040018181525050611c4b8660400151611c46611c288d6101c001516000601c8110611c1857611c176173f1565b5b60200201518c610140015161383c565b856001601d8110611c3c57611c3b6173f1565b5b602002015161383c565b613878565b866040018181525050604051806040016040528060018152602001600281525083601c602c611c7a91906173bd565b604a8110611c8b57611c8a6173f1565b5b6020020181905250856040015184601c602c611ca791906173bd565b604a8110611cb857611cb76173f1565b5b6020020181815250506000611cd18b6102000151613ec3565b905080846001601c602c611ce591906173bd565b611cef91906173bd565b604a8110611d0057611cff6173f1565b5b6020020181905250886101600151856001601c602c611d1f91906173bd565b611d2991906173bd565b604a8110611d3a57611d396173f1565b5b6020020181815250506000611d4f8587614081565b90506000611d5c8361414e565b9050611d6882826141c2565b99505050505050505050509392505050565b611d82616987565b6000604051806103c00160405280620400008152602001601281526020016002815260200160405180604001604052807f10873af40c9608f678a69c1a06ad4ab41d98a8286e49218360f12b85ece36ae281526020017f0607a2da2658276e624d5bfa21602933491a9c260cd9cc0aee5dd8e30d41ab4f815250815260200160405180604001604052807f157736420a0d167c15762806ef149a0c4d28e6d7f2c18c8244037b01ae1c826a81526020017f2ffda8a0c6dd33910522bf6a6a667c41c13c5c2e6085afac74ffb1c4ec203279815250815260200160405180604001604052807f1bbe09cd8a7ad1a16da7d9687bdedd41b709e679292baaa40499e2bcf0b4d75c81526020017f0c31d2bd0987f7383eeac16cf1f075b5f00c05291a9b6b7f65c01036894b373d815250815260200160405180604001604052807f19ed02ab39ed62c4f9c95f52049fd01470080429b362885672a3ecb4b013ffef81526020017f061551554b7e834ca0760750e14426ec27e95f0fcd8904e662762f8617f4d0f4815250815260200160405180604001604052807f1f4dda2e995abe91594841e78b060d3b3a2f886b7d4c2febdd24bdaf77bc7dd481526020017f1bac2e05b05878d14d12beb1adc45bcaba3d0e2af1307abf0cecbb401d64f61a815250815260200160405180604001604052807f1f047792d07e30d18ba56153fe8f5affa6cc808382557a2f2099da5fce0cd1e381526020017f21f42ab18718442e09463e0d9732cf09c80bc1b3c5c182f6553af421eea2ed12815250815260200160405180604001604052807f2d4e7cbbbd9ebe8536fdb5735ae20838c53ddce9e43b38e34c70e10b3be63de581526020017f03527de4205a08da76f5d3ff3ca4c836fce8d08552a7388977ae2c8fc5f4eb04815250815260200160405180604001604052807f09476da83cd2503c9f4f572a409601403e8272d61fa859e66c3e392c2ec818cd81526020017f069805f91d9642c12853b83c0e5ad902c248f1ace489a3fe5135c934de5be349815250815260200160405180604001604052807f0d2d77001b7637993a31fd404a8387856bdc72dc4bca5997a524678c16ecf2e781526020017f026bd1de60f4710d459f8f13ea837f073295d07fcc73e94310fa8e2795a49ee7815250815260200160405180604001604052807f02cf7a799c5155e8c8db2270248f4048a802331cb741afe5be71a0ae00f5a6d481526020017e3384aa6495959cad2ffc43ca70baa6050fd0abd32c90fe167f493036844d96815250815260200160405180604001604052807f079aa6883c2daa8e4d47374cd1138294d111eda00344bff5d56ff0cf1d49dcaf81526020017f0d54f43f43bb548c8206ca312f0acc180fe2a2b904df309a23758f8be4226d50815250815260200160405180604001604052807f07de740a97665e865ae113f4d5a361c9a987e31ee0731b6013b218edd311136481526020017f1a3c57bc8fca89a02547a42cc5669115567f47d026b8c1ca19f1ce39ec69cecc815250815260200160405180604001604052807f1a8ceb2043c9bf341d0fbe8c0a533bcbc389a922431f2d4289610d585597899781526020017f0c6e75386cbd0be4eca7af2134d8940d598d53bdf9660c3a4870c425f68d380b815250815260200160405180604001604052807f18b27c452deba83a6d3d0ae7185e766d59f212180611aef50f520bfb212facbc81526020017f2cede90ae63e10bc3eb7c97a8c0b4875f15c43ff48910b243ce9f09067d6a402815250815260200160405180604001604052807f06d9bfca61c0328d9adefe99df95baedc130597792426820eadecefef61f356781526020017f1c041daf02d5c16c63aad3d485022b682ca19984a9c6e1eb8725a98f4dce3d42815250815260200160405180604001604052807f1d9705f26bdcb8c6853bc95b10f5b891ee2811d0680c2487f94dcc0d5e0c2adb81526020017f0c55defb44ca30be61096b7431d20a2064e5fee56c8b91aaa572f56b39a0fc20815250815260200160405180604001604052807f210cd78f8abdf0dcc947f9fadd05aae669dae339997b18f0845a9d67c230302481526020017f252a0bb1a772d3ef9c33223420f77bc8e1617122752795fb671c84c477623444815250815260200160405180604001604052807f13bc217d58725b76f9d000250db272eda13a1bc29268657e4171a2be0b445cc981526020017f0e61c9e163d23b503b013202c67efb40191cbf93311d01fab00f58aa59eff8c2815250815260200160405180604001604052807f135fc20591e64da028dafaed1d439528071da81328f567ebcc0b4ab9baf732f581526020017f1bf786d9438cdf5109069397a30fde635dd23832cee1ff50955968ad4f7ad38c815250815260200160405180604001604052807f17a40a114bb76cc7d065272a0ca943926dc0c24879c0628a793a4624f668a10681526020017f1dabcacfa17c371d769c7446404080138314eef01aa47f5e1e5bc3b535bd435f815250815260200160405180604001604052807f1b79177d03efb9e36f6ce65beb8c9b8c9b968feda24cec54dae90044c9b89ac581526020017f0686b416b3456d69682abf17ba5c971474271bc2f1faeab689fcadeb08da6853815250815260200160405180604001604052807f2456f961d0b86605dcb817520567534f153aa0e6bcb19e20004a1f944fe3ea9481526020017ec777e267f596e3d7945765146a70c7248cb2032b82e73692b8e8d0bdccd606815250815260200160405180604001604052807f246fd4811f690574ddc55745590439a8f73455e78fdd3521d65c7e007e6b451e81526020017f132a30f5aa1d892595234280dd91b7728b3dadc7b72e58f2a95148f38ba2101e815250815260200160405180604001604052807f0181f12b41a00b4ee891ed5a942bfdbae834b4faf95ce9e9aaa9bd2500ce63dd81526020017e3cf62b76f6ccbf957b772b67ee10ba4b55c20ddad2c4cdb3fada2ed419cb4a815250815260200160405180604001604052807f14e915dde4eb0e38d4a05b2ed83873ae2feee46958c10439d8db62ac1382628a81526020017f262751bf31978e94767a6a0dae1ded7696f8cfa579020156f6be9e24ea2d639a81525081526020016040518060400160405280600181526020016002815250815260200160405180604001604052807f14e1195ffd01622d7634b09b688b1c0afde7ea6d975d546e435a3fb5cab11f8681526020017f2a68d60aa0ab708804b2bdfff3446f96c5446fe91f24e97decafe4095a0f4d2e81525081525090508091505090565b60007f30644e72e131a029b85045b68181585d2833e84879b9709143e1f593f00000018260001c61271c91906174cb565b9050919050565b6000806000806000600c86600361273a91906173bd565b61274491906173bd565b67ffffffffffffffff81111561275d5761275c6174fc565b5b60405190808252806020026020018201604052801561278b5781602001602082028036833780820191505090505b509050886000015160001b816000815181106127aa576127a96173f1565b5b602002602001018181525050886020015160001b816001815181106127d2576127d16173f1565b5b602002602001018181525050886040015160001b816002815181106127fa576127f96173f1565b5b60200260200101818152505060005b8681101561286357888882818110612824576128236173f1565b5b905060200201358282600361283991906173bd565b8151811061284a576128496173f1565b5b6020026020010181815250508080600101915050612809565b5088606001516000015160001b8187600361287e91906173bd565b8151811061288f5761288e6173f1565b5b60200260200101818152505088606001516020015160001b8160018860036128b791906173bd565b6128c191906173bd565b815181106128d2576128d16173f1565b5b60200260200101818152505088606001516040015160001b8160028860036128fa91906173bd565b61290491906173bd565b81518110612915576129146173f1565b5b60200260200101818152505088606001516060015160001b81600388600361293d91906173bd565b61294791906173bd565b81518110612958576129576173f1565b5b60200260200101818152505088608001516000015160001b81600488600361298091906173bd565b61298a91906173bd565b8151811061299b5761299a6173f1565b5b60200260200101818152505088608001516020015160001b8160058860036129c391906173bd565b6129cd91906173bd565b815181106129de576129dd6173f1565b5b60200260200101818152505088608001516040015160001b816006886003612a0691906173bd565b612a1091906173bd565b81518110612a2157612a206173f1565b5b60200260200101818152505088608001516060015160001b816007886003612a4991906173bd565b612a5391906173bd565b81518110612a6457612a636173f1565b5b6020026020010181815250508860a001516000015160001b816008886003612a8c91906173bd565b612a9691906173bd565b81518110612aa757612aa66173f1565b5b6020026020010181815250508860a001516020015160001b816009886003612acf91906173bd565b612ad991906173bd565b81518110612aea57612ae96173f1565b5b6020026020010181815250508860a001516040015160001b81600a886003612b1291906173bd565b612b1c91906173bd565b81518110612b2d57612b2c6173f1565b5b6020026020010181815250508860a001516060015160001b81600b886003612b5591906173bd565b612b5f91906173bd565b81518110612b7057612b6f6173f1565b5b602002602001018181525050612bab81604051602001612b9091906175e3565b604051602081830303815290604052805190602001206126eb565b9150612bb6826143a9565b8095508196505050612bed82604051602001612bd2919061761b565b604051602081830303815290604052805190602001206126eb565b91506000612bfa836143a9565b80925081955050505050945094509450949050565b6000806000612c1c616cda565b612c25866143f5565b816000600d8110612c3957612c386173f1565b5b6020020181815250508461010001516000015160001b816001600d8110612c6357612c626173f1565b5b6020020181815250508461010001516020015160001b816002600d8110612c8d57612c8c6173f1565b5b6020020181815250508461010001516040015160001b816003600d8110612cb757612cb66173f1565b5b6020020181815250508461010001516060015160001b816004600d8110612ce157612ce06173f1565b5b6020020181815250508461012001516000015160001b816005600d8110612d0b57612d0a6173f1565b5b6020020181815250508461012001516020015160001b816006600d8110612d3557612d346173f1565b5b6020020181815250508461012001516040015160001b816007600d8110612d5f57612d5e6173f1565b5b6020020181815250508461012001516060015160001b816008600d8110612d8957612d886173f1565b5b6020020181815250508460c001516000015160001b816009600d8110612db257612db16173f1565b5b6020020181815250508460c001516020015160001b81600a600d8110612ddb57612dda6173f1565b5b6020020181815250508460c001516040015160001b81600b600d8110612e0457612e036173f1565b5b6020020181815250508460c001516060015160001b81600c600d8110612e2d57612e2c6173f1565b5b602002018181525050612e6581604051602001612e4a91906176ba565b604051602081830303815290604052805190602001206126eb565b9150612e70826143a9565b8094508195505050509250925092565b612e88616cfd565b6000612e92616d20565b8481600060098110612ea757612ea66173f1565b5b6020020181815250508361014001516000015181600160098110612ece57612ecd6173f1565b5b6020020181815250508361014001516020015181600260098110612ef557612ef46173f1565b5b6020020181815250508361014001516040015181600360098110612f1c57612f1b6173f1565b5b6020020181815250508361014001516060015181600460098110612f4357612f426173f1565b5b6020020181815250508360e001516000015181600560098110612f6957612f686173f1565b5b6020020181815250508360e001516020015181600660098110612f8f57612f8e6173f1565b5b6020020181815250508360e001516040015181600760098110612fb557612fb46173f1565b5b6020020181815250508360e001516060015181600860098110612fdb57612fda6173f1565b5b60200201818152505061301381604051602001612ff89190617781565b604051602081830303815290604052805190602001206126eb565b915061301e826143a9565b84600060198110613032576130316173f1565b5b602002018560016019811061304a576130496173f1565b5b60200201828152508281525050506000600190505b6002601961306d919061779d565b811015613117576130a383604051602001613088919061761b565b604051602081830303815290604052805190602001206126eb565b92506130ae836143a9565b858360026130bc919061737b565b601981106130cd576130cc6173f1565b5b602002018660018560026130e1919061737b565b6130eb91906173bd565b601981106130fc576130fb6173f1565b5b6020020182815250828152505050808060010191505061305f565b5060018060191614801561312c575060026019115b1561319c5761316082604051602001613145919061761b565b604051602081830303815290604052805190602001206126eb565b9150600061316d836143a9565b856001601961317c9190617420565b6019811061318d5761318c6173f1565b5b60200201819350828152505050505b509250929050565b6131ac616d43565b600080600090505b601c811015613227576131ec846040516020016131d1919061761b565b604051602081830303815290604052805190602001206126eb565b935060006131f9856143a9565b8584601c811061320c5761320b6173f1565b5b602002018193508281525050505080806001019150506131b4565b50829050915091565b613238616d43565b600080600090505b601c81101561335057613251616d66565b8481600060098110613266576132656173f1565b5b60200201818152505060005b60088110156132e45786610160015183601c8110613293576132926173f1565b5b602002015181600881106132aa576132a96173f1565b5b6020020151826001836132bd91906173bd565b600981106132ce576132cd6173f1565b5b6020020181815250508080600101915050613272565b50613314816040516020016132f9919061789a565b604051602081830303815290604052805190602001206126eb565b94506000613321866143a9565b8685601c8110613334576133336173f1565b5b6020020181935082815250505050508080600101915050613240565b508290509250929050565b600080613366616d89565b83816000602d811061337b5761337a6173f1565b5b60200201818152505060005b602c8110156133e25785610180015181602c81106133a8576133a76173f1565b5b6020020151826001836133bb91906173bd565b602d81106133cc576133cb6173f1565b5b6020020181815250508080600101915050613387565b50613412816040516020016133f7919061793a565b604051602081830303815290604052805190602001206126eb565b9150600061341f836143a9565b809250819550505050509250929050565b60008061343b616dac565b83816000606d81106134505761344f6173f1565b5b60200201818152505060005b6001601c61346a9190617420565b8110156135d257856101a0015181601b8110613489576134886173f1565b5b602002015160000151826004836134a0919061737b565b60016134ac91906173bd565b606d81106134bd576134bc6173f1565b5b602002018181525050856101a0015181601b81106134de576134dd6173f1565b5b602002015160200151826004836134f5919061737b565b600261350191906173bd565b606d8110613512576135116173f1565b5b602002018181525050856101a0015181601b8110613533576135326173f1565b5b6020020151604001518260048361354a919061737b565b600361355691906173bd565b606d8110613567576135666173f1565b5b602002018181525050856101a0015181601b8110613588576135876173f1565b5b6020020151606001518260048361359f919061737b565b60046135ab91906173bd565b606d81106135bc576135bb6173f1565b5b602002018181525050808060010191505061345c565b50613602816040516020016135e791906179da565b604051602081830303815290604052805190602001206126eb565b9150600061360f836143a9565b809250819550505050509250929050565b60008061362b616dcf565b83816000601d81106136405761363f6173f1565b5b60200201818152505060005b601c8110156136a757856101c0015181601c811061366d5761366c6173f1565b5b60200201518260018361368091906173bd565b601d8110613691576136906173f1565b5b602002018181525050808060010191505061364c565b506136d7816040516020016136bc9190617a7a565b604051602081830303815290604052805190602001206126eb565b915060006136e4836143a9565b809250819550505050509250929050565b600080613700616df2565b8381600060058110613715576137146173f1565b5b602002018181525050846101e00151600001518160016005811061373c5761373b6173f1565b5b602002018181525050846101e001516020015181600260058110613763576137626173f1565b5b602002018181525050846101e00151604001518160036005811061378a576137896173f1565b5b602002018181525050846101e0015160600151816004600581106137b1576137b06173f1565b5b6020020181815250506137e9816040516020016137ce9190617b1a565b604051602081830303815290604052805190602001206126eb565b915060006137f6836143a9565b809250819550505050509250929050565b60007f30644e72e131a029b85045b68181585d2833e84879b9709143e1f593f00000018261383591906174cb565b9050919050565b60007f30644e72e131a029b85045b68181585d2833e84879b9709143e1f593f00000018061386d5761386c61749c565b5b828409905092915050565b60007f30644e72e131a029b85045b68181585d2833e84879b9709143e1f593f0000001806138a9576138a861749c565b5b828408905092915050565b60007f30644e72e131a029b85045b68181585d2833e84879b9709143e1f593f0000001806138e5576138e461749c565b5b827f30644e72e131a029b85045b68181585d2833e84879b9709143e1f593f00000016139119190617420565b8408905092915050565b600061392f8361392a84613e2c565b61383c565b905092915050565b60008061397484600060088110613951576139506173f1565b5b60200201518560016008811061396a576139696173f1565b5b6020020151613878565b90506139808184613cac565b91505092915050565b6000806040518061010001604052807f30644e72e131a029b85045b68181585d2833e84879b9709143e1f593efffec5181526020016102d081526020017f30644e72e131a029b85045b68181585d2833e84879b9709143e1f593efffff118152602001609081526020017f30644e72e131a029b85045b68181585d2833e84879b9709143e1f593efffff71815260200160f081526020017f30644e72e131a029b85045b68181585d2833e84879b9709143e1f593effffd3181526020016113b081525090506000604051806101000160405280600081526020016001815260200160028152602001600381526020016004815260200160058152602001600681526020016007815250905060006001905060005b6008811015613ac657613ab982613ab488846138b4565b61383c565b9150806001019050613a9d565b50613acf616e14565b60005b6008811015613b57576000858260088110613af057613aef6173f1565b5b60200201519050613b2181613b1c8a888660088110613b1257613b116173f1565b5b60200201516138b4565b61383c565b9050613b2c81613e2c565b905080838360088110613b4257613b416173f1565b5b60200201818152505050806001019050613ad2565b5060005b6008811015613bbb576000888260088110613b7957613b786173f1565b5b60200201519050613ba181848460088110613b9757613b966173f1565b5b602002015161383c565b9050613bad8782613878565b965050806001019050613b5b565b50613bc6858361383c565b94505050505092915050565b600080613c0e6001613c0986613c048a60c0015188601c8110613bf857613bf76173f1565b5b602002015160016138b4565b61383c565b613878565b9050613c1a858261383c565b915050949350505050565b6000808461018001519050613c38616e37565b613c43828286614402565b613c4f82868387614647565b613c5b82868387614944565b613c66828286614bea565b613c71828286614ec2565b613c7d8286838761530f565b613c88828286615fa9565b613c93828286616469565b613ca1818660a001516168bc565b925050509392505050565b6000818314905092915050565b613cc1616d43565b81816000601c8110613cd657613cd56173f1565b5b6020020181815250506000600190505b601c811015613d4257613d1b82600183613d009190617420565b601c8110613d1157613d106173f1565b5b6020020151613f38565b8282601c8110613d2e57613d2d6173f1565b5b602002018181525050806001019050613ce6565b50919050565b613d50616e5a565b60008361016001519050613d84613d7f82856000601c8110613d7557613d746173f1565b5b60200201516138b4565b613e2c565b826000601d8110613d9857613d976173f1565b5b60200201818152505060005b601c811015613e2457600060016012613dbd91906173bd565b8211613def57613dec613de7848785601c8110613ddd57613ddc6173f1565b5b6020020151613878565b613e2c565b90505b8084600184613dfe91906173bd565b601d8110613e0f57613e0e6173f1565b5b60200201818152505050806001019050613da4565b505092915050565b6000808290506000604051602081526020808201526020604082015282606082015260027f30644e72e131a029b85045b68181585d2833e84879b9709143e1f593f00000010360808201527f30644e72e131a029b85045b68181585d2833e84879b9709143e1f593f000000160a08201526020600060c08360055afa80613eb257600080fd5b600051925050508092505050919050565b613ecb616e7d565b604051806040016040528060888460200151901b846000015117815260200160888460600151901b8460400151178152509050919050565b6000817f30644e72e131a029b85045b68181585d2833e84879b9709143e1f593f0000001613f319190617420565b9050919050565b6000613f44828361383c565b9050919050565b600080601c90505b600081111561407557600083600183613f6c9190617420565b601c8110613f7d57613f7c6173f1565b5b6020020151905060008760e00151600184613f989190617420565b601c8110613fa957613fa86173f1565b5b60200201519050600086600185613fc09190617420565b601c8110613fd157613fd06173f1565b5b60200201519050600061401c613ff1613fea868c61383c565b600261383c565b6140178461401261400c8961400760018b6138b4565b61383c565b886138b4565b61383c565b6138b4565b905061404c8161404761404261403c8861403760018a6138b4565b61383c565b87613878565b613e2c565b61383c565b905060006012861190508061405f578199505b50505050508061406e90617b35565b9050613f53565b50839050949350505050565b614089616e7d565b60006002601c602c61409b91906173bd565b6140a591906173bd565b90506001604051855151604082015285516020015160608201528451608082015260408160606040840160075afa8216915060015b83811015614136576020810287016020820287018151516040850152815160200151606085015280516080850152604080850160606040870160075afa8516945060408460808660065afa8516945050506001810190506140da565b81518552602082015160208601525050505092915050565b614156616e7d565b7f30644e72e131a029b85045b68181585d97816a916871ca8d3c208c16d87cfd4782602001517f30644e72e131a029b85045b68181585d97816a916871ca8d3c208c16d87cfd476141a79190617420565b6141b191906174cb565b826020018181525050819050919050565b600080836000015184602001517f198e9393920d483a7260bfb731fb5d25f1aa493335a9e71297e485b7aef312c27f1800deef121f1e76426a00665e5c4479674322d4f75edadd46debd5cd992f6ed7f090689d0585ff075ec9e99ad690c3395bc4b313370b38ef355acdadcd122975b7f12c85ea5db8c6deb4aab71808dcb408fe3d1e7690c43d37b4ce6cc0166fa7daa886000015189602001517f260e01b251f6f1c7e7ff4e580791dee8ea51d87a358e038b4efe30fac09383c17f0118c4d5b837bcc2bc89b5b398b5974e9f5944073b32078b7e231fec938883b07f04fc6369f7110fe3d25156c1bb9a72859cf2a04641f99ba4ee413c80da6a5fe47f22febda3c0c0632a56475b4214e5615e11e6dd3f96e6cea2854a87d4dacc5e556040516020016142fc9c9b9a99989796959493929190617b5e565b6040516020818303038152906040529050600080600873ffffffffffffffffffffffffffffffffffffffff16836040516143369190617ca5565b600060405180830381855afa9150503d8060008114614371576040519150601f19603f3d011682016040523d82523d6000602084013e614376565b606091505b50915091506000818060200190518101906143919190617ce8565b905082801561439d5750805b94505050505092915050565b600080600083905060006fffffffffffffffffffffffffffffffff821690506000608083901c90506143dd8260001b6126eb565b94506143eb8160001b6126eb565b9350505050915091565b60008160001b9050919050565b600061440f846006616953565b905060007f183227397098d014dc2822db40c0ac2e9419f4243cdcb848a1f0fac9f80000009050600061448561447f6144498560036138b4565b61447a61446a61445a8b6000616953565b6144658c601c616953565b61383c565b6144758b601b616953565b61383c565b61383c565b8361383c565b90506145336145236145006144dd6144ba856144b56144a58d6002616953565b6144b08e601b616953565b61383c565b613878565b6144d86144c88c6003616953565b6144d38d601c616953565b61383c565b613878565b6144fb6144eb8b6004616953565b6144f68c601d616953565b61383c565b613878565b61451e61450e8a6005616953565b6145198b601e616953565b61383c565b613878565b61452e886001616953565b613878565b905061455c816145576145478660016138b4565b6145528a602a616953565b61383c565b613878565b9050614568818461383c565b9050614574818561383c565b905080856000601a811061458b5761458a6173f1565b5b602002018181525050505060006145dc6145cc6145bc6145ac88601b616953565b6145b789601e616953565b613878565b6145c7886027616953565b6138b4565b6145d7876000616953565b613878565b90506145f2816145ed8460026138b4565b61383c565b9050614608816146038460016138b4565b61383c565b9050614614818361383c565b9050614620818461383c565b905080846001601a8110614637576146366173f1565b5b6020020181815250505050505050565b600080600061468461467a61465d89601b616953565b61467561466b8b6011616953565b8a6060015161383c565b613878565b8760800151613878565b90506146c7816146c26146b861469b8b601c616953565b6146b36146a98d6012616953565b8c6060015161383c565b613878565b8960800151613878565b61383c565b905061470a816147056146fb6146de8b601d616953565b6146f66146ec8d6013616953565b8c6060015161383c565b613878565b8960800151613878565b61383c565b905061474d8161474861473e6147218b601e616953565b61473961472f8d6014616953565b8c6060015161383c565b613878565b8960800151613878565b61383c565b905080925050600061478d61478361476689601b616953565b61477e6147748b600d616953565b8a6060015161383c565b613878565b8760800151613878565b90506147d0816147cb6147c16147a48b601c616953565b6147bc6147b28d600e616953565b8c6060015161383c565b613878565b8960800151613878565b61383c565b90506148138161480e6148046147e78b601d616953565b6147ff6147f58d600f616953565b8c6060015161383c565b613878565b8960800151613878565b61383c565b90506148568161485161484761482a8b601e616953565b6148426148388d6010616953565b8c6060015161383c565b613878565b8960800151613878565b61383c565b905080915050600061488561487f61486f89601f616953565b61487a8a6019616953565b613878565b8461383c565b90506148c5816148c06148ba61489c8b602b616953565b6148b56148aa8d601a616953565b8c610180015161383c565b613878565b8561383c565b6138b4565b90506148d1818561383c565b905080856002601a81106148e8576148e76173f1565b5b60200201818152505050600061491b61491561490589601a616953565b6149108a602b616953565b61383c565b8561383c565b905080856003601a8110614932576149316173f1565b5b60200201818152505050505050505050565b6000806149bf6149a261498561496861495e8a6015616953565b8960800151613878565b6149806149768b6016616953565b8a6000015161383c565b613878565b61499d6149938a6017616953565b896020015161383c565b613878565b6149ba6149b0896018616953565b886040015161383c565b613878565b91506000614a016149de6149d489601b616953565b8860800151613878565b6149fc6149ec8a6003616953565b6149f78b6027616953565b61383c565b613878565b90506000614a36614a1389601c616953565b614a31614a218b6000616953565b614a2c8c6028616953565b61383c565b613878565b90506000614a6b614a488a601d616953565b614a66614a568c6001616953565b614a618d6029616953565b61383c565b613878565b9050614aba614a9d614a8a85614a85868d6000015161383c565b613878565b614a98848c6020015161383c565b613878565b614ab5614aab8c6004616953565b8b6040015161383c565b613878565b93505050506000614ad5614acf886020616953565b8461383c565b90506000614aed614ae7896020616953565b8461383c565b90506000614b35614b12614b028b6022616953565b614b0d8c600a616953565b613878565b614b30614b208c6022616953565b614b2b8d600a616953565b61383c565b6138b4565b90506000614b5f614b59614b49878961383c565b614b548d6020616953565b61383c565b836138b4565b9050614b6b818861383c565b90506000614b9f614b86614b808d600a616953565b8761383c565b614b9a614b948e6021616953565b8761383c565b6138b4565b905081896004601a8110614bb657614bb56173f1565b5b60200201818152505080896005601a8110614bd457614bd36173f1565b5b6020020181815250505050505050505050505050565b6000614bf8600060016138b4565b90506000614c08600060026138b4565b90506000614c18600060036138b4565b90506000614c3a614c2a88601c616953565b614c3589601b616953565b6138b4565b90506000614c5c614c4c89601d616953565b614c578a601c616953565b6138b4565b90506000614c7e614c6e8a601e616953565b614c798b601d616953565b6138b4565b90506000614ca0614c908b6027616953565b614c9b8c601e616953565b6138b4565b90506000849050614cba81614cb5878b613878565b61383c565b9050614ccf81614cca878a613878565b61383c565b9050614ce481614cdf8789613878565b61383c565b9050614cfa81614cf58d6007616953565b61383c565b9050614d06818a61383c565b9050808a6006601a8110614d1d57614d1c6173f1565b5b602002018181525050506000839050614d3f81614d3a868b613878565b61383c565b9050614d5481614d4f868a613878565b61383c565b9050614d6981614d648689613878565b61383c565b9050614d7f81614d7a8d6007616953565b61383c565b9050614d8b818a61383c565b9050808a6007601a8110614da257614da16173f1565b5b602002018181525050506000829050614dc481614dbf858b613878565b61383c565b9050614dd981614dd4858a613878565b61383c565b9050614dee81614de98589613878565b61383c565b9050614e0481614dff8d6007616953565b61383c565b9050614e10818a61383c565b9050808a6008601a8110614e2757614e266173f1565b5b602002018181525050506000819050614e4981614e44848b613878565b61383c565b9050614e5e81614e59848a613878565b61383c565b9050614e7381614e6e8489613878565b61383c565b9050614e8981614e848d6007616953565b61383c565b9050614e95818a61383c565b9050808a6009601a8110614eac57614eab6173f1565b5b6020020181815250505050505050505050505050565b614eca616e97565b614ed584601c616953565b816000018181525050614ee984601d616953565b816020018181525050614efd846027616953565b816040018181525050614f1184602a616953565b816060018181525050614f25846029616953565b816080018181525050614f39846028616953565b8160a00181815250506000614f4f856002616953565b90506000614f5e866000616953565b90506000614f74846040015185600001516138b4565b90506000614f8a8560200151866020015161383c565b905060008690506000614fa58760600151886060015161383c565b90506000614fc4614fbe89602001518a6060015161383c565b8861383c565b90506000614fe7614fdd8a60a001518b60400151613878565b8a60000151613878565b9050614ffc614ff6828861383c565b8761383c565b905061502361501d61501761501184876138b4565b886138b4565b84613878565b83613878565b9050615055615045615035838761383c565b6150408f6008616953565b61383c565b61505060018a6138b4565b61383c565b8b600a601a8110615069576150686173f1565b5b60200201818152505050505050600061508a86602001518760800151613878565b905060006150a961509f88606001518861383c565b88602001516138b4565b905060006150da6150ba848761383c565b6150d56150cf8b60a001518c600001516138b4565b8561383c565b613878565b905061510c6150fc6150ec838c61383c565b6150f78e6008616953565b61383c565b6151076001896138b4565b61383c565b8a600b601a81106151205761511f6173f1565b5b602002018181525050505050600061514661513c836011613878565b876000015161383c565b905060006151548384613878565b90506151608182613878565b9050600061516f83600961383c565b90506151a261519c61519661518c8b60a001518c60000151613878565b8b60000151613878565b8461383c565b826138b4565b8860c001818152505060006151d76151d16151c18b60c001518d61383c565b6151cc8f6008616953565b61383c565b8861383c565b90506151fb8b600a601a81106151f0576151ef6173f1565b5b602002015182613878565b8b600a601a811061520f5761520e6173f1565b5b60200201818152505050505050600061524a61524061523688600001518960000151613878565b8860000151613878565b876000015161383c565b9050600061529d61526c836152678a600001518b60a001516138b4565b61383c565b6152986152818a602001518b60200151613878565b6152938b602001518c60800151613878565b61383c565b6138b4565b90506152e689600b601a81106152b6576152b56173f1565b5b60200201516152e16152db6152cb858d61383c565b6152d68f6008616953565b61383c565b8861383c565b613878565b89600b601a81106152fa576152f96173f1565b5b60200201818152505050505050505050505050565b615317616ed4565b61535b61533861532887601b616953565b615333886028616953565b61383c565b615356615346886027616953565b61535189601c616953565b61383c565b613878565b8160000181815250506153bb6153ab61538861537888601b616953565b61538389601e616953565b61383c565b6153a661539689601c616953565b6153a18a601d616953565b61383c565b613878565b6153b6876029616953565b6138b4565b8160400181815250506153d7816040015160446001901b61383c565b8160400181815250506153f881604001516153f387602a616953565b6138b4565b81604001818152505061541381604001518260000151613878565b816040018181525050615434816040015161542f876005616953565b61383c565b816040018181525050615450816000015160446001901b61383c565b816000018181525050615484816000015161547f61546f886027616953565b61547a896028616953565b61383c565b613878565b81600001818152505080600001518160200181815250506154c681602001516154c16154b188601d616953565b6154bc89601e616953565b613878565b6138b4565b8160200181815250506154e781602001516154e2876004616953565b61383c565b8160200181815250508060000151816060018181525050615516816060015161551187601e616953565b613878565b81606001818152505061554a8160600151615545615535886029616953565b61554089602a616953565b613878565b6138b4565b81606001818152505061556b8160600151615566876000616953565b61383c565b816060018181525050600061559561558b83602001518460400151613878565b8360600151613878565b90506155ab816155a6886003616953565b61383c565b90506155c66155bb876028616953565b600e6001901b61383c565b8260800181815250506155e782608001516155e2886027616953565b613878565b8260800181815250506156038260800151600e6001901b61383c565b826080018181525050615624826080015161561f88601d616953565b613878565b8260800181815250506156408260800151600e6001901b61383c565b826080018181525050615661826080015161565c88601c616953565b613878565b82608001818152505061567d8260800151600e6001901b61383c565b82608001818152505061569e826080015161569988601b616953565b613878565b8260800181815250506156bf82608001516156ba88601e616953565b6138b4565b8260800181815250506156e082608001516156db886005616953565b61383c565b8260800181815250506157026156f7876029616953565b600e6001901b61383c565b8260a00181815250506157238260a0015161571e886028616953565b613878565b8260a001818152505061573f8260a00151600e6001901b61383c565b8260a00181815250506157608260a0015161575b886027616953565b613878565b8260a001818152505061577c8260a00151600e6001901b61383c565b8260a001818152505061579d8260a0015161579888601e616953565b613878565b8260a00181815250506157b98260a00151600e6001901b61383c565b8260a00181815250506157da8260a001516157d588601d616953565b613878565b8260a00181815250506157fb8260a001516157f688602a616953565b6138b4565b8260a001818152505061581c8260a00151615817886000616953565b61383c565b8260a0018181525050600061583983608001518460a00151613878565b905061584f8161584a896004616953565b61383c565b905061586961585f88601d616953565b876040015161383c565b8360c00181815250506158978360c001516158926158888a601c616953565b896020015161383c565b613878565b8360c00181815250506158c58360c001516158c06158b68a601b616953565b896000015161383c565b613878565b8360c00181815250506158e68360c001516158e1896001616953565b613878565b8360c00181815250508260c001518360e00181815250506159158360c0015161591089601e616953565b6138b4565b8360c001818152505061593c61592c886027616953565b61593789601b616953565b6138b4565b8361014001818152505061596461595488602a616953565b61595f89601e616953565b6138b4565b8361012001818152505061599061598584610140015185610140015161383c565b8461014001516138b4565b836102800181815250506159ed6159e26159db85610140015160017f30644e72e131a029b85045b68181585d2833e84879b9709143e1f593f00000016159d69190617420565b61383c565b6001613878565b84610120015161383c565b83610160018181525050615a3f615a26846101600151615a21615a118b6002616953565b615a1c8c6003616953565b61383c565b61383c565b615a3a615a348a6009616953565b8761383c565b61383c565b85600d601a8110615a5357615a526173f1565b5b602002018181525050615aa4615a8b846102800151615a86615a768b6002616953565b615a818c6003616953565b61383c565b61383c565b615a9f615a998a6009616953565b8761383c565b61383c565b85600e601a8110615ab857615ab76173f1565b5b602002018181525050615aec8360c00151615ae7615ad78a6002616953565b615ae28b6003616953565b61383c565b61383c565b836101e00181815250506000615b10615b0689601e616953565b8560e001516138b4565b9050615b25615b1f828361383c565b826138b4565b846101a0018181525050615b47615b3d896029616953565b886040015161383c565b84610100018181525050615b77846101000151615b72615b688b6028616953565b8a6020015161383c565b613878565b84610100018181525050615ba7846101000151615ba2615b988b6027616953565b8a6000015161383c565b613878565b84610100018181525050615bca615bbf89602a616953565b8561010001516138b4565b846101000181815250506000615bf4615be48a6029616953565b615bef8b601d616953565b6138b4565b9050615c91615c47615c41615c3a88610140015160017f30644e72e131a029b85045b68181585d2833e84879b9709143e1f593f0000001615c359190617420565b61383c565b6001613878565b8361383c565b615c8c615c8588610100015160017f30644e72e131a029b85045b68181585d2833e84879b9709143e1f593f0000001615c809190617420565b61383c565b6001613878565b61383c565b85610180018181525050615cbd615cb286610100015187610100015161383c565b8661010001516138b4565b856101c0018181525050615cfc615ce3866101800151615cde8c6006616953565b61383c565b615cf7615cf18c6009616953565b8961383c565b61383c565b87600f601a8110615d1057615d0f6173f1565b5b602002018181525050615d4e615d35866102800151615d308c6006616953565b61383c565b615d49615d438c6009616953565b8961383c565b61383c565b876010601a8110615d6257615d616173f1565b5b602002018181525050615da0615d87866101c00151615d828c6006616953565b61383c565b615d9b615d958c6009616953565b8961383c565b61383c565b876011601a8110615db457615db36173f1565b5b602002018181525050615dd6856101a00151615dd18b6006616953565b61383c565b85610200018181525050615dfe615dee8a6028616953565b615df98b601c616953565b6138b4565b85610220018181525050615e6e615e5e615e53615e4c88610140015160017f30644e72e131a029b85045b68181585d2833e84879b9709143e1f593f0000001615e479190617420565b61383c565b6001613878565b87610220015161383c565b615e698b601d616953565b6138b4565b85610240018181525050846101e0015185610260018181525050615ec2856102600151615ebd876102400151615eb8615ea88e6005616953565b615eb38f6002616953565b61383c565b61383c565b613878565b85610260018181525050615f05856102600151615f008760c00151615efb615eeb8e6000616953565b615ef68f6002616953565b61383c565b61383c565b613878565b85610260018181525050615f23856102600151866102000151613878565b85610260018181525050615f45615f3f86610260015186613878565b84613878565b856102a0018181525050615f71856102a00151615f6c615f668c6009616953565b8961383c565b61383c565b856102a0018181525050846102a0015187600c601a8110615f9557615f946173f1565b5b602002018181525050505050505050505050565b615fb1616f7b565b615fcf615fbf85601b616953565b615fca866002616953565b613878565b816000018181525050615ff6615fe685601c616953565b615ff1866003616953565b613878565b81602001818152505061601d61600d85601d616953565b616018866004616953565b613878565b81604001818152505061604461603485601e616953565b61603f866005616953565b613878565b81606001818152505061608661607c6160726160688460000151856000015161383c565b846000015161383c565b836000015161383c565b826000015161383c565b8160800181815250506160c86160be6160b46160aa8460200151856020015161383c565b846020015161383c565b836020015161383c565b826020015161383c565b8160a001818152505061610a6161006160f66160ec8460400151856040015161383c565b846040015161383c565b836040015161383c565b826040015161383c565b8160c001818152505061614c61614261613861612e8460600151856060015161383c565b846060015161383c565b836060015161383c565b826060015161383c565b8160e001818152505061616781608001518260a00151613878565b816101000181815250506161838160c001518260e00151613878565b816101200181815250506161ad6161a28260a001518360a00151613878565b826101200151613878565b816101400181815250506161d76161cc8260e001518360e00151613878565b826101000151613878565b816101600181815250506161f5816101200151826101200151613878565b816101e0018181525050616221616216826101e00151836101e00151613878565b826101600151613878565b816101e001818152505061623f816101000151826101000151613878565b816101a001818152505061626b616260826101a00151836101a00151613878565b826101400151613878565b816101a0018181525050616289816101600151826101a00151613878565b816101800181815250506162a7816101400151826101e00151613878565b816101c00181815250506162c56162bf85600b616953565b8361383c565b81610200018181525050616317836012601a81106162e6576162e56173f1565b5b602002015161631283610200015161630d8561018001516163088a6027616953565b6138b4565b61383c565b613878565b836012601a811061632b5761632a6173f1565b5b60200201818152505061637c836013601a811061634b5761634a6173f1565b5b6020020151616377836102000151616372856101a0015161636d8a6028616953565b6138b4565b61383c565b613878565b836013601a81106163905761638f6173f1565b5b6020020181815250506163e1836014601a81106163b0576163af6173f1565b5b60200201516163dc8361020001516163d7856101c001516163d28a6029616953565b6138b4565b61383c565b613878565b836014601a81106163f5576163f46173f1565b5b602002018181525050616446836015601a8110616415576164146173f1565b5b602002015161644183610200015161643c856101e001516164378a602a616953565b6138b4565b61383c565b613878565b836015601a811061645a576164596173f1565b5b60200201818152505050505050565b616471616fff565b600060405180608001604052806164a77f10dc6e9c006ea38b04b1e03b4bd9490c0d03f98929ca1d7fb56821fd19d3b6e7613807565b81526020016164d57f0c28145b6a44df3e0149b3d0a30b3bb599df9756d4dd9b84a86b38cfb45a740b613807565b81526020016165027e544b8338791518b2c7645a50392798b21f75bb60e3596170067d00141cac15613807565b81526020016165307f222c01175718386f2e2e82eb122789e352e105a3b8fa852613bc534433ee428b613807565b815250905061655361654386601b616953565b61654e876002616953565b613878565b8261012001818152505061659b61659061658561657a85610120015186610120015161383c565b85610120015161383c565b84610120015161383c565b83610120015161383c565b8260000181815250506165af85601c616953565b8260200181815250506165c385601d616953565b8260400181815250506165d785601e616953565b82606001818152505061660c6166026165f884600001518560200151613878565b8460400151613878565b8360600151613878565b82608001818152505061662961662386600c616953565b8461383c565b8261014001818152505061666661665c836000015183600060048110616652576166516173f1565b5b602002015161383c565b8360800151613878565b8260a00181815250506166b6846016601a8110616686576166856173f1565b5b60200201516166b18461014001516166ac8660a001516166a78b6027616953565b6138b4565b61383c565b613878565b846016601a81106166ca576166c96173f1565b5b6020020181815250506167066166fc8360200151836001600481106166f2576166f16173f1565b5b602002015161383c565b8360800151613878565b8260c0018181525050616756846017601a8110616726576167256173f1565b5b602002015161675184610140015161674c8660c001516167478b6028616953565b6138b4565b61383c565b613878565b846017601a811061676a576167696173f1565b5b6020020181815250506167a661679c836040015183600260048110616792576167916173f1565b5b602002015161383c565b8360800151613878565b8260e00181815250506167f6846018601a81106167c6576167c56173f1565b5b60200201516167f18461014001516167ec8660e001516167e78b6029616953565b6138b4565b61383c565b613878565b846018601a811061680a576168096173f1565b5b60200201818152505061684661683c836060015183600360048110616832576168316173f1565b5b602002015161383c565b8360800151613878565b82610100018181525050616898846019601a8110616867576168666173f1565b5b602002015161689384610140015161688e8661010001516168898b602a616953565b6138b4565b61383c565b613878565b846019601a81106168ac576168ab6173f1565b5b6020020181815250505050505050565b60006168e081846000601a81106168d6576168d56173f1565b5b6020020151613878565b90506000600190505b601a81101561694c5761693f8261693a8684601a811061690c5761690b6173f1565b5b60200201518660018661691f9190617420565b601981106169305761692f6173f1565b5b602002015161383c565b613878565b91508060010190506168e9565b5092915050565b60008282602b81111561696957616968617d15565b5b602c811061697a576169796173f1565b5b6020020151905092915050565b604051806103c001604052806000815260200160008152602001600081526020016169b0616e7d565b81526020016169bd616e7d565b81526020016169ca616e7d565b81526020016169d7616e7d565b81526020016169e4616e7d565b81526020016169f1616e7d565b81526020016169fe616e7d565b8152602001616a0b616e7d565b8152602001616a18616e7d565b8152602001616a25616e7d565b8152602001616a32616e7d565b8152602001616a3f616e7d565b8152602001616a4c616e7d565b8152602001616a59616e7d565b8152602001616a66616e7d565b8152602001616a73616e7d565b8152602001616a80616e7d565b8152602001616a8d616e7d565b8152602001616a9a616e7d565b8152602001616aa7616e7d565b8152602001616ab4616e7d565b8152602001616ac1616e7d565b8152602001616ace616e7d565b8152602001616adb616e7d565b8152602001616ae8616e7d565b8152602001616af5616e7d565b8152602001616b02616e7d565b81525090565b604051806102200160405280600081526020016000815260200160008152602001616b31617059565b8152602001616b3e617059565b8152602001616b4b617059565b8152602001616b58617059565b8152602001616b65617059565b8152602001616b72617059565b8152602001616b7f617059565b8152602001616b8c617059565b8152602001616b99617081565b8152602001616ba66170af565b8152602001616bb36170d2565b8152602001616bc0616d43565b8152602001616bcd617059565b8152602001616bda617059565b81525090565b604051806101a001604052806000815260200160008152602001600081526020016000815260200160008152602001616c17616cfd565b8152602001616c24616d43565b8152602001616c31616d43565b815260200160008152602001600081526020016000815260200160008152602001600081525090565b6040518060a0016040528060008152602001600081526020016000815260200160008152602001600081525090565b604051806109400160405280604a90602082028036833780820191505090505090565b604051806109400160405280604a905b616cc4616e7d565b815260200190600190039081616cbc5790505090565b604051806101a00160405280600d90602082028036833780820191505090505090565b604051806103200160405280601990602082028036833780820191505090505090565b604051806101200160405280600990602082028036833780820191505090505090565b604051806103800160405280601c90602082028036833780820191505090505090565b604051806101200160405280600990602082028036833780820191505090505090565b604051806105a00160405280602d90602082028036833780820191505090505090565b60405180610da00160405280606d90602082028036833780820191505090505090565b604051806103a00160405280601d90602082028036833780820191505090505090565b6040518060a00160405280600590602082028036833780820191505090505090565b604051806101000160405280600890602082028036833780820191505090505090565b604051806103400160405280601a90602082028036833780820191505090505090565b604051806103a00160405280601d90602082028036833780820191505090505090565b604051806040016040528060008152602001600081525090565b6040518060e00160405280600081526020016000815260200160008152602001600081526020016000815260200160008152602001600081525090565b604051806102c00160405280600081526020016000815260200160008152602001600081526020016000815260200160008152602001600081526020016000815260200160008152602001600081526020016000815260200160008152602001600081526020016000815260200160008152602001600081526020016000815260200160008152602001600081526020016000815260200160008152602001600081525090565b60405180610220016040528060008152602001600081526020016000815260200160008152602001600081526020016000815260200160008152602001600081526020016000815260200160008152602001600081526020016000815260200160008152602001600081526020016000815260200160008152602001600081525090565b60405180610160016040528060008152602001600081526020016000815260200160008152602001600081526020016000815260200160008152602001600081526020016000815260200160008152602001600081525090565b6040518060800160405280600081526020016000815260200160008152602001600081525090565b604051806103800160405280601c905b617099616e14565b8152602001906001900390816170915790505090565b604051806105800160405280602c90602082028036833780820191505090505090565b604051806103600160405280601b905b6170ea617059565b8152602001906001900390816170e25790505090565b600080fd5b600080fd5b600080fd5b600080fd5b600080fd5b60008083601f84011261712f5761712e61710a565b5b8235905067ffffffffffffffff81111561714c5761714b61710f565b5b60208301915083600182028301111561716857617167617114565b5b9250929050565b60008083601f8401126171855761718461710a565b5b8235905067ffffffffffffffff8111156171a2576171a161710f565b5b6020830191508360208202830111156171be576171bd617114565b5b9250929050565b600080600080604085870312156171df576171de617100565b5b600085013567ffffffffffffffff8111156171fd576171fc617105565b5b61720987828801617119565b9450945050602085013567ffffffffffffffff81111561722c5761722b617105565b5b6172388782880161716f565b925092505092959194509250565b60008115159050919050565b61725b81617246565b82525050565b60006020820190506172766000830184617252565b92915050565b600080fd5b600080fd5b6000808585111561729a5761729961727c565b5b838611156172ab576172aa617281565b5b6001850283019150848603905094509492505050565b600082905092915050565b6000819050919050565b600082821b905092915050565b60006172ef83836172c1565b826172fa81356172cc565b9250602082101561733a576173357fffffffffffffffffffffffffffffffffffffffffffffffffffffffffffffffff836020036008026172d6565b831692505b505092915050565b6000819050919050565b7f4e487b7100000000000000000000000000000000000000000000000000000000600052601160045260246000fd5b600061738682617342565b915061739183617342565b925082820261739f81617342565b915082820484148315176173b6576173b561734c565b5b5092915050565b60006173c882617342565b91506173d383617342565b92508282019050808211156173eb576173ea61734c565b5b92915050565b7f4e487b7100000000000000000000000000000000000000000000000000000000600052603260045260246000fd5b600061742b82617342565b915061743683617342565b925082820390508181111561744e5761744d61734c565b5b92915050565b600061745f82617342565b91507fffffffffffffffffffffffffffffffffffffffffffffffffffffffffffffffff82036174915761749061734c565b5b600182019050919050565b7f4e487b7100000000000000000000000000000000000000000000000000000000600052601260045260246000fd5b60006174d682617342565b91506174e183617342565b9250826174f1576174f061749c565b5b828206905092915050565b7f4e487b7100000000000000000000000000000000000000000000000000000000600052604160045260246000fd5b600081519050919050565b600081905092915050565b6000819050602082019050919050565b61755a816172cc565b82525050565b600061756c8383617551565b60208301905092915050565b6000602082019050919050565b60006175908261752b565b61759a8185617536565b93506175a583617541565b8060005b838110156175d65781516175bd8882617560565b97506175c883617578565b9250506001810190506175a9565b5085935050505092915050565b60006175ef8284617585565b915081905092915050565b6000819050919050565b61761561761082617342565b6175fa565b82525050565b60006176278284617604565b60208201915081905092915050565b6000600d9050919050565b600081905092915050565b6000819050919050565b6000602082019050919050565b61766c81617636565b6176768184617641565b92506176818261764c565b8060005b838110156176b25781516176998782617560565b96506176a483617656565b925050600181019050617685565b505050505050565b60006176c68284617663565b6101a08201915081905092915050565b600060099050919050565b600081905092915050565b6000819050919050565b6176ff81617342565b82525050565b600061771183836176f6565b60208301905092915050565b6000602082019050919050565b617733816176d6565b61773d81846176e1565b9250617748826176ec565b8060005b838110156177795781516177608782617705565b965061776b8361771d565b92505060018101905061774c565b505050505050565b600061778d828461772a565b6101208201915081905092915050565b60006177a882617342565b91506177b383617342565b9250826177c3576177c261749c565b5b828204905092915050565b600060099050919050565b6000819050919050565b6000819050919050565b60006178086178036177fe84617342565b6177e3565b617342565b9050919050565b617818816177ed565b82525050565b600061782a838361780f565b60208301905092915050565b6000602082019050919050565b61784c816177ce565b61785681846176e1565b9250617861826177d9565b8060005b83811015617892578151617879878261781e565b965061788483617836565b925050600181019050617865565b505050505050565b60006178a68284617843565b6101208201915081905092915050565b6000602d9050919050565b600081905092915050565b6000819050919050565b6000602082019050919050565b6178ec816178b6565b6178f681846178c1565b9250617901826178cc565b8060005b83811015617932578151617919878261781e565b9650617924836178d6565b925050600181019050617905565b505050505050565b600061794682846178e3565b6105a08201915081905092915050565b6000606d9050919050565b600081905092915050565b6000819050919050565b6000602082019050919050565b61798c81617956565b6179968184617961565b92506179a18261796c565b8060005b838110156179d25781516179b98782617705565b96506179c483617976565b9250506001810190506179a5565b505050505050565b60006179e68284617983565b610da08201915081905092915050565b6000601d9050919050565b600081905092915050565b6000819050919050565b6000602082019050919050565b617a2c816179f6565b617a368184617a01565b9250617a4182617a0c565b8060005b83811015617a72578151617a598782617705565b9650617a6483617a16565b925050600181019050617a45565b505050505050565b6000617a868284617a23565b6103a08201915081905092915050565b600060059050919050565b600081905092915050565b6000819050919050565b6000602082019050919050565b617acc81617a96565b617ad68184617aa1565b9250617ae182617aac565b8060005b83811015617b12578151617af98782617705565b9650617b0483617ab6565b925050600181019050617ae5565b505050505050565b6000617b268284617ac3565b60a08201915081905092915050565b6000617b4082617342565b915060008203617b5357617b5261734c565b5b600182039050919050565b6000617b6a828f617604565b602082019150617b7a828e617604565b602082019150617b8a828d617604565b602082019150617b9a828c617604565b602082019150617baa828b617604565b602082019150617bba828a617604565b602082019150617bca8289617604565b602082019150617bda8288617604565b602082019150617bea8287617604565b602082019150617bfa8286617604565b602082019150617c0a8285617604565b602082019150617c1a8284617604565b6020820191508190509d9c50505050505050505050505050565b600081519050919050565b600081905092915050565b60005b83811015617c68578082015181840152602081019050617c4d565b60008484015250505050565b6000617c7f82617c34565b617c898185617c3f565b9350617c99818560208601617c4a565b80840191505092915050565b6000617cb18284617c74565b915081905092915050565b617cc581617246565b8114617cd057600080fd5b50565b600081519050617ce281617cbc565b92915050565b600060208284031215617cfe57617cfd617100565b5b6000617d0c84828501617cd3565b91505092915050565b7f4e487b7100000000000000000000000000000000000000000000000000000000600052602160045260246000fdfea2646970667358221220f236808752bdc525472b6251415cbebcc7443b0c310377c840d6c58de5a46d5d64736f6c634300081c0033","opcodes":"PUSH1 0x80 PUSH1 0x40 MSTORE PUSH1 0x40 MLOAD PUSH1 0xE SWAP1 PUSH1 0x79 JUMP JUMPDEST PUSH1 0x40 MLOAD DUP1 SWAP2 SUB SWAP1 PUSH1 0x0 CREATE DUP1 ISZERO DUP1 ISZERO PUSH1 0x29 JUMPI RETURNDATASIZE PUSH1 0x0 DUP1 RETURNDATACOPY RETURNDATASIZE PUSH1 0x0 REVERT JUMPDEST POP PUSH1 0x0 DUP1 PUSH2 0x100 EXP DUP2 SLOAD DUP2 PUSH20 0xFFFFFFFFFFFFFFFFFFFFFFFFFFFFFFFFFFFFFFFF MUL NOT AND SWAP1 DUP4 PUSH20 0xFFFFFFFFFFFFFFFFFFFFFFFFFFFFFFFFFFFFFFFF AND MUL OR SWAP1 SSTORE POP CALLVALUE DUP1 ISZERO PUSH1 0x74 JUMPI PUSH1 0x0 DUP1 REVERT JUMPDEST POP PUSH1 0x86 JUMP JUMPDEST PUSH2 0x7D99 DUP1 PUSH2 0x6B7 DUP4 CODECOPY ADD SWAP1 JUMP JUMPDEST PUSH2 0x622 DUP1 PUSH2 0x95 PUSH1 0x0 CODECOPY PUSH1 0x0 RETURN INVALID PUSH1 0x80 PUSH1 0x40 MSTORE CALLVALUE DUP1 ISZERO PUSH2 0x10 JUMPI PUSH1 0x0 DUP1 REVERT JUMPDEST POP PUSH1 0x4 CALLDATASIZE LT PUSH2 0x36 JUMPI PUSH1 0x0 CALLDATALOAD PUSH1 0xE0 SHR DUP1 PUSH4 0x198E744A EQ PUSH2 0x3B JUMPI DUP1 PUSH4 0x2B7AC3F3 EQ PUSH2 0x6B JUMPI JUMPDEST PUSH1 0x0 DUP1 REVERT JUMPDEST PUSH2 0x55 PUSH1 0x4 DUP1 CALLDATASIZE SUB DUP2 ADD SWAP1 PUSH2 0x50 SWAP2 SWAP1 PUSH2 0x292 JUMP JUMPDEST PUSH2 0x89 JUMP JUMPDEST PUSH1 0x40 MLOAD PUSH2 0x62 SWAP2 SWAP1 PUSH2 0x321 JUMP JUMPDEST PUSH1 0x40 MLOAD DUP1 SWAP2 SUB SWAP1 RETURN JUMPDEST PUSH2 0x73 PUSH2 0x1C9 JUMP JUMPDEST PUSH1 0x40 MLOAD PUSH2 0x80 SWAP2 SWAP1 PUSH2 0x3BB JUMP JUMPDEST PUSH1 0x40 MLOAD DUP1 SWAP2 SUB SWAP1 RETURN JUMPDEST PUSH1 0x0 DUP1 PUSH1 0x2 PUSH8 0xFFFFFFFFFFFFFFFF DUP2 GT ISZERO PUSH2 0xA7 JUMPI PUSH2 0xA6 PUSH2 0x3D6 JUMP JUMPDEST JUMPDEST PUSH1 0x40 MLOAD SWAP1 DUP1 DUP3 MSTORE DUP1 PUSH1 0x20 MUL PUSH1 0x20 ADD DUP3 ADD PUSH1 0x40 MSTORE DUP1 ISZERO PUSH2 0xD5 JUMPI DUP2 PUSH1 0x20 ADD PUSH1 0x20 DUP3 MUL DUP1 CALLDATASIZE DUP4 CALLDATACOPY DUP1 DUP3 ADD SWAP2 POP POP SWAP1 POP JUMPDEST POP SWAP1 POP DUP4 PUSH1 0x0 SHL DUP2 PUSH1 0x0 DUP2 MLOAD DUP2 LT PUSH2 0xF0 JUMPI PUSH2 0xEF PUSH2 0x405 JUMP JUMPDEST JUMPDEST PUSH1 0x20 MUL PUSH1 0x20 ADD ADD DUP2 DUP2 MSTORE POP POP DUP3 PUSH1 0x0 SHL DUP2 PUSH1 0x1 DUP2 MLOAD DUP2 LT PUSH2 0x114 JUMPI PUSH2 0x113 PUSH2 0x405 JUMP JUMPDEST JUMPDEST PUSH1 0x20 MUL PUSH1 0x20 ADD ADD DUP2 DUP2 MSTORE POP POP PUSH1 0x0 DUP1 SLOAD SWAP1 PUSH2 0x100 EXP SWAP1 DIV PUSH20 0xFFFFFFFFFFFFFFFFFFFFFFFFFFFFFFFFFFFFFFFF AND PUSH20 0xFFFFFFFFFFFFFFFFFFFFFFFFFFFFFFFFFFFFFFFF AND PUSH4 0xEA50D0E4 DUP8 DUP8 DUP5 PUSH1 0x40 MLOAD DUP5 PUSH4 0xFFFFFFFF AND PUSH1 0xE0 SHL DUP2 MSTORE PUSH1 0x4 ADD PUSH2 0x17D SWAP4 SWAP3 SWAP2 SWAP1 PUSH2 0x55A JUMP JUMPDEST PUSH1 0x20 PUSH1 0x40 MLOAD DUP1 DUP4 SUB DUP2 DUP7 GAS STATICCALL ISZERO DUP1 ISZERO PUSH2 0x19A JUMPI RETURNDATASIZE PUSH1 0x0 DUP1 RETURNDATACOPY RETURNDATASIZE PUSH1 0x0 REVERT JUMPDEST POP POP POP POP PUSH1 0x40 MLOAD RETURNDATASIZE PUSH1 0x1F NOT PUSH1 0x1F DUP3 ADD AND DUP3 ADD DUP1 PUSH1 0x40 MSTORE POP DUP2 ADD SWAP1 PUSH2 0x1BE SWAP2 SWAP1 PUSH2 0x5BF JUMP JUMPDEST SWAP2 POP POP SWAP5 SWAP4 POP POP POP POP JUMP JUMPDEST PUSH1 0x0 DUP1 SLOAD SWAP1 PUSH2 0x100 EXP SWAP1 DIV PUSH20 0xFFFFFFFFFFFFFFFFFFFFFFFFFFFFFFFFFFFFFFFF AND DUP2 JUMP JUMPDEST PUSH1 0x0 DUP1 REVERT JUMPDEST PUSH1 0x0 DUP1 REVERT JUMPDEST PUSH1 0x0 DUP1 REVERT JUMPDEST PUSH1 0x0 DUP1 REVERT JUMPDEST PUSH1 0x0 DUP1 REVERT JUMPDEST PUSH1 0x0 DUP1 DUP4 PUSH1 0x1F DUP5 ADD SLT PUSH2 0x21C JUMPI PUSH2 0x21B PUSH2 0x1F7 JUMP JUMPDEST JUMPDEST DUP3 CALLDATALOAD SWAP1 POP PUSH8 0xFFFFFFFFFFFFFFFF DUP2 GT ISZERO PUSH2 0x239 JUMPI PUSH2 0x238 PUSH2 0x1FC JUMP JUMPDEST JUMPDEST PUSH1 0x20 DUP4 ADD SWAP2 POP DUP4 PUSH1 0x1 DUP3 MUL DUP4 ADD GT ISZERO PUSH2 0x255 JUMPI PUSH2 0x254 PUSH2 0x201 JUMP JUMPDEST JUMPDEST SWAP3 POP SWAP3 SWAP1 POP JUMP JUMPDEST PUSH1 0x0 DUP2 SWAP1 POP SWAP2 SWAP1 POP JUMP JUMPDEST PUSH2 0x26F DUP2 PUSH2 0x25C JUMP JUMPDEST DUP2 EQ PUSH2 0x27A JUMPI PUSH1 0x0 DUP1 REVERT JUMPDEST POP JUMP JUMPDEST PUSH1 0x0 DUP2 CALLDATALOAD SWAP1 POP PUSH2 0x28C DUP2 PUSH2 0x266 JUMP JUMPDEST SWAP3 SWAP2 POP POP JUMP JUMPDEST PUSH1 0x0 DUP1 PUSH1 0x0 DUP1 PUSH1 0x60 DUP6 DUP8 SUB SLT ISZERO PUSH2 0x2AC JUMPI PUSH2 0x2AB PUSH2 0x1ED JUMP JUMPDEST JUMPDEST PUSH1 0x0 DUP6 ADD CALLDATALOAD PUSH8 0xFFFFFFFFFFFFFFFF DUP2 GT ISZERO PUSH2 0x2CA JUMPI PUSH2 0x2C9 PUSH2 0x1F2 JUMP JUMPDEST JUMPDEST PUSH2 0x2D6 DUP8 DUP3 DUP9 ADD PUSH2 0x206 JUMP JUMPDEST SWAP5 POP SWAP5 POP POP PUSH1 0x20 PUSH2 0x2E9 DUP8 DUP3 DUP9 ADD PUSH2 0x27D JUMP JUMPDEST SWAP3 POP POP PUSH1 0x40 PUSH2 0x2FA DUP8 DUP3 DUP9 ADD PUSH2 0x27D JUMP JUMPDEST SWAP2 POP POP SWAP3 SWAP6 SWAP2 SWAP5 POP SWAP3 POP JUMP JUMPDEST PUSH1 0x0 DUP2 ISZERO ISZERO SWAP1 POP SWAP2 SWAP1 POP JUMP JUMPDEST PUSH2 0x31B DUP2 PUSH2 0x306 JUMP JUMPDEST DUP3 MSTORE POP POP JUMP JUMPDEST PUSH1 0x0 PUSH1 0x20 DUP3 ADD SWAP1 POP PUSH2 0x336 PUSH1 0x0 DUP4 ADD DUP5 PUSH2 0x312 JUMP JUMPDEST SWAP3 SWAP2 POP POP JUMP JUMPDEST PUSH1 0x0 PUSH20 0xFFFFFFFFFFFFFFFFFFFFFFFFFFFFFFFFFFFFFFFF DUP3 AND SWAP1 POP SWAP2 SWAP1 POP JUMP JUMPDEST PUSH1 0x0 DUP2 SWAP1 POP SWAP2 SWAP1 POP JUMP JUMPDEST PUSH1 0x0 PUSH2 0x381 PUSH2 0x37C PUSH2 0x377 DUP5 PUSH2 0x33C JUMP JUMPDEST PUSH2 0x35C JUMP JUMPDEST PUSH2 0x33C JUMP JUMPDEST SWAP1 POP SWAP2 SWAP1 POP JUMP JUMPDEST PUSH1 0x0 PUSH2 0x393 DUP3 PUSH2 0x366 JUMP JUMPDEST SWAP1 POP SWAP2 SWAP1 POP JUMP JUMPDEST PUSH1 0x0 PUSH2 0x3A5 DUP3 PUSH2 0x388 JUMP JUMPDEST SWAP1 POP SWAP2 SWAP1 POP JUMP JUMPDEST PUSH2 0x3B5 DUP2 PUSH2 0x39A JUMP JUMPDEST DUP3 MSTORE POP POP JUMP JUMPDEST PUSH1 0x0 PUSH1 0x20 DUP3 ADD SWAP1 POP PUSH2 0x3D0 PUSH1 0x0 DUP4 ADD DUP5 PUSH2 0x3AC JUMP JUMPDEST SWAP3 SWAP2 POP POP JUMP JUMPDEST PUSH32 0x4E487B7100000000000000000000000000000000000000000000000000000000 PUSH1 0x0 MSTORE PUSH1 0x41 PUSH1 0x4 MSTORE PUSH1 0x24 PUSH1 0x0 REVERT JUMPDEST PUSH32 0x4E487B7100000000000000000000000000000000000000000000000000000000 PUSH1 0x0 MSTORE PUSH1 0x32 PUSH1 0x4 MSTORE PUSH1 0x24 PUSH1 0x0 REVERT JUMPDEST PUSH1 0x0 DUP3 DUP3 MSTORE PUSH1 0x20 DUP3 ADD SWAP1 POP SWAP3 SWAP2 POP POP JUMP JUMPDEST DUP3 DUP2 DUP4 CALLDATACOPY PUSH1 0x0 DUP4 DUP4 ADD MSTORE POP POP POP JUMP JUMPDEST PUSH1 0x0 PUSH1 0x1F NOT PUSH1 0x1F DUP4 ADD AND SWAP1 POP SWAP2 SWAP1 POP JUMP JUMPDEST PUSH1 0x0 PUSH2 0x471 DUP4 DUP6 PUSH2 0x434 JUMP JUMPDEST SWAP4 POP PUSH2 0x47E DUP4 DUP6 DUP5 PUSH2 0x445 JUMP JUMPDEST PUSH2 0x487 DUP4 PUSH2 0x454 JUMP JUMPDEST DUP5 ADD SWAP1 POP SWAP4 SWAP3 POP POP POP JUMP JUMPDEST PUSH1 0x0 DUP2 MLOAD SWAP1 POP SWAP2 SWAP1 POP JUMP JUMPDEST PUSH1 0x0 DUP3 DUP3 MSTORE PUSH1 0x20 DUP3 ADD SWAP1 POP SWAP3 SWAP2 POP POP JUMP JUMPDEST PUSH1 0x0 DUP2 SWAP1 POP PUSH1 0x20 DUP3 ADD SWAP1 POP SWAP2 SWAP1 POP JUMP JUMPDEST PUSH1 0x0 DUP2 SWAP1 POP SWAP2 SWAP1 POP JUMP JUMPDEST PUSH2 0x4D1 DUP2 PUSH2 0x4BE JUMP JUMPDEST DUP3 MSTORE POP POP JUMP JUMPDEST PUSH1 0x0 PUSH2 0x4E3 DUP4 DUP4 PUSH2 0x4C8 JUMP JUMPDEST PUSH1 0x20 DUP4 ADD SWAP1 POP SWAP3 SWAP2 POP POP JUMP JUMPDEST PUSH1 0x0 PUSH1 0x20 DUP3 ADD SWAP1 POP SWAP2 SWAP1 POP JUMP JUMPDEST PUSH1 0x0 PUSH2 0x507 DUP3 PUSH2 0x492 JUMP JUMPDEST PUSH2 0x511 DUP2 DUP6 PUSH2 0x49D JUMP JUMPDEST SWAP4 POP PUSH2 0x51C DUP4 PUSH2 0x4AE JUMP JUMPDEST DUP1 PUSH1 0x0 JUMPDEST DUP4 DUP2 LT ISZERO PUSH2 0x54D JUMPI DUP2 MLOAD PUSH2 0x534 DUP9 DUP3 PUSH2 0x4D7 JUMP JUMPDEST SWAP8 POP PUSH2 0x53F DUP4 PUSH2 0x4EF JUMP JUMPDEST SWAP3 POP POP PUSH1 0x1 DUP2 ADD SWAP1 POP PUSH2 0x520 JUMP JUMPDEST POP DUP6 SWAP4 POP POP POP POP SWAP3 SWAP2 POP POP JUMP JUMPDEST PUSH1 0x0 PUSH1 0x40 DUP3 ADD SWAP1 POP DUP2 DUP2 SUB PUSH1 0x0 DUP4 ADD MSTORE PUSH2 0x575 DUP2 DUP6 DUP8 PUSH2 0x465 JUMP JUMPDEST SWAP1 POP DUP2 DUP2 SUB PUSH1 0x20 DUP4 ADD MSTORE PUSH2 0x589 DUP2 DUP5 PUSH2 0x4FC JUMP JUMPDEST SWAP1 POP SWAP5 SWAP4 POP POP POP POP JUMP JUMPDEST PUSH2 0x59C DUP2 PUSH2 0x306 JUMP JUMPDEST DUP2 EQ PUSH2 0x5A7 JUMPI PUSH1 0x0 DUP1 REVERT JUMPDEST POP JUMP JUMPDEST PUSH1 0x0 DUP2 MLOAD SWAP1 POP PUSH2 0x5B9 DUP2 PUSH2 0x593 JUMP JUMPDEST SWAP3 SWAP2 POP POP JUMP JUMPDEST PUSH1 0x0 PUSH1 0x20 DUP3 DUP5 SUB SLT ISZERO PUSH2 0x5D5 JUMPI PUSH2 0x5D4 PUSH2 0x1ED JUMP JUMPDEST JUMPDEST PUSH1 0x0 PUSH2 0x5E3 DUP5 DUP3 DUP6 ADD PUSH2 0x5AA JUMP JUMPDEST SWAP2 POP POP SWAP3 SWAP2 POP POP JUMP INVALID LOG2 PUSH5 0x6970667358 0x22 SLT KECCAK256 SWAP1 PUSH13 0x53600E0600188B06782274268E CALLDATACOPY 0xA5 CALLDATASIZE 0xA6 0xAA 0xE EXP BALANCE PUSH24 0xF60EC567936810C164736F6C634300081C00336080604052 CALLVALUE DUP1 ISZERO PUSH1 0xF JUMPI PUSH1 0x0 DUP1 REVERT JUMPDEST POP PUSH2 0x7D7A DUP1 PUSH2 0x1F PUSH1 0x0 CODECOPY PUSH1 0x0 RETURN INVALID PUSH1 0x80 PUSH1 0x40 MSTORE CALLVALUE DUP1 ISZERO PUSH2 0x10 JUMPI PUSH1 0x0 DUP1 REVERT JUMPDEST POP PUSH1 0x4 CALLDATASIZE LT PUSH2 0x2B JUMPI PUSH1 0x0 CALLDATALOAD PUSH1 0xE0 SHR DUP1 PUSH4 0xEA50D0E4 EQ PUSH2 0x30 JUMPI JUMPDEST PUSH1 0x0 DUP1 REVERT JUMPDEST PUSH2 0x4A PUSH1 0x4 DUP1 CALLDATASIZE SUB DUP2 ADD SWAP1 PUSH2 0x45 SWAP2 SWAP1 PUSH2 0x71C5 JUMP JUMPDEST PUSH2 0x60 JUMP JUMPDEST PUSH1 0x40 MLOAD PUSH2 0x57 SWAP2 SWAP1 PUSH2 0x7261 JUMP JUMPDEST PUSH1 0x40 MLOAD DUP1 SWAP2 SUB SWAP1 RETURN JUMPDEST PUSH1 0x0 DUP1 PUSH2 0x6B PUSH2 0x1DB JUMP JUMPDEST SWAP1 POP PUSH1 0x0 PUSH2 0x79 DUP8 DUP8 PUSH2 0x1F0 JUMP JUMPDEST SWAP1 POP DUP2 PUSH1 0x40 ADD MLOAD DUP6 DUP6 SWAP1 POP EQ PUSH2 0xBB JUMPI PUSH1 0x40 MLOAD PUSH32 0xFA06659300000000000000000000000000000000000000000000000000000000 DUP2 MSTORE PUSH1 0x4 ADD PUSH1 0x40 MLOAD DUP1 SWAP2 SUB SWAP1 REVERT JUMPDEST PUSH1 0x0 PUSH2 0xCD DUP3 DUP8 DUP8 DUP7 PUSH1 0x40 ADD MLOAD PUSH2 0xE1D JUMP JUMPDEST SWAP1 POP PUSH2 0x12D DUP7 DUP7 DUP1 DUP1 PUSH1 0x20 MUL PUSH1 0x20 ADD PUSH1 0x40 MLOAD SWAP1 DUP2 ADD PUSH1 0x40 MSTORE DUP1 SWAP4 SWAP3 SWAP2 SWAP1 DUP2 DUP2 MSTORE PUSH1 0x20 ADD DUP4 DUP4 PUSH1 0x20 MUL DUP1 DUP3 DUP5 CALLDATACOPY PUSH1 0x0 DUP2 DUP5 ADD MSTORE PUSH1 0x1F NOT PUSH1 0x1F DUP3 ADD AND SWAP1 POP DUP1 DUP4 ADD SWAP3 POP POP POP POP POP POP POP DUP3 PUSH1 0x60 ADD MLOAD DUP4 PUSH1 0x80 ADD MLOAD DUP7 PUSH1 0x0 ADD MLOAD DUP7 PUSH1 0x40 ADD MLOAD PUSH2 0xF1C JUMP JUMPDEST DUP2 PUSH2 0x180 ADD DUP2 DUP2 MSTORE POP POP PUSH1 0x0 PUSH2 0x143 DUP4 DUP4 PUSH2 0x101B JUMP JUMPDEST SWAP1 POP DUP1 PUSH2 0x17C JUMPI PUSH1 0x40 MLOAD PUSH32 0x9FC3A21800000000000000000000000000000000000000000000000000000000 DUP2 MSTORE PUSH1 0x4 ADD PUSH1 0x40 MLOAD DUP1 SWAP2 SUB SWAP1 REVERT JUMPDEST PUSH1 0x0 PUSH2 0x189 DUP5 DUP7 DUP6 PUSH2 0x1103 JUMP JUMPDEST SWAP1 POP DUP1 PUSH2 0x1C2 JUMPI PUSH1 0x40 MLOAD PUSH32 0xA5D82E8A00000000000000000000000000000000000000000000000000000000 DUP2 MSTORE PUSH1 0x4 ADD PUSH1 0x40 MLOAD DUP1 SWAP2 SUB SWAP1 REVERT JUMPDEST DUP2 DUP1 ISZERO PUSH2 0x1CC JUMPI POP DUP1 JUMPDEST SWAP6 POP POP POP POP POP POP SWAP5 SWAP4 POP POP POP POP JUMP JUMPDEST PUSH2 0x1E3 PUSH2 0x6987 JUMP JUMPDEST PUSH2 0x1EB PUSH2 0x1D7A JUMP JUMPDEST SWAP1 POP SWAP1 JUMP JUMPDEST PUSH2 0x1F8 PUSH2 0x6B08 JUMP JUMPDEST PUSH2 0x200 PUSH2 0x6B08 JUMP JUMPDEST DUP4 DUP4 PUSH1 0x0 SWAP1 PUSH1 0x20 SWAP3 PUSH2 0x214 SWAP4 SWAP3 SWAP2 SWAP1 PUSH2 0x7286 JUMP JUMPDEST SWAP1 PUSH2 0x21F SWAP2 SWAP1 PUSH2 0x72E3 JUMP JUMPDEST PUSH1 0x0 SHR DUP2 PUSH1 0x0 ADD DUP2 DUP2 MSTORE POP POP DUP4 DUP4 PUSH1 0x20 SWAP1 PUSH1 0x40 SWAP3 PUSH2 0x23F SWAP4 SWAP3 SWAP2 SWAP1 PUSH2 0x7286 JUMP JUMPDEST SWAP1 PUSH2 0x24A SWAP2 SWAP1 PUSH2 0x72E3 JUMP JUMPDEST PUSH1 0x0 SHR DUP2 PUSH1 0x20 ADD DUP2 DUP2 MSTORE POP POP DUP4 DUP4 PUSH1 0x40 SWAP1 PUSH1 0x60 SWAP3 PUSH2 0x26A SWAP4 SWAP3 SWAP2 SWAP1 PUSH2 0x7286 JUMP JUMPDEST SWAP1 PUSH2 0x275 SWAP2 SWAP1 PUSH2 0x72E3 JUMP JUMPDEST PUSH1 0x0 SHR DUP2 PUSH1 0x40 ADD DUP2 DUP2 MSTORE POP POP PUSH1 0x40 MLOAD DUP1 PUSH1 0x80 ADD PUSH1 0x40 MSTORE DUP1 DUP6 DUP6 PUSH1 0x60 SWAP1 PUSH1 0x80 SWAP3 PUSH2 0x2A0 SWAP4 SWAP3 SWAP2 SWAP1 PUSH2 0x7286 JUMP JUMPDEST SWAP1 PUSH2 0x2AB SWAP2 SWAP1 PUSH2 0x72E3 JUMP JUMPDEST PUSH1 0x0 SHR DUP2 MSTORE PUSH1 0x20 ADD DUP6 DUP6 PUSH1 0x80 SWAP1 PUSH1 0xA0 SWAP3 PUSH2 0x2C7 SWAP4 SWAP3 SWAP2 SWAP1 PUSH2 0x7286 JUMP JUMPDEST SWAP1 PUSH2 0x2D2 SWAP2 SWAP1 PUSH2 0x72E3 JUMP JUMPDEST PUSH1 0x0 SHR DUP2 MSTORE PUSH1 0x20 ADD DUP6 DUP6 PUSH1 0xA0 SWAP1 PUSH1 0xC0 SWAP3 PUSH2 0x2EE SWAP4 SWAP3 SWAP2 SWAP1 PUSH2 0x7286 JUMP JUMPDEST SWAP1 PUSH2 0x2F9 SWAP2 SWAP1 PUSH2 0x72E3 JUMP JUMPDEST PUSH1 0x0 SHR DUP2 MSTORE PUSH1 0x20 ADD DUP6 DUP6 PUSH1 0xC0 SWAP1 PUSH1 0xE0 SWAP3 PUSH2 0x315 SWAP4 SWAP3 SWAP2 SWAP1 PUSH2 0x7286 JUMP JUMPDEST SWAP1 PUSH2 0x320 SWAP2 SWAP1 PUSH2 0x72E3 JUMP JUMPDEST PUSH1 0x0 SHR DUP2 MSTORE POP DUP2 PUSH1 0x60 ADD DUP2 SWAP1 MSTORE POP PUSH1 0x40 MLOAD DUP1 PUSH1 0x80 ADD PUSH1 0x40 MSTORE DUP1 DUP6 DUP6 PUSH1 0xE0 SWAP1 PUSH2 0x100 SWAP3 PUSH2 0x34E SWAP4 SWAP3 SWAP2 SWAP1 PUSH2 0x7286 JUMP JUMPDEST SWAP1 PUSH2 0x359 SWAP2 SWAP1 PUSH2 0x72E3 JUMP JUMPDEST PUSH1 0x0 SHR DUP2 MSTORE PUSH1 0x20 ADD DUP6 DUP6 PUSH2 0x100 SWAP1 PUSH2 0x120 SWAP3 PUSH2 0x377 SWAP4 SWAP3 SWAP2 SWAP1 PUSH2 0x7286 JUMP JUMPDEST SWAP1 PUSH2 0x382 SWAP2 SWAP1 PUSH2 0x72E3 JUMP JUMPDEST PUSH1 0x0 SHR DUP2 MSTORE PUSH1 0x20 ADD DUP6 DUP6 PUSH2 0x120 SWAP1 PUSH2 0x140 SWAP3 PUSH2 0x3A0 SWAP4 SWAP3 SWAP2 SWAP1 PUSH2 0x7286 JUMP JUMPDEST SWAP1 PUSH2 0x3AB SWAP2 SWAP1 PUSH2 0x72E3 JUMP JUMPDEST PUSH1 0x0 SHR DUP2 MSTORE PUSH1 0x20 ADD DUP6 DUP6 PUSH2 0x140 SWAP1 PUSH2 0x160 SWAP3 PUSH2 0x3C9 SWAP4 SWAP3 SWAP2 SWAP1 PUSH2 0x7286 JUMP JUMPDEST SWAP1 PUSH2 0x3D4 SWAP2 SWAP1 PUSH2 0x72E3 JUMP JUMPDEST PUSH1 0x0 SHR DUP2 MSTORE POP DUP2 PUSH1 0x80 ADD DUP2 SWAP1 MSTORE POP PUSH1 0x40 MLOAD DUP1 PUSH1 0x80 ADD PUSH1 0x40 MSTORE DUP1 DUP6 DUP6 PUSH2 0x160 SWAP1 PUSH2 0x180 SWAP3 PUSH2 0x403 SWAP4 SWAP3 SWAP2 SWAP1 PUSH2 0x7286 JUMP JUMPDEST SWAP1 PUSH2 0x40E SWAP2 SWAP1 PUSH2 0x72E3 JUMP JUMPDEST PUSH1 0x0 SHR DUP2 MSTORE PUSH1 0x20 ADD DUP6 DUP6 PUSH2 0x180 SWAP1 PUSH2 0x1A0 SWAP3 PUSH2 0x42C SWAP4 SWAP3 SWAP2 SWAP1 PUSH2 0x7286 JUMP JUMPDEST SWAP1 PUSH2 0x437 SWAP2 SWAP1 PUSH2 0x72E3 JUMP JUMPDEST PUSH1 0x0 SHR DUP2 MSTORE PUSH1 0x20 ADD DUP6 DUP6 PUSH2 0x1A0 SWAP1 PUSH2 0x1C0 SWAP3 PUSH2 0x455 SWAP4 SWAP3 SWAP2 SWAP1 PUSH2 0x7286 JUMP JUMPDEST SWAP1 PUSH2 0x460 SWAP2 SWAP1 PUSH2 0x72E3 JUMP JUMPDEST PUSH1 0x0 SHR DUP2 MSTORE PUSH1 0x20 ADD DUP6 DUP6 PUSH2 0x1C0 SWAP1 PUSH2 0x1E0 SWAP3 PUSH2 0x47E SWAP4 SWAP3 SWAP2 SWAP1 PUSH2 0x7286 JUMP JUMPDEST SWAP1 PUSH2 0x489 SWAP2 SWAP1 PUSH2 0x72E3 JUMP JUMPDEST PUSH1 0x0 SHR DUP2 MSTORE POP DUP2 PUSH1 0xA0 ADD DUP2 SWAP1 MSTORE POP PUSH1 0x40 MLOAD DUP1 PUSH1 0x80 ADD PUSH1 0x40 MSTORE DUP1 DUP6 DUP6 PUSH2 0x1E0 SWAP1 PUSH2 0x200 SWAP3 PUSH2 0x4B8 SWAP4 SWAP3 SWAP2 SWAP1 PUSH2 0x7286 JUMP JUMPDEST SWAP1 PUSH2 0x4C3 SWAP2 SWAP1 PUSH2 0x72E3 JUMP JUMPDEST PUSH1 0x0 SHR DUP2 MSTORE PUSH1 0x20 ADD DUP6 DUP6 PUSH2 0x200 SWAP1 PUSH2 0x220 SWAP3 PUSH2 0x4E1 SWAP4 SWAP3 SWAP2 SWAP1 PUSH2 0x7286 JUMP JUMPDEST SWAP1 PUSH2 0x4EC SWAP2 SWAP1 PUSH2 0x72E3 JUMP JUMPDEST PUSH1 0x0 SHR DUP2 MSTORE PUSH1 0x20 ADD DUP6 DUP6 PUSH2 0x220 SWAP1 PUSH2 0x240 SWAP3 PUSH2 0x50A SWAP4 SWAP3 SWAP2 SWAP1 PUSH2 0x7286 JUMP JUMPDEST SWAP1 PUSH2 0x515 SWAP2 SWAP1 PUSH2 0x72E3 JUMP JUMPDEST PUSH1 0x0 SHR DUP2 MSTORE PUSH1 0x20 ADD DUP6 DUP6 PUSH2 0x240 SWAP1 PUSH2 0x260 SWAP3 PUSH2 0x533 SWAP4 SWAP3 SWAP2 SWAP1 PUSH2 0x7286 JUMP JUMPDEST SWAP1 PUSH2 0x53E SWAP2 SWAP1 PUSH2 0x72E3 JUMP JUMPDEST PUSH1 0x0 SHR DUP2 MSTORE POP DUP2 PUSH2 0x100 ADD DUP2 SWAP1 MSTORE POP PUSH1 0x40 MLOAD DUP1 PUSH1 0x80 ADD PUSH1 0x40 MSTORE DUP1 DUP6 DUP6 PUSH2 0x260 SWAP1 PUSH2 0x280 SWAP3 PUSH2 0x56E SWAP4 SWAP3 SWAP2 SWAP1 PUSH2 0x7286 JUMP JUMPDEST SWAP1 PUSH2 0x579 SWAP2 SWAP1 PUSH2 0x72E3 JUMP JUMPDEST PUSH1 0x0 SHR DUP2 MSTORE PUSH1 0x20 ADD DUP6 DUP6 PUSH2 0x280 SWAP1 PUSH2 0x2A0 SWAP3 PUSH2 0x597 SWAP4 SWAP3 SWAP2 SWAP1 PUSH2 0x7286 JUMP JUMPDEST SWAP1 PUSH2 0x5A2 SWAP2 SWAP1 PUSH2 0x72E3 JUMP JUMPDEST PUSH1 0x0 SHR DUP2 MSTORE PUSH1 0x20 ADD DUP6 DUP6 PUSH2 0x2A0 SWAP1 PUSH2 0x2C0 SWAP3 PUSH2 0x5C0 SWAP4 SWAP3 SWAP2 SWAP1 PUSH2 0x7286 JUMP JUMPDEST SWAP1 PUSH2 0x5CB SWAP2 SWAP1 PUSH2 0x72E3 JUMP JUMPDEST PUSH1 0x0 SHR DUP2 MSTORE PUSH1 0x20 ADD DUP6 DUP6 PUSH2 0x2C0 SWAP1 PUSH2 0x2E0 SWAP3 PUSH2 0x5E9 SWAP4 SWAP3 SWAP2 SWAP1 PUSH2 0x7286 JUMP JUMPDEST SWAP1 PUSH2 0x5F4 SWAP2 SWAP1 PUSH2 0x72E3 JUMP JUMPDEST PUSH1 0x0 SHR DUP2 MSTORE POP DUP2 PUSH2 0x120 ADD DUP2 SWAP1 MSTORE POP PUSH1 0x40 MLOAD DUP1 PUSH1 0x80 ADD PUSH1 0x40 MSTORE DUP1 DUP6 DUP6 PUSH2 0x2E0 SWAP1 PUSH2 0x300 SWAP3 PUSH2 0x624 SWAP4 SWAP3 SWAP2 SWAP1 PUSH2 0x7286 JUMP JUMPDEST SWAP1 PUSH2 0x62F SWAP2 SWAP1 PUSH2 0x72E3 JUMP JUMPDEST PUSH1 0x0 SHR DUP2 MSTORE PUSH1 0x20 ADD DUP6 DUP6 PUSH2 0x300 SWAP1 PUSH2 0x320 SWAP3 PUSH2 0x64D SWAP4 SWAP3 SWAP2 SWAP1 PUSH2 0x7286 JUMP JUMPDEST SWAP1 PUSH2 0x658 SWAP2 SWAP1 PUSH2 0x72E3 JUMP JUMPDEST PUSH1 0x0 SHR DUP2 MSTORE PUSH1 0x20 ADD DUP6 DUP6 PUSH2 0x320 SWAP1 PUSH2 0x340 SWAP3 PUSH2 0x676 SWAP4 SWAP3 SWAP2 SWAP1 PUSH2 0x7286 JUMP JUMPDEST SWAP1 PUSH2 0x681 SWAP2 SWAP1 PUSH2 0x72E3 JUMP JUMPDEST PUSH1 0x0 SHR DUP2 MSTORE PUSH1 0x20 ADD DUP6 DUP6 PUSH2 0x340 SWAP1 PUSH2 0x360 SWAP3 PUSH2 0x69F SWAP4 SWAP3 SWAP2 SWAP1 PUSH2 0x7286 JUMP JUMPDEST SWAP1 PUSH2 0x6AA SWAP2 SWAP1 PUSH2 0x72E3 JUMP JUMPDEST PUSH1 0x0 SHR DUP2 MSTORE POP DUP2 PUSH1 0xC0 ADD DUP2 SWAP1 MSTORE POP PUSH1 0x40 MLOAD DUP1 PUSH1 0x80 ADD PUSH1 0x40 MSTORE DUP1 DUP6 DUP6 PUSH2 0x360 SWAP1 PUSH2 0x380 SWAP3 PUSH2 0x6D9 SWAP4 SWAP3 SWAP2 SWAP1 PUSH2 0x7286 JUMP JUMPDEST SWAP1 PUSH2 0x6E4 SWAP2 SWAP1 PUSH2 0x72E3 JUMP JUMPDEST PUSH1 0x0 SHR DUP2 MSTORE PUSH1 0x20 ADD DUP6 DUP6 PUSH2 0x380 SWAP1 PUSH2 0x3A0 SWAP3 PUSH2 0x702 SWAP4 SWAP3 SWAP2 SWAP1 PUSH2 0x7286 JUMP JUMPDEST SWAP1 PUSH2 0x70D SWAP2 SWAP1 PUSH2 0x72E3 JUMP JUMPDEST PUSH1 0x0 SHR DUP2 MSTORE PUSH1 0x20 ADD DUP6 DUP6 PUSH2 0x3A0 SWAP1 PUSH2 0x3C0 SWAP3 PUSH2 0x72B SWAP4 SWAP3 SWAP2 SWAP1 PUSH2 0x7286 JUMP JUMPDEST SWAP1 PUSH2 0x736 SWAP2 SWAP1 PUSH2 0x72E3 JUMP JUMPDEST PUSH1 0x0 SHR DUP2 MSTORE PUSH1 0x20 ADD DUP6 DUP6 PUSH2 0x3C0 SWAP1 PUSH2 0x3E0 SWAP3 PUSH2 0x754 SWAP4 SWAP3 SWAP2 SWAP1 PUSH2 0x7286 JUMP JUMPDEST SWAP1 PUSH2 0x75F SWAP2 SWAP1 PUSH2 0x72E3 JUMP JUMPDEST PUSH1 0x0 SHR DUP2 MSTORE POP DUP2 PUSH2 0x140 ADD DUP2 SWAP1 MSTORE POP PUSH1 0x40 MLOAD DUP1 PUSH1 0x80 ADD PUSH1 0x40 MSTORE DUP1 DUP6 DUP6 PUSH2 0x3E0 SWAP1 PUSH2 0x400 SWAP3 PUSH2 0x78F SWAP4 SWAP3 SWAP2 SWAP1 PUSH2 0x7286 JUMP JUMPDEST SWAP1 PUSH2 0x79A SWAP2 SWAP1 PUSH2 0x72E3 JUMP JUMPDEST PUSH1 0x0 SHR DUP2 MSTORE PUSH1 0x20 ADD DUP6 DUP6 PUSH2 0x400 SWAP1 PUSH2 0x420 SWAP3 PUSH2 0x7B8 SWAP4 SWAP3 SWAP2 SWAP1 PUSH2 0x7286 JUMP JUMPDEST SWAP1 PUSH2 0x7C3 SWAP2 SWAP1 PUSH2 0x72E3 JUMP JUMPDEST PUSH1 0x0 SHR DUP2 MSTORE PUSH1 0x20 ADD DUP6 DUP6 PUSH2 0x420 SWAP1 PUSH2 0x440 SWAP3 PUSH2 0x7E1 SWAP4 SWAP3 SWAP2 SWAP1 PUSH2 0x7286 JUMP JUMPDEST SWAP1 PUSH2 0x7EC SWAP2 SWAP1 PUSH2 0x72E3 JUMP JUMPDEST PUSH1 0x0 SHR DUP2 MSTORE PUSH1 0x20 ADD DUP6 DUP6 PUSH2 0x440 SWAP1 PUSH2 0x460 SWAP3 PUSH2 0x80A SWAP4 SWAP3 SWAP2 SWAP1 PUSH2 0x7286 JUMP JUMPDEST SWAP1 PUSH2 0x815 SWAP2 SWAP1 PUSH2 0x72E3 JUMP JUMPDEST PUSH1 0x0 SHR DUP2 MSTORE POP DUP2 PUSH1 0xE0 ADD DUP2 SWAP1 MSTORE POP PUSH1 0x0 PUSH2 0x460 SWAP1 POP PUSH1 0x0 JUMPDEST PUSH1 0x1C DUP2 LT ISZERO PUSH2 0x912 JUMPI PUSH1 0x0 PUSH1 0x8 PUSH1 0x20 DUP4 PUSH2 0x847 SWAP2 SWAP1 PUSH2 0x737B JUMP JUMPDEST PUSH2 0x851 SWAP2 SWAP1 PUSH2 0x737B JUMP JUMPDEST DUP4 PUSH2 0x85C SWAP2 SWAP1 PUSH2 0x73BD JUMP JUMPDEST SWAP1 POP PUSH1 0x0 JUMPDEST PUSH1 0x8 DUP2 LT ISZERO PUSH2 0x903 JUMPI PUSH1 0x0 PUSH1 0x20 DUP3 PUSH2 0x879 SWAP2 SWAP1 PUSH2 0x737B JUMP JUMPDEST DUP4 PUSH2 0x884 SWAP2 SWAP1 PUSH2 0x73BD JUMP JUMPDEST SWAP1 POP PUSH1 0x0 PUSH1 0x20 DUP3 PUSH2 0x895 SWAP2 SWAP1 PUSH2 0x73BD JUMP JUMPDEST SWAP1 POP PUSH2 0x8BC DUP11 DUP11 DUP5 SWAP1 DUP5 SWAP3 PUSH2 0x8AC SWAP4 SWAP3 SWAP2 SWAP1 PUSH2 0x7286 JUMP JUMPDEST SWAP1 PUSH2 0x8B7 SWAP2 SWAP1 PUSH2 0x72E3 JUMP JUMPDEST PUSH2 0x26EB JUMP JUMPDEST DUP8 PUSH2 0x160 ADD MLOAD DUP7 PUSH1 0x1C DUP2 LT PUSH2 0x8D4 JUMPI PUSH2 0x8D3 PUSH2 0x73F1 JUMP JUMPDEST JUMPDEST PUSH1 0x20 MUL ADD MLOAD DUP5 PUSH1 0x8 DUP2 LT PUSH2 0x8EB JUMPI PUSH2 0x8EA PUSH2 0x73F1 JUMP JUMPDEST JUMPDEST PUSH1 0x20 MUL ADD DUP2 DUP2 MSTORE POP POP POP POP DUP1 DUP1 PUSH1 0x1 ADD SWAP2 POP POP PUSH2 0x861 JUMP JUMPDEST POP POP DUP1 DUP1 PUSH1 0x1 ADD SWAP2 POP POP PUSH2 0x82D JUMP JUMPDEST POP PUSH1 0x20 PUSH1 0x8 PUSH1 0x1C PUSH2 0x923 SWAP2 SWAP1 PUSH2 0x737B JUMP JUMPDEST PUSH2 0x92D SWAP2 SWAP1 PUSH2 0x737B JUMP JUMPDEST DUP2 PUSH2 0x938 SWAP2 SWAP1 PUSH2 0x73BD JUMP JUMPDEST SWAP1 POP PUSH1 0x0 JUMPDEST PUSH1 0x2C DUP2 LT ISZERO PUSH2 0x9C8 JUMPI PUSH1 0x0 PUSH1 0x20 DUP3 PUSH2 0x955 SWAP2 SWAP1 PUSH2 0x737B JUMP JUMPDEST DUP4 PUSH2 0x960 SWAP2 SWAP1 PUSH2 0x73BD JUMP JUMPDEST SWAP1 POP PUSH1 0x0 PUSH1 0x20 DUP3 PUSH2 0x971 SWAP2 SWAP1 PUSH2 0x73BD JUMP JUMPDEST SWAP1 POP PUSH2 0x998 DUP9 DUP9 DUP5 SWAP1 DUP5 SWAP3 PUSH2 0x988 SWAP4 SWAP3 SWAP2 SWAP1 PUSH2 0x7286 JUMP JUMPDEST SWAP1 PUSH2 0x993 SWAP2 SWAP1 PUSH2 0x72E3 JUMP JUMPDEST PUSH2 0x26EB JUMP JUMPDEST DUP6 PUSH2 0x180 ADD MLOAD DUP5 PUSH1 0x2C DUP2 LT PUSH2 0x9B0 JUMPI PUSH2 0x9AF PUSH2 0x73F1 JUMP JUMPDEST JUMPDEST PUSH1 0x20 MUL ADD DUP2 DUP2 MSTORE POP POP POP POP DUP1 DUP1 PUSH1 0x1 ADD SWAP2 POP POP PUSH2 0x93D JUMP JUMPDEST POP PUSH1 0x20 PUSH1 0x2C PUSH2 0x9D7 SWAP2 SWAP1 PUSH2 0x737B JUMP JUMPDEST DUP2 PUSH2 0x9E2 SWAP2 SWAP1 PUSH2 0x73BD JUMP JUMPDEST SWAP1 POP PUSH1 0x0 JUMPDEST PUSH1 0x1 PUSH1 0x1C PUSH2 0x9F5 SWAP2 SWAP1 PUSH2 0x7420 JUMP JUMPDEST DUP2 LT ISZERO PUSH2 0xB3D JUMPI PUSH1 0x0 PUSH1 0x80 DUP3 PUSH2 0xA0B SWAP2 SWAP1 PUSH2 0x737B JUMP JUMPDEST DUP4 PUSH2 0xA16 SWAP2 SWAP1 PUSH2 0x73BD JUMP JUMPDEST SWAP1 POP PUSH1 0x0 PUSH1 0x20 DUP3 PUSH2 0xA27 SWAP2 SWAP1 PUSH2 0x73BD JUMP JUMPDEST SWAP1 POP PUSH1 0x0 DUP2 SWAP1 POP PUSH1 0x0 PUSH1 0x20 DUP3 PUSH2 0xA3D SWAP2 SWAP1 PUSH2 0x73BD JUMP JUMPDEST SWAP1 POP PUSH1 0x0 DUP2 SWAP1 POP PUSH1 0x0 PUSH1 0x20 DUP3 PUSH2 0xA53 SWAP2 SWAP1 PUSH2 0x73BD JUMP JUMPDEST SWAP1 POP PUSH1 0x0 DUP2 SWAP1 POP PUSH1 0x0 PUSH1 0x20 DUP3 PUSH2 0xA69 SWAP2 SWAP1 PUSH2 0x73BD JUMP JUMPDEST SWAP1 POP PUSH1 0x40 MLOAD DUP1 PUSH1 0x80 ADD PUSH1 0x40 MSTORE DUP1 DUP16 DUP16 DUP12 SWAP1 DUP12 SWAP3 PUSH2 0xA88 SWAP4 SWAP3 SWAP2 SWAP1 PUSH2 0x7286 JUMP JUMPDEST SWAP1 PUSH2 0xA93 SWAP2 SWAP1 PUSH2 0x72E3 JUMP JUMPDEST PUSH1 0x0 SHR DUP2 MSTORE PUSH1 0x20 ADD DUP16 DUP16 DUP10 SWAP1 DUP10 SWAP3 PUSH2 0xAAD SWAP4 SWAP3 SWAP2 SWAP1 PUSH2 0x7286 JUMP JUMPDEST SWAP1 PUSH2 0xAB8 SWAP2 SWAP1 PUSH2 0x72E3 JUMP JUMPDEST PUSH1 0x0 SHR DUP2 MSTORE PUSH1 0x20 ADD DUP16 DUP16 DUP8 SWAP1 DUP8 SWAP3 PUSH2 0xAD2 SWAP4 SWAP3 SWAP2 SWAP1 PUSH2 0x7286 JUMP JUMPDEST SWAP1 PUSH2 0xADD SWAP2 SWAP1 PUSH2 0x72E3 JUMP JUMPDEST PUSH1 0x0 SHR DUP2 MSTORE PUSH1 0x20 ADD DUP16 DUP16 DUP6 SWAP1 DUP6 SWAP3 PUSH2 0xAF7 SWAP4 SWAP3 SWAP2 SWAP1 PUSH2 0x7286 JUMP JUMPDEST SWAP1 PUSH2 0xB02 SWAP2 SWAP1 PUSH2 0x72E3 JUMP JUMPDEST PUSH1 0x0 SHR DUP2 MSTORE POP DUP12 PUSH2 0x1A0 ADD MLOAD DUP11 PUSH1 0x1B DUP2 LT PUSH2 0xB20 JUMPI PUSH2 0xB1F PUSH2 0x73F1 JUMP JUMPDEST JUMPDEST PUSH1 0x20 MUL ADD DUP2 SWAP1 MSTORE POP POP POP POP POP POP POP POP POP DUP1 DUP1 PUSH1 0x1 ADD SWAP2 POP POP PUSH2 0x9E7 JUMP JUMPDEST POP PUSH1 0x80 PUSH1 0x1 PUSH1 0x1C PUSH2 0xB4E SWAP2 SWAP1 PUSH2 0x7420 JUMP JUMPDEST PUSH2 0xB58 SWAP2 SWAP1 PUSH2 0x737B JUMP JUMPDEST DUP2 PUSH2 0xB63 SWAP2 SWAP1 PUSH2 0x73BD JUMP JUMPDEST SWAP1 POP PUSH1 0x0 JUMPDEST PUSH1 0x1C DUP2 LT ISZERO PUSH2 0xBF3 JUMPI PUSH1 0x0 PUSH1 0x20 DUP3 PUSH2 0xB80 SWAP2 SWAP1 PUSH2 0x737B JUMP JUMPDEST DUP4 PUSH2 0xB8B SWAP2 SWAP1 PUSH2 0x73BD JUMP JUMPDEST SWAP1 POP PUSH1 0x0 PUSH1 0x20 DUP3 PUSH2 0xB9C SWAP2 SWAP1 PUSH2 0x73BD JUMP JUMPDEST SWAP1 POP PUSH2 0xBC3 DUP9 DUP9 DUP5 SWAP1 DUP5 SWAP3 PUSH2 0xBB3 SWAP4 SWAP3 SWAP2 SWAP1 PUSH2 0x7286 JUMP JUMPDEST SWAP1 PUSH2 0xBBE SWAP2 SWAP1 PUSH2 0x72E3 JUMP JUMPDEST PUSH2 0x26EB JUMP JUMPDEST DUP6 PUSH2 0x1C0 ADD MLOAD DUP5 PUSH1 0x1C DUP2 LT PUSH2 0xBDB JUMPI PUSH2 0xBDA PUSH2 0x73F1 JUMP JUMPDEST JUMPDEST PUSH1 0x20 MUL ADD DUP2 DUP2 MSTORE POP POP POP POP DUP1 DUP1 PUSH1 0x1 ADD SWAP2 POP POP PUSH2 0xB68 JUMP JUMPDEST POP PUSH1 0x20 PUSH1 0x1C PUSH2 0xC02 SWAP2 SWAP1 PUSH2 0x737B JUMP JUMPDEST DUP2 PUSH2 0xC0D SWAP2 SWAP1 PUSH2 0x73BD JUMP JUMPDEST SWAP1 POP PUSH1 0x40 MLOAD DUP1 PUSH1 0x80 ADD PUSH1 0x40 MSTORE DUP1 DUP7 DUP7 DUP5 SWAP1 PUSH1 0x20 DUP7 PUSH2 0xC2B SWAP2 SWAP1 PUSH2 0x73BD JUMP JUMPDEST SWAP3 PUSH2 0xC38 SWAP4 SWAP3 SWAP2 SWAP1 PUSH2 0x7286 JUMP JUMPDEST SWAP1 PUSH2 0xC43 SWAP2 SWAP1 PUSH2 0x72E3 JUMP JUMPDEST PUSH1 0x0 SHR DUP2 MSTORE PUSH1 0x20 ADD DUP7 DUP7 PUSH1 0x20 DUP6 PUSH2 0xC5A SWAP2 SWAP1 PUSH2 0x73BD JUMP JUMPDEST SWAP1 PUSH1 0x40 DUP7 PUSH2 0xC68 SWAP2 SWAP1 PUSH2 0x73BD JUMP JUMPDEST SWAP3 PUSH2 0xC75 SWAP4 SWAP3 SWAP2 SWAP1 PUSH2 0x7286 JUMP JUMPDEST SWAP1 PUSH2 0xC80 SWAP2 SWAP1 PUSH2 0x72E3 JUMP JUMPDEST PUSH1 0x0 SHR DUP2 MSTORE PUSH1 0x20 ADD DUP7 DUP7 PUSH1 0x40 DUP6 PUSH2 0xC97 SWAP2 SWAP1 PUSH2 0x73BD JUMP JUMPDEST SWAP1 PUSH1 0x60 DUP7 PUSH2 0xCA5 SWAP2 SWAP1 PUSH2 0x73BD JUMP JUMPDEST SWAP3 PUSH2 0xCB2 SWAP4 SWAP3 SWAP2 SWAP1 PUSH2 0x7286 JUMP JUMPDEST SWAP1 PUSH2 0xCBD SWAP2 SWAP1 PUSH2 0x72E3 JUMP JUMPDEST PUSH1 0x0 SHR DUP2 MSTORE PUSH1 0x20 ADD DUP7 DUP7 PUSH1 0x60 DUP6 PUSH2 0xCD4 SWAP2 SWAP1 PUSH2 0x73BD JUMP JUMPDEST SWAP1 PUSH1 0x80 DUP7 PUSH2 0xCE2 SWAP2 SWAP1 PUSH2 0x73BD JUMP JUMPDEST SWAP3 PUSH2 0xCEF SWAP4 SWAP3 SWAP2 SWAP1 PUSH2 0x7286 JUMP JUMPDEST SWAP1 PUSH2 0xCFA SWAP2 SWAP1 PUSH2 0x72E3 JUMP JUMPDEST PUSH1 0x0 SHR DUP2 MSTORE POP DUP3 PUSH2 0x1E0 ADD DUP2 SWAP1 MSTORE POP PUSH1 0x80 DUP2 PUSH2 0xD16 SWAP2 SWAP1 PUSH2 0x73BD JUMP JUMPDEST SWAP1 POP PUSH1 0x40 MLOAD DUP1 PUSH1 0x80 ADD PUSH1 0x40 MSTORE DUP1 DUP7 DUP7 DUP5 SWAP1 PUSH1 0x20 DUP7 PUSH2 0xD34 SWAP2 SWAP1 PUSH2 0x73BD JUMP JUMPDEST SWAP3 PUSH2 0xD41 SWAP4 SWAP3 SWAP2 SWAP1 PUSH2 0x7286 JUMP JUMPDEST SWAP1 PUSH2 0xD4C SWAP2 SWAP1 PUSH2 0x72E3 JUMP JUMPDEST PUSH1 0x0 SHR DUP2 MSTORE PUSH1 0x20 ADD DUP7 DUP7 PUSH1 0x20 DUP6 PUSH2 0xD63 SWAP2 SWAP1 PUSH2 0x73BD JUMP JUMPDEST SWAP1 PUSH1 0x40 DUP7 PUSH2 0xD71 SWAP2 SWAP1 PUSH2 0x73BD JUMP JUMPDEST SWAP3 PUSH2 0xD7E SWAP4 SWAP3 SWAP2 SWAP1 PUSH2 0x7286 JUMP JUMPDEST SWAP1 PUSH2 0xD89 SWAP2 SWAP1 PUSH2 0x72E3 JUMP JUMPDEST PUSH1 0x0 SHR DUP2 MSTORE PUSH1 0x20 ADD DUP7 DUP7 PUSH1 0x40 DUP6 PUSH2 0xDA0 SWAP2 SWAP1 PUSH2 0x73BD JUMP JUMPDEST SWAP1 PUSH1 0x60 DUP7 PUSH2 0xDAE SWAP2 SWAP1 PUSH2 0x73BD JUMP JUMPDEST SWAP3 PUSH2 0xDBB SWAP4 SWAP3 SWAP2 SWAP1 PUSH2 0x7286 JUMP JUMPDEST SWAP1 PUSH2 0xDC6 SWAP2 SWAP1 PUSH2 0x72E3 JUMP JUMPDEST PUSH1 0x0 SHR DUP2 MSTORE PUSH1 0x20 ADD DUP7 DUP7 PUSH1 0x60 DUP6 PUSH2 0xDDD SWAP2 SWAP1 PUSH2 0x73BD JUMP JUMPDEST SWAP1 PUSH1 0x80 DUP7 PUSH2 0xDEB SWAP2 SWAP1 PUSH2 0x73BD JUMP JUMPDEST SWAP3 PUSH2 0xDF8 SWAP4 SWAP3 SWAP2 SWAP1 PUSH2 0x7286 JUMP JUMPDEST SWAP1 PUSH2 0xE03 SWAP2 SWAP1 PUSH2 0x72E3 JUMP JUMPDEST PUSH1 0x0 SHR DUP2 MSTORE POP DUP3 PUSH2 0x200 ADD DUP2 SWAP1 MSTORE POP DUP2 SWAP3 POP POP POP SWAP3 SWAP2 POP POP JUMP JUMPDEST PUSH2 0xE25 PUSH2 0x6BE0 JUMP JUMPDEST PUSH1 0x0 PUSH2 0xE33 DUP7 DUP7 DUP7 DUP7 PUSH2 0x2723 JUMP JUMPDEST DUP6 PUSH1 0x0 ADD DUP7 PUSH1 0x20 ADD DUP8 PUSH1 0x40 ADD DUP4 SWAP8 POP DUP5 DUP2 MSTORE POP DUP5 DUP2 MSTORE POP DUP5 DUP2 MSTORE POP POP POP POP POP PUSH2 0xE5C DUP2 DUP8 PUSH2 0x2C0F JUMP JUMPDEST DUP5 PUSH1 0x60 ADD DUP6 PUSH1 0x80 ADD DUP3 SWAP6 POP DUP4 DUP2 MSTORE POP DUP4 DUP2 MSTORE POP POP POP POP PUSH2 0xE7C DUP2 DUP8 PUSH2 0x2E80 JUMP JUMPDEST DUP4 PUSH1 0xA0 ADD DUP2 SWAP4 POP DUP3 SWAP1 MSTORE POP POP PUSH2 0xE91 DUP2 PUSH2 0x31A4 JUMP JUMPDEST DUP4 PUSH1 0xC0 ADD DUP2 SWAP4 POP DUP3 SWAP1 MSTORE POP POP PUSH2 0xEA7 DUP7 DUP3 PUSH2 0x3230 JUMP JUMPDEST DUP4 PUSH1 0xE0 ADD DUP2 SWAP4 POP DUP3 SWAP1 MSTORE POP POP PUSH2 0xEBD DUP7 DUP3 PUSH2 0x335B JUMP JUMPDEST DUP4 PUSH2 0x100 ADD DUP2 SWAP4 POP DUP3 DUP2 MSTORE POP POP POP PUSH2 0xED5 DUP7 DUP3 PUSH2 0x3430 JUMP JUMPDEST DUP4 PUSH2 0x120 ADD DUP2 SWAP4 POP DUP3 DUP2 MSTORE POP POP POP PUSH2 0xEED DUP7 DUP3 PUSH2 0x3620 JUMP JUMPDEST DUP4 PUSH2 0x140 ADD DUP2 SWAP4 POP DUP3 DUP2 MSTORE POP POP POP PUSH2 0xF05 DUP7 DUP3 PUSH2 0x36F5 JUMP JUMPDEST DUP4 PUSH2 0x160 ADD DUP2 SWAP4 POP DUP3 DUP2 MSTORE POP POP POP POP SWAP5 SWAP4 POP POP POP POP JUMP JUMPDEST PUSH1 0x0 DUP1 PUSH1 0x1 SWAP1 POP PUSH1 0x0 PUSH1 0x1 SWAP1 POP PUSH1 0x0 PUSH2 0xF51 DUP8 PUSH2 0xF4C DUP11 PUSH2 0xF47 DUP10 DUP12 PUSH2 0xF42 SWAP2 SWAP1 PUSH2 0x73BD JUMP JUMPDEST PUSH2 0x3807 JUMP JUMPDEST PUSH2 0x383C JUMP JUMPDEST PUSH2 0x3878 JUMP JUMPDEST SWAP1 POP PUSH1 0x0 PUSH2 0xF7C DUP9 PUSH2 0xF77 DUP12 PUSH2 0xF72 PUSH1 0x1 DUP12 PUSH2 0xF6D SWAP2 SWAP1 PUSH2 0x73BD JUMP JUMPDEST PUSH2 0x3807 JUMP JUMPDEST PUSH2 0x383C JUMP JUMPDEST PUSH2 0x38B4 JUMP JUMPDEST SWAP1 POP PUSH1 0x0 JUMPDEST PUSH1 0x2 DUP2 LT ISZERO PUSH2 0x1001 JUMPI PUSH1 0x0 PUSH2 0xFAF DUP13 DUP4 DUP2 MLOAD DUP2 LT PUSH2 0xFA2 JUMPI PUSH2 0xFA1 PUSH2 0x73F1 JUMP JUMPDEST JUMPDEST PUSH1 0x20 MUL PUSH1 0x20 ADD ADD MLOAD PUSH2 0x26EB JUMP JUMPDEST SWAP1 POP PUSH2 0xFC4 DUP7 PUSH2 0xFBF DUP7 DUP5 PUSH2 0x3878 JUMP JUMPDEST PUSH2 0x383C JUMP JUMPDEST SWAP6 POP PUSH2 0xFD9 DUP6 PUSH2 0xFD4 DUP6 DUP5 PUSH2 0x3878 JUMP JUMPDEST PUSH2 0x383C JUMP JUMPDEST SWAP5 POP PUSH2 0xFE5 DUP5 DUP13 PUSH2 0x3878 JUMP JUMPDEST SWAP4 POP PUSH2 0xFF1 DUP4 DUP13 PUSH2 0x38B4 JUMP JUMPDEST SWAP3 POP POP DUP1 DUP1 PUSH1 0x1 ADD SWAP2 POP POP PUSH2 0xF81 JUMP JUMPDEST POP PUSH2 0x100C DUP5 DUP5 PUSH2 0x391B JUMP JUMPDEST SWAP5 POP POP POP POP POP SWAP6 SWAP5 POP POP POP POP POP JUMP JUMPDEST PUSH1 0x0 DUP1 PUSH1 0x0 PUSH1 0x1 SWAP1 POP PUSH1 0x0 JUMPDEST PUSH1 0x12 DUP2 LT ISZERO PUSH2 0x10DE JUMPI PUSH1 0x0 DUP7 PUSH2 0x160 ADD MLOAD DUP3 PUSH1 0x1C DUP2 LT PUSH2 0x104A JUMPI PUSH2 0x1049 PUSH2 0x73F1 JUMP JUMPDEST JUMPDEST PUSH1 0x20 MUL ADD MLOAD SWAP1 POP PUSH1 0x0 PUSH2 0x105D DUP3 DUP7 PUSH2 0x3937 JUMP JUMPDEST SWAP1 POP DUP1 PUSH2 0x1096 JUMPI PUSH1 0x40 MLOAD PUSH32 0x9FC3A21800000000000000000000000000000000000000000000000000000000 DUP2 MSTORE PUSH1 0x4 ADD PUSH1 0x40 MLOAD DUP1 SWAP2 SUB SWAP1 REVERT JUMPDEST PUSH1 0x0 DUP8 PUSH1 0xE0 ADD MLOAD DUP5 PUSH1 0x1C DUP2 LT PUSH2 0x10AF JUMPI PUSH2 0x10AE PUSH2 0x73F1 JUMP JUMPDEST JUMPDEST PUSH1 0x20 MUL ADD MLOAD SWAP1 POP PUSH2 0x10C0 DUP4 DUP3 PUSH2 0x3989 JUMP JUMPDEST SWAP6 POP PUSH2 0x10CE DUP9 DUP7 DUP4 DUP8 PUSH2 0x3BD2 JUMP JUMPDEST SWAP5 POP POP POP POP DUP1 PUSH1 0x1 ADD SWAP1 POP PUSH2 0x1027 JUMP JUMPDEST POP PUSH1 0x0 PUSH2 0x10EC DUP7 DUP7 DUP5 PUSH2 0x3C25 JUMP JUMPDEST SWAP1 POP PUSH2 0x10F8 DUP2 DUP5 PUSH2 0x3CAC JUMP JUMPDEST SWAP4 POP POP POP POP SWAP3 SWAP2 POP POP JUMP JUMPDEST PUSH1 0x0 PUSH2 0x110D PUSH2 0x6C5A JUMP JUMPDEST PUSH1 0x0 PUSH2 0x111D DUP5 PUSH2 0x120 ADD MLOAD PUSH2 0x3CB9 JUMP JUMPDEST SWAP1 POP PUSH2 0x1127 PUSH2 0x6C89 JUMP JUMPDEST PUSH2 0x112F PUSH2 0x6CAC JUMP JUMPDEST PUSH1 0x0 PUSH2 0x113B DUP8 DUP6 PUSH2 0x3D48 JUMP JUMPDEST SWAP1 POP PUSH2 0x1185 DUP2 PUSH1 0x0 PUSH1 0x1D DUP2 LT PUSH2 0x1154 JUMPI PUSH2 0x1153 PUSH2 0x73F1 JUMP JUMPDEST JUMPDEST PUSH1 0x20 MUL ADD MLOAD PUSH2 0x1180 DUP10 PUSH2 0x140 ADD MLOAD DUP5 PUSH1 0x1 PUSH1 0x1D DUP2 LT PUSH2 0x1176 JUMPI PUSH2 0x1175 PUSH2 0x73F1 JUMP JUMPDEST JUMPDEST PUSH1 0x20 MUL ADD MLOAD PUSH2 0x383C JUMP JUMPDEST PUSH2 0x3878 JUMP JUMPDEST DUP6 PUSH1 0x0 ADD DUP2 DUP2 MSTORE POP POP PUSH2 0x11EC PUSH2 0x119F DUP9 PUSH2 0x120 ADD MLOAD PUSH2 0x3E2C JUMP JUMPDEST PUSH2 0x11E7 DUP4 PUSH1 0x0 PUSH1 0x1D DUP2 LT PUSH2 0x11B6 JUMPI PUSH2 0x11B5 PUSH2 0x73F1 JUMP JUMPDEST JUMPDEST PUSH1 0x20 MUL ADD MLOAD PUSH2 0x11E2 DUP12 PUSH2 0x140 ADD MLOAD DUP7 PUSH1 0x1 PUSH1 0x1D DUP2 LT PUSH2 0x11D8 JUMPI PUSH2 0x11D7 PUSH2 0x73F1 JUMP JUMPDEST JUMPDEST PUSH1 0x20 MUL ADD MLOAD PUSH2 0x383C JUMP JUMPDEST PUSH2 0x38B4 JUMP JUMPDEST PUSH2 0x383C JUMP JUMPDEST DUP6 PUSH1 0x20 ADD DUP2 DUP2 MSTORE POP POP PUSH1 0x1 DUP4 PUSH1 0x0 PUSH1 0x4A DUP2 LT PUSH2 0x120B JUMPI PUSH2 0x120A PUSH2 0x73F1 JUMP JUMPDEST JUMPDEST PUSH1 0x20 MUL ADD DUP2 DUP2 MSTORE POP POP PUSH2 0x1222 DUP10 PUSH2 0x1E0 ADD MLOAD PUSH2 0x3EC3 JUMP JUMPDEST DUP3 PUSH1 0x0 PUSH1 0x4A DUP2 LT PUSH2 0x1236 JUMPI PUSH2 0x1235 PUSH2 0x73F1 JUMP JUMPDEST JUMPDEST PUSH1 0x20 MUL ADD DUP2 SWAP1 MSTORE POP PUSH1 0x1 DUP6 PUSH1 0x60 ADD DUP2 DUP2 MSTORE POP POP PUSH1 0x0 DUP6 PUSH1 0x80 ADD DUP2 DUP2 MSTORE POP POP PUSH1 0x0 PUSH1 0x1 SWAP1 POP JUMPDEST PUSH1 0x23 DUP2 GT PUSH2 0x1312 JUMPI PUSH2 0x127D PUSH2 0x1273 DUP8 PUSH1 0x0 ADD MLOAD PUSH2 0x3F03 JUMP JUMPDEST DUP8 PUSH1 0x60 ADD MLOAD PUSH2 0x383C JUMP JUMPDEST DUP5 DUP3 PUSH1 0x4A DUP2 LT PUSH2 0x1290 JUMPI PUSH2 0x128F PUSH2 0x73F1 JUMP JUMPDEST JUMPDEST PUSH1 0x20 MUL ADD DUP2 DUP2 MSTORE POP POP PUSH2 0x12DC DUP7 PUSH1 0x80 ADD MLOAD PUSH2 0x12D7 DUP13 PUSH2 0x180 ADD MLOAD PUSH1 0x1 DUP6 PUSH2 0x12B7 SWAP2 SWAP1 PUSH2 0x7420 JUMP JUMPDEST PUSH1 0x2C DUP2 LT PUSH2 0x12C8 JUMPI PUSH2 0x12C7 PUSH2 0x73F1 JUMP JUMPDEST JUMPDEST PUSH1 0x20 MUL ADD MLOAD DUP10 PUSH1 0x60 ADD MLOAD PUSH2 0x383C JUMP JUMPDEST PUSH2 0x3878 JUMP JUMPDEST DUP7 PUSH1 0x80 ADD DUP2 DUP2 MSTORE POP POP PUSH2 0x12F8 DUP7 PUSH1 0x60 ADD MLOAD DUP10 PUSH2 0x100 ADD MLOAD PUSH2 0x383C JUMP JUMPDEST DUP7 PUSH1 0x60 ADD DUP2 DUP2 MSTORE POP POP DUP1 PUSH2 0x130B SWAP1 PUSH2 0x7454 JUMP JUMPDEST SWAP1 POP PUSH2 0x125B JUMP JUMPDEST POP PUSH1 0x0 PUSH1 0x1 PUSH1 0x23 PUSH2 0x1323 SWAP2 SWAP1 PUSH2 0x73BD JUMP JUMPDEST SWAP1 POP JUMPDEST PUSH1 0x2C DUP2 GT PUSH2 0x13DD JUMPI PUSH2 0x1348 PUSH2 0x133E DUP8 PUSH1 0x20 ADD MLOAD PUSH2 0x3F03 JUMP JUMPDEST DUP8 PUSH1 0x60 ADD MLOAD PUSH2 0x383C JUMP JUMPDEST DUP5 DUP3 PUSH1 0x4A DUP2 LT PUSH2 0x135B JUMPI PUSH2 0x135A PUSH2 0x73F1 JUMP JUMPDEST JUMPDEST PUSH1 0x20 MUL ADD DUP2 DUP2 MSTORE POP POP PUSH2 0x13A7 DUP7 PUSH1 0x80 ADD MLOAD PUSH2 0x13A2 DUP13 PUSH2 0x180 ADD MLOAD PUSH1 0x1 DUP6 PUSH2 0x1382 SWAP2 SWAP1 PUSH2 0x7420 JUMP JUMPDEST PUSH1 0x2C DUP2 LT PUSH2 0x1393 JUMPI PUSH2 0x1392 PUSH2 0x73F1 JUMP JUMPDEST JUMPDEST PUSH1 0x20 MUL ADD MLOAD DUP10 PUSH1 0x60 ADD MLOAD PUSH2 0x383C JUMP JUMPDEST PUSH2 0x3878 JUMP JUMPDEST DUP7 PUSH1 0x80 ADD DUP2 DUP2 MSTORE POP POP PUSH2 0x13C3 DUP7 PUSH1 0x60 ADD MLOAD DUP10 PUSH2 0x100 ADD MLOAD PUSH2 0x383C JUMP JUMPDEST DUP7 PUSH1 0x60 ADD DUP2 DUP2 MSTORE POP POP DUP1 PUSH2 0x13D6 SWAP1 PUSH2 0x7454 JUMP JUMPDEST SWAP1 POP PUSH2 0x1326 JUMP JUMPDEST POP DUP8 PUSH1 0x60 ADD MLOAD DUP3 PUSH1 0x1 PUSH1 0x4A DUP2 LT PUSH2 0x13F7 JUMPI PUSH2 0x13F6 PUSH2 0x73F1 JUMP JUMPDEST JUMPDEST PUSH1 0x20 MUL ADD DUP2 SWAP1 MSTORE POP DUP8 PUSH1 0x80 ADD MLOAD DUP3 PUSH1 0x2 PUSH1 0x4A DUP2 LT PUSH2 0x1418 JUMPI PUSH2 0x1417 PUSH2 0x73F1 JUMP JUMPDEST JUMPDEST PUSH1 0x20 MUL ADD DUP2 SWAP1 MSTORE POP DUP8 PUSH1 0xA0 ADD MLOAD DUP3 PUSH1 0x3 PUSH1 0x4A DUP2 LT PUSH2 0x1439 JUMPI PUSH2 0x1438 PUSH2 0x73F1 JUMP JUMPDEST JUMPDEST PUSH1 0x20 MUL ADD DUP2 SWAP1 MSTORE POP DUP8 PUSH1 0xC0 ADD MLOAD DUP3 PUSH1 0x4 PUSH1 0x4A DUP2 LT PUSH2 0x145A JUMPI PUSH2 0x1459 PUSH2 0x73F1 JUMP JUMPDEST JUMPDEST PUSH1 0x20 MUL ADD DUP2 SWAP1 MSTORE POP DUP8 PUSH1 0xE0 ADD MLOAD DUP3 PUSH1 0x5 PUSH1 0x4A DUP2 LT PUSH2 0x147B JUMPI PUSH2 0x147A PUSH2 0x73F1 JUMP JUMPDEST JUMPDEST PUSH1 0x20 MUL ADD DUP2 SWAP1 MSTORE POP DUP8 PUSH2 0x100 ADD MLOAD DUP3 PUSH1 0x6 PUSH1 0x4A DUP2 LT PUSH2 0x149D JUMPI PUSH2 0x149C PUSH2 0x73F1 JUMP JUMPDEST JUMPDEST PUSH1 0x20 MUL ADD DUP2 SWAP1 MSTORE POP DUP8 PUSH2 0x120 ADD MLOAD DUP3 PUSH1 0x7 PUSH1 0x4A DUP2 LT PUSH2 0x14BF JUMPI PUSH2 0x14BE PUSH2 0x73F1 JUMP JUMPDEST JUMPDEST PUSH1 0x20 MUL ADD DUP2 SWAP1 MSTORE POP DUP8 PUSH2 0x140 ADD MLOAD DUP3 PUSH1 0x8 PUSH1 0x4A DUP2 LT PUSH2 0x14E1 JUMPI PUSH2 0x14E0 PUSH2 0x73F1 JUMP JUMPDEST JUMPDEST PUSH1 0x20 MUL ADD DUP2 SWAP1 MSTORE POP DUP8 PUSH2 0x180 ADD MLOAD DUP3 PUSH1 0x9 PUSH1 0x4A DUP2 LT PUSH2 0x1503 JUMPI PUSH2 0x1502 PUSH2 0x73F1 JUMP JUMPDEST JUMPDEST PUSH1 0x20 MUL ADD DUP2 SWAP1 MSTORE POP DUP8 PUSH2 0x160 ADD MLOAD DUP3 PUSH1 0xA PUSH1 0x4A DUP2 LT PUSH2 0x1525 JUMPI PUSH2 0x1524 PUSH2 0x73F1 JUMP JUMPDEST JUMPDEST PUSH1 0x20 MUL ADD DUP2 SWAP1 MSTORE POP DUP8 PUSH2 0x1A0 ADD MLOAD DUP3 PUSH1 0xB PUSH1 0x4A DUP2 LT PUSH2 0x1547 JUMPI PUSH2 0x1546 PUSH2 0x73F1 JUMP JUMPDEST JUMPDEST PUSH1 0x20 MUL ADD DUP2 SWAP1 MSTORE POP DUP8 PUSH2 0x1C0 ADD MLOAD DUP3 PUSH1 0xC PUSH1 0x4A DUP2 LT PUSH2 0x1569 JUMPI PUSH2 0x1568 PUSH2 0x73F1 JUMP JUMPDEST JUMPDEST PUSH1 0x20 MUL ADD DUP2 SWAP1 MSTORE POP DUP8 PUSH2 0x1E0 ADD MLOAD DUP3 PUSH1 0xD PUSH1 0x4A DUP2 LT PUSH2 0x158B JUMPI PUSH2 0x158A PUSH2 0x73F1 JUMP JUMPDEST JUMPDEST PUSH1 0x20 MUL ADD DUP2 SWAP1 MSTORE POP DUP8 PUSH2 0x200 ADD MLOAD DUP3 PUSH1 0xE PUSH1 0x4A DUP2 LT PUSH2 0x15AD JUMPI PUSH2 0x15AC PUSH2 0x73F1 JUMP JUMPDEST JUMPDEST PUSH1 0x20 MUL ADD DUP2 SWAP1 MSTORE POP DUP8 PUSH2 0x220 ADD MLOAD DUP3 PUSH1 0xF PUSH1 0x4A DUP2 LT PUSH2 0x15CF JUMPI PUSH2 0x15CE PUSH2 0x73F1 JUMP JUMPDEST JUMPDEST PUSH1 0x20 MUL ADD DUP2 SWAP1 MSTORE POP DUP8 PUSH2 0x240 ADD MLOAD DUP3 PUSH1 0x10 PUSH1 0x4A DUP2 LT PUSH2 0x15F1 JUMPI PUSH2 0x15F0 PUSH2 0x73F1 JUMP JUMPDEST JUMPDEST PUSH1 0x20 MUL ADD DUP2 SWAP1 MSTORE POP DUP8 PUSH2 0x260 ADD MLOAD DUP3 PUSH1 0x11 PUSH1 0x4A DUP2 LT PUSH2 0x1613 JUMPI PUSH2 0x1612 PUSH2 0x73F1 JUMP JUMPDEST JUMPDEST PUSH1 0x20 MUL ADD DUP2 SWAP1 MSTORE POP DUP8 PUSH2 0x280 ADD MLOAD DUP3 PUSH1 0x12 PUSH1 0x4A DUP2 LT PUSH2 0x1635 JUMPI PUSH2 0x1634 PUSH2 0x73F1 JUMP JUMPDEST JUMPDEST PUSH1 0x20 MUL ADD DUP2 SWAP1 MSTORE POP DUP8 PUSH2 0x2A0 ADD MLOAD DUP3 PUSH1 0x13 PUSH1 0x4A DUP2 LT PUSH2 0x1657 JUMPI PUSH2 0x1656 PUSH2 0x73F1 JUMP JUMPDEST JUMPDEST PUSH1 0x20 MUL ADD DUP2 SWAP1 MSTORE POP DUP8 PUSH2 0x2C0 ADD MLOAD DUP3 PUSH1 0x14 PUSH1 0x4A DUP2 LT PUSH2 0x1679 JUMPI PUSH2 0x1678 PUSH2 0x73F1 JUMP JUMPDEST JUMPDEST PUSH1 0x20 MUL ADD DUP2 SWAP1 MSTORE POP DUP8 PUSH2 0x2E0 ADD MLOAD DUP3 PUSH1 0x15 PUSH1 0x4A DUP2 LT PUSH2 0x169B JUMPI PUSH2 0x169A PUSH2 0x73F1 JUMP JUMPDEST JUMPDEST PUSH1 0x20 MUL ADD DUP2 SWAP1 MSTORE POP DUP8 PUSH2 0x300 ADD MLOAD DUP3 PUSH1 0x16 PUSH1 0x4A DUP2 LT PUSH2 0x16BD JUMPI PUSH2 0x16BC PUSH2 0x73F1 JUMP JUMPDEST JUMPDEST PUSH1 0x20 MUL ADD DUP2 SWAP1 MSTORE POP DUP8 PUSH2 0x320 ADD MLOAD DUP3 PUSH1 0x17 PUSH1 0x4A DUP2 LT PUSH2 0x16DF JUMPI PUSH2 0x16DE PUSH2 0x73F1 JUMP JUMPDEST JUMPDEST PUSH1 0x20 MUL ADD DUP2 SWAP1 MSTORE POP DUP8 PUSH2 0x340 ADD MLOAD DUP3 PUSH1 0x18 PUSH1 0x4A DUP2 LT PUSH2 0x1701 JUMPI PUSH2 0x1700 PUSH2 0x73F1 JUMP JUMPDEST JUMPDEST PUSH1 0x20 MUL ADD DUP2 SWAP1 MSTORE POP DUP8 PUSH2 0x360 ADD MLOAD DUP3 PUSH1 0x19 PUSH1 0x4A DUP2 LT PUSH2 0x1723 JUMPI PUSH2 0x1722 PUSH2 0x73F1 JUMP JUMPDEST JUMPDEST PUSH1 0x20 MUL ADD DUP2 SWAP1 MSTORE POP DUP8 PUSH2 0x380 ADD MLOAD DUP3 PUSH1 0x1A PUSH1 0x4A DUP2 LT PUSH2 0x1745 JUMPI PUSH2 0x1744 PUSH2 0x73F1 JUMP JUMPDEST JUMPDEST PUSH1 0x20 MUL ADD DUP2 SWAP1 MSTORE POP DUP8 PUSH2 0x3A0 ADD MLOAD DUP3 PUSH1 0x1B PUSH1 0x4A DUP2 LT PUSH2 0x1767 JUMPI PUSH2 0x1766 PUSH2 0x73F1 JUMP JUMPDEST JUMPDEST PUSH1 0x20 MUL ADD DUP2 SWAP1 MSTORE POP PUSH2 0x177C DUP10 PUSH1 0x60 ADD MLOAD PUSH2 0x3EC3 JUMP JUMPDEST DUP3 PUSH1 0x1C PUSH1 0x4A DUP2 LT PUSH2 0x1790 JUMPI PUSH2 0x178F PUSH2 0x73F1 JUMP JUMPDEST JUMPDEST PUSH1 0x20 MUL ADD DUP2 SWAP1 MSTORE POP PUSH2 0x17A5 DUP10 PUSH1 0x80 ADD MLOAD PUSH2 0x3EC3 JUMP JUMPDEST DUP3 PUSH1 0x1D PUSH1 0x4A DUP2 LT PUSH2 0x17B9 JUMPI PUSH2 0x17B8 PUSH2 0x73F1 JUMP JUMPDEST JUMPDEST PUSH1 0x20 MUL ADD DUP2 SWAP1 MSTORE POP PUSH2 0x17CE DUP10 PUSH1 0xA0 ADD MLOAD PUSH2 0x3EC3 JUMP JUMPDEST DUP3 PUSH1 0x1E PUSH1 0x4A DUP2 LT PUSH2 0x17E2 JUMPI PUSH2 0x17E1 PUSH2 0x73F1 JUMP JUMPDEST JUMPDEST PUSH1 0x20 MUL ADD DUP2 SWAP1 MSTORE POP PUSH2 0x17F7 DUP10 PUSH1 0xC0 ADD MLOAD PUSH2 0x3EC3 JUMP JUMPDEST DUP3 PUSH1 0x1F PUSH1 0x4A DUP2 LT PUSH2 0x180B JUMPI PUSH2 0x180A PUSH2 0x73F1 JUMP JUMPDEST JUMPDEST PUSH1 0x20 MUL ADD DUP2 SWAP1 MSTORE POP PUSH2 0x1820 DUP10 PUSH1 0xE0 ADD MLOAD PUSH2 0x3EC3 JUMP JUMPDEST DUP3 PUSH1 0x20 PUSH1 0x4A DUP2 LT PUSH2 0x1834 JUMPI PUSH2 0x1833 PUSH2 0x73F1 JUMP JUMPDEST JUMPDEST PUSH1 0x20 MUL ADD DUP2 SWAP1 MSTORE POP PUSH2 0x184A DUP10 PUSH2 0x140 ADD MLOAD PUSH2 0x3EC3 JUMP JUMPDEST DUP3 PUSH1 0x21 PUSH1 0x4A DUP2 LT PUSH2 0x185E JUMPI PUSH2 0x185D PUSH2 0x73F1 JUMP JUMPDEST JUMPDEST PUSH1 0x20 MUL ADD DUP2 SWAP1 MSTORE POP PUSH2 0x1874 DUP10 PUSH2 0x100 ADD MLOAD PUSH2 0x3EC3 JUMP JUMPDEST DUP3 PUSH1 0x22 PUSH1 0x4A DUP2 LT PUSH2 0x1888 JUMPI PUSH2 0x1887 PUSH2 0x73F1 JUMP JUMPDEST JUMPDEST PUSH1 0x20 MUL ADD DUP2 SWAP1 MSTORE POP PUSH2 0x189E DUP10 PUSH2 0x120 ADD MLOAD PUSH2 0x3EC3 JUMP JUMPDEST DUP3 PUSH1 0x23 PUSH1 0x4A DUP2 LT PUSH2 0x18B2 JUMPI PUSH2 0x18B1 PUSH2 0x73F1 JUMP JUMPDEST JUMPDEST PUSH1 0x20 MUL ADD DUP2 SWAP1 MSTORE POP DUP8 PUSH2 0x300 ADD MLOAD DUP3 PUSH1 0x24 PUSH1 0x4A DUP2 LT PUSH2 0x18D4 JUMPI PUSH2 0x18D3 PUSH2 0x73F1 JUMP JUMPDEST JUMPDEST PUSH1 0x20 MUL ADD DUP2 SWAP1 MSTORE POP DUP8 PUSH2 0x320 ADD MLOAD DUP3 PUSH1 0x25 PUSH1 0x4A DUP2 LT PUSH2 0x18F6 JUMPI PUSH2 0x18F5 PUSH2 0x73F1 JUMP JUMPDEST JUMPDEST PUSH1 0x20 MUL ADD DUP2 SWAP1 MSTORE POP DUP8 PUSH2 0x340 ADD MLOAD DUP3 PUSH1 0x26 PUSH1 0x4A DUP2 LT PUSH2 0x1918 JUMPI PUSH2 0x1917 PUSH2 0x73F1 JUMP JUMPDEST JUMPDEST PUSH1 0x20 MUL ADD DUP2 SWAP1 MSTORE POP DUP8 PUSH2 0x360 ADD MLOAD DUP3 PUSH1 0x27 PUSH1 0x4A DUP2 LT PUSH2 0x193A JUMPI PUSH2 0x1939 PUSH2 0x73F1 JUMP JUMPDEST JUMPDEST PUSH1 0x20 MUL ADD DUP2 SWAP1 MSTORE POP PUSH2 0x194F DUP10 PUSH1 0x60 ADD MLOAD PUSH2 0x3EC3 JUMP JUMPDEST DUP3 PUSH1 0x28 PUSH1 0x4A DUP2 LT PUSH2 0x1963 JUMPI PUSH2 0x1962 PUSH2 0x73F1 JUMP JUMPDEST JUMPDEST PUSH1 0x20 MUL ADD DUP2 SWAP1 MSTORE POP PUSH2 0x1978 DUP10 PUSH1 0x80 ADD MLOAD PUSH2 0x3EC3 JUMP JUMPDEST DUP3 PUSH1 0x29 PUSH1 0x4A DUP2 LT PUSH2 0x198C JUMPI PUSH2 0x198B PUSH2 0x73F1 JUMP JUMPDEST JUMPDEST PUSH1 0x20 MUL ADD DUP2 SWAP1 MSTORE POP PUSH2 0x19A1 DUP10 PUSH1 0xA0 ADD MLOAD PUSH2 0x3EC3 JUMP JUMPDEST DUP3 PUSH1 0x2A PUSH1 0x4A DUP2 LT PUSH2 0x19B5 JUMPI PUSH2 0x19B4 PUSH2 0x73F1 JUMP JUMPDEST JUMPDEST PUSH1 0x20 MUL ADD DUP2 SWAP1 MSTORE POP PUSH2 0x19CA DUP10 PUSH1 0xC0 ADD MLOAD PUSH2 0x3EC3 JUMP JUMPDEST DUP3 PUSH1 0x2B PUSH1 0x4A DUP2 LT PUSH2 0x19DE JUMPI PUSH2 0x19DD PUSH2 0x73F1 JUMP JUMPDEST JUMPDEST PUSH1 0x20 MUL ADD DUP2 SWAP1 MSTORE POP PUSH2 0x19F3 DUP10 PUSH1 0xE0 ADD MLOAD PUSH2 0x3EC3 JUMP JUMPDEST DUP3 PUSH1 0x2C PUSH1 0x4A DUP2 LT PUSH2 0x1A07 JUMPI PUSH2 0x1A06 PUSH2 0x73F1 JUMP JUMPDEST JUMPDEST PUSH1 0x20 MUL ADD DUP2 SWAP1 MSTORE POP PUSH1 0x0 DUP6 PUSH1 0x40 ADD DUP2 DUP2 MSTORE POP POP PUSH2 0x1A28 DUP8 PUSH2 0x140 ADD MLOAD PUSH2 0x3F38 JUMP JUMPDEST DUP6 PUSH1 0x60 ADD DUP2 DUP2 MSTORE POP POP PUSH1 0x0 JUMPDEST PUSH1 0x1 PUSH1 0x1C PUSH2 0x1A42 SWAP2 SWAP1 PUSH2 0x7420 JUMP JUMPDEST DUP2 LT ISZERO PUSH2 0x1B9F JUMPI PUSH1 0x0 PUSH1 0x1 PUSH1 0x12 PUSH2 0x1A59 SWAP2 SWAP1 PUSH2 0x7420 JUMP JUMPDEST DUP3 LT ISZERO SWAP1 POP PUSH1 0x0 DUP2 PUSH2 0x1AD6 JUMPI PUSH2 0x1A96 DUP9 PUSH1 0x60 ADD MLOAD DUP6 PUSH1 0x2 DUP7 PUSH2 0x1A7B SWAP2 SWAP1 PUSH2 0x73BD JUMP JUMPDEST PUSH1 0x1D DUP2 LT PUSH2 0x1A8C JUMPI PUSH2 0x1A8B PUSH2 0x73F1 JUMP JUMPDEST JUMPDEST PUSH1 0x20 MUL ADD MLOAD PUSH2 0x383C JUMP JUMPDEST SWAP1 POP PUSH2 0x1AA1 DUP2 PUSH2 0x3F03 JUMP JUMPDEST DUP7 DUP5 PUSH1 0x1 PUSH1 0x2C PUSH2 0x1AB1 SWAP2 SWAP1 PUSH2 0x73BD JUMP JUMPDEST PUSH2 0x1ABB SWAP2 SWAP1 PUSH2 0x73BD JUMP JUMPDEST PUSH1 0x4A DUP2 LT PUSH2 0x1ACC JUMPI PUSH2 0x1ACB PUSH2 0x73F1 JUMP JUMPDEST JUMPDEST PUSH1 0x20 MUL ADD DUP2 DUP2 MSTORE POP POP JUMPDEST PUSH2 0x1B15 DUP9 PUSH1 0x40 ADD MLOAD PUSH2 0x1B10 DUP4 DUP16 PUSH2 0x1C0 ADD MLOAD PUSH1 0x1 DUP9 PUSH2 0x1AF5 SWAP2 SWAP1 PUSH2 0x73BD JUMP JUMPDEST PUSH1 0x1C DUP2 LT PUSH2 0x1B06 JUMPI PUSH2 0x1B05 PUSH2 0x73F1 JUMP JUMPDEST JUMPDEST PUSH1 0x20 MUL ADD MLOAD PUSH2 0x383C JUMP JUMPDEST PUSH2 0x3878 JUMP JUMPDEST DUP9 PUSH1 0x40 ADD DUP2 DUP2 MSTORE POP POP PUSH2 0x1B31 DUP9 PUSH1 0x60 ADD MLOAD DUP12 PUSH2 0x140 ADD MLOAD PUSH2 0x383C JUMP JUMPDEST DUP9 PUSH1 0x60 ADD DUP2 DUP2 MSTORE POP POP PUSH2 0x1B5F DUP13 PUSH2 0x1A0 ADD MLOAD DUP5 PUSH1 0x1B DUP2 LT PUSH2 0x1B55 JUMPI PUSH2 0x1B54 PUSH2 0x73F1 JUMP JUMPDEST JUMPDEST PUSH1 0x20 MUL ADD MLOAD PUSH2 0x3EC3 JUMP JUMPDEST DUP6 DUP5 PUSH1 0x1 PUSH1 0x2C PUSH2 0x1B6F SWAP2 SWAP1 PUSH2 0x73BD JUMP JUMPDEST PUSH2 0x1B79 SWAP2 SWAP1 PUSH2 0x73BD JUMP JUMPDEST PUSH1 0x4A DUP2 LT PUSH2 0x1B8A JUMPI PUSH2 0x1B89 PUSH2 0x73F1 JUMP JUMPDEST JUMPDEST PUSH1 0x20 MUL ADD DUP2 SWAP1 MSTORE POP POP POP DUP1 PUSH1 0x1 ADD SWAP1 POP PUSH2 0x1A34 JUMP JUMPDEST POP PUSH1 0x0 PUSH2 0x1BB7 DUP9 DUP8 PUSH1 0x80 ADD MLOAD DUP13 PUSH2 0x1C0 ADD MLOAD DUP9 PUSH2 0x3F4B JUMP JUMPDEST SWAP1 POP PUSH2 0x1BE8 DUP7 PUSH1 0x40 ADD MLOAD PUSH2 0x1BE3 DUP4 DUP6 PUSH1 0x0 PUSH1 0x1D DUP2 LT PUSH2 0x1BD9 JUMPI PUSH2 0x1BD8 PUSH2 0x73F1 JUMP JUMPDEST JUMPDEST PUSH1 0x20 MUL ADD MLOAD PUSH2 0x383C JUMP JUMPDEST PUSH2 0x3878 JUMP JUMPDEST DUP7 PUSH1 0x40 ADD DUP2 DUP2 MSTORE POP POP PUSH2 0x1C4B DUP7 PUSH1 0x40 ADD MLOAD PUSH2 0x1C46 PUSH2 0x1C28 DUP14 PUSH2 0x1C0 ADD MLOAD PUSH1 0x0 PUSH1 0x1C DUP2 LT PUSH2 0x1C18 JUMPI PUSH2 0x1C17 PUSH2 0x73F1 JUMP JUMPDEST JUMPDEST PUSH1 0x20 MUL ADD MLOAD DUP13 PUSH2 0x140 ADD MLOAD PUSH2 0x383C JUMP JUMPDEST DUP6 PUSH1 0x1 PUSH1 0x1D DUP2 LT PUSH2 0x1C3C JUMPI PUSH2 0x1C3B PUSH2 0x73F1 JUMP JUMPDEST JUMPDEST PUSH1 0x20 MUL ADD MLOAD PUSH2 0x383C JUMP JUMPDEST PUSH2 0x3878 JUMP JUMPDEST DUP7 PUSH1 0x40 ADD DUP2 DUP2 MSTORE POP POP PUSH1 0x40 MLOAD DUP1 PUSH1 0x40 ADD PUSH1 0x40 MSTORE DUP1 PUSH1 0x1 DUP2 MSTORE PUSH1 0x20 ADD PUSH1 0x2 DUP2 MSTORE POP DUP4 PUSH1 0x1C PUSH1 0x2C PUSH2 0x1C7A SWAP2 SWAP1 PUSH2 0x73BD JUMP JUMPDEST PUSH1 0x4A DUP2 LT PUSH2 0x1C8B JUMPI PUSH2 0x1C8A PUSH2 0x73F1 JUMP JUMPDEST JUMPDEST PUSH1 0x20 MUL ADD DUP2 SWAP1 MSTORE POP DUP6 PUSH1 0x40 ADD MLOAD DUP5 PUSH1 0x1C PUSH1 0x2C PUSH2 0x1CA7 SWAP2 SWAP1 PUSH2 0x73BD JUMP JUMPDEST PUSH1 0x4A DUP2 LT PUSH2 0x1CB8 JUMPI PUSH2 0x1CB7 PUSH2 0x73F1 JUMP JUMPDEST JUMPDEST PUSH1 0x20 MUL ADD DUP2 DUP2 MSTORE POP POP PUSH1 0x0 PUSH2 0x1CD1 DUP12 PUSH2 0x200 ADD MLOAD PUSH2 0x3EC3 JUMP JUMPDEST SWAP1 POP DUP1 DUP5 PUSH1 0x1 PUSH1 0x1C PUSH1 0x2C PUSH2 0x1CE5 SWAP2 SWAP1 PUSH2 0x73BD JUMP JUMPDEST PUSH2 0x1CEF SWAP2 SWAP1 PUSH2 0x73BD JUMP JUMPDEST PUSH1 0x4A DUP2 LT PUSH2 0x1D00 JUMPI PUSH2 0x1CFF PUSH2 0x73F1 JUMP JUMPDEST JUMPDEST PUSH1 0x20 MUL ADD DUP2 SWAP1 MSTORE POP DUP9 PUSH2 0x160 ADD MLOAD DUP6 PUSH1 0x1 PUSH1 0x1C PUSH1 0x2C PUSH2 0x1D1F SWAP2 SWAP1 PUSH2 0x73BD JUMP JUMPDEST PUSH2 0x1D29 SWAP2 SWAP1 PUSH2 0x73BD JUMP JUMPDEST PUSH1 0x4A DUP2 LT PUSH2 0x1D3A JUMPI PUSH2 0x1D39 PUSH2 0x73F1 JUMP JUMPDEST JUMPDEST PUSH1 0x20 MUL ADD DUP2 DUP2 MSTORE POP POP PUSH1 0x0 PUSH2 0x1D4F DUP6 DUP8 PUSH2 0x4081 JUMP JUMPDEST SWAP1 POP PUSH1 0x0 PUSH2 0x1D5C DUP4 PUSH2 0x414E JUMP JUMPDEST SWAP1 POP PUSH2 0x1D68 DUP3 DUP3 PUSH2 0x41C2 JUMP JUMPDEST SWAP10 POP POP POP POP POP POP POP POP POP POP SWAP4 SWAP3 POP POP POP JUMP JUMPDEST PUSH2 0x1D82 PUSH2 0x6987 JUMP JUMPDEST PUSH1 0x0 PUSH1 0x40 MLOAD DUP1 PUSH2 0x3C0 ADD PUSH1 0x40 MSTORE DUP1 PUSH3 0x40000 DUP2 MSTORE PUSH1 0x20 ADD PUSH1 0x12 DUP2 MSTORE PUSH1 0x20 ADD PUSH1 0x2 DUP2 MSTORE PUSH1 0x20 ADD PUSH1 0x40 MLOAD DUP1 PUSH1 0x40 ADD PUSH1 0x40 MSTORE DUP1 PUSH32 0x10873AF40C9608F678A69C1A06AD4AB41D98A8286E49218360F12B85ECE36AE2 DUP2 MSTORE PUSH1 0x20 ADD PUSH32 0x607A2DA2658276E624D5BFA21602933491A9C260CD9CC0AEE5DD8E30D41AB4F DUP2 MSTORE POP DUP2 MSTORE PUSH1 0x20 ADD PUSH1 0x40 MLOAD DUP1 PUSH1 0x40 ADD PUSH1 0x40 MSTORE DUP1 PUSH32 0x157736420A0D167C15762806EF149A0C4D28E6D7F2C18C8244037B01AE1C826A DUP2 MSTORE PUSH1 0x20 ADD PUSH32 0x2FFDA8A0C6DD33910522BF6A6A667C41C13C5C2E6085AFAC74FFB1C4EC203279 DUP2 MSTORE POP DUP2 MSTORE PUSH1 0x20 ADD PUSH1 0x40 MLOAD DUP1 PUSH1 0x40 ADD PUSH1 0x40 MSTORE DUP1 PUSH32 0x1BBE09CD8A7AD1A16DA7D9687BDEDD41B709E679292BAAA40499E2BCF0B4D75C DUP2 MSTORE PUSH1 0x20 ADD PUSH32 0xC31D2BD0987F7383EEAC16CF1F075B5F00C05291A9B6B7F65C01036894B373D DUP2 MSTORE POP DUP2 MSTORE PUSH1 0x20 ADD PUSH1 0x40 MLOAD DUP1 PUSH1 0x40 ADD PUSH1 0x40 MSTORE DUP1 PUSH32 0x19ED02AB39ED62C4F9C95F52049FD01470080429B362885672A3ECB4B013FFEF DUP2 MSTORE PUSH1 0x20 ADD PUSH32 0x61551554B7E834CA0760750E14426EC27E95F0FCD8904E662762F8617F4D0F4 DUP2 MSTORE POP DUP2 MSTORE PUSH1 0x20 ADD PUSH1 0x40 MLOAD DUP1 PUSH1 0x40 ADD PUSH1 0x40 MSTORE DUP1 PUSH32 0x1F4DDA2E995ABE91594841E78B060D3B3A2F886B7D4C2FEBDD24BDAF77BC7DD4 DUP2 MSTORE PUSH1 0x20 ADD PUSH32 0x1BAC2E05B05878D14D12BEB1ADC45BCABA3D0E2AF1307ABF0CECBB401D64F61A DUP2 MSTORE POP DUP2 MSTORE PUSH1 0x20 ADD PUSH1 0x40 MLOAD DUP1 PUSH1 0x40 ADD PUSH1 0x40 MSTORE DUP1 PUSH32 0x1F047792D07E30D18BA56153FE8F5AFFA6CC808382557A2F2099DA5FCE0CD1E3 DUP2 MSTORE PUSH1 0x20 ADD PUSH32 0x21F42AB18718442E09463E0D9732CF09C80BC1B3C5C182F6553AF421EEA2ED12 DUP2 MSTORE POP DUP2 MSTORE PUSH1 0x20 ADD PUSH1 0x40 MLOAD DUP1 PUSH1 0x40 ADD PUSH1 0x40 MSTORE DUP1 PUSH32 0x2D4E7CBBBD9EBE8536FDB5735AE20838C53DDCE9E43B38E34C70E10B3BE63DE5 DUP2 MSTORE PUSH1 0x20 ADD PUSH32 0x3527DE4205A08DA76F5D3FF3CA4C836FCE8D08552A7388977AE2C8FC5F4EB04 DUP2 MSTORE POP DUP2 MSTORE PUSH1 0x20 ADD PUSH1 0x40 MLOAD DUP1 PUSH1 0x40 ADD PUSH1 0x40 MSTORE DUP1 PUSH32 0x9476DA83CD2503C9F4F572A409601403E8272D61FA859E66C3E392C2EC818CD DUP2 MSTORE PUSH1 0x20 ADD PUSH32 0x69805F91D9642C12853B83C0E5AD902C248F1ACE489A3FE5135C934DE5BE349 DUP2 MSTORE POP DUP2 MSTORE PUSH1 0x20 ADD PUSH1 0x40 MLOAD DUP1 PUSH1 0x40 ADD PUSH1 0x40 MSTORE DUP1 PUSH32 0xD2D77001B7637993A31FD404A8387856BDC72DC4BCA5997A524678C16ECF2E7 DUP2 MSTORE PUSH1 0x20 ADD PUSH32 0x26BD1DE60F4710D459F8F13EA837F073295D07FCC73E94310FA8E2795A49EE7 DUP2 MSTORE POP DUP2 MSTORE PUSH1 0x20 ADD PUSH1 0x40 MLOAD DUP1 PUSH1 0x40 ADD PUSH1 0x40 MSTORE DUP1 PUSH32 0x2CF7A799C5155E8C8DB2270248F4048A802331CB741AFE5BE71A0AE00F5A6D4 DUP2 MSTORE PUSH1 0x20 ADD PUSH31 0x3384AA6495959CAD2FFC43CA70BAA6050FD0ABD32C90FE167F493036844D96 DUP2 MSTORE POP DUP2 MSTORE PUSH1 0x20 ADD PUSH1 0x40 MLOAD DUP1 PUSH1 0x40 ADD PUSH1 0x40 MSTORE DUP1 PUSH32 0x79AA6883C2DAA8E4D47374CD1138294D111EDA00344BFF5D56FF0CF1D49DCAF DUP2 MSTORE PUSH1 0x20 ADD PUSH32 0xD54F43F43BB548C8206CA312F0ACC180FE2A2B904DF309A23758F8BE4226D50 DUP2 MSTORE POP DUP2 MSTORE PUSH1 0x20 ADD PUSH1 0x40 MLOAD DUP1 PUSH1 0x40 ADD PUSH1 0x40 MSTORE DUP1 PUSH32 0x7DE740A97665E865AE113F4D5A361C9A987E31EE0731B6013B218EDD3111364 DUP2 MSTORE PUSH1 0x20 ADD PUSH32 0x1A3C57BC8FCA89A02547A42CC5669115567F47D026B8C1CA19F1CE39EC69CECC DUP2 MSTORE POP DUP2 MSTORE PUSH1 0x20 ADD PUSH1 0x40 MLOAD DUP1 PUSH1 0x40 ADD PUSH1 0x40 MSTORE DUP1 PUSH32 0x1A8CEB2043C9BF341D0FBE8C0A533BCBC389A922431F2D4289610D5855978997 DUP2 MSTORE PUSH1 0x20 ADD PUSH32 0xC6E75386CBD0BE4ECA7AF2134D8940D598D53BDF9660C3A4870C425F68D380B DUP2 MSTORE POP DUP2 MSTORE PUSH1 0x20 ADD PUSH1 0x40 MLOAD DUP1 PUSH1 0x40 ADD PUSH1 0x40 MSTORE DUP1 PUSH32 0x18B27C452DEBA83A6D3D0AE7185E766D59F212180611AEF50F520BFB212FACBC DUP2 MSTORE PUSH1 0x20 ADD PUSH32 0x2CEDE90AE63E10BC3EB7C97A8C0B4875F15C43FF48910B243CE9F09067D6A402 DUP2 MSTORE POP DUP2 MSTORE PUSH1 0x20 ADD PUSH1 0x40 MLOAD DUP1 PUSH1 0x40 ADD PUSH1 0x40 MSTORE DUP1 PUSH32 0x6D9BFCA61C0328D9ADEFE99DF95BAEDC130597792426820EADECEFEF61F3567 DUP2 MSTORE PUSH1 0x20 ADD PUSH32 0x1C041DAF02D5C16C63AAD3D485022B682CA19984A9C6E1EB8725A98F4DCE3D42 DUP2 MSTORE POP DUP2 MSTORE PUSH1 0x20 ADD PUSH1 0x40 MLOAD DUP1 PUSH1 0x40 ADD PUSH1 0x40 MSTORE DUP1 PUSH32 0x1D9705F26BDCB8C6853BC95B10F5B891EE2811D0680C2487F94DCC0D5E0C2ADB DUP2 MSTORE PUSH1 0x20 ADD PUSH32 0xC55DEFB44CA30BE61096B7431D20A2064E5FEE56C8B91AAA572F56B39A0FC20 DUP2 MSTORE POP DUP2 MSTORE PUSH1 0x20 ADD PUSH1 0x40 MLOAD DUP1 PUSH1 0x40 ADD PUSH1 0x40 MSTORE DUP1 PUSH32 0x210CD78F8ABDF0DCC947F9FADD05AAE669DAE339997B18F0845A9D67C2303024 DUP2 MSTORE PUSH1 0x20 ADD PUSH32 0x252A0BB1A772D3EF9C33223420F77BC8E1617122752795FB671C84C477623444 DUP2 MSTORE POP DUP2 MSTORE PUSH1 0x20 ADD PUSH1 0x40 MLOAD DUP1 PUSH1 0x40 ADD PUSH1 0x40 MSTORE DUP1 PUSH32 0x13BC217D58725B76F9D000250DB272EDA13A1BC29268657E4171A2BE0B445CC9 DUP2 MSTORE PUSH1 0x20 ADD PUSH32 0xE61C9E163D23B503B013202C67EFB40191CBF93311D01FAB00F58AA59EFF8C2 DUP2 MSTORE POP DUP2 MSTORE PUSH1 0x20 ADD PUSH1 0x40 MLOAD DUP1 PUSH1 0x40 ADD PUSH1 0x40 MSTORE DUP1 PUSH32 0x135FC20591E64DA028DAFAED1D439528071DA81328F567EBCC0B4AB9BAF732F5 DUP2 MSTORE PUSH1 0x20 ADD PUSH32 0x1BF786D9438CDF5109069397A30FDE635DD23832CEE1FF50955968AD4F7AD38C DUP2 MSTORE POP DUP2 MSTORE PUSH1 0x20 ADD PUSH1 0x40 MLOAD DUP1 PUSH1 0x40 ADD PUSH1 0x40 MSTORE DUP1 PUSH32 0x17A40A114BB76CC7D065272A0CA943926DC0C24879C0628A793A4624F668A106 DUP2 MSTORE PUSH1 0x20 ADD PUSH32 0x1DABCACFA17C371D769C7446404080138314EEF01AA47F5E1E5BC3B535BD435F DUP2 MSTORE POP DUP2 MSTORE PUSH1 0x20 ADD PUSH1 0x40 MLOAD DUP1 PUSH1 0x40 ADD PUSH1 0x40 MSTORE DUP1 PUSH32 0x1B79177D03EFB9E36F6CE65BEB8C9B8C9B968FEDA24CEC54DAE90044C9B89AC5 DUP2 MSTORE PUSH1 0x20 ADD PUSH32 0x686B416B3456D69682ABF17BA5C971474271BC2F1FAEAB689FCADEB08DA6853 DUP2 MSTORE POP DUP2 MSTORE PUSH1 0x20 ADD PUSH1 0x40 MLOAD DUP1 PUSH1 0x40 ADD PUSH1 0x40 MSTORE DUP1 PUSH32 0x2456F961D0B86605DCB817520567534F153AA0E6BCB19E20004A1F944FE3EA94 DUP2 MSTORE PUSH1 0x20 ADD PUSH31 0xC777E267F596E3D7945765146A70C7248CB2032B82E73692B8E8D0BDCCD606 DUP2 MSTORE POP DUP2 MSTORE PUSH1 0x20 ADD PUSH1 0x40 MLOAD DUP1 PUSH1 0x40 ADD PUSH1 0x40 MSTORE DUP1 PUSH32 0x246FD4811F690574DDC55745590439A8F73455E78FDD3521D65C7E007E6B451E DUP2 MSTORE PUSH1 0x20 ADD PUSH32 0x132A30F5AA1D892595234280DD91B7728B3DADC7B72E58F2A95148F38BA2101E DUP2 MSTORE POP DUP2 MSTORE PUSH1 0x20 ADD PUSH1 0x40 MLOAD DUP1 PUSH1 0x40 ADD PUSH1 0x40 MSTORE DUP1 PUSH32 0x181F12B41A00B4EE891ED5A942BFDBAE834B4FAF95CE9E9AAA9BD2500CE63DD DUP2 MSTORE PUSH1 0x20 ADD PUSH31 0x3CF62B76F6CCBF957B772B67EE10BA4B55C20DDAD2C4CDB3FADA2ED419CB4A DUP2 MSTORE POP DUP2 MSTORE PUSH1 0x20 ADD PUSH1 0x40 MLOAD DUP1 PUSH1 0x40 ADD PUSH1 0x40 MSTORE DUP1 PUSH32 0x14E915DDE4EB0E38D4A05B2ED83873AE2FEEE46958C10439D8DB62AC1382628A DUP2 MSTORE PUSH1 0x20 ADD PUSH32 0x262751BF31978E94767A6A0DAE1DED7696F8CFA579020156F6BE9E24EA2D639A DUP2 MSTORE POP DUP2 MSTORE PUSH1 0x20 ADD PUSH1 0x40 MLOAD DUP1 PUSH1 0x40 ADD PUSH1 0x40 MSTORE DUP1 PUSH1 0x1 DUP2 MSTORE PUSH1 0x20 ADD PUSH1 0x2 DUP2 MSTORE POP DUP2 MSTORE PUSH1 0x20 ADD PUSH1 0x40 MLOAD DUP1 PUSH1 0x40 ADD PUSH1 0x40 MSTORE DUP1 PUSH32 0x14E1195FFD01622D7634B09B688B1C0AFDE7EA6D975D546E435A3FB5CAB11F86 DUP2 MSTORE PUSH1 0x20 ADD PUSH32 0x2A68D60AA0AB708804B2BDFFF3446F96C5446FE91F24E97DECAFE4095A0F4D2E DUP2 MSTORE POP DUP2 MSTORE POP SWAP1 POP DUP1 SWAP2 POP POP SWAP1 JUMP JUMPDEST PUSH1 0x0 PUSH32 0x30644E72E131A029B85045B68181585D2833E84879B9709143E1F593F0000001 DUP3 PUSH1 0x0 SHR PUSH2 0x271C SWAP2 SWAP1 PUSH2 0x74CB JUMP JUMPDEST SWAP1 POP SWAP2 SWAP1 POP JUMP JUMPDEST PUSH1 0x0 DUP1 PUSH1 0x0 DUP1 PUSH1 0x0 PUSH1 0xC DUP7 PUSH1 0x3 PUSH2 0x273A SWAP2 SWAP1 PUSH2 0x73BD JUMP JUMPDEST PUSH2 0x2744 SWAP2 SWAP1 PUSH2 0x73BD JUMP JUMPDEST PUSH8 0xFFFFFFFFFFFFFFFF DUP2 GT ISZERO PUSH2 0x275D JUMPI PUSH2 0x275C PUSH2 0x74FC JUMP JUMPDEST JUMPDEST PUSH1 0x40 MLOAD SWAP1 DUP1 DUP3 MSTORE DUP1 PUSH1 0x20 MUL PUSH1 0x20 ADD DUP3 ADD PUSH1 0x40 MSTORE DUP1 ISZERO PUSH2 0x278B JUMPI DUP2 PUSH1 0x20 ADD PUSH1 0x20 DUP3 MUL DUP1 CALLDATASIZE DUP4 CALLDATACOPY DUP1 DUP3 ADD SWAP2 POP POP SWAP1 POP JUMPDEST POP SWAP1 POP DUP9 PUSH1 0x0 ADD MLOAD PUSH1 0x0 SHL DUP2 PUSH1 0x0 DUP2 MLOAD DUP2 LT PUSH2 0x27AA JUMPI PUSH2 0x27A9 PUSH2 0x73F1 JUMP JUMPDEST JUMPDEST PUSH1 0x20 MUL PUSH1 0x20 ADD ADD DUP2 DUP2 MSTORE POP POP DUP9 PUSH1 0x20 ADD MLOAD PUSH1 0x0 SHL DUP2 PUSH1 0x1 DUP2 MLOAD DUP2 LT PUSH2 0x27D2 JUMPI PUSH2 0x27D1 PUSH2 0x73F1 JUMP JUMPDEST JUMPDEST PUSH1 0x20 MUL PUSH1 0x20 ADD ADD DUP2 DUP2 MSTORE POP POP DUP9 PUSH1 0x40 ADD MLOAD PUSH1 0x0 SHL DUP2 PUSH1 0x2 DUP2 MLOAD DUP2 LT PUSH2 0x27FA JUMPI PUSH2 0x27F9 PUSH2 0x73F1 JUMP JUMPDEST JUMPDEST PUSH1 0x20 MUL PUSH1 0x20 ADD ADD DUP2 DUP2 MSTORE POP POP PUSH1 0x0 JUMPDEST DUP7 DUP2 LT ISZERO PUSH2 0x2863 JUMPI DUP9 DUP9 DUP3 DUP2 DUP2 LT PUSH2 0x2824 JUMPI PUSH2 0x2823 PUSH2 0x73F1 JUMP JUMPDEST JUMPDEST SWAP1 POP PUSH1 0x20 MUL ADD CALLDATALOAD DUP3 DUP3 PUSH1 0x3 PUSH2 0x2839 SWAP2 SWAP1 PUSH2 0x73BD JUMP JUMPDEST DUP2 MLOAD DUP2 LT PUSH2 0x284A JUMPI PUSH2 0x2849 PUSH2 0x73F1 JUMP JUMPDEST JUMPDEST PUSH1 0x20 MUL PUSH1 0x20 ADD ADD DUP2 DUP2 MSTORE POP POP DUP1 DUP1 PUSH1 0x1 ADD SWAP2 POP POP PUSH2 0x2809 JUMP JUMPDEST POP DUP9 PUSH1 0x60 ADD MLOAD PUSH1 0x0 ADD MLOAD PUSH1 0x0 SHL DUP2 DUP8 PUSH1 0x3 PUSH2 0x287E SWAP2 SWAP1 PUSH2 0x73BD JUMP JUMPDEST DUP2 MLOAD DUP2 LT PUSH2 0x288F JUMPI PUSH2 0x288E PUSH2 0x73F1 JUMP JUMPDEST JUMPDEST PUSH1 0x20 MUL PUSH1 0x20 ADD ADD DUP2 DUP2 MSTORE POP POP DUP9 PUSH1 0x60 ADD MLOAD PUSH1 0x20 ADD MLOAD PUSH1 0x0 SHL DUP2 PUSH1 0x1 DUP9 PUSH1 0x3 PUSH2 0x28B7 SWAP2 SWAP1 PUSH2 0x73BD JUMP JUMPDEST PUSH2 0x28C1 SWAP2 SWAP1 PUSH2 0x73BD JUMP JUMPDEST DUP2 MLOAD DUP2 LT PUSH2 0x28D2 JUMPI PUSH2 0x28D1 PUSH2 0x73F1 JUMP JUMPDEST JUMPDEST PUSH1 0x20 MUL PUSH1 0x20 ADD ADD DUP2 DUP2 MSTORE POP POP DUP9 PUSH1 0x60 ADD MLOAD PUSH1 0x40 ADD MLOAD PUSH1 0x0 SHL DUP2 PUSH1 0x2 DUP9 PUSH1 0x3 PUSH2 0x28FA SWAP2 SWAP1 PUSH2 0x73BD JUMP JUMPDEST PUSH2 0x2904 SWAP2 SWAP1 PUSH2 0x73BD JUMP JUMPDEST DUP2 MLOAD DUP2 LT PUSH2 0x2915 JUMPI PUSH2 0x2914 PUSH2 0x73F1 JUMP JUMPDEST JUMPDEST PUSH1 0x20 MUL PUSH1 0x20 ADD ADD DUP2 DUP2 MSTORE POP POP DUP9 PUSH1 0x60 ADD MLOAD PUSH1 0x60 ADD MLOAD PUSH1 0x0 SHL DUP2 PUSH1 0x3 DUP9 PUSH1 0x3 PUSH2 0x293D SWAP2 SWAP1 PUSH2 0x73BD JUMP JUMPDEST PUSH2 0x2947 SWAP2 SWAP1 PUSH2 0x73BD JUMP JUMPDEST DUP2 MLOAD DUP2 LT PUSH2 0x2958 JUMPI PUSH2 0x2957 PUSH2 0x73F1 JUMP JUMPDEST JUMPDEST PUSH1 0x20 MUL PUSH1 0x20 ADD ADD DUP2 DUP2 MSTORE POP POP DUP9 PUSH1 0x80 ADD MLOAD PUSH1 0x0 ADD MLOAD PUSH1 0x0 SHL DUP2 PUSH1 0x4 DUP9 PUSH1 0x3 PUSH2 0x2980 SWAP2 SWAP1 PUSH2 0x73BD JUMP JUMPDEST PUSH2 0x298A SWAP2 SWAP1 PUSH2 0x73BD JUMP JUMPDEST DUP2 MLOAD DUP2 LT PUSH2 0x299B JUMPI PUSH2 0x299A PUSH2 0x73F1 JUMP JUMPDEST JUMPDEST PUSH1 0x20 MUL PUSH1 0x20 ADD ADD DUP2 DUP2 MSTORE POP POP DUP9 PUSH1 0x80 ADD MLOAD PUSH1 0x20 ADD MLOAD PUSH1 0x0 SHL DUP2 PUSH1 0x5 DUP9 PUSH1 0x3 PUSH2 0x29C3 SWAP2 SWAP1 PUSH2 0x73BD JUMP JUMPDEST PUSH2 0x29CD SWAP2 SWAP1 PUSH2 0x73BD JUMP JUMPDEST DUP2 MLOAD DUP2 LT PUSH2 0x29DE JUMPI PUSH2 0x29DD PUSH2 0x73F1 JUMP JUMPDEST JUMPDEST PUSH1 0x20 MUL PUSH1 0x20 ADD ADD DUP2 DUP2 MSTORE POP POP DUP9 PUSH1 0x80 ADD MLOAD PUSH1 0x40 ADD MLOAD PUSH1 0x0 SHL DUP2 PUSH1 0x6 DUP9 PUSH1 0x3 PUSH2 0x2A06 SWAP2 SWAP1 PUSH2 0x73BD JUMP JUMPDEST PUSH2 0x2A10 SWAP2 SWAP1 PUSH2 0x73BD JUMP JUMPDEST DUP2 MLOAD DUP2 LT PUSH2 0x2A21 JUMPI PUSH2 0x2A20 PUSH2 0x73F1 JUMP JUMPDEST JUMPDEST PUSH1 0x20 MUL PUSH1 0x20 ADD ADD DUP2 DUP2 MSTORE POP POP DUP9 PUSH1 0x80 ADD MLOAD PUSH1 0x60 ADD MLOAD PUSH1 0x0 SHL DUP2 PUSH1 0x7 DUP9 PUSH1 0x3 PUSH2 0x2A49 SWAP2 SWAP1 PUSH2 0x73BD JUMP JUMPDEST PUSH2 0x2A53 SWAP2 SWAP1 PUSH2 0x73BD JUMP JUMPDEST DUP2 MLOAD DUP2 LT PUSH2 0x2A64 JUMPI PUSH2 0x2A63 PUSH2 0x73F1 JUMP JUMPDEST JUMPDEST PUSH1 0x20 MUL PUSH1 0x20 ADD ADD DUP2 DUP2 MSTORE POP POP DUP9 PUSH1 0xA0 ADD MLOAD PUSH1 0x0 ADD MLOAD PUSH1 0x0 SHL DUP2 PUSH1 0x8 DUP9 PUSH1 0x3 PUSH2 0x2A8C SWAP2 SWAP1 PUSH2 0x73BD JUMP JUMPDEST PUSH2 0x2A96 SWAP2 SWAP1 PUSH2 0x73BD JUMP JUMPDEST DUP2 MLOAD DUP2 LT PUSH2 0x2AA7 JUMPI PUSH2 0x2AA6 PUSH2 0x73F1 JUMP JUMPDEST JUMPDEST PUSH1 0x20 MUL PUSH1 0x20 ADD ADD DUP2 DUP2 MSTORE POP POP DUP9 PUSH1 0xA0 ADD MLOAD PUSH1 0x20 ADD MLOAD PUSH1 0x0 SHL DUP2 PUSH1 0x9 DUP9 PUSH1 0x3 PUSH2 0x2ACF SWAP2 SWAP1 PUSH2 0x73BD JUMP JUMPDEST PUSH2 0x2AD9 SWAP2 SWAP1 PUSH2 0x73BD JUMP JUMPDEST DUP2 MLOAD DUP2 LT PUSH2 0x2AEA JUMPI PUSH2 0x2AE9 PUSH2 0x73F1 JUMP JUMPDEST JUMPDEST PUSH1 0x20 MUL PUSH1 0x20 ADD ADD DUP2 DUP2 MSTORE POP POP DUP9 PUSH1 0xA0 ADD MLOAD PUSH1 0x40 ADD MLOAD PUSH1 0x0 SHL DUP2 PUSH1 0xA DUP9 PUSH1 0x3 PUSH2 0x2B12 SWAP2 SWAP1 PUSH2 0x73BD JUMP JUMPDEST PUSH2 0x2B1C SWAP2 SWAP1 PUSH2 0x73BD JUMP JUMPDEST DUP2 MLOAD DUP2 LT PUSH2 0x2B2D JUMPI PUSH2 0x2B2C PUSH2 0x73F1 JUMP JUMPDEST JUMPDEST PUSH1 0x20 MUL PUSH1 0x20 ADD ADD DUP2 DUP2 MSTORE POP POP DUP9 PUSH1 0xA0 ADD MLOAD PUSH1 0x60 ADD MLOAD PUSH1 0x0 SHL DUP2 PUSH1 0xB DUP9 PUSH1 0x3 PUSH2 0x2B55 SWAP2 SWAP1 PUSH2 0x73BD JUMP JUMPDEST PUSH2 0x2B5F SWAP2 SWAP1 PUSH2 0x73BD JUMP JUMPDEST DUP2 MLOAD DUP2 LT PUSH2 0x2B70 JUMPI PUSH2 0x2B6F PUSH2 0x73F1 JUMP JUMPDEST JUMPDEST PUSH1 0x20 MUL PUSH1 0x20 ADD ADD DUP2 DUP2 MSTORE POP POP PUSH2 0x2BAB DUP2 PUSH1 0x40 MLOAD PUSH1 0x20 ADD PUSH2 0x2B90 SWAP2 SWAP1 PUSH2 0x75E3 JUMP JUMPDEST PUSH1 0x40 MLOAD PUSH1 0x20 DUP2 DUP4 SUB SUB DUP2 MSTORE SWAP1 PUSH1 0x40 MSTORE DUP1 MLOAD SWAP1 PUSH1 0x20 ADD KECCAK256 PUSH2 0x26EB JUMP JUMPDEST SWAP2 POP PUSH2 0x2BB6 DUP3 PUSH2 0x43A9 JUMP JUMPDEST DUP1 SWAP6 POP DUP2 SWAP7 POP POP POP PUSH2 0x2BED DUP3 PUSH1 0x40 MLOAD PUSH1 0x20 ADD PUSH2 0x2BD2 SWAP2 SWAP1 PUSH2 0x761B JUMP JUMPDEST PUSH1 0x40 MLOAD PUSH1 0x20 DUP2 DUP4 SUB SUB DUP2 MSTORE SWAP1 PUSH1 0x40 MSTORE DUP1 MLOAD SWAP1 PUSH1 0x20 ADD KECCAK256 PUSH2 0x26EB JUMP JUMPDEST SWAP2 POP PUSH1 0x0 PUSH2 0x2BFA DUP4 PUSH2 0x43A9 JUMP JUMPDEST DUP1 SWAP3 POP DUP2 SWAP6 POP POP POP POP POP SWAP5 POP SWAP5 POP SWAP5 POP SWAP5 SWAP1 POP JUMP JUMPDEST PUSH1 0x0 DUP1 PUSH1 0x0 PUSH2 0x2C1C PUSH2 0x6CDA JUMP JUMPDEST PUSH2 0x2C25 DUP7 PUSH2 0x43F5 JUMP JUMPDEST DUP2 PUSH1 0x0 PUSH1 0xD DUP2 LT PUSH2 0x2C39 JUMPI PUSH2 0x2C38 PUSH2 0x73F1 JUMP JUMPDEST JUMPDEST PUSH1 0x20 MUL ADD DUP2 DUP2 MSTORE POP POP DUP5 PUSH2 0x100 ADD MLOAD PUSH1 0x0 ADD MLOAD PUSH1 0x0 SHL DUP2 PUSH1 0x1 PUSH1 0xD DUP2 LT PUSH2 0x2C63 JUMPI PUSH2 0x2C62 PUSH2 0x73F1 JUMP JUMPDEST JUMPDEST PUSH1 0x20 MUL ADD DUP2 DUP2 MSTORE POP POP DUP5 PUSH2 0x100 ADD MLOAD PUSH1 0x20 ADD MLOAD PUSH1 0x0 SHL DUP2 PUSH1 0x2 PUSH1 0xD DUP2 LT PUSH2 0x2C8D JUMPI PUSH2 0x2C8C PUSH2 0x73F1 JUMP JUMPDEST JUMPDEST PUSH1 0x20 MUL ADD DUP2 DUP2 MSTORE POP POP DUP5 PUSH2 0x100 ADD MLOAD PUSH1 0x40 ADD MLOAD PUSH1 0x0 SHL DUP2 PUSH1 0x3 PUSH1 0xD DUP2 LT PUSH2 0x2CB7 JUMPI PUSH2 0x2CB6 PUSH2 0x73F1 JUMP JUMPDEST JUMPDEST PUSH1 0x20 MUL ADD DUP2 DUP2 MSTORE POP POP DUP5 PUSH2 0x100 ADD MLOAD PUSH1 0x60 ADD MLOAD PUSH1 0x0 SHL DUP2 PUSH1 0x4 PUSH1 0xD DUP2 LT PUSH2 0x2CE1 JUMPI PUSH2 0x2CE0 PUSH2 0x73F1 JUMP JUMPDEST JUMPDEST PUSH1 0x20 MUL ADD DUP2 DUP2 MSTORE POP POP DUP5 PUSH2 0x120 ADD MLOAD PUSH1 0x0 ADD MLOAD PUSH1 0x0 SHL DUP2 PUSH1 0x5 PUSH1 0xD DUP2 LT PUSH2 0x2D0B JUMPI PUSH2 0x2D0A PUSH2 0x73F1 JUMP JUMPDEST JUMPDEST PUSH1 0x20 MUL ADD DUP2 DUP2 MSTORE POP POP DUP5 PUSH2 0x120 ADD MLOAD PUSH1 0x20 ADD MLOAD PUSH1 0x0 SHL DUP2 PUSH1 0x6 PUSH1 0xD DUP2 LT PUSH2 0x2D35 JUMPI PUSH2 0x2D34 PUSH2 0x73F1 JUMP JUMPDEST JUMPDEST PUSH1 0x20 MUL ADD DUP2 DUP2 MSTORE POP POP DUP5 PUSH2 0x120 ADD MLOAD PUSH1 0x40 ADD MLOAD PUSH1 0x0 SHL DUP2 PUSH1 0x7 PUSH1 0xD DUP2 LT PUSH2 0x2D5F JUMPI PUSH2 0x2D5E PUSH2 0x73F1 JUMP JUMPDEST JUMPDEST PUSH1 0x20 MUL ADD DUP2 DUP2 MSTORE POP POP DUP5 PUSH2 0x120 ADD MLOAD PUSH1 0x60 ADD MLOAD PUSH1 0x0 SHL DUP2 PUSH1 0x8 PUSH1 0xD DUP2 LT PUSH2 0x2D89 JUMPI PUSH2 0x2D88 PUSH2 0x73F1 JUMP JUMPDEST JUMPDEST PUSH1 0x20 MUL ADD DUP2 DUP2 MSTORE POP POP DUP5 PUSH1 0xC0 ADD MLOAD PUSH1 0x0 ADD MLOAD PUSH1 0x0 SHL DUP2 PUSH1 0x9 PUSH1 0xD DUP2 LT PUSH2 0x2DB2 JUMPI PUSH2 0x2DB1 PUSH2 0x73F1 JUMP JUMPDEST JUMPDEST PUSH1 0x20 MUL ADD DUP2 DUP2 MSTORE POP POP DUP5 PUSH1 0xC0 ADD MLOAD PUSH1 0x20 ADD MLOAD PUSH1 0x0 SHL DUP2 PUSH1 0xA PUSH1 0xD DUP2 LT PUSH2 0x2DDB JUMPI PUSH2 0x2DDA PUSH2 0x73F1 JUMP JUMPDEST JUMPDEST PUSH1 0x20 MUL ADD DUP2 DUP2 MSTORE POP POP DUP5 PUSH1 0xC0 ADD MLOAD PUSH1 0x40 ADD MLOAD PUSH1 0x0 SHL DUP2 PUSH1 0xB PUSH1 0xD DUP2 LT PUSH2 0x2E04 JUMPI PUSH2 0x2E03 PUSH2 0x73F1 JUMP JUMPDEST JUMPDEST PUSH1 0x20 MUL ADD DUP2 DUP2 MSTORE POP POP DUP5 PUSH1 0xC0 ADD MLOAD PUSH1 0x60 ADD MLOAD PUSH1 0x0 SHL DUP2 PUSH1 0xC PUSH1 0xD DUP2 LT PUSH2 0x2E2D JUMPI PUSH2 0x2E2C PUSH2 0x73F1 JUMP JUMPDEST JUMPDEST PUSH1 0x20 MUL ADD DUP2 DUP2 MSTORE POP POP PUSH2 0x2E65 DUP2 PUSH1 0x40 MLOAD PUSH1 0x20 ADD PUSH2 0x2E4A SWAP2 SWAP1 PUSH2 0x76BA JUMP JUMPDEST PUSH1 0x40 MLOAD PUSH1 0x20 DUP2 DUP4 SUB SUB DUP2 MSTORE SWAP1 PUSH1 0x40 MSTORE DUP1 MLOAD SWAP1 PUSH1 0x20 ADD KECCAK256 PUSH2 0x26EB JUMP JUMPDEST SWAP2 POP PUSH2 0x2E70 DUP3 PUSH2 0x43A9 JUMP JUMPDEST DUP1 SWAP5 POP DUP2 SWAP6 POP POP POP POP SWAP3 POP SWAP3 POP SWAP3 JUMP JUMPDEST PUSH2 0x2E88 PUSH2 0x6CFD JUMP JUMPDEST PUSH1 0x0 PUSH2 0x2E92 PUSH2 0x6D20 JUMP JUMPDEST DUP5 DUP2 PUSH1 0x0 PUSH1 0x9 DUP2 LT PUSH2 0x2EA7 JUMPI PUSH2 0x2EA6 PUSH2 0x73F1 JUMP JUMPDEST JUMPDEST PUSH1 0x20 MUL ADD DUP2 DUP2 MSTORE POP POP DUP4 PUSH2 0x140 ADD MLOAD PUSH1 0x0 ADD MLOAD DUP2 PUSH1 0x1 PUSH1 0x9 DUP2 LT PUSH2 0x2ECE JUMPI PUSH2 0x2ECD PUSH2 0x73F1 JUMP JUMPDEST JUMPDEST PUSH1 0x20 MUL ADD DUP2 DUP2 MSTORE POP POP DUP4 PUSH2 0x140 ADD MLOAD PUSH1 0x20 ADD MLOAD DUP2 PUSH1 0x2 PUSH1 0x9 DUP2 LT PUSH2 0x2EF5 JUMPI PUSH2 0x2EF4 PUSH2 0x73F1 JUMP JUMPDEST JUMPDEST PUSH1 0x20 MUL ADD DUP2 DUP2 MSTORE POP POP DUP4 PUSH2 0x140 ADD MLOAD PUSH1 0x40 ADD MLOAD DUP2 PUSH1 0x3 PUSH1 0x9 DUP2 LT PUSH2 0x2F1C JUMPI PUSH2 0x2F1B PUSH2 0x73F1 JUMP JUMPDEST JUMPDEST PUSH1 0x20 MUL ADD DUP2 DUP2 MSTORE POP POP DUP4 PUSH2 0x140 ADD MLOAD PUSH1 0x60 ADD MLOAD DUP2 PUSH1 0x4 PUSH1 0x9 DUP2 LT PUSH2 0x2F43 JUMPI PUSH2 0x2F42 PUSH2 0x73F1 JUMP JUMPDEST JUMPDEST PUSH1 0x20 MUL ADD DUP2 DUP2 MSTORE POP POP DUP4 PUSH1 0xE0 ADD MLOAD PUSH1 0x0 ADD MLOAD DUP2 PUSH1 0x5 PUSH1 0x9 DUP2 LT PUSH2 0x2F69 JUMPI PUSH2 0x2F68 PUSH2 0x73F1 JUMP JUMPDEST JUMPDEST PUSH1 0x20 MUL ADD DUP2 DUP2 MSTORE POP POP DUP4 PUSH1 0xE0 ADD MLOAD PUSH1 0x20 ADD MLOAD DUP2 PUSH1 0x6 PUSH1 0x9 DUP2 LT PUSH2 0x2F8F JUMPI PUSH2 0x2F8E PUSH2 0x73F1 JUMP JUMPDEST JUMPDEST PUSH1 0x20 MUL ADD DUP2 DUP2 MSTORE POP POP DUP4 PUSH1 0xE0 ADD MLOAD PUSH1 0x40 ADD MLOAD DUP2 PUSH1 0x7 PUSH1 0x9 DUP2 LT PUSH2 0x2FB5 JUMPI PUSH2 0x2FB4 PUSH2 0x73F1 JUMP JUMPDEST JUMPDEST PUSH1 0x20 MUL ADD DUP2 DUP2 MSTORE POP POP DUP4 PUSH1 0xE0 ADD MLOAD PUSH1 0x60 ADD MLOAD DUP2 PUSH1 0x8 PUSH1 0x9 DUP2 LT PUSH2 0x2FDB JUMPI PUSH2 0x2FDA PUSH2 0x73F1 JUMP JUMPDEST JUMPDEST PUSH1 0x20 MUL ADD DUP2 DUP2 MSTORE POP POP PUSH2 0x3013 DUP2 PUSH1 0x40 MLOAD PUSH1 0x20 ADD PUSH2 0x2FF8 SWAP2 SWAP1 PUSH2 0x7781 JUMP JUMPDEST PUSH1 0x40 MLOAD PUSH1 0x20 DUP2 DUP4 SUB SUB DUP2 MSTORE SWAP1 PUSH1 0x40 MSTORE DUP1 MLOAD SWAP1 PUSH1 0x20 ADD KECCAK256 PUSH2 0x26EB JUMP JUMPDEST SWAP2 POP PUSH2 0x301E DUP3 PUSH2 0x43A9 JUMP JUMPDEST DUP5 PUSH1 0x0 PUSH1 0x19 DUP2 LT PUSH2 0x3032 JUMPI PUSH2 0x3031 PUSH2 0x73F1 JUMP JUMPDEST JUMPDEST PUSH1 0x20 MUL ADD DUP6 PUSH1 0x1 PUSH1 0x19 DUP2 LT PUSH2 0x304A JUMPI PUSH2 0x3049 PUSH2 0x73F1 JUMP JUMPDEST JUMPDEST PUSH1 0x20 MUL ADD DUP3 DUP2 MSTORE POP DUP3 DUP2 MSTORE POP POP POP PUSH1 0x0 PUSH1 0x1 SWAP1 POP JUMPDEST PUSH1 0x2 PUSH1 0x19 PUSH2 0x306D SWAP2 SWAP1 PUSH2 0x779D JUMP JUMPDEST DUP2 LT ISZERO PUSH2 0x3117 JUMPI PUSH2 0x30A3 DUP4 PUSH1 0x40 MLOAD PUSH1 0x20 ADD PUSH2 0x3088 SWAP2 SWAP1 PUSH2 0x761B JUMP JUMPDEST PUSH1 0x40 MLOAD PUSH1 0x20 DUP2 DUP4 SUB SUB DUP2 MSTORE SWAP1 PUSH1 0x40 MSTORE DUP1 MLOAD SWAP1 PUSH1 0x20 ADD KECCAK256 PUSH2 0x26EB JUMP JUMPDEST SWAP3 POP PUSH2 0x30AE DUP4 PUSH2 0x43A9 JUMP JUMPDEST DUP6 DUP4 PUSH1 0x2 PUSH2 0x30BC SWAP2 SWAP1 PUSH2 0x737B JUMP JUMPDEST PUSH1 0x19 DUP2 LT PUSH2 0x30CD JUMPI PUSH2 0x30CC PUSH2 0x73F1 JUMP JUMPDEST JUMPDEST PUSH1 0x20 MUL ADD DUP7 PUSH1 0x1 DUP6 PUSH1 0x2 PUSH2 0x30E1 SWAP2 SWAP1 PUSH2 0x737B JUMP JUMPDEST PUSH2 0x30EB SWAP2 SWAP1 PUSH2 0x73BD JUMP JUMPDEST PUSH1 0x19 DUP2 LT PUSH2 0x30FC JUMPI PUSH2 0x30FB PUSH2 0x73F1 JUMP JUMPDEST JUMPDEST PUSH1 0x20 MUL ADD DUP3 DUP2 MSTORE POP DUP3 DUP2 MSTORE POP POP POP DUP1 DUP1 PUSH1 0x1 ADD SWAP2 POP POP PUSH2 0x305F JUMP JUMPDEST POP PUSH1 0x1 DUP1 PUSH1 0x19 AND EQ DUP1 ISZERO PUSH2 0x312C JUMPI POP PUSH1 0x2 PUSH1 0x19 GT JUMPDEST ISZERO PUSH2 0x319C JUMPI PUSH2 0x3160 DUP3 PUSH1 0x40 MLOAD PUSH1 0x20 ADD PUSH2 0x3145 SWAP2 SWAP1 PUSH2 0x761B JUMP JUMPDEST PUSH1 0x40 MLOAD PUSH1 0x20 DUP2 DUP4 SUB SUB DUP2 MSTORE SWAP1 PUSH1 0x40 MSTORE DUP1 MLOAD SWAP1 PUSH1 0x20 ADD KECCAK256 PUSH2 0x26EB JUMP JUMPDEST SWAP2 POP PUSH1 0x0 PUSH2 0x316D DUP4 PUSH2 0x43A9 JUMP JUMPDEST DUP6 PUSH1 0x1 PUSH1 0x19 PUSH2 0x317C SWAP2 SWAP1 PUSH2 0x7420 JUMP JUMPDEST PUSH1 0x19 DUP2 LT PUSH2 0x318D JUMPI PUSH2 0x318C PUSH2 0x73F1 JUMP JUMPDEST JUMPDEST PUSH1 0x20 MUL ADD DUP2 SWAP4 POP DUP3 DUP2 MSTORE POP POP POP POP JUMPDEST POP SWAP3 POP SWAP3 SWAP1 POP JUMP JUMPDEST PUSH2 0x31AC PUSH2 0x6D43 JUMP JUMPDEST PUSH1 0x0 DUP1 PUSH1 0x0 SWAP1 POP JUMPDEST PUSH1 0x1C DUP2 LT ISZERO PUSH2 0x3227 JUMPI PUSH2 0x31EC DUP5 PUSH1 0x40 MLOAD PUSH1 0x20 ADD PUSH2 0x31D1 SWAP2 SWAP1 PUSH2 0x761B JUMP JUMPDEST PUSH1 0x40 MLOAD PUSH1 0x20 DUP2 DUP4 SUB SUB DUP2 MSTORE SWAP1 PUSH1 0x40 MSTORE DUP1 MLOAD SWAP1 PUSH1 0x20 ADD KECCAK256 PUSH2 0x26EB JUMP JUMPDEST SWAP4 POP PUSH1 0x0 PUSH2 0x31F9 DUP6 PUSH2 0x43A9 JUMP JUMPDEST DUP6 DUP5 PUSH1 0x1C DUP2 LT PUSH2 0x320C JUMPI PUSH2 0x320B PUSH2 0x73F1 JUMP JUMPDEST JUMPDEST PUSH1 0x20 MUL ADD DUP2 SWAP4 POP DUP3 DUP2 MSTORE POP POP POP POP DUP1 DUP1 PUSH1 0x1 ADD SWAP2 POP POP PUSH2 0x31B4 JUMP JUMPDEST POP DUP3 SWAP1 POP SWAP2 POP SWAP2 JUMP JUMPDEST PUSH2 0x3238 PUSH2 0x6D43 JUMP JUMPDEST PUSH1 0x0 DUP1 PUSH1 0x0 SWAP1 POP JUMPDEST PUSH1 0x1C DUP2 LT ISZERO PUSH2 0x3350 JUMPI PUSH2 0x3251 PUSH2 0x6D66 JUMP JUMPDEST DUP5 DUP2 PUSH1 0x0 PUSH1 0x9 DUP2 LT PUSH2 0x3266 JUMPI PUSH2 0x3265 PUSH2 0x73F1 JUMP JUMPDEST JUMPDEST PUSH1 0x20 MUL ADD DUP2 DUP2 MSTORE POP POP PUSH1 0x0 JUMPDEST PUSH1 0x8 DUP2 LT ISZERO PUSH2 0x32E4 JUMPI DUP7 PUSH2 0x160 ADD MLOAD DUP4 PUSH1 0x1C DUP2 LT PUSH2 0x3293 JUMPI PUSH2 0x3292 PUSH2 0x73F1 JUMP JUMPDEST JUMPDEST PUSH1 0x20 MUL ADD MLOAD DUP2 PUSH1 0x8 DUP2 LT PUSH2 0x32AA JUMPI PUSH2 0x32A9 PUSH2 0x73F1 JUMP JUMPDEST JUMPDEST PUSH1 0x20 MUL ADD MLOAD DUP3 PUSH1 0x1 DUP4 PUSH2 0x32BD SWAP2 SWAP1 PUSH2 0x73BD JUMP JUMPDEST PUSH1 0x9 DUP2 LT PUSH2 0x32CE JUMPI PUSH2 0x32CD PUSH2 0x73F1 JUMP JUMPDEST JUMPDEST PUSH1 0x20 MUL ADD DUP2 DUP2 MSTORE POP POP DUP1 DUP1 PUSH1 0x1 ADD SWAP2 POP POP PUSH2 0x3272 JUMP JUMPDEST POP PUSH2 0x3314 DUP2 PUSH1 0x40 MLOAD PUSH1 0x20 ADD PUSH2 0x32F9 SWAP2 SWAP1 PUSH2 0x789A JUMP JUMPDEST PUSH1 0x40 MLOAD PUSH1 0x20 DUP2 DUP4 SUB SUB DUP2 MSTORE SWAP1 PUSH1 0x40 MSTORE DUP1 MLOAD SWAP1 PUSH1 0x20 ADD KECCAK256 PUSH2 0x26EB JUMP JUMPDEST SWAP5 POP PUSH1 0x0 PUSH2 0x3321 DUP7 PUSH2 0x43A9 JUMP JUMPDEST DUP7 DUP6 PUSH1 0x1C DUP2 LT PUSH2 0x3334 JUMPI PUSH2 0x3333 PUSH2 0x73F1 JUMP JUMPDEST JUMPDEST PUSH1 0x20 MUL ADD DUP2 SWAP4 POP DUP3 DUP2 MSTORE POP POP POP POP POP DUP1 DUP1 PUSH1 0x1 ADD SWAP2 POP POP PUSH2 0x3240 JUMP JUMPDEST POP DUP3 SWAP1 POP SWAP3 POP SWAP3 SWAP1 POP JUMP JUMPDEST PUSH1 0x0 DUP1 PUSH2 0x3366 PUSH2 0x6D89 JUMP JUMPDEST DUP4 DUP2 PUSH1 0x0 PUSH1 0x2D DUP2 LT PUSH2 0x337B JUMPI PUSH2 0x337A PUSH2 0x73F1 JUMP JUMPDEST JUMPDEST PUSH1 0x20 MUL ADD DUP2 DUP2 MSTORE POP POP PUSH1 0x0 JUMPDEST PUSH1 0x2C DUP2 LT ISZERO PUSH2 0x33E2 JUMPI DUP6 PUSH2 0x180 ADD MLOAD DUP2 PUSH1 0x2C DUP2 LT PUSH2 0x33A8 JUMPI PUSH2 0x33A7 PUSH2 0x73F1 JUMP JUMPDEST JUMPDEST PUSH1 0x20 MUL ADD MLOAD DUP3 PUSH1 0x1 DUP4 PUSH2 0x33BB SWAP2 SWAP1 PUSH2 0x73BD JUMP JUMPDEST PUSH1 0x2D DUP2 LT PUSH2 0x33CC JUMPI PUSH2 0x33CB PUSH2 0x73F1 JUMP JUMPDEST JUMPDEST PUSH1 0x20 MUL ADD DUP2 DUP2 MSTORE POP POP DUP1 DUP1 PUSH1 0x1 ADD SWAP2 POP POP PUSH2 0x3387 JUMP JUMPDEST POP PUSH2 0x3412 DUP2 PUSH1 0x40 MLOAD PUSH1 0x20 ADD PUSH2 0x33F7 SWAP2 SWAP1 PUSH2 0x793A JUMP JUMPDEST PUSH1 0x40 MLOAD PUSH1 0x20 DUP2 DUP4 SUB SUB DUP2 MSTORE SWAP1 PUSH1 0x40 MSTORE DUP1 MLOAD SWAP1 PUSH1 0x20 ADD KECCAK256 PUSH2 0x26EB JUMP JUMPDEST SWAP2 POP PUSH1 0x0 PUSH2 0x341F DUP4 PUSH2 0x43A9 JUMP JUMPDEST DUP1 SWAP3 POP DUP2 SWAP6 POP POP POP POP POP SWAP3 POP SWAP3 SWAP1 POP JUMP JUMPDEST PUSH1 0x0 DUP1 PUSH2 0x343B PUSH2 0x6DAC JUMP JUMPDEST DUP4 DUP2 PUSH1 0x0 PUSH1 0x6D DUP2 LT PUSH2 0x3450 JUMPI PUSH2 0x344F PUSH2 0x73F1 JUMP JUMPDEST JUMPDEST PUSH1 0x20 MUL ADD DUP2 DUP2 MSTORE POP POP PUSH1 0x0 JUMPDEST PUSH1 0x1 PUSH1 0x1C PUSH2 0x346A SWAP2 SWAP1 PUSH2 0x7420 JUMP JUMPDEST DUP2 LT ISZERO PUSH2 0x35D2 JUMPI DUP6 PUSH2 0x1A0 ADD MLOAD DUP2 PUSH1 0x1B DUP2 LT PUSH2 0x3489 JUMPI PUSH2 0x3488 PUSH2 0x73F1 JUMP JUMPDEST JUMPDEST PUSH1 0x20 MUL ADD MLOAD PUSH1 0x0 ADD MLOAD DUP3 PUSH1 0x4 DUP4 PUSH2 0x34A0 SWAP2 SWAP1 PUSH2 0x737B JUMP JUMPDEST PUSH1 0x1 PUSH2 0x34AC SWAP2 SWAP1 PUSH2 0x73BD JUMP JUMPDEST PUSH1 0x6D DUP2 LT PUSH2 0x34BD JUMPI PUSH2 0x34BC PUSH2 0x73F1 JUMP JUMPDEST JUMPDEST PUSH1 0x20 MUL ADD DUP2 DUP2 MSTORE POP POP DUP6 PUSH2 0x1A0 ADD MLOAD DUP2 PUSH1 0x1B DUP2 LT PUSH2 0x34DE JUMPI PUSH2 0x34DD PUSH2 0x73F1 JUMP JUMPDEST JUMPDEST PUSH1 0x20 MUL ADD MLOAD PUSH1 0x20 ADD MLOAD DUP3 PUSH1 0x4 DUP4 PUSH2 0x34F5 SWAP2 SWAP1 PUSH2 0x737B JUMP JUMPDEST PUSH1 0x2 PUSH2 0x3501 SWAP2 SWAP1 PUSH2 0x73BD JUMP JUMPDEST PUSH1 0x6D DUP2 LT PUSH2 0x3512 JUMPI PUSH2 0x3511 PUSH2 0x73F1 JUMP JUMPDEST JUMPDEST PUSH1 0x20 MUL ADD DUP2 DUP2 MSTORE POP POP DUP6 PUSH2 0x1A0 ADD MLOAD DUP2 PUSH1 0x1B DUP2 LT PUSH2 0x3533 JUMPI PUSH2 0x3532 PUSH2 0x73F1 JUMP JUMPDEST JUMPDEST PUSH1 0x20 MUL ADD MLOAD PUSH1 0x40 ADD MLOAD DUP3 PUSH1 0x4 DUP4 PUSH2 0x354A SWAP2 SWAP1 PUSH2 0x737B JUMP JUMPDEST PUSH1 0x3 PUSH2 0x3556 SWAP2 SWAP1 PUSH2 0x73BD JUMP JUMPDEST PUSH1 0x6D DUP2 LT PUSH2 0x3567 JUMPI PUSH2 0x3566 PUSH2 0x73F1 JUMP JUMPDEST JUMPDEST PUSH1 0x20 MUL ADD DUP2 DUP2 MSTORE POP POP DUP6 PUSH2 0x1A0 ADD MLOAD DUP2 PUSH1 0x1B DUP2 LT PUSH2 0x3588 JUMPI PUSH2 0x3587 PUSH2 0x73F1 JUMP JUMPDEST JUMPDEST PUSH1 0x20 MUL ADD MLOAD PUSH1 0x60 ADD MLOAD DUP3 PUSH1 0x4 DUP4 PUSH2 0x359F SWAP2 SWAP1 PUSH2 0x737B JUMP JUMPDEST PUSH1 0x4 PUSH2 0x35AB SWAP2 SWAP1 PUSH2 0x73BD JUMP JUMPDEST PUSH1 0x6D DUP2 LT PUSH2 0x35BC JUMPI PUSH2 0x35BB PUSH2 0x73F1 JUMP JUMPDEST JUMPDEST PUSH1 0x20 MUL ADD DUP2 DUP2 MSTORE POP POP DUP1 DUP1 PUSH1 0x1 ADD SWAP2 POP POP PUSH2 0x345C JUMP JUMPDEST POP PUSH2 0x3602 DUP2 PUSH1 0x40 MLOAD PUSH1 0x20 ADD PUSH2 0x35E7 SWAP2 SWAP1 PUSH2 0x79DA JUMP JUMPDEST PUSH1 0x40 MLOAD PUSH1 0x20 DUP2 DUP4 SUB SUB DUP2 MSTORE SWAP1 PUSH1 0x40 MSTORE DUP1 MLOAD SWAP1 PUSH1 0x20 ADD KECCAK256 PUSH2 0x26EB JUMP JUMPDEST SWAP2 POP PUSH1 0x0 PUSH2 0x360F DUP4 PUSH2 0x43A9 JUMP JUMPDEST DUP1 SWAP3 POP DUP2 SWAP6 POP POP POP POP POP SWAP3 POP SWAP3 SWAP1 POP JUMP JUMPDEST PUSH1 0x0 DUP1 PUSH2 0x362B PUSH2 0x6DCF JUMP JUMPDEST DUP4 DUP2 PUSH1 0x0 PUSH1 0x1D DUP2 LT PUSH2 0x3640 JUMPI PUSH2 0x363F PUSH2 0x73F1 JUMP JUMPDEST JUMPDEST PUSH1 0x20 MUL ADD DUP2 DUP2 MSTORE POP POP PUSH1 0x0 JUMPDEST PUSH1 0x1C DUP2 LT ISZERO PUSH2 0x36A7 JUMPI DUP6 PUSH2 0x1C0 ADD MLOAD DUP2 PUSH1 0x1C DUP2 LT PUSH2 0x366D JUMPI PUSH2 0x366C PUSH2 0x73F1 JUMP JUMPDEST JUMPDEST PUSH1 0x20 MUL ADD MLOAD DUP3 PUSH1 0x1 DUP4 PUSH2 0x3680 SWAP2 SWAP1 PUSH2 0x73BD JUMP JUMPDEST PUSH1 0x1D DUP2 LT PUSH2 0x3691 JUMPI PUSH2 0x3690 PUSH2 0x73F1 JUMP JUMPDEST JUMPDEST PUSH1 0x20 MUL ADD DUP2 DUP2 MSTORE POP POP DUP1 DUP1 PUSH1 0x1 ADD SWAP2 POP POP PUSH2 0x364C JUMP JUMPDEST POP PUSH2 0x36D7 DUP2 PUSH1 0x40 MLOAD PUSH1 0x20 ADD PUSH2 0x36BC SWAP2 SWAP1 PUSH2 0x7A7A JUMP JUMPDEST PUSH1 0x40 MLOAD PUSH1 0x20 DUP2 DUP4 SUB SUB DUP2 MSTORE SWAP1 PUSH1 0x40 MSTORE DUP1 MLOAD SWAP1 PUSH1 0x20 ADD KECCAK256 PUSH2 0x26EB JUMP JUMPDEST SWAP2 POP PUSH1 0x0 PUSH2 0x36E4 DUP4 PUSH2 0x43A9 JUMP JUMPDEST DUP1 SWAP3 POP DUP2 SWAP6 POP POP POP POP POP SWAP3 POP SWAP3 SWAP1 POP JUMP JUMPDEST PUSH1 0x0 DUP1 PUSH2 0x3700 PUSH2 0x6DF2 JUMP JUMPDEST DUP4 DUP2 PUSH1 0x0 PUSH1 0x5 DUP2 LT PUSH2 0x3715 JUMPI PUSH2 0x3714 PUSH2 0x73F1 JUMP JUMPDEST JUMPDEST PUSH1 0x20 MUL ADD DUP2 DUP2 MSTORE POP POP DUP5 PUSH2 0x1E0 ADD MLOAD PUSH1 0x0 ADD MLOAD DUP2 PUSH1 0x1 PUSH1 0x5 DUP2 LT PUSH2 0x373C JUMPI PUSH2 0x373B PUSH2 0x73F1 JUMP JUMPDEST JUMPDEST PUSH1 0x20 MUL ADD DUP2 DUP2 MSTORE POP POP DUP5 PUSH2 0x1E0 ADD MLOAD PUSH1 0x20 ADD MLOAD DUP2 PUSH1 0x2 PUSH1 0x5 DUP2 LT PUSH2 0x3763 JUMPI PUSH2 0x3762 PUSH2 0x73F1 JUMP JUMPDEST JUMPDEST PUSH1 0x20 MUL ADD DUP2 DUP2 MSTORE POP POP DUP5 PUSH2 0x1E0 ADD MLOAD PUSH1 0x40 ADD MLOAD DUP2 PUSH1 0x3 PUSH1 0x5 DUP2 LT PUSH2 0x378A JUMPI PUSH2 0x3789 PUSH2 0x73F1 JUMP JUMPDEST JUMPDEST PUSH1 0x20 MUL ADD DUP2 DUP2 MSTORE POP POP DUP5 PUSH2 0x1E0 ADD MLOAD PUSH1 0x60 ADD MLOAD DUP2 PUSH1 0x4 PUSH1 0x5 DUP2 LT PUSH2 0x37B1 JUMPI PUSH2 0x37B0 PUSH2 0x73F1 JUMP JUMPDEST JUMPDEST PUSH1 0x20 MUL ADD DUP2 DUP2 MSTORE POP POP PUSH2 0x37E9 DUP2 PUSH1 0x40 MLOAD PUSH1 0x20 ADD PUSH2 0x37CE SWAP2 SWAP1 PUSH2 0x7B1A JUMP JUMPDEST PUSH1 0x40 MLOAD PUSH1 0x20 DUP2 DUP4 SUB SUB DUP2 MSTORE SWAP1 PUSH1 0x40 MSTORE DUP1 MLOAD SWAP1 PUSH1 0x20 ADD KECCAK256 PUSH2 0x26EB JUMP JUMPDEST SWAP2 POP PUSH1 0x0 PUSH2 0x37F6 DUP4 PUSH2 0x43A9 JUMP JUMPDEST DUP1 SWAP3 POP DUP2 SWAP6 POP POP POP POP POP SWAP3 POP SWAP3 SWAP1 POP JUMP JUMPDEST PUSH1 0x0 PUSH32 0x30644E72E131A029B85045B68181585D2833E84879B9709143E1F593F0000001 DUP3 PUSH2 0x3835 SWAP2 SWAP1 PUSH2 0x74CB JUMP JUMPDEST SWAP1 POP SWAP2 SWAP1 POP JUMP JUMPDEST PUSH1 0x0 PUSH32 0x30644E72E131A029B85045B68181585D2833E84879B9709143E1F593F0000001 DUP1 PUSH2 0x386D JUMPI PUSH2 0x386C PUSH2 0x749C JUMP JUMPDEST JUMPDEST DUP3 DUP5 MULMOD SWAP1 POP SWAP3 SWAP2 POP POP JUMP JUMPDEST PUSH1 0x0 PUSH32 0x30644E72E131A029B85045B68181585D2833E84879B9709143E1F593F0000001 DUP1 PUSH2 0x38A9 JUMPI PUSH2 0x38A8 PUSH2 0x749C JUMP JUMPDEST JUMPDEST DUP3 DUP5 ADDMOD SWAP1 POP SWAP3 SWAP2 POP POP JUMP JUMPDEST PUSH1 0x0 PUSH32 0x30644E72E131A029B85045B68181585D2833E84879B9709143E1F593F0000001 DUP1 PUSH2 0x38E5 JUMPI PUSH2 0x38E4 PUSH2 0x749C JUMP JUMPDEST JUMPDEST DUP3 PUSH32 0x30644E72E131A029B85045B68181585D2833E84879B9709143E1F593F0000001 PUSH2 0x3911 SWAP2 SWAP1 PUSH2 0x7420 JUMP JUMPDEST DUP5 ADDMOD SWAP1 POP SWAP3 SWAP2 POP POP JUMP JUMPDEST PUSH1 0x0 PUSH2 0x392F DUP4 PUSH2 0x392A DUP5 PUSH2 0x3E2C JUMP JUMPDEST PUSH2 0x383C JUMP JUMPDEST SWAP1 POP SWAP3 SWAP2 POP POP JUMP JUMPDEST PUSH1 0x0 DUP1 PUSH2 0x3974 DUP5 PUSH1 0x0 PUSH1 0x8 DUP2 LT PUSH2 0x3951 JUMPI PUSH2 0x3950 PUSH2 0x73F1 JUMP JUMPDEST JUMPDEST PUSH1 0x20 MUL ADD MLOAD DUP6 PUSH1 0x1 PUSH1 0x8 DUP2 LT PUSH2 0x396A JUMPI PUSH2 0x3969 PUSH2 0x73F1 JUMP JUMPDEST JUMPDEST PUSH1 0x20 MUL ADD MLOAD PUSH2 0x3878 JUMP JUMPDEST SWAP1 POP PUSH2 0x3980 DUP2 DUP5 PUSH2 0x3CAC JUMP JUMPDEST SWAP2 POP POP SWAP3 SWAP2 POP POP JUMP JUMPDEST PUSH1 0x0 DUP1 PUSH1 0x40 MLOAD DUP1 PUSH2 0x100 ADD PUSH1 0x40 MSTORE DUP1 PUSH32 0x30644E72E131A029B85045B68181585D2833E84879B9709143E1F593EFFFEC51 DUP2 MSTORE PUSH1 0x20 ADD PUSH2 0x2D0 DUP2 MSTORE PUSH1 0x20 ADD PUSH32 0x30644E72E131A029B85045B68181585D2833E84879B9709143E1F593EFFFFF11 DUP2 MSTORE PUSH1 0x20 ADD PUSH1 0x90 DUP2 MSTORE PUSH1 0x20 ADD PUSH32 0x30644E72E131A029B85045B68181585D2833E84879B9709143E1F593EFFFFF71 DUP2 MSTORE PUSH1 0x20 ADD PUSH1 0xF0 DUP2 MSTORE PUSH1 0x20 ADD PUSH32 0x30644E72E131A029B85045B68181585D2833E84879B9709143E1F593EFFFFD31 DUP2 MSTORE PUSH1 0x20 ADD PUSH2 0x13B0 DUP2 MSTORE POP SWAP1 POP PUSH1 0x0 PUSH1 0x40 MLOAD DUP1 PUSH2 0x100 ADD PUSH1 0x40 MSTORE DUP1 PUSH1 0x0 DUP2 MSTORE PUSH1 0x20 ADD PUSH1 0x1 DUP2 MSTORE PUSH1 0x20 ADD PUSH1 0x2 DUP2 MSTORE PUSH1 0x20 ADD PUSH1 0x3 DUP2 MSTORE PUSH1 0x20 ADD PUSH1 0x4 DUP2 MSTORE PUSH1 0x20 ADD PUSH1 0x5 DUP2 MSTORE PUSH1 0x20 ADD PUSH1 0x6 DUP2 MSTORE PUSH1 0x20 ADD PUSH1 0x7 DUP2 MSTORE POP SWAP1 POP PUSH1 0x0 PUSH1 0x1 SWAP1 POP PUSH1 0x0 JUMPDEST PUSH1 0x8 DUP2 LT ISZERO PUSH2 0x3AC6 JUMPI PUSH2 0x3AB9 DUP3 PUSH2 0x3AB4 DUP9 DUP5 PUSH2 0x38B4 JUMP JUMPDEST PUSH2 0x383C JUMP JUMPDEST SWAP2 POP DUP1 PUSH1 0x1 ADD SWAP1 POP PUSH2 0x3A9D JUMP JUMPDEST POP PUSH2 0x3ACF PUSH2 0x6E14 JUMP JUMPDEST PUSH1 0x0 JUMPDEST PUSH1 0x8 DUP2 LT ISZERO PUSH2 0x3B57 JUMPI PUSH1 0x0 DUP6 DUP3 PUSH1 0x8 DUP2 LT PUSH2 0x3AF0 JUMPI PUSH2 0x3AEF PUSH2 0x73F1 JUMP JUMPDEST JUMPDEST PUSH1 0x20 MUL ADD MLOAD SWAP1 POP PUSH2 0x3B21 DUP2 PUSH2 0x3B1C DUP11 DUP9 DUP7 PUSH1 0x8 DUP2 LT PUSH2 0x3B12 JUMPI PUSH2 0x3B11 PUSH2 0x73F1 JUMP JUMPDEST JUMPDEST PUSH1 0x20 MUL ADD MLOAD PUSH2 0x38B4 JUMP JUMPDEST PUSH2 0x383C JUMP JUMPDEST SWAP1 POP PUSH2 0x3B2C DUP2 PUSH2 0x3E2C JUMP JUMPDEST SWAP1 POP DUP1 DUP4 DUP4 PUSH1 0x8 DUP2 LT PUSH2 0x3B42 JUMPI PUSH2 0x3B41 PUSH2 0x73F1 JUMP JUMPDEST JUMPDEST PUSH1 0x20 MUL ADD DUP2 DUP2 MSTORE POP POP POP DUP1 PUSH1 0x1 ADD SWAP1 POP PUSH2 0x3AD2 JUMP JUMPDEST POP PUSH1 0x0 JUMPDEST PUSH1 0x8 DUP2 LT ISZERO PUSH2 0x3BBB JUMPI PUSH1 0x0 DUP9 DUP3 PUSH1 0x8 DUP2 LT PUSH2 0x3B79 JUMPI PUSH2 0x3B78 PUSH2 0x73F1 JUMP JUMPDEST JUMPDEST PUSH1 0x20 MUL ADD MLOAD SWAP1 POP PUSH2 0x3BA1 DUP2 DUP5 DUP5 PUSH1 0x8 DUP2 LT PUSH2 0x3B97 JUMPI PUSH2 0x3B96 PUSH2 0x73F1 JUMP JUMPDEST JUMPDEST PUSH1 0x20 MUL ADD MLOAD PUSH2 0x383C JUMP JUMPDEST SWAP1 POP PUSH2 0x3BAD DUP8 DUP3 PUSH2 0x3878 JUMP JUMPDEST SWAP7 POP POP DUP1 PUSH1 0x1 ADD SWAP1 POP PUSH2 0x3B5B JUMP JUMPDEST POP PUSH2 0x3BC6 DUP6 DUP4 PUSH2 0x383C JUMP JUMPDEST SWAP5 POP POP POP POP POP SWAP3 SWAP2 POP POP JUMP JUMPDEST PUSH1 0x0 DUP1 PUSH2 0x3C0E PUSH1 0x1 PUSH2 0x3C09 DUP7 PUSH2 0x3C04 DUP11 PUSH1 0xC0 ADD MLOAD DUP9 PUSH1 0x1C DUP2 LT PUSH2 0x3BF8 JUMPI PUSH2 0x3BF7 PUSH2 0x73F1 JUMP JUMPDEST JUMPDEST PUSH1 0x20 MUL ADD MLOAD PUSH1 0x1 PUSH2 0x38B4 JUMP JUMPDEST PUSH2 0x383C JUMP JUMPDEST PUSH2 0x3878 JUMP JUMPDEST SWAP1 POP PUSH2 0x3C1A DUP6 DUP3 PUSH2 0x383C JUMP JUMPDEST SWAP2 POP POP SWAP5 SWAP4 POP POP POP POP JUMP JUMPDEST PUSH1 0x0 DUP1 DUP5 PUSH2 0x180 ADD MLOAD SWAP1 POP PUSH2 0x3C38 PUSH2 0x6E37 JUMP JUMPDEST PUSH2 0x3C43 DUP3 DUP3 DUP7 PUSH2 0x4402 JUMP JUMPDEST PUSH2 0x3C4F DUP3 DUP7 DUP4 DUP8 PUSH2 0x4647 JUMP JUMPDEST PUSH2 0x3C5B DUP3 DUP7 DUP4 DUP8 PUSH2 0x4944 JUMP JUMPDEST PUSH2 0x3C66 DUP3 DUP3 DUP7 PUSH2 0x4BEA JUMP JUMPDEST PUSH2 0x3C71 DUP3 DUP3 DUP7 PUSH2 0x4EC2 JUMP JUMPDEST PUSH2 0x3C7D DUP3 DUP7 DUP4 DUP8 PUSH2 0x530F JUMP JUMPDEST PUSH2 0x3C88 DUP3 DUP3 DUP7 PUSH2 0x5FA9 JUMP JUMPDEST PUSH2 0x3C93 DUP3 DUP3 DUP7 PUSH2 0x6469 JUMP JUMPDEST PUSH2 0x3CA1 DUP2 DUP7 PUSH1 0xA0 ADD MLOAD PUSH2 0x68BC JUMP JUMPDEST SWAP3 POP POP POP SWAP4 SWAP3 POP POP POP JUMP JUMPDEST PUSH1 0x0 DUP2 DUP4 EQ SWAP1 POP SWAP3 SWAP2 POP POP JUMP JUMPDEST PUSH2 0x3CC1 PUSH2 0x6D43 JUMP JUMPDEST DUP2 DUP2 PUSH1 0x0 PUSH1 0x1C DUP2 LT PUSH2 0x3CD6 JUMPI PUSH2 0x3CD5 PUSH2 0x73F1 JUMP JUMPDEST JUMPDEST PUSH1 0x20 MUL ADD DUP2 DUP2 MSTORE POP POP PUSH1 0x0 PUSH1 0x1 SWAP1 POP JUMPDEST PUSH1 0x1C DUP2 LT ISZERO PUSH2 0x3D42 JUMPI PUSH2 0x3D1B DUP3 PUSH1 0x1 DUP4 PUSH2 0x3D00 SWAP2 SWAP1 PUSH2 0x7420 JUMP JUMPDEST PUSH1 0x1C DUP2 LT PUSH2 0x3D11 JUMPI PUSH2 0x3D10 PUSH2 0x73F1 JUMP JUMPDEST JUMPDEST PUSH1 0x20 MUL ADD MLOAD PUSH2 0x3F38 JUMP JUMPDEST DUP3 DUP3 PUSH1 0x1C DUP2 LT PUSH2 0x3D2E JUMPI PUSH2 0x3D2D PUSH2 0x73F1 JUMP JUMPDEST JUMPDEST PUSH1 0x20 MUL ADD DUP2 DUP2 MSTORE POP POP DUP1 PUSH1 0x1 ADD SWAP1 POP PUSH2 0x3CE6 JUMP JUMPDEST POP SWAP2 SWAP1 POP JUMP JUMPDEST PUSH2 0x3D50 PUSH2 0x6E5A JUMP JUMPDEST PUSH1 0x0 DUP4 PUSH2 0x160 ADD MLOAD SWAP1 POP PUSH2 0x3D84 PUSH2 0x3D7F DUP3 DUP6 PUSH1 0x0 PUSH1 0x1C DUP2 LT PUSH2 0x3D75 JUMPI PUSH2 0x3D74 PUSH2 0x73F1 JUMP JUMPDEST JUMPDEST PUSH1 0x20 MUL ADD MLOAD PUSH2 0x38B4 JUMP JUMPDEST PUSH2 0x3E2C JUMP JUMPDEST DUP3 PUSH1 0x0 PUSH1 0x1D DUP2 LT PUSH2 0x3D98 JUMPI PUSH2 0x3D97 PUSH2 0x73F1 JUMP JUMPDEST JUMPDEST PUSH1 0x20 MUL ADD DUP2 DUP2 MSTORE POP POP PUSH1 0x0 JUMPDEST PUSH1 0x1C DUP2 LT ISZERO PUSH2 0x3E24 JUMPI PUSH1 0x0 PUSH1 0x1 PUSH1 0x12 PUSH2 0x3DBD SWAP2 SWAP1 PUSH2 0x73BD JUMP JUMPDEST DUP3 GT PUSH2 0x3DEF JUMPI PUSH2 0x3DEC PUSH2 0x3DE7 DUP5 DUP8 DUP6 PUSH1 0x1C DUP2 LT PUSH2 0x3DDD JUMPI PUSH2 0x3DDC PUSH2 0x73F1 JUMP JUMPDEST JUMPDEST PUSH1 0x20 MUL ADD MLOAD PUSH2 0x3878 JUMP JUMPDEST PUSH2 0x3E2C JUMP JUMPDEST SWAP1 POP JUMPDEST DUP1 DUP5 PUSH1 0x1 DUP5 PUSH2 0x3DFE SWAP2 SWAP1 PUSH2 0x73BD JUMP JUMPDEST PUSH1 0x1D DUP2 LT PUSH2 0x3E0F JUMPI PUSH2 0x3E0E PUSH2 0x73F1 JUMP JUMPDEST JUMPDEST PUSH1 0x20 MUL ADD DUP2 DUP2 MSTORE POP POP POP DUP1 PUSH1 0x1 ADD SWAP1 POP PUSH2 0x3DA4 JUMP JUMPDEST POP POP SWAP3 SWAP2 POP POP JUMP JUMPDEST PUSH1 0x0 DUP1 DUP3 SWAP1 POP PUSH1 0x0 PUSH1 0x40 MLOAD PUSH1 0x20 DUP2 MSTORE PUSH1 0x20 DUP1 DUP3 ADD MSTORE PUSH1 0x20 PUSH1 0x40 DUP3 ADD MSTORE DUP3 PUSH1 0x60 DUP3 ADD MSTORE PUSH1 0x2 PUSH32 0x30644E72E131A029B85045B68181585D2833E84879B9709143E1F593F0000001 SUB PUSH1 0x80 DUP3 ADD MSTORE PUSH32 0x30644E72E131A029B85045B68181585D2833E84879B9709143E1F593F0000001 PUSH1 0xA0 DUP3 ADD MSTORE PUSH1 0x20 PUSH1 0x0 PUSH1 0xC0 DUP4 PUSH1 0x5 GAS STATICCALL DUP1 PUSH2 0x3EB2 JUMPI PUSH1 0x0 DUP1 REVERT JUMPDEST PUSH1 0x0 MLOAD SWAP3 POP POP POP DUP1 SWAP3 POP POP POP SWAP2 SWAP1 POP JUMP JUMPDEST PUSH2 0x3ECB PUSH2 0x6E7D JUMP JUMPDEST PUSH1 0x40 MLOAD DUP1 PUSH1 0x40 ADD PUSH1 0x40 MSTORE DUP1 PUSH1 0x88 DUP5 PUSH1 0x20 ADD MLOAD SWAP1 SHL DUP5 PUSH1 0x0 ADD MLOAD OR DUP2 MSTORE PUSH1 0x20 ADD PUSH1 0x88 DUP5 PUSH1 0x60 ADD MLOAD SWAP1 SHL DUP5 PUSH1 0x40 ADD MLOAD OR DUP2 MSTORE POP SWAP1 POP SWAP2 SWAP1 POP JUMP JUMPDEST PUSH1 0x0 DUP2 PUSH32 0x30644E72E131A029B85045B68181585D2833E84879B9709143E1F593F0000001 PUSH2 0x3F31 SWAP2 SWAP1 PUSH2 0x7420 JUMP JUMPDEST SWAP1 POP SWAP2 SWAP1 POP JUMP JUMPDEST PUSH1 0x0 PUSH2 0x3F44 DUP3 DUP4 PUSH2 0x383C JUMP JUMPDEST SWAP1 POP SWAP2 SWAP1 POP JUMP JUMPDEST PUSH1 0x0 DUP1 PUSH1 0x1C SWAP1 POP JUMPDEST PUSH1 0x0 DUP2 GT ISZERO PUSH2 0x4075 JUMPI PUSH1 0x0 DUP4 PUSH1 0x1 DUP4 PUSH2 0x3F6C SWAP2 SWAP1 PUSH2 0x7420 JUMP JUMPDEST PUSH1 0x1C DUP2 LT PUSH2 0x3F7D JUMPI PUSH2 0x3F7C PUSH2 0x73F1 JUMP JUMPDEST JUMPDEST PUSH1 0x20 MUL ADD MLOAD SWAP1 POP PUSH1 0x0 DUP8 PUSH1 0xE0 ADD MLOAD PUSH1 0x1 DUP5 PUSH2 0x3F98 SWAP2 SWAP1 PUSH2 0x7420 JUMP JUMPDEST PUSH1 0x1C DUP2 LT PUSH2 0x3FA9 JUMPI PUSH2 0x3FA8 PUSH2 0x73F1 JUMP JUMPDEST JUMPDEST PUSH1 0x20 MUL ADD MLOAD SWAP1 POP PUSH1 0x0 DUP7 PUSH1 0x1 DUP6 PUSH2 0x3FC0 SWAP2 SWAP1 PUSH2 0x7420 JUMP JUMPDEST PUSH1 0x1C DUP2 LT PUSH2 0x3FD1 JUMPI PUSH2 0x3FD0 PUSH2 0x73F1 JUMP JUMPDEST JUMPDEST PUSH1 0x20 MUL ADD MLOAD SWAP1 POP PUSH1 0x0 PUSH2 0x401C PUSH2 0x3FF1 PUSH2 0x3FEA DUP7 DUP13 PUSH2 0x383C JUMP JUMPDEST PUSH1 0x2 PUSH2 0x383C JUMP JUMPDEST PUSH2 0x4017 DUP5 PUSH2 0x4012 PUSH2 0x400C DUP10 PUSH2 0x4007 PUSH1 0x1 DUP12 PUSH2 0x38B4 JUMP JUMPDEST PUSH2 0x383C JUMP JUMPDEST DUP9 PUSH2 0x38B4 JUMP JUMPDEST PUSH2 0x383C JUMP JUMPDEST PUSH2 0x38B4 JUMP JUMPDEST SWAP1 POP PUSH2 0x404C DUP2 PUSH2 0x4047 PUSH2 0x4042 PUSH2 0x403C DUP9 PUSH2 0x4037 PUSH1 0x1 DUP11 PUSH2 0x38B4 JUMP JUMPDEST PUSH2 0x383C JUMP JUMPDEST DUP8 PUSH2 0x3878 JUMP JUMPDEST PUSH2 0x3E2C JUMP JUMPDEST PUSH2 0x383C JUMP JUMPDEST SWAP1 POP PUSH1 0x0 PUSH1 0x12 DUP7 GT SWAP1 POP DUP1 PUSH2 0x405F JUMPI DUP2 SWAP10 POP JUMPDEST POP POP POP POP POP DUP1 PUSH2 0x406E SWAP1 PUSH2 0x7B35 JUMP JUMPDEST SWAP1 POP PUSH2 0x3F53 JUMP JUMPDEST POP DUP4 SWAP1 POP SWAP5 SWAP4 POP POP POP POP JUMP JUMPDEST PUSH2 0x4089 PUSH2 0x6E7D JUMP JUMPDEST PUSH1 0x0 PUSH1 0x2 PUSH1 0x1C PUSH1 0x2C PUSH2 0x409B SWAP2 SWAP1 PUSH2 0x73BD JUMP JUMPDEST PUSH2 0x40A5 SWAP2 SWAP1 PUSH2 0x73BD JUMP JUMPDEST SWAP1 POP PUSH1 0x1 PUSH1 0x40 MLOAD DUP6 MLOAD MLOAD PUSH1 0x40 DUP3 ADD MSTORE DUP6 MLOAD PUSH1 0x20 ADD MLOAD PUSH1 0x60 DUP3 ADD MSTORE DUP5 MLOAD PUSH1 0x80 DUP3 ADD MSTORE PUSH1 0x40 DUP2 PUSH1 0x60 PUSH1 0x40 DUP5 ADD PUSH1 0x7 GAS STATICCALL DUP3 AND SWAP2 POP PUSH1 0x1 JUMPDEST DUP4 DUP2 LT ISZERO PUSH2 0x4136 JUMPI PUSH1 0x20 DUP2 MUL DUP8 ADD PUSH1 0x20 DUP3 MUL DUP8 ADD DUP2 MLOAD MLOAD PUSH1 0x40 DUP6 ADD MSTORE DUP2 MLOAD PUSH1 0x20 ADD MLOAD PUSH1 0x60 DUP6 ADD MSTORE DUP1 MLOAD PUSH1 0x80 DUP6 ADD MSTORE PUSH1 0x40 DUP1 DUP6 ADD PUSH1 0x60 PUSH1 0x40 DUP8 ADD PUSH1 0x7 GAS STATICCALL DUP6 AND SWAP5 POP PUSH1 0x40 DUP5 PUSH1 0x80 DUP7 PUSH1 0x6 GAS STATICCALL DUP6 AND SWAP5 POP POP POP PUSH1 0x1 DUP2 ADD SWAP1 POP PUSH2 0x40DA JUMP JUMPDEST DUP2 MLOAD DUP6 MSTORE PUSH1 0x20 DUP3 ADD MLOAD PUSH1 0x20 DUP7 ADD MSTORE POP POP POP POP SWAP3 SWAP2 POP POP JUMP JUMPDEST PUSH2 0x4156 PUSH2 0x6E7D JUMP JUMPDEST PUSH32 0x30644E72E131A029B85045B68181585D97816A916871CA8D3C208C16D87CFD47 DUP3 PUSH1 0x20 ADD MLOAD PUSH32 0x30644E72E131A029B85045B68181585D97816A916871CA8D3C208C16D87CFD47 PUSH2 0x41A7 SWAP2 SWAP1 PUSH2 0x7420 JUMP JUMPDEST PUSH2 0x41B1 SWAP2 SWAP1 PUSH2 0x74CB JUMP JUMPDEST DUP3 PUSH1 0x20 ADD DUP2 DUP2 MSTORE POP POP DUP2 SWAP1 POP SWAP2 SWAP1 POP JUMP JUMPDEST PUSH1 0x0 DUP1 DUP4 PUSH1 0x0 ADD MLOAD DUP5 PUSH1 0x20 ADD MLOAD PUSH32 0x198E9393920D483A7260BFB731FB5D25F1AA493335A9E71297E485B7AEF312C2 PUSH32 0x1800DEEF121F1E76426A00665E5C4479674322D4F75EDADD46DEBD5CD992F6ED PUSH32 0x90689D0585FF075EC9E99AD690C3395BC4B313370B38EF355ACDADCD122975B PUSH32 0x12C85EA5DB8C6DEB4AAB71808DCB408FE3D1E7690C43D37B4CE6CC0166FA7DAA DUP9 PUSH1 0x0 ADD MLOAD DUP10 PUSH1 0x20 ADD MLOAD PUSH32 0x260E01B251F6F1C7E7FF4E580791DEE8EA51D87A358E038B4EFE30FAC09383C1 PUSH32 0x118C4D5B837BCC2BC89B5B398B5974E9F5944073B32078B7E231FEC938883B0 PUSH32 0x4FC6369F7110FE3D25156C1BB9A72859CF2A04641F99BA4EE413C80DA6A5FE4 PUSH32 0x22FEBDA3C0C0632A56475B4214E5615E11E6DD3F96E6CEA2854A87D4DACC5E55 PUSH1 0x40 MLOAD PUSH1 0x20 ADD PUSH2 0x42FC SWAP13 SWAP12 SWAP11 SWAP10 SWAP9 SWAP8 SWAP7 SWAP6 SWAP5 SWAP4 SWAP3 SWAP2 SWAP1 PUSH2 0x7B5E JUMP JUMPDEST PUSH1 0x40 MLOAD PUSH1 0x20 DUP2 DUP4 SUB SUB DUP2 MSTORE SWAP1 PUSH1 0x40 MSTORE SWAP1 POP PUSH1 0x0 DUP1 PUSH1 0x8 PUSH20 0xFFFFFFFFFFFFFFFFFFFFFFFFFFFFFFFFFFFFFFFF AND DUP4 PUSH1 0x40 MLOAD PUSH2 0x4336 SWAP2 SWAP1 PUSH2 0x7CA5 JUMP JUMPDEST PUSH1 0x0 PUSH1 0x40 MLOAD DUP1 DUP4 SUB DUP2 DUP6 GAS STATICCALL SWAP2 POP POP RETURNDATASIZE DUP1 PUSH1 0x0 DUP2 EQ PUSH2 0x4371 JUMPI PUSH1 0x40 MLOAD SWAP2 POP PUSH1 0x1F NOT PUSH1 0x3F RETURNDATASIZE ADD AND DUP3 ADD PUSH1 0x40 MSTORE RETURNDATASIZE DUP3 MSTORE RETURNDATASIZE PUSH1 0x0 PUSH1 0x20 DUP5 ADD RETURNDATACOPY PUSH2 0x4376 JUMP JUMPDEST PUSH1 0x60 SWAP2 POP JUMPDEST POP SWAP2 POP SWAP2 POP PUSH1 0x0 DUP2 DUP1 PUSH1 0x20 ADD SWAP1 MLOAD DUP2 ADD SWAP1 PUSH2 0x4391 SWAP2 SWAP1 PUSH2 0x7CE8 JUMP JUMPDEST SWAP1 POP DUP3 DUP1 ISZERO PUSH2 0x439D JUMPI POP DUP1 JUMPDEST SWAP5 POP POP POP POP POP SWAP3 SWAP2 POP POP JUMP JUMPDEST PUSH1 0x0 DUP1 PUSH1 0x0 DUP4 SWAP1 POP PUSH1 0x0 PUSH16 0xFFFFFFFFFFFFFFFFFFFFFFFFFFFFFFFF DUP3 AND SWAP1 POP PUSH1 0x0 PUSH1 0x80 DUP4 SWAP1 SHR SWAP1 POP PUSH2 0x43DD DUP3 PUSH1 0x0 SHL PUSH2 0x26EB JUMP JUMPDEST SWAP5 POP PUSH2 0x43EB DUP2 PUSH1 0x0 SHL PUSH2 0x26EB JUMP JUMPDEST SWAP4 POP POP POP POP SWAP2 POP SWAP2 JUMP JUMPDEST PUSH1 0x0 DUP2 PUSH1 0x0 SHL SWAP1 POP SWAP2 SWAP1 POP JUMP JUMPDEST PUSH1 0x0 PUSH2 0x440F DUP5 PUSH1 0x6 PUSH2 0x6953 JUMP JUMPDEST SWAP1 POP PUSH1 0x0 PUSH32 0x183227397098D014DC2822DB40C0AC2E9419F4243CDCB848A1F0FAC9F8000000 SWAP1 POP PUSH1 0x0 PUSH2 0x4485 PUSH2 0x447F PUSH2 0x4449 DUP6 PUSH1 0x3 PUSH2 0x38B4 JUMP JUMPDEST PUSH2 0x447A PUSH2 0x446A PUSH2 0x445A DUP12 PUSH1 0x0 PUSH2 0x6953 JUMP JUMPDEST PUSH2 0x4465 DUP13 PUSH1 0x1C PUSH2 0x6953 JUMP JUMPDEST PUSH2 0x383C JUMP JUMPDEST PUSH2 0x4475 DUP12 PUSH1 0x1B PUSH2 0x6953 JUMP JUMPDEST PUSH2 0x383C JUMP JUMPDEST PUSH2 0x383C JUMP JUMPDEST DUP4 PUSH2 0x383C JUMP JUMPDEST SWAP1 POP PUSH2 0x4533 PUSH2 0x4523 PUSH2 0x4500 PUSH2 0x44DD PUSH2 0x44BA DUP6 PUSH2 0x44B5 PUSH2 0x44A5 DUP14 PUSH1 0x2 PUSH2 0x6953 JUMP JUMPDEST PUSH2 0x44B0 DUP15 PUSH1 0x1B PUSH2 0x6953 JUMP JUMPDEST PUSH2 0x383C JUMP JUMPDEST PUSH2 0x3878 JUMP JUMPDEST PUSH2 0x44D8 PUSH2 0x44C8 DUP13 PUSH1 0x3 PUSH2 0x6953 JUMP JUMPDEST PUSH2 0x44D3 DUP14 PUSH1 0x1C PUSH2 0x6953 JUMP JUMPDEST PUSH2 0x383C JUMP JUMPDEST PUSH2 0x3878 JUMP JUMPDEST PUSH2 0x44FB PUSH2 0x44EB DUP12 PUSH1 0x4 PUSH2 0x6953 JUMP JUMPDEST PUSH2 0x44F6 DUP13 PUSH1 0x1D PUSH2 0x6953 JUMP JUMPDEST PUSH2 0x383C JUMP JUMPDEST PUSH2 0x3878 JUMP JUMPDEST PUSH2 0x451E PUSH2 0x450E DUP11 PUSH1 0x5 PUSH2 0x6953 JUMP JUMPDEST PUSH2 0x4519 DUP12 PUSH1 0x1E PUSH2 0x6953 JUMP JUMPDEST PUSH2 0x383C JUMP JUMPDEST PUSH2 0x3878 JUMP JUMPDEST PUSH2 0x452E DUP9 PUSH1 0x1 PUSH2 0x6953 JUMP JUMPDEST PUSH2 0x3878 JUMP JUMPDEST SWAP1 POP PUSH2 0x455C DUP2 PUSH2 0x4557 PUSH2 0x4547 DUP7 PUSH1 0x1 PUSH2 0x38B4 JUMP JUMPDEST PUSH2 0x4552 DUP11 PUSH1 0x2A PUSH2 0x6953 JUMP JUMPDEST PUSH2 0x383C JUMP JUMPDEST PUSH2 0x3878 JUMP JUMPDEST SWAP1 POP PUSH2 0x4568 DUP2 DUP5 PUSH2 0x383C JUMP JUMPDEST SWAP1 POP PUSH2 0x4574 DUP2 DUP6 PUSH2 0x383C JUMP JUMPDEST SWAP1 POP DUP1 DUP6 PUSH1 0x0 PUSH1 0x1A DUP2 LT PUSH2 0x458B JUMPI PUSH2 0x458A PUSH2 0x73F1 JUMP JUMPDEST JUMPDEST PUSH1 0x20 MUL ADD DUP2 DUP2 MSTORE POP POP POP POP PUSH1 0x0 PUSH2 0x45DC PUSH2 0x45CC PUSH2 0x45BC PUSH2 0x45AC DUP9 PUSH1 0x1B PUSH2 0x6953 JUMP JUMPDEST PUSH2 0x45B7 DUP10 PUSH1 0x1E PUSH2 0x6953 JUMP JUMPDEST PUSH2 0x3878 JUMP JUMPDEST PUSH2 0x45C7 DUP9 PUSH1 0x27 PUSH2 0x6953 JUMP JUMPDEST PUSH2 0x38B4 JUMP JUMPDEST PUSH2 0x45D7 DUP8 PUSH1 0x0 PUSH2 0x6953 JUMP JUMPDEST PUSH2 0x3878 JUMP JUMPDEST SWAP1 POP PUSH2 0x45F2 DUP2 PUSH2 0x45ED DUP5 PUSH1 0x2 PUSH2 0x38B4 JUMP JUMPDEST PUSH2 0x383C JUMP JUMPDEST SWAP1 POP PUSH2 0x4608 DUP2 PUSH2 0x4603 DUP5 PUSH1 0x1 PUSH2 0x38B4 JUMP JUMPDEST PUSH2 0x383C JUMP JUMPDEST SWAP1 POP PUSH2 0x4614 DUP2 DUP4 PUSH2 0x383C JUMP JUMPDEST SWAP1 POP PUSH2 0x4620 DUP2 DUP5 PUSH2 0x383C JUMP JUMPDEST SWAP1 POP DUP1 DUP5 PUSH1 0x1 PUSH1 0x1A DUP2 LT PUSH2 0x4637 JUMPI PUSH2 0x4636 PUSH2 0x73F1 JUMP JUMPDEST JUMPDEST PUSH1 0x20 MUL ADD DUP2 DUP2 MSTORE POP POP POP POP POP POP POP JUMP JUMPDEST PUSH1 0x0 DUP1 PUSH1 0x0 PUSH2 0x4684 PUSH2 0x467A PUSH2 0x465D DUP10 PUSH1 0x1B PUSH2 0x6953 JUMP JUMPDEST PUSH2 0x4675 PUSH2 0x466B DUP12 PUSH1 0x11 PUSH2 0x6953 JUMP JUMPDEST DUP11 PUSH1 0x60 ADD MLOAD PUSH2 0x383C JUMP JUMPDEST PUSH2 0x3878 JUMP JUMPDEST DUP8 PUSH1 0x80 ADD MLOAD PUSH2 0x3878 JUMP JUMPDEST SWAP1 POP PUSH2 0x46C7 DUP2 PUSH2 0x46C2 PUSH2 0x46B8 PUSH2 0x469B DUP12 PUSH1 0x1C PUSH2 0x6953 JUMP JUMPDEST PUSH2 0x46B3 PUSH2 0x46A9 DUP14 PUSH1 0x12 PUSH2 0x6953 JUMP JUMPDEST DUP13 PUSH1 0x60 ADD MLOAD PUSH2 0x383C JUMP JUMPDEST PUSH2 0x3878 JUMP JUMPDEST DUP10 PUSH1 0x80 ADD MLOAD PUSH2 0x3878 JUMP JUMPDEST PUSH2 0x383C JUMP JUMPDEST SWAP1 POP PUSH2 0x470A DUP2 PUSH2 0x4705 PUSH2 0x46FB PUSH2 0x46DE DUP12 PUSH1 0x1D PUSH2 0x6953 JUMP JUMPDEST PUSH2 0x46F6 PUSH2 0x46EC DUP14 PUSH1 0x13 PUSH2 0x6953 JUMP JUMPDEST DUP13 PUSH1 0x60 ADD MLOAD PUSH2 0x383C JUMP JUMPDEST PUSH2 0x3878 JUMP JUMPDEST DUP10 PUSH1 0x80 ADD MLOAD PUSH2 0x3878 JUMP JUMPDEST PUSH2 0x383C JUMP JUMPDEST SWAP1 POP PUSH2 0x474D DUP2 PUSH2 0x4748 PUSH2 0x473E PUSH2 0x4721 DUP12 PUSH1 0x1E PUSH2 0x6953 JUMP JUMPDEST PUSH2 0x4739 PUSH2 0x472F DUP14 PUSH1 0x14 PUSH2 0x6953 JUMP JUMPDEST DUP13 PUSH1 0x60 ADD MLOAD PUSH2 0x383C JUMP JUMPDEST PUSH2 0x3878 JUMP JUMPDEST DUP10 PUSH1 0x80 ADD MLOAD PUSH2 0x3878 JUMP JUMPDEST PUSH2 0x383C JUMP JUMPDEST SWAP1 POP DUP1 SWAP3 POP POP PUSH1 0x0 PUSH2 0x478D PUSH2 0x4783 PUSH2 0x4766 DUP10 PUSH1 0x1B PUSH2 0x6953 JUMP JUMPDEST PUSH2 0x477E PUSH2 0x4774 DUP12 PUSH1 0xD PUSH2 0x6953 JUMP JUMPDEST DUP11 PUSH1 0x60 ADD MLOAD PUSH2 0x383C JUMP JUMPDEST PUSH2 0x3878 JUMP JUMPDEST DUP8 PUSH1 0x80 ADD MLOAD PUSH2 0x3878 JUMP JUMPDEST SWAP1 POP PUSH2 0x47D0 DUP2 PUSH2 0x47CB PUSH2 0x47C1 PUSH2 0x47A4 DUP12 PUSH1 0x1C PUSH2 0x6953 JUMP JUMPDEST PUSH2 0x47BC PUSH2 0x47B2 DUP14 PUSH1 0xE PUSH2 0x6953 JUMP JUMPDEST DUP13 PUSH1 0x60 ADD MLOAD PUSH2 0x383C JUMP JUMPDEST PUSH2 0x3878 JUMP JUMPDEST DUP10 PUSH1 0x80 ADD MLOAD PUSH2 0x3878 JUMP JUMPDEST PUSH2 0x383C JUMP JUMPDEST SWAP1 POP PUSH2 0x4813 DUP2 PUSH2 0x480E PUSH2 0x4804 PUSH2 0x47E7 DUP12 PUSH1 0x1D PUSH2 0x6953 JUMP JUMPDEST PUSH2 0x47FF PUSH2 0x47F5 DUP14 PUSH1 0xF PUSH2 0x6953 JUMP JUMPDEST DUP13 PUSH1 0x60 ADD MLOAD PUSH2 0x383C JUMP JUMPDEST PUSH2 0x3878 JUMP JUMPDEST DUP10 PUSH1 0x80 ADD MLOAD PUSH2 0x3878 JUMP JUMPDEST PUSH2 0x383C JUMP JUMPDEST SWAP1 POP PUSH2 0x4856 DUP2 PUSH2 0x4851 PUSH2 0x4847 PUSH2 0x482A DUP12 PUSH1 0x1E PUSH2 0x6953 JUMP JUMPDEST PUSH2 0x4842 PUSH2 0x4838 DUP14 PUSH1 0x10 PUSH2 0x6953 JUMP JUMPDEST DUP13 PUSH1 0x60 ADD MLOAD PUSH2 0x383C JUMP JUMPDEST PUSH2 0x3878 JUMP JUMPDEST DUP10 PUSH1 0x80 ADD MLOAD PUSH2 0x3878 JUMP JUMPDEST PUSH2 0x383C JUMP JUMPDEST SWAP1 POP DUP1 SWAP2 POP POP PUSH1 0x0 PUSH2 0x4885 PUSH2 0x487F PUSH2 0x486F DUP10 PUSH1 0x1F PUSH2 0x6953 JUMP JUMPDEST PUSH2 0x487A DUP11 PUSH1 0x19 PUSH2 0x6953 JUMP JUMPDEST PUSH2 0x3878 JUMP JUMPDEST DUP5 PUSH2 0x383C JUMP JUMPDEST SWAP1 POP PUSH2 0x48C5 DUP2 PUSH2 0x48C0 PUSH2 0x48BA PUSH2 0x489C DUP12 PUSH1 0x2B PUSH2 0x6953 JUMP JUMPDEST PUSH2 0x48B5 PUSH2 0x48AA DUP14 PUSH1 0x1A PUSH2 0x6953 JUMP JUMPDEST DUP13 PUSH2 0x180 ADD MLOAD PUSH2 0x383C JUMP JUMPDEST PUSH2 0x3878 JUMP JUMPDEST DUP6 PUSH2 0x383C JUMP JUMPDEST PUSH2 0x38B4 JUMP JUMPDEST SWAP1 POP PUSH2 0x48D1 DUP2 DUP6 PUSH2 0x383C JUMP JUMPDEST SWAP1 POP DUP1 DUP6 PUSH1 0x2 PUSH1 0x1A DUP2 LT PUSH2 0x48E8 JUMPI PUSH2 0x48E7 PUSH2 0x73F1 JUMP JUMPDEST JUMPDEST PUSH1 0x20 MUL ADD DUP2 DUP2 MSTORE POP POP POP PUSH1 0x0 PUSH2 0x491B PUSH2 0x4915 PUSH2 0x4905 DUP10 PUSH1 0x1A PUSH2 0x6953 JUMP JUMPDEST PUSH2 0x4910 DUP11 PUSH1 0x2B PUSH2 0x6953 JUMP JUMPDEST PUSH2 0x383C JUMP JUMPDEST DUP6 PUSH2 0x383C JUMP JUMPDEST SWAP1 POP DUP1 DUP6 PUSH1 0x3 PUSH1 0x1A DUP2 LT PUSH2 0x4932 JUMPI PUSH2 0x4931 PUSH2 0x73F1 JUMP JUMPDEST JUMPDEST PUSH1 0x20 MUL ADD DUP2 DUP2 MSTORE POP POP POP POP POP POP POP POP POP JUMP JUMPDEST PUSH1 0x0 DUP1 PUSH2 0x49BF PUSH2 0x49A2 PUSH2 0x4985 PUSH2 0x4968 PUSH2 0x495E DUP11 PUSH1 0x15 PUSH2 0x6953 JUMP JUMPDEST DUP10 PUSH1 0x80 ADD MLOAD PUSH2 0x3878 JUMP JUMPDEST PUSH2 0x4980 PUSH2 0x4976 DUP12 PUSH1 0x16 PUSH2 0x6953 JUMP JUMPDEST DUP11 PUSH1 0x0 ADD MLOAD PUSH2 0x383C JUMP JUMPDEST PUSH2 0x3878 JUMP JUMPDEST PUSH2 0x499D PUSH2 0x4993 DUP11 PUSH1 0x17 PUSH2 0x6953 JUMP JUMPDEST DUP10 PUSH1 0x20 ADD MLOAD PUSH2 0x383C JUMP JUMPDEST PUSH2 0x3878 JUMP JUMPDEST PUSH2 0x49BA PUSH2 0x49B0 DUP10 PUSH1 0x18 PUSH2 0x6953 JUMP JUMPDEST DUP9 PUSH1 0x40 ADD MLOAD PUSH2 0x383C JUMP JUMPDEST PUSH2 0x3878 JUMP JUMPDEST SWAP2 POP PUSH1 0x0 PUSH2 0x4A01 PUSH2 0x49DE PUSH2 0x49D4 DUP10 PUSH1 0x1B PUSH2 0x6953 JUMP JUMPDEST DUP9 PUSH1 0x80 ADD MLOAD PUSH2 0x3878 JUMP JUMPDEST PUSH2 0x49FC PUSH2 0x49EC DUP11 PUSH1 0x3 PUSH2 0x6953 JUMP JUMPDEST PUSH2 0x49F7 DUP12 PUSH1 0x27 PUSH2 0x6953 JUMP JUMPDEST PUSH2 0x383C JUMP JUMPDEST PUSH2 0x3878 JUMP JUMPDEST SWAP1 POP PUSH1 0x0 PUSH2 0x4A36 PUSH2 0x4A13 DUP10 PUSH1 0x1C PUSH2 0x6953 JUMP JUMPDEST PUSH2 0x4A31 PUSH2 0x4A21 DUP12 PUSH1 0x0 PUSH2 0x6953 JUMP JUMPDEST PUSH2 0x4A2C DUP13 PUSH1 0x28 PUSH2 0x6953 JUMP JUMPDEST PUSH2 0x383C JUMP JUMPDEST PUSH2 0x3878 JUMP JUMPDEST SWAP1 POP PUSH1 0x0 PUSH2 0x4A6B PUSH2 0x4A48 DUP11 PUSH1 0x1D PUSH2 0x6953 JUMP JUMPDEST PUSH2 0x4A66 PUSH2 0x4A56 DUP13 PUSH1 0x1 PUSH2 0x6953 JUMP JUMPDEST PUSH2 0x4A61 DUP14 PUSH1 0x29 PUSH2 0x6953 JUMP JUMPDEST PUSH2 0x383C JUMP JUMPDEST PUSH2 0x3878 JUMP JUMPDEST SWAP1 POP PUSH2 0x4ABA PUSH2 0x4A9D PUSH2 0x4A8A DUP6 PUSH2 0x4A85 DUP7 DUP14 PUSH1 0x0 ADD MLOAD PUSH2 0x383C JUMP JUMPDEST PUSH2 0x3878 JUMP JUMPDEST PUSH2 0x4A98 DUP5 DUP13 PUSH1 0x20 ADD MLOAD PUSH2 0x383C JUMP JUMPDEST PUSH2 0x3878 JUMP JUMPDEST PUSH2 0x4AB5 PUSH2 0x4AAB DUP13 PUSH1 0x4 PUSH2 0x6953 JUMP JUMPDEST DUP12 PUSH1 0x40 ADD MLOAD PUSH2 0x383C JUMP JUMPDEST PUSH2 0x3878 JUMP JUMPDEST SWAP4 POP POP POP POP PUSH1 0x0 PUSH2 0x4AD5 PUSH2 0x4ACF DUP9 PUSH1 0x20 PUSH2 0x6953 JUMP JUMPDEST DUP5 PUSH2 0x383C JUMP JUMPDEST SWAP1 POP PUSH1 0x0 PUSH2 0x4AED PUSH2 0x4AE7 DUP10 PUSH1 0x20 PUSH2 0x6953 JUMP JUMPDEST DUP5 PUSH2 0x383C JUMP JUMPDEST SWAP1 POP PUSH1 0x0 PUSH2 0x4B35 PUSH2 0x4B12 PUSH2 0x4B02 DUP12 PUSH1 0x22 PUSH2 0x6953 JUMP JUMPDEST PUSH2 0x4B0D DUP13 PUSH1 0xA PUSH2 0x6953 JUMP JUMPDEST PUSH2 0x3878 JUMP JUMPDEST PUSH2 0x4B30 PUSH2 0x4B20 DUP13 PUSH1 0x22 PUSH2 0x6953 JUMP JUMPDEST PUSH2 0x4B2B DUP14 PUSH1 0xA PUSH2 0x6953 JUMP JUMPDEST PUSH2 0x383C JUMP JUMPDEST PUSH2 0x38B4 JUMP JUMPDEST SWAP1 POP PUSH1 0x0 PUSH2 0x4B5F PUSH2 0x4B59 PUSH2 0x4B49 DUP8 DUP10 PUSH2 0x383C JUMP JUMPDEST PUSH2 0x4B54 DUP14 PUSH1 0x20 PUSH2 0x6953 JUMP JUMPDEST PUSH2 0x383C JUMP JUMPDEST DUP4 PUSH2 0x38B4 JUMP JUMPDEST SWAP1 POP PUSH2 0x4B6B DUP2 DUP9 PUSH2 0x383C JUMP JUMPDEST SWAP1 POP PUSH1 0x0 PUSH2 0x4B9F PUSH2 0x4B86 PUSH2 0x4B80 DUP14 PUSH1 0xA PUSH2 0x6953 JUMP JUMPDEST DUP8 PUSH2 0x383C JUMP JUMPDEST PUSH2 0x4B9A PUSH2 0x4B94 DUP15 PUSH1 0x21 PUSH2 0x6953 JUMP JUMPDEST DUP8 PUSH2 0x383C JUMP JUMPDEST PUSH2 0x38B4 JUMP JUMPDEST SWAP1 POP DUP2 DUP10 PUSH1 0x4 PUSH1 0x1A DUP2 LT PUSH2 0x4BB6 JUMPI PUSH2 0x4BB5 PUSH2 0x73F1 JUMP JUMPDEST JUMPDEST PUSH1 0x20 MUL ADD DUP2 DUP2 MSTORE POP POP DUP1 DUP10 PUSH1 0x5 PUSH1 0x1A DUP2 LT PUSH2 0x4BD4 JUMPI PUSH2 0x4BD3 PUSH2 0x73F1 JUMP JUMPDEST JUMPDEST PUSH1 0x20 MUL ADD DUP2 DUP2 MSTORE POP POP POP POP POP POP POP POP POP POP POP POP POP JUMP JUMPDEST PUSH1 0x0 PUSH2 0x4BF8 PUSH1 0x0 PUSH1 0x1 PUSH2 0x38B4 JUMP JUMPDEST SWAP1 POP PUSH1 0x0 PUSH2 0x4C08 PUSH1 0x0 PUSH1 0x2 PUSH2 0x38B4 JUMP JUMPDEST SWAP1 POP PUSH1 0x0 PUSH2 0x4C18 PUSH1 0x0 PUSH1 0x3 PUSH2 0x38B4 JUMP JUMPDEST SWAP1 POP PUSH1 0x0 PUSH2 0x4C3A PUSH2 0x4C2A DUP9 PUSH1 0x1C PUSH2 0x6953 JUMP JUMPDEST PUSH2 0x4C35 DUP10 PUSH1 0x1B PUSH2 0x6953 JUMP JUMPDEST PUSH2 0x38B4 JUMP JUMPDEST SWAP1 POP PUSH1 0x0 PUSH2 0x4C5C PUSH2 0x4C4C DUP10 PUSH1 0x1D PUSH2 0x6953 JUMP JUMPDEST PUSH2 0x4C57 DUP11 PUSH1 0x1C PUSH2 0x6953 JUMP JUMPDEST PUSH2 0x38B4 JUMP JUMPDEST SWAP1 POP PUSH1 0x0 PUSH2 0x4C7E PUSH2 0x4C6E DUP11 PUSH1 0x1E PUSH2 0x6953 JUMP JUMPDEST PUSH2 0x4C79 DUP12 PUSH1 0x1D PUSH2 0x6953 JUMP JUMPDEST PUSH2 0x38B4 JUMP JUMPDEST SWAP1 POP PUSH1 0x0 PUSH2 0x4CA0 PUSH2 0x4C90 DUP12 PUSH1 0x27 PUSH2 0x6953 JUMP JUMPDEST PUSH2 0x4C9B DUP13 PUSH1 0x1E PUSH2 0x6953 JUMP JUMPDEST PUSH2 0x38B4 JUMP JUMPDEST SWAP1 POP PUSH1 0x0 DUP5 SWAP1 POP PUSH2 0x4CBA DUP2 PUSH2 0x4CB5 DUP8 DUP12 PUSH2 0x3878 JUMP JUMPDEST PUSH2 0x383C JUMP JUMPDEST SWAP1 POP PUSH2 0x4CCF DUP2 PUSH2 0x4CCA DUP8 DUP11 PUSH2 0x3878 JUMP JUMPDEST PUSH2 0x383C JUMP JUMPDEST SWAP1 POP PUSH2 0x4CE4 DUP2 PUSH2 0x4CDF DUP8 DUP10 PUSH2 0x3878 JUMP JUMPDEST PUSH2 0x383C JUMP JUMPDEST SWAP1 POP PUSH2 0x4CFA DUP2 PUSH2 0x4CF5 DUP14 PUSH1 0x7 PUSH2 0x6953 JUMP JUMPDEST PUSH2 0x383C JUMP JUMPDEST SWAP1 POP PUSH2 0x4D06 DUP2 DUP11 PUSH2 0x383C JUMP JUMPDEST SWAP1 POP DUP1 DUP11 PUSH1 0x6 PUSH1 0x1A DUP2 LT PUSH2 0x4D1D JUMPI PUSH2 0x4D1C PUSH2 0x73F1 JUMP JUMPDEST JUMPDEST PUSH1 0x20 MUL ADD DUP2 DUP2 MSTORE POP POP POP PUSH1 0x0 DUP4 SWAP1 POP PUSH2 0x4D3F DUP2 PUSH2 0x4D3A DUP7 DUP12 PUSH2 0x3878 JUMP JUMPDEST PUSH2 0x383C JUMP JUMPDEST SWAP1 POP PUSH2 0x4D54 DUP2 PUSH2 0x4D4F DUP7 DUP11 PUSH2 0x3878 JUMP JUMPDEST PUSH2 0x383C JUMP JUMPDEST SWAP1 POP PUSH2 0x4D69 DUP2 PUSH2 0x4D64 DUP7 DUP10 PUSH2 0x3878 JUMP JUMPDEST PUSH2 0x383C JUMP JUMPDEST SWAP1 POP PUSH2 0x4D7F DUP2 PUSH2 0x4D7A DUP14 PUSH1 0x7 PUSH2 0x6953 JUMP JUMPDEST PUSH2 0x383C JUMP JUMPDEST SWAP1 POP PUSH2 0x4D8B DUP2 DUP11 PUSH2 0x383C JUMP JUMPDEST SWAP1 POP DUP1 DUP11 PUSH1 0x7 PUSH1 0x1A DUP2 LT PUSH2 0x4DA2 JUMPI PUSH2 0x4DA1 PUSH2 0x73F1 JUMP JUMPDEST JUMPDEST PUSH1 0x20 MUL ADD DUP2 DUP2 MSTORE POP POP POP PUSH1 0x0 DUP3 SWAP1 POP PUSH2 0x4DC4 DUP2 PUSH2 0x4DBF DUP6 DUP12 PUSH2 0x3878 JUMP JUMPDEST PUSH2 0x383C JUMP JUMPDEST SWAP1 POP PUSH2 0x4DD9 DUP2 PUSH2 0x4DD4 DUP6 DUP11 PUSH2 0x3878 JUMP JUMPDEST PUSH2 0x383C JUMP JUMPDEST SWAP1 POP PUSH2 0x4DEE DUP2 PUSH2 0x4DE9 DUP6 DUP10 PUSH2 0x3878 JUMP JUMPDEST PUSH2 0x383C JUMP JUMPDEST SWAP1 POP PUSH2 0x4E04 DUP2 PUSH2 0x4DFF DUP14 PUSH1 0x7 PUSH2 0x6953 JUMP JUMPDEST PUSH2 0x383C JUMP JUMPDEST SWAP1 POP PUSH2 0x4E10 DUP2 DUP11 PUSH2 0x383C JUMP JUMPDEST SWAP1 POP DUP1 DUP11 PUSH1 0x8 PUSH1 0x1A DUP2 LT PUSH2 0x4E27 JUMPI PUSH2 0x4E26 PUSH2 0x73F1 JUMP JUMPDEST JUMPDEST PUSH1 0x20 MUL ADD DUP2 DUP2 MSTORE POP POP POP PUSH1 0x0 DUP2 SWAP1 POP PUSH2 0x4E49 DUP2 PUSH2 0x4E44 DUP5 DUP12 PUSH2 0x3878 JUMP JUMPDEST PUSH2 0x383C JUMP JUMPDEST SWAP1 POP PUSH2 0x4E5E DUP2 PUSH2 0x4E59 DUP5 DUP11 PUSH2 0x3878 JUMP JUMPDEST PUSH2 0x383C JUMP JUMPDEST SWAP1 POP PUSH2 0x4E73 DUP2 PUSH2 0x4E6E DUP5 DUP10 PUSH2 0x3878 JUMP JUMPDEST PUSH2 0x383C JUMP JUMPDEST SWAP1 POP PUSH2 0x4E89 DUP2 PUSH2 0x4E84 DUP14 PUSH1 0x7 PUSH2 0x6953 JUMP JUMPDEST PUSH2 0x383C JUMP JUMPDEST SWAP1 POP PUSH2 0x4E95 DUP2 DUP11 PUSH2 0x383C JUMP JUMPDEST SWAP1 POP DUP1 DUP11 PUSH1 0x9 PUSH1 0x1A DUP2 LT PUSH2 0x4EAC JUMPI PUSH2 0x4EAB PUSH2 0x73F1 JUMP JUMPDEST JUMPDEST PUSH1 0x20 MUL ADD DUP2 DUP2 MSTORE POP POP POP POP POP POP POP POP POP POP POP POP POP JUMP JUMPDEST PUSH2 0x4ECA PUSH2 0x6E97 JUMP JUMPDEST PUSH2 0x4ED5 DUP5 PUSH1 0x1C PUSH2 0x6953 JUMP JUMPDEST DUP2 PUSH1 0x0 ADD DUP2 DUP2 MSTORE POP POP PUSH2 0x4EE9 DUP5 PUSH1 0x1D PUSH2 0x6953 JUMP JUMPDEST DUP2 PUSH1 0x20 ADD DUP2 DUP2 MSTORE POP POP PUSH2 0x4EFD DUP5 PUSH1 0x27 PUSH2 0x6953 JUMP JUMPDEST DUP2 PUSH1 0x40 ADD DUP2 DUP2 MSTORE POP POP PUSH2 0x4F11 DUP5 PUSH1 0x2A PUSH2 0x6953 JUMP JUMPDEST DUP2 PUSH1 0x60 ADD DUP2 DUP2 MSTORE POP POP PUSH2 0x4F25 DUP5 PUSH1 0x29 PUSH2 0x6953 JUMP JUMPDEST DUP2 PUSH1 0x80 ADD DUP2 DUP2 MSTORE POP POP PUSH2 0x4F39 DUP5 PUSH1 0x28 PUSH2 0x6953 JUMP JUMPDEST DUP2 PUSH1 0xA0 ADD DUP2 DUP2 MSTORE POP POP PUSH1 0x0 PUSH2 0x4F4F DUP6 PUSH1 0x2 PUSH2 0x6953 JUMP JUMPDEST SWAP1 POP PUSH1 0x0 PUSH2 0x4F5E DUP7 PUSH1 0x0 PUSH2 0x6953 JUMP JUMPDEST SWAP1 POP PUSH1 0x0 PUSH2 0x4F74 DUP5 PUSH1 0x40 ADD MLOAD DUP6 PUSH1 0x0 ADD MLOAD PUSH2 0x38B4 JUMP JUMPDEST SWAP1 POP PUSH1 0x0 PUSH2 0x4F8A DUP6 PUSH1 0x20 ADD MLOAD DUP7 PUSH1 0x20 ADD MLOAD PUSH2 0x383C JUMP JUMPDEST SWAP1 POP PUSH1 0x0 DUP7 SWAP1 POP PUSH1 0x0 PUSH2 0x4FA5 DUP8 PUSH1 0x60 ADD MLOAD DUP9 PUSH1 0x60 ADD MLOAD PUSH2 0x383C JUMP JUMPDEST SWAP1 POP PUSH1 0x0 PUSH2 0x4FC4 PUSH2 0x4FBE DUP10 PUSH1 0x20 ADD MLOAD DUP11 PUSH1 0x60 ADD MLOAD PUSH2 0x383C JUMP JUMPDEST DUP9 PUSH2 0x383C JUMP JUMPDEST SWAP1 POP PUSH1 0x0 PUSH2 0x4FE7 PUSH2 0x4FDD DUP11 PUSH1 0xA0 ADD MLOAD DUP12 PUSH1 0x40 ADD MLOAD PUSH2 0x3878 JUMP JUMPDEST DUP11 PUSH1 0x0 ADD MLOAD PUSH2 0x3878 JUMP JUMPDEST SWAP1 POP PUSH2 0x4FFC PUSH2 0x4FF6 DUP3 DUP9 PUSH2 0x383C JUMP JUMPDEST DUP8 PUSH2 0x383C JUMP JUMPDEST SWAP1 POP PUSH2 0x5023 PUSH2 0x501D PUSH2 0x5017 PUSH2 0x5011 DUP5 DUP8 PUSH2 0x38B4 JUMP JUMPDEST DUP9 PUSH2 0x38B4 JUMP JUMPDEST DUP5 PUSH2 0x3878 JUMP JUMPDEST DUP4 PUSH2 0x3878 JUMP JUMPDEST SWAP1 POP PUSH2 0x5055 PUSH2 0x5045 PUSH2 0x5035 DUP4 DUP8 PUSH2 0x383C JUMP JUMPDEST PUSH2 0x5040 DUP16 PUSH1 0x8 PUSH2 0x6953 JUMP JUMPDEST PUSH2 0x383C JUMP JUMPDEST PUSH2 0x5050 PUSH1 0x1 DUP11 PUSH2 0x38B4 JUMP JUMPDEST PUSH2 0x383C JUMP JUMPDEST DUP12 PUSH1 0xA PUSH1 0x1A DUP2 LT PUSH2 0x5069 JUMPI PUSH2 0x5068 PUSH2 0x73F1 JUMP JUMPDEST JUMPDEST PUSH1 0x20 MUL ADD DUP2 DUP2 MSTORE POP POP POP POP POP POP PUSH1 0x0 PUSH2 0x508A DUP7 PUSH1 0x20 ADD MLOAD DUP8 PUSH1 0x80 ADD MLOAD PUSH2 0x3878 JUMP JUMPDEST SWAP1 POP PUSH1 0x0 PUSH2 0x50A9 PUSH2 0x509F DUP9 PUSH1 0x60 ADD MLOAD DUP9 PUSH2 0x383C JUMP JUMPDEST DUP9 PUSH1 0x20 ADD MLOAD PUSH2 0x38B4 JUMP JUMPDEST SWAP1 POP PUSH1 0x0 PUSH2 0x50DA PUSH2 0x50BA DUP5 DUP8 PUSH2 0x383C JUMP JUMPDEST PUSH2 0x50D5 PUSH2 0x50CF DUP12 PUSH1 0xA0 ADD MLOAD DUP13 PUSH1 0x0 ADD MLOAD PUSH2 0x38B4 JUMP JUMPDEST DUP6 PUSH2 0x383C JUMP JUMPDEST PUSH2 0x3878 JUMP JUMPDEST SWAP1 POP PUSH2 0x510C PUSH2 0x50FC PUSH2 0x50EC DUP4 DUP13 PUSH2 0x383C JUMP JUMPDEST PUSH2 0x50F7 DUP15 PUSH1 0x8 PUSH2 0x6953 JUMP JUMPDEST PUSH2 0x383C JUMP JUMPDEST PUSH2 0x5107 PUSH1 0x1 DUP10 PUSH2 0x38B4 JUMP JUMPDEST PUSH2 0x383C JUMP JUMPDEST DUP11 PUSH1 0xB PUSH1 0x1A DUP2 LT PUSH2 0x5120 JUMPI PUSH2 0x511F PUSH2 0x73F1 JUMP JUMPDEST JUMPDEST PUSH1 0x20 MUL ADD DUP2 DUP2 MSTORE POP POP POP POP POP PUSH1 0x0 PUSH2 0x5146 PUSH2 0x513C DUP4 PUSH1 0x11 PUSH2 0x3878 JUMP JUMPDEST DUP8 PUSH1 0x0 ADD MLOAD PUSH2 0x383C JUMP JUMPDEST SWAP1 POP PUSH1 0x0 PUSH2 0x5154 DUP4 DUP5 PUSH2 0x3878 JUMP JUMPDEST SWAP1 POP PUSH2 0x5160 DUP2 DUP3 PUSH2 0x3878 JUMP JUMPDEST SWAP1 POP PUSH1 0x0 PUSH2 0x516F DUP4 PUSH1 0x9 PUSH2 0x383C JUMP JUMPDEST SWAP1 POP PUSH2 0x51A2 PUSH2 0x519C PUSH2 0x5196 PUSH2 0x518C DUP12 PUSH1 0xA0 ADD MLOAD DUP13 PUSH1 0x0 ADD MLOAD PUSH2 0x3878 JUMP JUMPDEST DUP12 PUSH1 0x0 ADD MLOAD PUSH2 0x3878 JUMP JUMPDEST DUP5 PUSH2 0x383C JUMP JUMPDEST DUP3 PUSH2 0x38B4 JUMP JUMPDEST DUP9 PUSH1 0xC0 ADD DUP2 DUP2 MSTORE POP POP PUSH1 0x0 PUSH2 0x51D7 PUSH2 0x51D1 PUSH2 0x51C1 DUP12 PUSH1 0xC0 ADD MLOAD DUP14 PUSH2 0x383C JUMP JUMPDEST PUSH2 0x51CC DUP16 PUSH1 0x8 PUSH2 0x6953 JUMP JUMPDEST PUSH2 0x383C JUMP JUMPDEST DUP9 PUSH2 0x383C JUMP JUMPDEST SWAP1 POP PUSH2 0x51FB DUP12 PUSH1 0xA PUSH1 0x1A DUP2 LT PUSH2 0x51F0 JUMPI PUSH2 0x51EF PUSH2 0x73F1 JUMP JUMPDEST JUMPDEST PUSH1 0x20 MUL ADD MLOAD DUP3 PUSH2 0x3878 JUMP JUMPDEST DUP12 PUSH1 0xA PUSH1 0x1A DUP2 LT PUSH2 0x520F JUMPI PUSH2 0x520E PUSH2 0x73F1 JUMP JUMPDEST JUMPDEST PUSH1 0x20 MUL ADD DUP2 DUP2 MSTORE POP POP POP POP POP POP PUSH1 0x0 PUSH2 0x524A PUSH2 0x5240 PUSH2 0x5236 DUP9 PUSH1 0x0 ADD MLOAD DUP10 PUSH1 0x0 ADD MLOAD PUSH2 0x3878 JUMP JUMPDEST DUP9 PUSH1 0x0 ADD MLOAD PUSH2 0x3878 JUMP JUMPDEST DUP8 PUSH1 0x0 ADD MLOAD PUSH2 0x383C JUMP JUMPDEST SWAP1 POP PUSH1 0x0 PUSH2 0x529D PUSH2 0x526C DUP4 PUSH2 0x5267 DUP11 PUSH1 0x0 ADD MLOAD DUP12 PUSH1 0xA0 ADD MLOAD PUSH2 0x38B4 JUMP JUMPDEST PUSH2 0x383C JUMP JUMPDEST PUSH2 0x5298 PUSH2 0x5281 DUP11 PUSH1 0x20 ADD MLOAD DUP12 PUSH1 0x20 ADD MLOAD PUSH2 0x3878 JUMP JUMPDEST PUSH2 0x5293 DUP12 PUSH1 0x20 ADD MLOAD DUP13 PUSH1 0x80 ADD MLOAD PUSH2 0x3878 JUMP JUMPDEST PUSH2 0x383C JUMP JUMPDEST PUSH2 0x38B4 JUMP JUMPDEST SWAP1 POP PUSH2 0x52E6 DUP10 PUSH1 0xB PUSH1 0x1A DUP2 LT PUSH2 0x52B6 JUMPI PUSH2 0x52B5 PUSH2 0x73F1 JUMP JUMPDEST JUMPDEST PUSH1 0x20 MUL ADD MLOAD PUSH2 0x52E1 PUSH2 0x52DB PUSH2 0x52CB DUP6 DUP14 PUSH2 0x383C JUMP JUMPDEST PUSH2 0x52D6 DUP16 PUSH1 0x8 PUSH2 0x6953 JUMP JUMPDEST PUSH2 0x383C JUMP JUMPDEST DUP9 PUSH2 0x383C JUMP JUMPDEST PUSH2 0x3878 JUMP JUMPDEST DUP10 PUSH1 0xB PUSH1 0x1A DUP2 LT PUSH2 0x52FA JUMPI PUSH2 0x52F9 PUSH2 0x73F1 JUMP JUMPDEST JUMPDEST PUSH1 0x20 MUL ADD DUP2 DUP2 MSTORE POP POP POP POP POP POP POP POP POP POP POP POP JUMP JUMPDEST PUSH2 0x5317 PUSH2 0x6ED4 JUMP JUMPDEST PUSH2 0x535B PUSH2 0x5338 PUSH2 0x5328 DUP8 PUSH1 0x1B PUSH2 0x6953 JUMP JUMPDEST PUSH2 0x5333 DUP9 PUSH1 0x28 PUSH2 0x6953 JUMP JUMPDEST PUSH2 0x383C JUMP JUMPDEST PUSH2 0x5356 PUSH2 0x5346 DUP9 PUSH1 0x27 PUSH2 0x6953 JUMP JUMPDEST PUSH2 0x5351 DUP10 PUSH1 0x1C PUSH2 0x6953 JUMP JUMPDEST PUSH2 0x383C JUMP JUMPDEST PUSH2 0x3878 JUMP JUMPDEST DUP2 PUSH1 0x0 ADD DUP2 DUP2 MSTORE POP POP PUSH2 0x53BB PUSH2 0x53AB PUSH2 0x5388 PUSH2 0x5378 DUP9 PUSH1 0x1B PUSH2 0x6953 JUMP JUMPDEST PUSH2 0x5383 DUP10 PUSH1 0x1E PUSH2 0x6953 JUMP JUMPDEST PUSH2 0x383C JUMP JUMPDEST PUSH2 0x53A6 PUSH2 0x5396 DUP10 PUSH1 0x1C PUSH2 0x6953 JUMP JUMPDEST PUSH2 0x53A1 DUP11 PUSH1 0x1D PUSH2 0x6953 JUMP JUMPDEST PUSH2 0x383C JUMP JUMPDEST PUSH2 0x3878 JUMP JUMPDEST PUSH2 0x53B6 DUP8 PUSH1 0x29 PUSH2 0x6953 JUMP JUMPDEST PUSH2 0x38B4 JUMP JUMPDEST DUP2 PUSH1 0x40 ADD DUP2 DUP2 MSTORE POP POP PUSH2 0x53D7 DUP2 PUSH1 0x40 ADD MLOAD PUSH1 0x44 PUSH1 0x1 SWAP1 SHL PUSH2 0x383C JUMP JUMPDEST DUP2 PUSH1 0x40 ADD DUP2 DUP2 MSTORE POP POP PUSH2 0x53F8 DUP2 PUSH1 0x40 ADD MLOAD PUSH2 0x53F3 DUP8 PUSH1 0x2A PUSH2 0x6953 JUMP JUMPDEST PUSH2 0x38B4 JUMP JUMPDEST DUP2 PUSH1 0x40 ADD DUP2 DUP2 MSTORE POP POP PUSH2 0x5413 DUP2 PUSH1 0x40 ADD MLOAD DUP3 PUSH1 0x0 ADD MLOAD PUSH2 0x3878 JUMP JUMPDEST DUP2 PUSH1 0x40 ADD DUP2 DUP2 MSTORE POP POP PUSH2 0x5434 DUP2 PUSH1 0x40 ADD MLOAD PUSH2 0x542F DUP8 PUSH1 0x5 PUSH2 0x6953 JUMP JUMPDEST PUSH2 0x383C JUMP JUMPDEST DUP2 PUSH1 0x40 ADD DUP2 DUP2 MSTORE POP POP PUSH2 0x5450 DUP2 PUSH1 0x0 ADD MLOAD PUSH1 0x44 PUSH1 0x1 SWAP1 SHL PUSH2 0x383C JUMP JUMPDEST DUP2 PUSH1 0x0 ADD DUP2 DUP2 MSTORE POP POP PUSH2 0x5484 DUP2 PUSH1 0x0 ADD MLOAD PUSH2 0x547F PUSH2 0x546F DUP9 PUSH1 0x27 PUSH2 0x6953 JUMP JUMPDEST PUSH2 0x547A DUP10 PUSH1 0x28 PUSH2 0x6953 JUMP JUMPDEST PUSH2 0x383C JUMP JUMPDEST PUSH2 0x3878 JUMP JUMPDEST DUP2 PUSH1 0x0 ADD DUP2 DUP2 MSTORE POP POP DUP1 PUSH1 0x0 ADD MLOAD DUP2 PUSH1 0x20 ADD DUP2 DUP2 MSTORE POP POP PUSH2 0x54C6 DUP2 PUSH1 0x20 ADD MLOAD PUSH2 0x54C1 PUSH2 0x54B1 DUP9 PUSH1 0x1D PUSH2 0x6953 JUMP JUMPDEST PUSH2 0x54BC DUP10 PUSH1 0x1E PUSH2 0x6953 JUMP JUMPDEST PUSH2 0x3878 JUMP JUMPDEST PUSH2 0x38B4 JUMP JUMPDEST DUP2 PUSH1 0x20 ADD DUP2 DUP2 MSTORE POP POP PUSH2 0x54E7 DUP2 PUSH1 0x20 ADD MLOAD PUSH2 0x54E2 DUP8 PUSH1 0x4 PUSH2 0x6953 JUMP JUMPDEST PUSH2 0x383C JUMP JUMPDEST DUP2 PUSH1 0x20 ADD DUP2 DUP2 MSTORE POP POP DUP1 PUSH1 0x0 ADD MLOAD DUP2 PUSH1 0x60 ADD DUP2 DUP2 MSTORE POP POP PUSH2 0x5516 DUP2 PUSH1 0x60 ADD MLOAD PUSH2 0x5511 DUP8 PUSH1 0x1E PUSH2 0x6953 JUMP JUMPDEST PUSH2 0x3878 JUMP JUMPDEST DUP2 PUSH1 0x60 ADD DUP2 DUP2 MSTORE POP POP PUSH2 0x554A DUP2 PUSH1 0x60 ADD MLOAD PUSH2 0x5545 PUSH2 0x5535 DUP9 PUSH1 0x29 PUSH2 0x6953 JUMP JUMPDEST PUSH2 0x5540 DUP10 PUSH1 0x2A PUSH2 0x6953 JUMP JUMPDEST PUSH2 0x3878 JUMP JUMPDEST PUSH2 0x38B4 JUMP JUMPDEST DUP2 PUSH1 0x60 ADD DUP2 DUP2 MSTORE POP POP PUSH2 0x556B DUP2 PUSH1 0x60 ADD MLOAD PUSH2 0x5566 DUP8 PUSH1 0x0 PUSH2 0x6953 JUMP JUMPDEST PUSH2 0x383C JUMP JUMPDEST DUP2 PUSH1 0x60 ADD DUP2 DUP2 MSTORE POP POP PUSH1 0x0 PUSH2 0x5595 PUSH2 0x558B DUP4 PUSH1 0x20 ADD MLOAD DUP5 PUSH1 0x40 ADD MLOAD PUSH2 0x3878 JUMP JUMPDEST DUP4 PUSH1 0x60 ADD MLOAD PUSH2 0x3878 JUMP JUMPDEST SWAP1 POP PUSH2 0x55AB DUP2 PUSH2 0x55A6 DUP9 PUSH1 0x3 PUSH2 0x6953 JUMP JUMPDEST PUSH2 0x383C JUMP JUMPDEST SWAP1 POP PUSH2 0x55C6 PUSH2 0x55BB DUP8 PUSH1 0x28 PUSH2 0x6953 JUMP JUMPDEST PUSH1 0xE PUSH1 0x1 SWAP1 SHL PUSH2 0x383C JUMP JUMPDEST DUP3 PUSH1 0x80 ADD DUP2 DUP2 MSTORE POP POP PUSH2 0x55E7 DUP3 PUSH1 0x80 ADD MLOAD PUSH2 0x55E2 DUP9 PUSH1 0x27 PUSH2 0x6953 JUMP JUMPDEST PUSH2 0x3878 JUMP JUMPDEST DUP3 PUSH1 0x80 ADD DUP2 DUP2 MSTORE POP POP PUSH2 0x5603 DUP3 PUSH1 0x80 ADD MLOAD PUSH1 0xE PUSH1 0x1 SWAP1 SHL PUSH2 0x383C JUMP JUMPDEST DUP3 PUSH1 0x80 ADD DUP2 DUP2 MSTORE POP POP PUSH2 0x5624 DUP3 PUSH1 0x80 ADD MLOAD PUSH2 0x561F DUP9 PUSH1 0x1D PUSH2 0x6953 JUMP JUMPDEST PUSH2 0x3878 JUMP JUMPDEST DUP3 PUSH1 0x80 ADD DUP2 DUP2 MSTORE POP POP PUSH2 0x5640 DUP3 PUSH1 0x80 ADD MLOAD PUSH1 0xE PUSH1 0x1 SWAP1 SHL PUSH2 0x383C JUMP JUMPDEST DUP3 PUSH1 0x80 ADD DUP2 DUP2 MSTORE POP POP PUSH2 0x5661 DUP3 PUSH1 0x80 ADD MLOAD PUSH2 0x565C DUP9 PUSH1 0x1C PUSH2 0x6953 JUMP JUMPDEST PUSH2 0x3878 JUMP JUMPDEST DUP3 PUSH1 0x80 ADD DUP2 DUP2 MSTORE POP POP PUSH2 0x567D DUP3 PUSH1 0x80 ADD MLOAD PUSH1 0xE PUSH1 0x1 SWAP1 SHL PUSH2 0x383C JUMP JUMPDEST DUP3 PUSH1 0x80 ADD DUP2 DUP2 MSTORE POP POP PUSH2 0x569E DUP3 PUSH1 0x80 ADD MLOAD PUSH2 0x5699 DUP9 PUSH1 0x1B PUSH2 0x6953 JUMP JUMPDEST PUSH2 0x3878 JUMP JUMPDEST DUP3 PUSH1 0x80 ADD DUP2 DUP2 MSTORE POP POP PUSH2 0x56BF DUP3 PUSH1 0x80 ADD MLOAD PUSH2 0x56BA DUP9 PUSH1 0x1E PUSH2 0x6953 JUMP JUMPDEST PUSH2 0x38B4 JUMP JUMPDEST DUP3 PUSH1 0x80 ADD DUP2 DUP2 MSTORE POP POP PUSH2 0x56E0 DUP3 PUSH1 0x80 ADD MLOAD PUSH2 0x56DB DUP9 PUSH1 0x5 PUSH2 0x6953 JUMP JUMPDEST PUSH2 0x383C JUMP JUMPDEST DUP3 PUSH1 0x80 ADD DUP2 DUP2 MSTORE POP POP PUSH2 0x5702 PUSH2 0x56F7 DUP8 PUSH1 0x29 PUSH2 0x6953 JUMP JUMPDEST PUSH1 0xE PUSH1 0x1 SWAP1 SHL PUSH2 0x383C JUMP JUMPDEST DUP3 PUSH1 0xA0 ADD DUP2 DUP2 MSTORE POP POP PUSH2 0x5723 DUP3 PUSH1 0xA0 ADD MLOAD PUSH2 0x571E DUP9 PUSH1 0x28 PUSH2 0x6953 JUMP JUMPDEST PUSH2 0x3878 JUMP JUMPDEST DUP3 PUSH1 0xA0 ADD DUP2 DUP2 MSTORE POP POP PUSH2 0x573F DUP3 PUSH1 0xA0 ADD MLOAD PUSH1 0xE PUSH1 0x1 SWAP1 SHL PUSH2 0x383C JUMP JUMPDEST DUP3 PUSH1 0xA0 ADD DUP2 DUP2 MSTORE POP POP PUSH2 0x5760 DUP3 PUSH1 0xA0 ADD MLOAD PUSH2 0x575B DUP9 PUSH1 0x27 PUSH2 0x6953 JUMP JUMPDEST PUSH2 0x3878 JUMP JUMPDEST DUP3 PUSH1 0xA0 ADD DUP2 DUP2 MSTORE POP POP PUSH2 0x577C DUP3 PUSH1 0xA0 ADD MLOAD PUSH1 0xE PUSH1 0x1 SWAP1 SHL PUSH2 0x383C JUMP JUMPDEST DUP3 PUSH1 0xA0 ADD DUP2 DUP2 MSTORE POP POP PUSH2 0x579D DUP3 PUSH1 0xA0 ADD MLOAD PUSH2 0x5798 DUP9 PUSH1 0x1E PUSH2 0x6953 JUMP JUMPDEST PUSH2 0x3878 JUMP JUMPDEST DUP3 PUSH1 0xA0 ADD DUP2 DUP2 MSTORE POP POP PUSH2 0x57B9 DUP3 PUSH1 0xA0 ADD MLOAD PUSH1 0xE PUSH1 0x1 SWAP1 SHL PUSH2 0x383C JUMP JUMPDEST DUP3 PUSH1 0xA0 ADD DUP2 DUP2 MSTORE POP POP PUSH2 0x57DA DUP3 PUSH1 0xA0 ADD MLOAD PUSH2 0x57D5 DUP9 PUSH1 0x1D PUSH2 0x6953 JUMP JUMPDEST PUSH2 0x3878 JUMP JUMPDEST DUP3 PUSH1 0xA0 ADD DUP2 DUP2 MSTORE POP POP PUSH2 0x57FB DUP3 PUSH1 0xA0 ADD MLOAD PUSH2 0x57F6 DUP9 PUSH1 0x2A PUSH2 0x6953 JUMP JUMPDEST PUSH2 0x38B4 JUMP JUMPDEST DUP3 PUSH1 0xA0 ADD DUP2 DUP2 MSTORE POP POP PUSH2 0x581C DUP3 PUSH1 0xA0 ADD MLOAD PUSH2 0x5817 DUP9 PUSH1 0x0 PUSH2 0x6953 JUMP JUMPDEST PUSH2 0x383C JUMP JUMPDEST DUP3 PUSH1 0xA0 ADD DUP2 DUP2 MSTORE POP POP PUSH1 0x0 PUSH2 0x5839 DUP4 PUSH1 0x80 ADD MLOAD DUP5 PUSH1 0xA0 ADD MLOAD PUSH2 0x3878 JUMP JUMPDEST SWAP1 POP PUSH2 0x584F DUP2 PUSH2 0x584A DUP10 PUSH1 0x4 PUSH2 0x6953 JUMP JUMPDEST PUSH2 0x383C JUMP JUMPDEST SWAP1 POP PUSH2 0x5869 PUSH2 0x585F DUP9 PUSH1 0x1D PUSH2 0x6953 JUMP JUMPDEST DUP8 PUSH1 0x40 ADD MLOAD PUSH2 0x383C JUMP JUMPDEST DUP4 PUSH1 0xC0 ADD DUP2 DUP2 MSTORE POP POP PUSH2 0x5897 DUP4 PUSH1 0xC0 ADD MLOAD PUSH2 0x5892 PUSH2 0x5888 DUP11 PUSH1 0x1C PUSH2 0x6953 JUMP JUMPDEST DUP10 PUSH1 0x20 ADD MLOAD PUSH2 0x383C JUMP JUMPDEST PUSH2 0x3878 JUMP JUMPDEST DUP4 PUSH1 0xC0 ADD DUP2 DUP2 MSTORE POP POP PUSH2 0x58C5 DUP4 PUSH1 0xC0 ADD MLOAD PUSH2 0x58C0 PUSH2 0x58B6 DUP11 PUSH1 0x1B PUSH2 0x6953 JUMP JUMPDEST DUP10 PUSH1 0x0 ADD MLOAD PUSH2 0x383C JUMP JUMPDEST PUSH2 0x3878 JUMP JUMPDEST DUP4 PUSH1 0xC0 ADD DUP2 DUP2 MSTORE POP POP PUSH2 0x58E6 DUP4 PUSH1 0xC0 ADD MLOAD PUSH2 0x58E1 DUP10 PUSH1 0x1 PUSH2 0x6953 JUMP JUMPDEST PUSH2 0x3878 JUMP JUMPDEST DUP4 PUSH1 0xC0 ADD DUP2 DUP2 MSTORE POP POP DUP3 PUSH1 0xC0 ADD MLOAD DUP4 PUSH1 0xE0 ADD DUP2 DUP2 MSTORE POP POP PUSH2 0x5915 DUP4 PUSH1 0xC0 ADD MLOAD PUSH2 0x5910 DUP10 PUSH1 0x1E PUSH2 0x6953 JUMP JUMPDEST PUSH2 0x38B4 JUMP JUMPDEST DUP4 PUSH1 0xC0 ADD DUP2 DUP2 MSTORE POP POP PUSH2 0x593C PUSH2 0x592C DUP9 PUSH1 0x27 PUSH2 0x6953 JUMP JUMPDEST PUSH2 0x5937 DUP10 PUSH1 0x1B PUSH2 0x6953 JUMP JUMPDEST PUSH2 0x38B4 JUMP JUMPDEST DUP4 PUSH2 0x140 ADD DUP2 DUP2 MSTORE POP POP PUSH2 0x5964 PUSH2 0x5954 DUP9 PUSH1 0x2A PUSH2 0x6953 JUMP JUMPDEST PUSH2 0x595F DUP10 PUSH1 0x1E PUSH2 0x6953 JUMP JUMPDEST PUSH2 0x38B4 JUMP JUMPDEST DUP4 PUSH2 0x120 ADD DUP2 DUP2 MSTORE POP POP PUSH2 0x5990 PUSH2 0x5985 DUP5 PUSH2 0x140 ADD MLOAD DUP6 PUSH2 0x140 ADD MLOAD PUSH2 0x383C JUMP JUMPDEST DUP5 PUSH2 0x140 ADD MLOAD PUSH2 0x38B4 JUMP JUMPDEST DUP4 PUSH2 0x280 ADD DUP2 DUP2 MSTORE POP POP PUSH2 0x59ED PUSH2 0x59E2 PUSH2 0x59DB DUP6 PUSH2 0x140 ADD MLOAD PUSH1 0x1 PUSH32 0x30644E72E131A029B85045B68181585D2833E84879B9709143E1F593F0000001 PUSH2 0x59D6 SWAP2 SWAP1 PUSH2 0x7420 JUMP JUMPDEST PUSH2 0x383C JUMP JUMPDEST PUSH1 0x1 PUSH2 0x3878 JUMP JUMPDEST DUP5 PUSH2 0x120 ADD MLOAD PUSH2 0x383C JUMP JUMPDEST DUP4 PUSH2 0x160 ADD DUP2 DUP2 MSTORE POP POP PUSH2 0x5A3F PUSH2 0x5A26 DUP5 PUSH2 0x160 ADD MLOAD PUSH2 0x5A21 PUSH2 0x5A11 DUP12 PUSH1 0x2 PUSH2 0x6953 JUMP JUMPDEST PUSH2 0x5A1C DUP13 PUSH1 0x3 PUSH2 0x6953 JUMP JUMPDEST PUSH2 0x383C JUMP JUMPDEST PUSH2 0x383C JUMP JUMPDEST PUSH2 0x5A3A PUSH2 0x5A34 DUP11 PUSH1 0x9 PUSH2 0x6953 JUMP JUMPDEST DUP8 PUSH2 0x383C JUMP JUMPDEST PUSH2 0x383C JUMP JUMPDEST DUP6 PUSH1 0xD PUSH1 0x1A DUP2 LT PUSH2 0x5A53 JUMPI PUSH2 0x5A52 PUSH2 0x73F1 JUMP JUMPDEST JUMPDEST PUSH1 0x20 MUL ADD DUP2 DUP2 MSTORE POP POP PUSH2 0x5AA4 PUSH2 0x5A8B DUP5 PUSH2 0x280 ADD MLOAD PUSH2 0x5A86 PUSH2 0x5A76 DUP12 PUSH1 0x2 PUSH2 0x6953 JUMP JUMPDEST PUSH2 0x5A81 DUP13 PUSH1 0x3 PUSH2 0x6953 JUMP JUMPDEST PUSH2 0x383C JUMP JUMPDEST PUSH2 0x383C JUMP JUMPDEST PUSH2 0x5A9F PUSH2 0x5A99 DUP11 PUSH1 0x9 PUSH2 0x6953 JUMP JUMPDEST DUP8 PUSH2 0x383C JUMP JUMPDEST PUSH2 0x383C JUMP JUMPDEST DUP6 PUSH1 0xE PUSH1 0x1A DUP2 LT PUSH2 0x5AB8 JUMPI PUSH2 0x5AB7 PUSH2 0x73F1 JUMP JUMPDEST JUMPDEST PUSH1 0x20 MUL ADD DUP2 DUP2 MSTORE POP POP PUSH2 0x5AEC DUP4 PUSH1 0xC0 ADD MLOAD PUSH2 0x5AE7 PUSH2 0x5AD7 DUP11 PUSH1 0x2 PUSH2 0x6953 JUMP JUMPDEST PUSH2 0x5AE2 DUP12 PUSH1 0x3 PUSH2 0x6953 JUMP JUMPDEST PUSH2 0x383C JUMP JUMPDEST PUSH2 0x383C JUMP JUMPDEST DUP4 PUSH2 0x1E0 ADD DUP2 DUP2 MSTORE POP POP PUSH1 0x0 PUSH2 0x5B10 PUSH2 0x5B06 DUP10 PUSH1 0x1E PUSH2 0x6953 JUMP JUMPDEST DUP6 PUSH1 0xE0 ADD MLOAD PUSH2 0x38B4 JUMP JUMPDEST SWAP1 POP PUSH2 0x5B25 PUSH2 0x5B1F DUP3 DUP4 PUSH2 0x383C JUMP JUMPDEST DUP3 PUSH2 0x38B4 JUMP JUMPDEST DUP5 PUSH2 0x1A0 ADD DUP2 DUP2 MSTORE POP POP PUSH2 0x5B47 PUSH2 0x5B3D DUP10 PUSH1 0x29 PUSH2 0x6953 JUMP JUMPDEST DUP9 PUSH1 0x40 ADD MLOAD PUSH2 0x383C JUMP JUMPDEST DUP5 PUSH2 0x100 ADD DUP2 DUP2 MSTORE POP POP PUSH2 0x5B77 DUP5 PUSH2 0x100 ADD MLOAD PUSH2 0x5B72 PUSH2 0x5B68 DUP12 PUSH1 0x28 PUSH2 0x6953 JUMP JUMPDEST DUP11 PUSH1 0x20 ADD MLOAD PUSH2 0x383C JUMP JUMPDEST PUSH2 0x3878 JUMP JUMPDEST DUP5 PUSH2 0x100 ADD DUP2 DUP2 MSTORE POP POP PUSH2 0x5BA7 DUP5 PUSH2 0x100 ADD MLOAD PUSH2 0x5BA2 PUSH2 0x5B98 DUP12 PUSH1 0x27 PUSH2 0x6953 JUMP JUMPDEST DUP11 PUSH1 0x0 ADD MLOAD PUSH2 0x383C JUMP JUMPDEST PUSH2 0x3878 JUMP JUMPDEST DUP5 PUSH2 0x100 ADD DUP2 DUP2 MSTORE POP POP PUSH2 0x5BCA PUSH2 0x5BBF DUP10 PUSH1 0x2A PUSH2 0x6953 JUMP JUMPDEST DUP6 PUSH2 0x100 ADD MLOAD PUSH2 0x38B4 JUMP JUMPDEST DUP5 PUSH2 0x100 ADD DUP2 DUP2 MSTORE POP POP PUSH1 0x0 PUSH2 0x5BF4 PUSH2 0x5BE4 DUP11 PUSH1 0x29 PUSH2 0x6953 JUMP JUMPDEST PUSH2 0x5BEF DUP12 PUSH1 0x1D PUSH2 0x6953 JUMP JUMPDEST PUSH2 0x38B4 JUMP JUMPDEST SWAP1 POP PUSH2 0x5C91 PUSH2 0x5C47 PUSH2 0x5C41 PUSH2 0x5C3A DUP9 PUSH2 0x140 ADD MLOAD PUSH1 0x1 PUSH32 0x30644E72E131A029B85045B68181585D2833E84879B9709143E1F593F0000001 PUSH2 0x5C35 SWAP2 SWAP1 PUSH2 0x7420 JUMP JUMPDEST PUSH2 0x383C JUMP JUMPDEST PUSH1 0x1 PUSH2 0x3878 JUMP JUMPDEST DUP4 PUSH2 0x383C JUMP JUMPDEST PUSH2 0x5C8C PUSH2 0x5C85 DUP9 PUSH2 0x100 ADD MLOAD PUSH1 0x1 PUSH32 0x30644E72E131A029B85045B68181585D2833E84879B9709143E1F593F0000001 PUSH2 0x5C80 SWAP2 SWAP1 PUSH2 0x7420 JUMP JUMPDEST PUSH2 0x383C JUMP JUMPDEST PUSH1 0x1 PUSH2 0x3878 JUMP JUMPDEST PUSH2 0x383C JUMP JUMPDEST DUP6 PUSH2 0x180 ADD DUP2 DUP2 MSTORE POP POP PUSH2 0x5CBD PUSH2 0x5CB2 DUP7 PUSH2 0x100 ADD MLOAD DUP8 PUSH2 0x100 ADD MLOAD PUSH2 0x383C JUMP JUMPDEST DUP7 PUSH2 0x100 ADD MLOAD PUSH2 0x38B4 JUMP JUMPDEST DUP6 PUSH2 0x1C0 ADD DUP2 DUP2 MSTORE POP POP PUSH2 0x5CFC PUSH2 0x5CE3 DUP7 PUSH2 0x180 ADD MLOAD PUSH2 0x5CDE DUP13 PUSH1 0x6 PUSH2 0x6953 JUMP JUMPDEST PUSH2 0x383C JUMP JUMPDEST PUSH2 0x5CF7 PUSH2 0x5CF1 DUP13 PUSH1 0x9 PUSH2 0x6953 JUMP JUMPDEST DUP10 PUSH2 0x383C JUMP JUMPDEST PUSH2 0x383C JUMP JUMPDEST DUP8 PUSH1 0xF PUSH1 0x1A DUP2 LT PUSH2 0x5D10 JUMPI PUSH2 0x5D0F PUSH2 0x73F1 JUMP JUMPDEST JUMPDEST PUSH1 0x20 MUL ADD DUP2 DUP2 MSTORE POP POP PUSH2 0x5D4E PUSH2 0x5D35 DUP7 PUSH2 0x280 ADD MLOAD PUSH2 0x5D30 DUP13 PUSH1 0x6 PUSH2 0x6953 JUMP JUMPDEST PUSH2 0x383C JUMP JUMPDEST PUSH2 0x5D49 PUSH2 0x5D43 DUP13 PUSH1 0x9 PUSH2 0x6953 JUMP JUMPDEST DUP10 PUSH2 0x383C JUMP JUMPDEST PUSH2 0x383C JUMP JUMPDEST DUP8 PUSH1 0x10 PUSH1 0x1A DUP2 LT PUSH2 0x5D62 JUMPI PUSH2 0x5D61 PUSH2 0x73F1 JUMP JUMPDEST JUMPDEST PUSH1 0x20 MUL ADD DUP2 DUP2 MSTORE POP POP PUSH2 0x5DA0 PUSH2 0x5D87 DUP7 PUSH2 0x1C0 ADD MLOAD PUSH2 0x5D82 DUP13 PUSH1 0x6 PUSH2 0x6953 JUMP JUMPDEST PUSH2 0x383C JUMP JUMPDEST PUSH2 0x5D9B PUSH2 0x5D95 DUP13 PUSH1 0x9 PUSH2 0x6953 JUMP JUMPDEST DUP10 PUSH2 0x383C JUMP JUMPDEST PUSH2 0x383C JUMP JUMPDEST DUP8 PUSH1 0x11 PUSH1 0x1A DUP2 LT PUSH2 0x5DB4 JUMPI PUSH2 0x5DB3 PUSH2 0x73F1 JUMP JUMPDEST JUMPDEST PUSH1 0x20 MUL ADD DUP2 DUP2 MSTORE POP POP PUSH2 0x5DD6 DUP6 PUSH2 0x1A0 ADD MLOAD PUSH2 0x5DD1 DUP12 PUSH1 0x6 PUSH2 0x6953 JUMP JUMPDEST PUSH2 0x383C JUMP JUMPDEST DUP6 PUSH2 0x200 ADD DUP2 DUP2 MSTORE POP POP PUSH2 0x5DFE PUSH2 0x5DEE DUP11 PUSH1 0x28 PUSH2 0x6953 JUMP JUMPDEST PUSH2 0x5DF9 DUP12 PUSH1 0x1C PUSH2 0x6953 JUMP JUMPDEST PUSH2 0x38B4 JUMP JUMPDEST DUP6 PUSH2 0x220 ADD DUP2 DUP2 MSTORE POP POP PUSH2 0x5E6E PUSH2 0x5E5E PUSH2 0x5E53 PUSH2 0x5E4C DUP9 PUSH2 0x140 ADD MLOAD PUSH1 0x1 PUSH32 0x30644E72E131A029B85045B68181585D2833E84879B9709143E1F593F0000001 PUSH2 0x5E47 SWAP2 SWAP1 PUSH2 0x7420 JUMP JUMPDEST PUSH2 0x383C JUMP JUMPDEST PUSH1 0x1 PUSH2 0x3878 JUMP JUMPDEST DUP8 PUSH2 0x220 ADD MLOAD PUSH2 0x383C JUMP JUMPDEST PUSH2 0x5E69 DUP12 PUSH1 0x1D PUSH2 0x6953 JUMP JUMPDEST PUSH2 0x38B4 JUMP JUMPDEST DUP6 PUSH2 0x240 ADD DUP2 DUP2 MSTORE POP POP DUP5 PUSH2 0x1E0 ADD MLOAD DUP6 PUSH2 0x260 ADD DUP2 DUP2 MSTORE POP POP PUSH2 0x5EC2 DUP6 PUSH2 0x260 ADD MLOAD PUSH2 0x5EBD DUP8 PUSH2 0x240 ADD MLOAD PUSH2 0x5EB8 PUSH2 0x5EA8 DUP15 PUSH1 0x5 PUSH2 0x6953 JUMP JUMPDEST PUSH2 0x5EB3 DUP16 PUSH1 0x2 PUSH2 0x6953 JUMP JUMPDEST PUSH2 0x383C JUMP JUMPDEST PUSH2 0x383C JUMP JUMPDEST PUSH2 0x3878 JUMP JUMPDEST DUP6 PUSH2 0x260 ADD DUP2 DUP2 MSTORE POP POP PUSH2 0x5F05 DUP6 PUSH2 0x260 ADD MLOAD PUSH2 0x5F00 DUP8 PUSH1 0xC0 ADD MLOAD PUSH2 0x5EFB PUSH2 0x5EEB DUP15 PUSH1 0x0 PUSH2 0x6953 JUMP JUMPDEST PUSH2 0x5EF6 DUP16 PUSH1 0x2 PUSH2 0x6953 JUMP JUMPDEST PUSH2 0x383C JUMP JUMPDEST PUSH2 0x383C JUMP JUMPDEST PUSH2 0x3878 JUMP JUMPDEST DUP6 PUSH2 0x260 ADD DUP2 DUP2 MSTORE POP POP PUSH2 0x5F23 DUP6 PUSH2 0x260 ADD MLOAD DUP7 PUSH2 0x200 ADD MLOAD PUSH2 0x3878 JUMP JUMPDEST DUP6 PUSH2 0x260 ADD DUP2 DUP2 MSTORE POP POP PUSH2 0x5F45 PUSH2 0x5F3F DUP7 PUSH2 0x260 ADD MLOAD DUP7 PUSH2 0x3878 JUMP JUMPDEST DUP5 PUSH2 0x3878 JUMP JUMPDEST DUP6 PUSH2 0x2A0 ADD DUP2 DUP2 MSTORE POP POP PUSH2 0x5F71 DUP6 PUSH2 0x2A0 ADD MLOAD PUSH2 0x5F6C PUSH2 0x5F66 DUP13 PUSH1 0x9 PUSH2 0x6953 JUMP JUMPDEST DUP10 PUSH2 0x383C JUMP JUMPDEST PUSH2 0x383C JUMP JUMPDEST DUP6 PUSH2 0x2A0 ADD DUP2 DUP2 MSTORE POP POP DUP5 PUSH2 0x2A0 ADD MLOAD DUP8 PUSH1 0xC PUSH1 0x1A DUP2 LT PUSH2 0x5F95 JUMPI PUSH2 0x5F94 PUSH2 0x73F1 JUMP JUMPDEST JUMPDEST PUSH1 0x20 MUL ADD DUP2 DUP2 MSTORE POP POP POP POP POP POP POP POP POP POP POP JUMP JUMPDEST PUSH2 0x5FB1 PUSH2 0x6F7B JUMP JUMPDEST PUSH2 0x5FCF PUSH2 0x5FBF DUP6 PUSH1 0x1B PUSH2 0x6953 JUMP JUMPDEST PUSH2 0x5FCA DUP7 PUSH1 0x2 PUSH2 0x6953 JUMP JUMPDEST PUSH2 0x3878 JUMP JUMPDEST DUP2 PUSH1 0x0 ADD DUP2 DUP2 MSTORE POP POP PUSH2 0x5FF6 PUSH2 0x5FE6 DUP6 PUSH1 0x1C PUSH2 0x6953 JUMP JUMPDEST PUSH2 0x5FF1 DUP7 PUSH1 0x3 PUSH2 0x6953 JUMP JUMPDEST PUSH2 0x3878 JUMP JUMPDEST DUP2 PUSH1 0x20 ADD DUP2 DUP2 MSTORE POP POP PUSH2 0x601D PUSH2 0x600D DUP6 PUSH1 0x1D PUSH2 0x6953 JUMP JUMPDEST PUSH2 0x6018 DUP7 PUSH1 0x4 PUSH2 0x6953 JUMP JUMPDEST PUSH2 0x3878 JUMP JUMPDEST DUP2 PUSH1 0x40 ADD DUP2 DUP2 MSTORE POP POP PUSH2 0x6044 PUSH2 0x6034 DUP6 PUSH1 0x1E PUSH2 0x6953 JUMP JUMPDEST PUSH2 0x603F DUP7 PUSH1 0x5 PUSH2 0x6953 JUMP JUMPDEST PUSH2 0x3878 JUMP JUMPDEST DUP2 PUSH1 0x60 ADD DUP2 DUP2 MSTORE POP POP PUSH2 0x6086 PUSH2 0x607C PUSH2 0x6072 PUSH2 0x6068 DUP5 PUSH1 0x0 ADD MLOAD DUP6 PUSH1 0x0 ADD MLOAD PUSH2 0x383C JUMP JUMPDEST DUP5 PUSH1 0x0 ADD MLOAD PUSH2 0x383C JUMP JUMPDEST DUP4 PUSH1 0x0 ADD MLOAD PUSH2 0x383C JUMP JUMPDEST DUP3 PUSH1 0x0 ADD MLOAD PUSH2 0x383C JUMP JUMPDEST DUP2 PUSH1 0x80 ADD DUP2 DUP2 MSTORE POP POP PUSH2 0x60C8 PUSH2 0x60BE PUSH2 0x60B4 PUSH2 0x60AA DUP5 PUSH1 0x20 ADD MLOAD DUP6 PUSH1 0x20 ADD MLOAD PUSH2 0x383C JUMP JUMPDEST DUP5 PUSH1 0x20 ADD MLOAD PUSH2 0x383C JUMP JUMPDEST DUP4 PUSH1 0x20 ADD MLOAD PUSH2 0x383C JUMP JUMPDEST DUP3 PUSH1 0x20 ADD MLOAD PUSH2 0x383C JUMP JUMPDEST DUP2 PUSH1 0xA0 ADD DUP2 DUP2 MSTORE POP POP PUSH2 0x610A PUSH2 0x6100 PUSH2 0x60F6 PUSH2 0x60EC DUP5 PUSH1 0x40 ADD MLOAD DUP6 PUSH1 0x40 ADD MLOAD PUSH2 0x383C JUMP JUMPDEST DUP5 PUSH1 0x40 ADD MLOAD PUSH2 0x383C JUMP JUMPDEST DUP4 PUSH1 0x40 ADD MLOAD PUSH2 0x383C JUMP JUMPDEST DUP3 PUSH1 0x40 ADD MLOAD PUSH2 0x383C JUMP JUMPDEST DUP2 PUSH1 0xC0 ADD DUP2 DUP2 MSTORE POP POP PUSH2 0x614C PUSH2 0x6142 PUSH2 0x6138 PUSH2 0x612E DUP5 PUSH1 0x60 ADD MLOAD DUP6 PUSH1 0x60 ADD MLOAD PUSH2 0x383C JUMP JUMPDEST DUP5 PUSH1 0x60 ADD MLOAD PUSH2 0x383C JUMP JUMPDEST DUP4 PUSH1 0x60 ADD MLOAD PUSH2 0x383C JUMP JUMPDEST DUP3 PUSH1 0x60 ADD MLOAD PUSH2 0x383C JUMP JUMPDEST DUP2 PUSH1 0xE0 ADD DUP2 DUP2 MSTORE POP POP PUSH2 0x6167 DUP2 PUSH1 0x80 ADD MLOAD DUP3 PUSH1 0xA0 ADD MLOAD PUSH2 0x3878 JUMP JUMPDEST DUP2 PUSH2 0x100 ADD DUP2 DUP2 MSTORE POP POP PUSH2 0x6183 DUP2 PUSH1 0xC0 ADD MLOAD DUP3 PUSH1 0xE0 ADD MLOAD PUSH2 0x3878 JUMP JUMPDEST DUP2 PUSH2 0x120 ADD DUP2 DUP2 MSTORE POP POP PUSH2 0x61AD PUSH2 0x61A2 DUP3 PUSH1 0xA0 ADD MLOAD DUP4 PUSH1 0xA0 ADD MLOAD PUSH2 0x3878 JUMP JUMPDEST DUP3 PUSH2 0x120 ADD MLOAD PUSH2 0x3878 JUMP JUMPDEST DUP2 PUSH2 0x140 ADD DUP2 DUP2 MSTORE POP POP PUSH2 0x61D7 PUSH2 0x61CC DUP3 PUSH1 0xE0 ADD MLOAD DUP4 PUSH1 0xE0 ADD MLOAD PUSH2 0x3878 JUMP JUMPDEST DUP3 PUSH2 0x100 ADD MLOAD PUSH2 0x3878 JUMP JUMPDEST DUP2 PUSH2 0x160 ADD DUP2 DUP2 MSTORE POP POP PUSH2 0x61F5 DUP2 PUSH2 0x120 ADD MLOAD DUP3 PUSH2 0x120 ADD MLOAD PUSH2 0x3878 JUMP JUMPDEST DUP2 PUSH2 0x1E0 ADD DUP2 DUP2 MSTORE POP POP PUSH2 0x6221 PUSH2 0x6216 DUP3 PUSH2 0x1E0 ADD MLOAD DUP4 PUSH2 0x1E0 ADD MLOAD PUSH2 0x3878 JUMP JUMPDEST DUP3 PUSH2 0x160 ADD MLOAD PUSH2 0x3878 JUMP JUMPDEST DUP2 PUSH2 0x1E0 ADD DUP2 DUP2 MSTORE POP POP PUSH2 0x623F DUP2 PUSH2 0x100 ADD MLOAD DUP3 PUSH2 0x100 ADD MLOAD PUSH2 0x3878 JUMP JUMPDEST DUP2 PUSH2 0x1A0 ADD DUP2 DUP2 MSTORE POP POP PUSH2 0x626B PUSH2 0x6260 DUP3 PUSH2 0x1A0 ADD MLOAD DUP4 PUSH2 0x1A0 ADD MLOAD PUSH2 0x3878 JUMP JUMPDEST DUP3 PUSH2 0x140 ADD MLOAD PUSH2 0x3878 JUMP JUMPDEST DUP2 PUSH2 0x1A0 ADD DUP2 DUP2 MSTORE POP POP PUSH2 0x6289 DUP2 PUSH2 0x160 ADD MLOAD DUP3 PUSH2 0x1A0 ADD MLOAD PUSH2 0x3878 JUMP JUMPDEST DUP2 PUSH2 0x180 ADD DUP2 DUP2 MSTORE POP POP PUSH2 0x62A7 DUP2 PUSH2 0x140 ADD MLOAD DUP3 PUSH2 0x1E0 ADD MLOAD PUSH2 0x3878 JUMP JUMPDEST DUP2 PUSH2 0x1C0 ADD DUP2 DUP2 MSTORE POP POP PUSH2 0x62C5 PUSH2 0x62BF DUP6 PUSH1 0xB PUSH2 0x6953 JUMP JUMPDEST DUP4 PUSH2 0x383C JUMP JUMPDEST DUP2 PUSH2 0x200 ADD DUP2 DUP2 MSTORE POP POP PUSH2 0x6317 DUP4 PUSH1 0x12 PUSH1 0x1A DUP2 LT PUSH2 0x62E6 JUMPI PUSH2 0x62E5 PUSH2 0x73F1 JUMP JUMPDEST JUMPDEST PUSH1 0x20 MUL ADD MLOAD PUSH2 0x6312 DUP4 PUSH2 0x200 ADD MLOAD PUSH2 0x630D DUP6 PUSH2 0x180 ADD MLOAD PUSH2 0x6308 DUP11 PUSH1 0x27 PUSH2 0x6953 JUMP JUMPDEST PUSH2 0x38B4 JUMP JUMPDEST PUSH2 0x383C JUMP JUMPDEST PUSH2 0x3878 JUMP JUMPDEST DUP4 PUSH1 0x12 PUSH1 0x1A DUP2 LT PUSH2 0x632B JUMPI PUSH2 0x632A PUSH2 0x73F1 JUMP JUMPDEST JUMPDEST PUSH1 0x20 MUL ADD DUP2 DUP2 MSTORE POP POP PUSH2 0x637C DUP4 PUSH1 0x13 PUSH1 0x1A DUP2 LT PUSH2 0x634B JUMPI PUSH2 0x634A PUSH2 0x73F1 JUMP JUMPDEST JUMPDEST PUSH1 0x20 MUL ADD MLOAD PUSH2 0x6377 DUP4 PUSH2 0x200 ADD MLOAD PUSH2 0x6372 DUP6 PUSH2 0x1A0 ADD MLOAD PUSH2 0x636D DUP11 PUSH1 0x28 PUSH2 0x6953 JUMP JUMPDEST PUSH2 0x38B4 JUMP JUMPDEST PUSH2 0x383C JUMP JUMPDEST PUSH2 0x3878 JUMP JUMPDEST DUP4 PUSH1 0x13 PUSH1 0x1A DUP2 LT PUSH2 0x6390 JUMPI PUSH2 0x638F PUSH2 0x73F1 JUMP JUMPDEST JUMPDEST PUSH1 0x20 MUL ADD DUP2 DUP2 MSTORE POP POP PUSH2 0x63E1 DUP4 PUSH1 0x14 PUSH1 0x1A DUP2 LT PUSH2 0x63B0 JUMPI PUSH2 0x63AF PUSH2 0x73F1 JUMP JUMPDEST JUMPDEST PUSH1 0x20 MUL ADD MLOAD PUSH2 0x63DC DUP4 PUSH2 0x200 ADD MLOAD PUSH2 0x63D7 DUP6 PUSH2 0x1C0 ADD MLOAD PUSH2 0x63D2 DUP11 PUSH1 0x29 PUSH2 0x6953 JUMP JUMPDEST PUSH2 0x38B4 JUMP JUMPDEST PUSH2 0x383C JUMP JUMPDEST PUSH2 0x3878 JUMP JUMPDEST DUP4 PUSH1 0x14 PUSH1 0x1A DUP2 LT PUSH2 0x63F5 JUMPI PUSH2 0x63F4 PUSH2 0x73F1 JUMP JUMPDEST JUMPDEST PUSH1 0x20 MUL ADD DUP2 DUP2 MSTORE POP POP PUSH2 0x6446 DUP4 PUSH1 0x15 PUSH1 0x1A DUP2 LT PUSH2 0x6415 JUMPI PUSH2 0x6414 PUSH2 0x73F1 JUMP JUMPDEST JUMPDEST PUSH1 0x20 MUL ADD MLOAD PUSH2 0x6441 DUP4 PUSH2 0x200 ADD MLOAD PUSH2 0x643C DUP6 PUSH2 0x1E0 ADD MLOAD PUSH2 0x6437 DUP11 PUSH1 0x2A PUSH2 0x6953 JUMP JUMPDEST PUSH2 0x38B4 JUMP JUMPDEST PUSH2 0x383C JUMP JUMPDEST PUSH2 0x3878 JUMP JUMPDEST DUP4 PUSH1 0x15 PUSH1 0x1A DUP2 LT PUSH2 0x645A JUMPI PUSH2 0x6459 PUSH2 0x73F1 JUMP JUMPDEST JUMPDEST PUSH1 0x20 MUL ADD DUP2 DUP2 MSTORE POP POP POP POP POP POP JUMP JUMPDEST PUSH2 0x6471 PUSH2 0x6FFF JUMP JUMPDEST PUSH1 0x0 PUSH1 0x40 MLOAD DUP1 PUSH1 0x80 ADD PUSH1 0x40 MSTORE DUP1 PUSH2 0x64A7 PUSH32 0x10DC6E9C006EA38B04B1E03B4BD9490C0D03F98929CA1D7FB56821FD19D3B6E7 PUSH2 0x3807 JUMP JUMPDEST DUP2 MSTORE PUSH1 0x20 ADD PUSH2 0x64D5 PUSH32 0xC28145B6A44DF3E0149B3D0A30B3BB599DF9756D4DD9B84A86B38CFB45A740B PUSH2 0x3807 JUMP JUMPDEST DUP2 MSTORE PUSH1 0x20 ADD PUSH2 0x6502 PUSH31 0x544B8338791518B2C7645A50392798B21F75BB60E3596170067D00141CAC15 PUSH2 0x3807 JUMP JUMPDEST DUP2 MSTORE PUSH1 0x20 ADD PUSH2 0x6530 PUSH32 0x222C01175718386F2E2E82EB122789E352E105A3B8FA852613BC534433EE428B PUSH2 0x3807 JUMP JUMPDEST DUP2 MSTORE POP SWAP1 POP PUSH2 0x6553 PUSH2 0x6543 DUP7 PUSH1 0x1B PUSH2 0x6953 JUMP JUMPDEST PUSH2 0x654E DUP8 PUSH1 0x2 PUSH2 0x6953 JUMP JUMPDEST PUSH2 0x3878 JUMP JUMPDEST DUP3 PUSH2 0x120 ADD DUP2 DUP2 MSTORE POP POP PUSH2 0x659B PUSH2 0x6590 PUSH2 0x6585 PUSH2 0x657A DUP6 PUSH2 0x120 ADD MLOAD DUP7 PUSH2 0x120 ADD MLOAD PUSH2 0x383C JUMP JUMPDEST DUP6 PUSH2 0x120 ADD MLOAD PUSH2 0x383C JUMP JUMPDEST DUP5 PUSH2 0x120 ADD MLOAD PUSH2 0x383C JUMP JUMPDEST DUP4 PUSH2 0x120 ADD MLOAD PUSH2 0x383C JUMP JUMPDEST DUP3 PUSH1 0x0 ADD DUP2 DUP2 MSTORE POP POP PUSH2 0x65AF DUP6 PUSH1 0x1C PUSH2 0x6953 JUMP JUMPDEST DUP3 PUSH1 0x20 ADD DUP2 DUP2 MSTORE POP POP PUSH2 0x65C3 DUP6 PUSH1 0x1D PUSH2 0x6953 JUMP JUMPDEST DUP3 PUSH1 0x40 ADD DUP2 DUP2 MSTORE POP POP PUSH2 0x65D7 DUP6 PUSH1 0x1E PUSH2 0x6953 JUMP JUMPDEST DUP3 PUSH1 0x60 ADD DUP2 DUP2 MSTORE POP POP PUSH2 0x660C PUSH2 0x6602 PUSH2 0x65F8 DUP5 PUSH1 0x0 ADD MLOAD DUP6 PUSH1 0x20 ADD MLOAD PUSH2 0x3878 JUMP JUMPDEST DUP5 PUSH1 0x40 ADD MLOAD PUSH2 0x3878 JUMP JUMPDEST DUP4 PUSH1 0x60 ADD MLOAD PUSH2 0x3878 JUMP JUMPDEST DUP3 PUSH1 0x80 ADD DUP2 DUP2 MSTORE POP POP PUSH2 0x6629 PUSH2 0x6623 DUP7 PUSH1 0xC PUSH2 0x6953 JUMP JUMPDEST DUP5 PUSH2 0x383C JUMP JUMPDEST DUP3 PUSH2 0x140 ADD DUP2 DUP2 MSTORE POP POP PUSH2 0x6666 PUSH2 0x665C DUP4 PUSH1 0x0 ADD MLOAD DUP4 PUSH1 0x0 PUSH1 0x4 DUP2 LT PUSH2 0x6652 JUMPI PUSH2 0x6651 PUSH2 0x73F1 JUMP JUMPDEST JUMPDEST PUSH1 0x20 MUL ADD MLOAD PUSH2 0x383C JUMP JUMPDEST DUP4 PUSH1 0x80 ADD MLOAD PUSH2 0x3878 JUMP JUMPDEST DUP3 PUSH1 0xA0 ADD DUP2 DUP2 MSTORE POP POP PUSH2 0x66B6 DUP5 PUSH1 0x16 PUSH1 0x1A DUP2 LT PUSH2 0x6686 JUMPI PUSH2 0x6685 PUSH2 0x73F1 JUMP JUMPDEST JUMPDEST PUSH1 0x20 MUL ADD MLOAD PUSH2 0x66B1 DUP5 PUSH2 0x140 ADD MLOAD PUSH2 0x66AC DUP7 PUSH1 0xA0 ADD MLOAD PUSH2 0x66A7 DUP12 PUSH1 0x27 PUSH2 0x6953 JUMP JUMPDEST PUSH2 0x38B4 JUMP JUMPDEST PUSH2 0x383C JUMP JUMPDEST PUSH2 0x3878 JUMP JUMPDEST DUP5 PUSH1 0x16 PUSH1 0x1A DUP2 LT PUSH2 0x66CA JUMPI PUSH2 0x66C9 PUSH2 0x73F1 JUMP JUMPDEST JUMPDEST PUSH1 0x20 MUL ADD DUP2 DUP2 MSTORE POP POP PUSH2 0x6706 PUSH2 0x66FC DUP4 PUSH1 0x20 ADD MLOAD DUP4 PUSH1 0x1 PUSH1 0x4 DUP2 LT PUSH2 0x66F2 JUMPI PUSH2 0x66F1 PUSH2 0x73F1 JUMP JUMPDEST JUMPDEST PUSH1 0x20 MUL ADD MLOAD PUSH2 0x383C JUMP JUMPDEST DUP4 PUSH1 0x80 ADD MLOAD PUSH2 0x3878 JUMP JUMPDEST DUP3 PUSH1 0xC0 ADD DUP2 DUP2 MSTORE POP POP PUSH2 0x6756 DUP5 PUSH1 0x17 PUSH1 0x1A DUP2 LT PUSH2 0x6726 JUMPI PUSH2 0x6725 PUSH2 0x73F1 JUMP JUMPDEST JUMPDEST PUSH1 0x20 MUL ADD MLOAD PUSH2 0x6751 DUP5 PUSH2 0x140 ADD MLOAD PUSH2 0x674C DUP7 PUSH1 0xC0 ADD MLOAD PUSH2 0x6747 DUP12 PUSH1 0x28 PUSH2 0x6953 JUMP JUMPDEST PUSH2 0x38B4 JUMP JUMPDEST PUSH2 0x383C JUMP JUMPDEST PUSH2 0x3878 JUMP JUMPDEST DUP5 PUSH1 0x17 PUSH1 0x1A DUP2 LT PUSH2 0x676A JUMPI PUSH2 0x6769 PUSH2 0x73F1 JUMP JUMPDEST JUMPDEST PUSH1 0x20 MUL ADD DUP2 DUP2 MSTORE POP POP PUSH2 0x67A6 PUSH2 0x679C DUP4 PUSH1 0x40 ADD MLOAD DUP4 PUSH1 0x2 PUSH1 0x4 DUP2 LT PUSH2 0x6792 JUMPI PUSH2 0x6791 PUSH2 0x73F1 JUMP JUMPDEST JUMPDEST PUSH1 0x20 MUL ADD MLOAD PUSH2 0x383C JUMP JUMPDEST DUP4 PUSH1 0x80 ADD MLOAD PUSH2 0x3878 JUMP JUMPDEST DUP3 PUSH1 0xE0 ADD DUP2 DUP2 MSTORE POP POP PUSH2 0x67F6 DUP5 PUSH1 0x18 PUSH1 0x1A DUP2 LT PUSH2 0x67C6 JUMPI PUSH2 0x67C5 PUSH2 0x73F1 JUMP JUMPDEST JUMPDEST PUSH1 0x20 MUL ADD MLOAD PUSH2 0x67F1 DUP5 PUSH2 0x140 ADD MLOAD PUSH2 0x67EC DUP7 PUSH1 0xE0 ADD MLOAD PUSH2 0x67E7 DUP12 PUSH1 0x29 PUSH2 0x6953 JUMP JUMPDEST PUSH2 0x38B4 JUMP JUMPDEST PUSH2 0x383C JUMP JUMPDEST PUSH2 0x3878 JUMP JUMPDEST DUP5 PUSH1 0x18 PUSH1 0x1A DUP2 LT PUSH2 0x680A JUMPI PUSH2 0x6809 PUSH2 0x73F1 JUMP JUMPDEST JUMPDEST PUSH1 0x20 MUL ADD DUP2 DUP2 MSTORE POP POP PUSH2 0x6846 PUSH2 0x683C DUP4 PUSH1 0x60 ADD MLOAD DUP4 PUSH1 0x3 PUSH1 0x4 DUP2 LT PUSH2 0x6832 JUMPI PUSH2 0x6831 PUSH2 0x73F1 JUMP JUMPDEST JUMPDEST PUSH1 0x20 MUL ADD MLOAD PUSH2 0x383C JUMP JUMPDEST DUP4 PUSH1 0x80 ADD MLOAD PUSH2 0x3878 JUMP JUMPDEST DUP3 PUSH2 0x100 ADD DUP2 DUP2 MSTORE POP POP PUSH2 0x6898 DUP5 PUSH1 0x19 PUSH1 0x1A DUP2 LT PUSH2 0x6867 JUMPI PUSH2 0x6866 PUSH2 0x73F1 JUMP JUMPDEST JUMPDEST PUSH1 0x20 MUL ADD MLOAD PUSH2 0x6893 DUP5 PUSH2 0x140 ADD MLOAD PUSH2 0x688E DUP7 PUSH2 0x100 ADD MLOAD PUSH2 0x6889 DUP12 PUSH1 0x2A PUSH2 0x6953 JUMP JUMPDEST PUSH2 0x38B4 JUMP JUMPDEST PUSH2 0x383C JUMP JUMPDEST PUSH2 0x3878 JUMP JUMPDEST DUP5 PUSH1 0x19 PUSH1 0x1A DUP2 LT PUSH2 0x68AC JUMPI PUSH2 0x68AB PUSH2 0x73F1 JUMP JUMPDEST JUMPDEST PUSH1 0x20 MUL ADD DUP2 DUP2 MSTORE POP POP POP POP POP POP POP JUMP JUMPDEST PUSH1 0x0 PUSH2 0x68E0 DUP2 DUP5 PUSH1 0x0 PUSH1 0x1A DUP2 LT PUSH2 0x68D6 JUMPI PUSH2 0x68D5 PUSH2 0x73F1 JUMP JUMPDEST JUMPDEST PUSH1 0x20 MUL ADD MLOAD PUSH2 0x3878 JUMP JUMPDEST SWAP1 POP PUSH1 0x0 PUSH1 0x1 SWAP1 POP JUMPDEST PUSH1 0x1A DUP2 LT ISZERO PUSH2 0x694C JUMPI PUSH2 0x693F DUP3 PUSH2 0x693A DUP7 DUP5 PUSH1 0x1A DUP2 LT PUSH2 0x690C JUMPI PUSH2 0x690B PUSH2 0x73F1 JUMP JUMPDEST JUMPDEST PUSH1 0x20 MUL ADD MLOAD DUP7 PUSH1 0x1 DUP7 PUSH2 0x691F SWAP2 SWAP1 PUSH2 0x7420 JUMP JUMPDEST PUSH1 0x19 DUP2 LT PUSH2 0x6930 JUMPI PUSH2 0x692F PUSH2 0x73F1 JUMP JUMPDEST JUMPDEST PUSH1 0x20 MUL ADD MLOAD PUSH2 0x383C JUMP JUMPDEST PUSH2 0x3878 JUMP JUMPDEST SWAP2 POP DUP1 PUSH1 0x1 ADD SWAP1 POP PUSH2 0x68E9 JUMP JUMPDEST POP SWAP3 SWAP2 POP POP JUMP JUMPDEST PUSH1 0x0 DUP3 DUP3 PUSH1 0x2B DUP2 GT ISZERO PUSH2 0x6969 JUMPI PUSH2 0x6968 PUSH2 0x7D15 JUMP JUMPDEST JUMPDEST PUSH1 0x2C DUP2 LT PUSH2 0x697A JUMPI PUSH2 0x6979 PUSH2 0x73F1 JUMP JUMPDEST JUMPDEST PUSH1 0x20 MUL ADD MLOAD SWAP1 POP SWAP3 SWAP2 POP POP JUMP JUMPDEST PUSH1 0x40 MLOAD DUP1 PUSH2 0x3C0 ADD PUSH1 0x40 MSTORE DUP1 PUSH1 0x0 DUP2 MSTORE PUSH1 0x20 ADD PUSH1 0x0 DUP2 MSTORE PUSH1 0x20 ADD PUSH1 0x0 DUP2 MSTORE PUSH1 0x20 ADD PUSH2 0x69B0 PUSH2 0x6E7D JUMP JUMPDEST DUP2 MSTORE PUSH1 0x20 ADD PUSH2 0x69BD PUSH2 0x6E7D JUMP JUMPDEST DUP2 MSTORE PUSH1 0x20 ADD PUSH2 0x69CA PUSH2 0x6E7D JUMP JUMPDEST DUP2 MSTORE PUSH1 0x20 ADD PUSH2 0x69D7 PUSH2 0x6E7D JUMP JUMPDEST DUP2 MSTORE PUSH1 0x20 ADD PUSH2 0x69E4 PUSH2 0x6E7D JUMP JUMPDEST DUP2 MSTORE PUSH1 0x20 ADD PUSH2 0x69F1 PUSH2 0x6E7D JUMP JUMPDEST DUP2 MSTORE PUSH1 0x20 ADD PUSH2 0x69FE PUSH2 0x6E7D JUMP JUMPDEST DUP2 MSTORE PUSH1 0x20 ADD PUSH2 0x6A0B PUSH2 0x6E7D JUMP JUMPDEST DUP2 MSTORE PUSH1 0x20 ADD PUSH2 0x6A18 PUSH2 0x6E7D JUMP JUMPDEST DUP2 MSTORE PUSH1 0x20 ADD PUSH2 0x6A25 PUSH2 0x6E7D JUMP JUMPDEST DUP2 MSTORE PUSH1 0x20 ADD PUSH2 0x6A32 PUSH2 0x6E7D JUMP JUMPDEST DUP2 MSTORE PUSH1 0x20 ADD PUSH2 0x6A3F PUSH2 0x6E7D JUMP JUMPDEST DUP2 MSTORE PUSH1 0x20 ADD PUSH2 0x6A4C PUSH2 0x6E7D JUMP JUMPDEST DUP2 MSTORE PUSH1 0x20 ADD PUSH2 0x6A59 PUSH2 0x6E7D JUMP JUMPDEST DUP2 MSTORE PUSH1 0x20 ADD PUSH2 0x6A66 PUSH2 0x6E7D JUMP JUMPDEST DUP2 MSTORE PUSH1 0x20 ADD PUSH2 0x6A73 PUSH2 0x6E7D JUMP JUMPDEST DUP2 MSTORE PUSH1 0x20 ADD PUSH2 0x6A80 PUSH2 0x6E7D JUMP JUMPDEST DUP2 MSTORE PUSH1 0x20 ADD PUSH2 0x6A8D PUSH2 0x6E7D JUMP JUMPDEST DUP2 MSTORE PUSH1 0x20 ADD PUSH2 0x6A9A PUSH2 0x6E7D JUMP JUMPDEST DUP2 MSTORE PUSH1 0x20 ADD PUSH2 0x6AA7 PUSH2 0x6E7D JUMP JUMPDEST DUP2 MSTORE PUSH1 0x20 ADD PUSH2 0x6AB4 PUSH2 0x6E7D JUMP JUMPDEST DUP2 MSTORE PUSH1 0x20 ADD PUSH2 0x6AC1 PUSH2 0x6E7D JUMP JUMPDEST DUP2 MSTORE PUSH1 0x20 ADD PUSH2 0x6ACE PUSH2 0x6E7D JUMP JUMPDEST DUP2 MSTORE PUSH1 0x20 ADD PUSH2 0x6ADB PUSH2 0x6E7D JUMP JUMPDEST DUP2 MSTORE PUSH1 0x20 ADD PUSH2 0x6AE8 PUSH2 0x6E7D JUMP JUMPDEST DUP2 MSTORE PUSH1 0x20 ADD PUSH2 0x6AF5 PUSH2 0x6E7D JUMP JUMPDEST DUP2 MSTORE PUSH1 0x20 ADD PUSH2 0x6B02 PUSH2 0x6E7D JUMP JUMPDEST DUP2 MSTORE POP SWAP1 JUMP JUMPDEST PUSH1 0x40 MLOAD DUP1 PUSH2 0x220 ADD PUSH1 0x40 MSTORE DUP1 PUSH1 0x0 DUP2 MSTORE PUSH1 0x20 ADD PUSH1 0x0 DUP2 MSTORE PUSH1 0x20 ADD PUSH1 0x0 DUP2 MSTORE PUSH1 0x20 ADD PUSH2 0x6B31 PUSH2 0x7059 JUMP JUMPDEST DUP2 MSTORE PUSH1 0x20 ADD PUSH2 0x6B3E PUSH2 0x7059 JUMP JUMPDEST DUP2 MSTORE PUSH1 0x20 ADD PUSH2 0x6B4B PUSH2 0x7059 JUMP JUMPDEST DUP2 MSTORE PUSH1 0x20 ADD PUSH2 0x6B58 PUSH2 0x7059 JUMP JUMPDEST DUP2 MSTORE PUSH1 0x20 ADD PUSH2 0x6B65 PUSH2 0x7059 JUMP JUMPDEST DUP2 MSTORE PUSH1 0x20 ADD PUSH2 0x6B72 PUSH2 0x7059 JUMP JUMPDEST DUP2 MSTORE PUSH1 0x20 ADD PUSH2 0x6B7F PUSH2 0x7059 JUMP JUMPDEST DUP2 MSTORE PUSH1 0x20 ADD PUSH2 0x6B8C PUSH2 0x7059 JUMP JUMPDEST DUP2 MSTORE PUSH1 0x20 ADD PUSH2 0x6B99 PUSH2 0x7081 JUMP JUMPDEST DUP2 MSTORE PUSH1 0x20 ADD PUSH2 0x6BA6 PUSH2 0x70AF JUMP JUMPDEST DUP2 MSTORE PUSH1 0x20 ADD PUSH2 0x6BB3 PUSH2 0x70D2 JUMP JUMPDEST DUP2 MSTORE PUSH1 0x20 ADD PUSH2 0x6BC0 PUSH2 0x6D43 JUMP JUMPDEST DUP2 MSTORE PUSH1 0x20 ADD PUSH2 0x6BCD PUSH2 0x7059 JUMP JUMPDEST DUP2 MSTORE PUSH1 0x20 ADD PUSH2 0x6BDA PUSH2 0x7059 JUMP JUMPDEST DUP2 MSTORE POP SWAP1 JUMP JUMPDEST PUSH1 0x40 MLOAD DUP1 PUSH2 0x1A0 ADD PUSH1 0x40 MSTORE DUP1 PUSH1 0x0 DUP2 MSTORE PUSH1 0x20 ADD PUSH1 0x0 DUP2 MSTORE PUSH1 0x20 ADD PUSH1 0x0 DUP2 MSTORE PUSH1 0x20 ADD PUSH1 0x0 DUP2 MSTORE PUSH1 0x20 ADD PUSH1 0x0 DUP2 MSTORE PUSH1 0x20 ADD PUSH2 0x6C17 PUSH2 0x6CFD JUMP JUMPDEST DUP2 MSTORE PUSH1 0x20 ADD PUSH2 0x6C24 PUSH2 0x6D43 JUMP JUMPDEST DUP2 MSTORE PUSH1 0x20 ADD PUSH2 0x6C31 PUSH2 0x6D43 JUMP JUMPDEST DUP2 MSTORE PUSH1 0x20 ADD PUSH1 0x0 DUP2 MSTORE PUSH1 0x20 ADD PUSH1 0x0 DUP2 MSTORE PUSH1 0x20 ADD PUSH1 0x0 DUP2 MSTORE PUSH1 0x20 ADD PUSH1 0x0 DUP2 MSTORE PUSH1 0x20 ADD PUSH1 0x0 DUP2 MSTORE POP SWAP1 JUMP JUMPDEST PUSH1 0x40 MLOAD DUP1 PUSH1 0xA0 ADD PUSH1 0x40 MSTORE DUP1 PUSH1 0x0 DUP2 MSTORE PUSH1 0x20 ADD PUSH1 0x0 DUP2 MSTORE PUSH1 0x20 ADD PUSH1 0x0 DUP2 MSTORE PUSH1 0x20 ADD PUSH1 0x0 DUP2 MSTORE PUSH1 0x20 ADD PUSH1 0x0 DUP2 MSTORE POP SWAP1 JUMP JUMPDEST PUSH1 0x40 MLOAD DUP1 PUSH2 0x940 ADD PUSH1 0x40 MSTORE DUP1 PUSH1 0x4A SWAP1 PUSH1 0x20 DUP3 MUL DUP1 CALLDATASIZE DUP4 CALLDATACOPY DUP1 DUP3 ADD SWAP2 POP POP SWAP1 POP POP SWAP1 JUMP JUMPDEST PUSH1 0x40 MLOAD DUP1 PUSH2 0x940 ADD PUSH1 0x40 MSTORE DUP1 PUSH1 0x4A SWAP1 JUMPDEST PUSH2 0x6CC4 PUSH2 0x6E7D JUMP JUMPDEST DUP2 MSTORE PUSH1 0x20 ADD SWAP1 PUSH1 0x1 SWAP1 SUB SWAP1 DUP2 PUSH2 0x6CBC JUMPI SWAP1 POP POP SWAP1 JUMP JUMPDEST PUSH1 0x40 MLOAD DUP1 PUSH2 0x1A0 ADD PUSH1 0x40 MSTORE DUP1 PUSH1 0xD SWAP1 PUSH1 0x20 DUP3 MUL DUP1 CALLDATASIZE DUP4 CALLDATACOPY DUP1 DUP3 ADD SWAP2 POP POP SWAP1 POP POP SWAP1 JUMP JUMPDEST PUSH1 0x40 MLOAD DUP1 PUSH2 0x320 ADD PUSH1 0x40 MSTORE DUP1 PUSH1 0x19 SWAP1 PUSH1 0x20 DUP3 MUL DUP1 CALLDATASIZE DUP4 CALLDATACOPY DUP1 DUP3 ADD SWAP2 POP POP SWAP1 POP POP SWAP1 JUMP JUMPDEST PUSH1 0x40 MLOAD DUP1 PUSH2 0x120 ADD PUSH1 0x40 MSTORE DUP1 PUSH1 0x9 SWAP1 PUSH1 0x20 DUP3 MUL DUP1 CALLDATASIZE DUP4 CALLDATACOPY DUP1 DUP3 ADD SWAP2 POP POP SWAP1 POP POP SWAP1 JUMP JUMPDEST PUSH1 0x40 MLOAD DUP1 PUSH2 0x380 ADD PUSH1 0x40 MSTORE DUP1 PUSH1 0x1C SWAP1 PUSH1 0x20 DUP3 MUL DUP1 CALLDATASIZE DUP4 CALLDATACOPY DUP1 DUP3 ADD SWAP2 POP POP SWAP1 POP POP SWAP1 JUMP JUMPDEST PUSH1 0x40 MLOAD DUP1 PUSH2 0x120 ADD PUSH1 0x40 MSTORE DUP1 PUSH1 0x9 SWAP1 PUSH1 0x20 DUP3 MUL DUP1 CALLDATASIZE DUP4 CALLDATACOPY DUP1 DUP3 ADD SWAP2 POP POP SWAP1 POP POP SWAP1 JUMP JUMPDEST PUSH1 0x40 MLOAD DUP1 PUSH2 0x5A0 ADD PUSH1 0x40 MSTORE DUP1 PUSH1 0x2D SWAP1 PUSH1 0x20 DUP3 MUL DUP1 CALLDATASIZE DUP4 CALLDATACOPY DUP1 DUP3 ADD SWAP2 POP POP SWAP1 POP POP SWAP1 JUMP JUMPDEST PUSH1 0x40 MLOAD DUP1 PUSH2 0xDA0 ADD PUSH1 0x40 MSTORE DUP1 PUSH1 0x6D SWAP1 PUSH1 0x20 DUP3 MUL DUP1 CALLDATASIZE DUP4 CALLDATACOPY DUP1 DUP3 ADD SWAP2 POP POP SWAP1 POP POP SWAP1 JUMP JUMPDEST PUSH1 0x40 MLOAD DUP1 PUSH2 0x3A0 ADD PUSH1 0x40 MSTORE DUP1 PUSH1 0x1D SWAP1 PUSH1 0x20 DUP3 MUL DUP1 CALLDATASIZE DUP4 CALLDATACOPY DUP1 DUP3 ADD SWAP2 POP POP SWAP1 POP POP SWAP1 JUMP JUMPDEST PUSH1 0x40 MLOAD DUP1 PUSH1 0xA0 ADD PUSH1 0x40 MSTORE DUP1 PUSH1 0x5 SWAP1 PUSH1 0x20 DUP3 MUL DUP1 CALLDATASIZE DUP4 CALLDATACOPY DUP1 DUP3 ADD SWAP2 POP POP SWAP1 POP POP SWAP1 JUMP JUMPDEST PUSH1 0x40 MLOAD DUP1 PUSH2 0x100 ADD PUSH1 0x40 MSTORE DUP1 PUSH1 0x8 SWAP1 PUSH1 0x20 DUP3 MUL DUP1 CALLDATASIZE DUP4 CALLDATACOPY DUP1 DUP3 ADD SWAP2 POP POP SWAP1 POP POP SWAP1 JUMP JUMPDEST PUSH1 0x40 MLOAD DUP1 PUSH2 0x340 ADD PUSH1 0x40 MSTORE DUP1 PUSH1 0x1A SWAP1 PUSH1 0x20 DUP3 MUL DUP1 CALLDATASIZE DUP4 CALLDATACOPY DUP1 DUP3 ADD SWAP2 POP POP SWAP1 POP POP SWAP1 JUMP JUMPDEST PUSH1 0x40 MLOAD DUP1 PUSH2 0x3A0 ADD PUSH1 0x40 MSTORE DUP1 PUSH1 0x1D SWAP1 PUSH1 0x20 DUP3 MUL DUP1 CALLDATASIZE DUP4 CALLDATACOPY DUP1 DUP3 ADD SWAP2 POP POP SWAP1 POP POP SWAP1 JUMP JUMPDEST PUSH1 0x40 MLOAD DUP1 PUSH1 0x40 ADD PUSH1 0x40 MSTORE DUP1 PUSH1 0x0 DUP2 MSTORE PUSH1 0x20 ADD PUSH1 0x0 DUP2 MSTORE POP SWAP1 JUMP JUMPDEST PUSH1 0x40 MLOAD DUP1 PUSH1 0xE0 ADD PUSH1 0x40 MSTORE DUP1 PUSH1 0x0 DUP2 MSTORE PUSH1 0x20 ADD PUSH1 0x0 DUP2 MSTORE PUSH1 0x20 ADD PUSH1 0x0 DUP2 MSTORE PUSH1 0x20 ADD PUSH1 0x0 DUP2 MSTORE PUSH1 0x20 ADD PUSH1 0x0 DUP2 MSTORE PUSH1 0x20 ADD PUSH1 0x0 DUP2 MSTORE PUSH1 0x20 ADD PUSH1 0x0 DUP2 MSTORE POP SWAP1 JUMP JUMPDEST PUSH1 0x40 MLOAD DUP1 PUSH2 0x2C0 ADD PUSH1 0x40 MSTORE DUP1 PUSH1 0x0 DUP2 MSTORE PUSH1 0x20 ADD PUSH1 0x0 DUP2 MSTORE PUSH1 0x20 ADD PUSH1 0x0 DUP2 MSTORE PUSH1 0x20 ADD PUSH1 0x0 DUP2 MSTORE PUSH1 0x20 ADD PUSH1 0x0 DUP2 MSTORE PUSH1 0x20 ADD PUSH1 0x0 DUP2 MSTORE PUSH1 0x20 ADD PUSH1 0x0 DUP2 MSTORE PUSH1 0x20 ADD PUSH1 0x0 DUP2 MSTORE PUSH1 0x20 ADD PUSH1 0x0 DUP2 MSTORE PUSH1 0x20 ADD PUSH1 0x0 DUP2 MSTORE PUSH1 0x20 ADD PUSH1 0x0 DUP2 MSTORE PUSH1 0x20 ADD PUSH1 0x0 DUP2 MSTORE PUSH1 0x20 ADD PUSH1 0x0 DUP2 MSTORE PUSH1 0x20 ADD PUSH1 0x0 DUP2 MSTORE PUSH1 0x20 ADD PUSH1 0x0 DUP2 MSTORE PUSH1 0x20 ADD PUSH1 0x0 DUP2 MSTORE PUSH1 0x20 ADD PUSH1 0x0 DUP2 MSTORE PUSH1 0x20 ADD PUSH1 0x0 DUP2 MSTORE PUSH1 0x20 ADD PUSH1 0x0 DUP2 MSTORE PUSH1 0x20 ADD PUSH1 0x0 DUP2 MSTORE PUSH1 0x20 ADD PUSH1 0x0 DUP2 MSTORE PUSH1 0x20 ADD PUSH1 0x0 DUP2 MSTORE POP SWAP1 JUMP JUMPDEST PUSH1 0x40 MLOAD DUP1 PUSH2 0x220 ADD PUSH1 0x40 MSTORE DUP1 PUSH1 0x0 DUP2 MSTORE PUSH1 0x20 ADD PUSH1 0x0 DUP2 MSTORE PUSH1 0x20 ADD PUSH1 0x0 DUP2 MSTORE PUSH1 0x20 ADD PUSH1 0x0 DUP2 MSTORE PUSH1 0x20 ADD PUSH1 0x0 DUP2 MSTORE PUSH1 0x20 ADD PUSH1 0x0 DUP2 MSTORE PUSH1 0x20 ADD PUSH1 0x0 DUP2 MSTORE PUSH1 0x20 ADD PUSH1 0x0 DUP2 MSTORE PUSH1 0x20 ADD PUSH1 0x0 DUP2 MSTORE PUSH1 0x20 ADD PUSH1 0x0 DUP2 MSTORE PUSH1 0x20 ADD PUSH1 0x0 DUP2 MSTORE PUSH1 0x20 ADD PUSH1 0x0 DUP2 MSTORE PUSH1 0x20 ADD PUSH1 0x0 DUP2 MSTORE PUSH1 0x20 ADD PUSH1 0x0 DUP2 MSTORE PUSH1 0x20 ADD PUSH1 0x0 DUP2 MSTORE PUSH1 0x20 ADD PUSH1 0x0 DUP2 MSTORE PUSH1 0x20 ADD PUSH1 0x0 DUP2 MSTORE POP SWAP1 JUMP JUMPDEST PUSH1 0x40 MLOAD DUP1 PUSH2 0x160 ADD PUSH1 0x40 MSTORE DUP1 PUSH1 0x0 DUP2 MSTORE PUSH1 0x20 ADD PUSH1 0x0 DUP2 MSTORE PUSH1 0x20 ADD PUSH1 0x0 DUP2 MSTORE PUSH1 0x20 ADD PUSH1 0x0 DUP2 MSTORE PUSH1 0x20 ADD PUSH1 0x0 DUP2 MSTORE PUSH1 0x20 ADD PUSH1 0x0 DUP2 MSTORE PUSH1 0x20 ADD PUSH1 0x0 DUP2 MSTORE PUSH1 0x20 ADD PUSH1 0x0 DUP2 MSTORE PUSH1 0x20 ADD PUSH1 0x0 DUP2 MSTORE PUSH1 0x20 ADD PUSH1 0x0 DUP2 MSTORE PUSH1 0x20 ADD PUSH1 0x0 DUP2 MSTORE POP SWAP1 JUMP JUMPDEST PUSH1 0x40 MLOAD DUP1 PUSH1 0x80 ADD PUSH1 0x40 MSTORE DUP1 PUSH1 0x0 DUP2 MSTORE PUSH1 0x20 ADD PUSH1 0x0 DUP2 MSTORE PUSH1 0x20 ADD PUSH1 0x0 DUP2 MSTORE PUSH1 0x20 ADD PUSH1 0x0 DUP2 MSTORE POP SWAP1 JUMP JUMPDEST PUSH1 0x40 MLOAD DUP1 PUSH2 0x380 ADD PUSH1 0x40 MSTORE DUP1 PUSH1 0x1C SWAP1 JUMPDEST PUSH2 0x7099 PUSH2 0x6E14 JUMP JUMPDEST DUP2 MSTORE PUSH1 0x20 ADD SWAP1 PUSH1 0x1 SWAP1 SUB SWAP1 DUP2 PUSH2 0x7091 JUMPI SWAP1 POP POP SWAP1 JUMP JUMPDEST PUSH1 0x40 MLOAD DUP1 PUSH2 0x580 ADD PUSH1 0x40 MSTORE DUP1 PUSH1 0x2C SWAP1 PUSH1 0x20 DUP3 MUL DUP1 CALLDATASIZE DUP4 CALLDATACOPY DUP1 DUP3 ADD SWAP2 POP POP SWAP1 POP POP SWAP1 JUMP JUMPDEST PUSH1 0x40 MLOAD DUP1 PUSH2 0x360 ADD PUSH1 0x40 MSTORE DUP1 PUSH1 0x1B SWAP1 JUMPDEST PUSH2 0x70EA PUSH2 0x7059 JUMP JUMPDEST DUP2 MSTORE PUSH1 0x20 ADD SWAP1 PUSH1 0x1 SWAP1 SUB SWAP1 DUP2 PUSH2 0x70E2 JUMPI SWAP1 POP POP SWAP1 JUMP JUMPDEST PUSH1 0x0 DUP1 REVERT JUMPDEST PUSH1 0x0 DUP1 REVERT JUMPDEST PUSH1 0x0 DUP1 REVERT JUMPDEST PUSH1 0x0 DUP1 REVERT JUMPDEST PUSH1 0x0 DUP1 REVERT JUMPDEST PUSH1 0x0 DUP1 DUP4 PUSH1 0x1F DUP5 ADD SLT PUSH2 0x712F JUMPI PUSH2 0x712E PUSH2 0x710A JUMP JUMPDEST JUMPDEST DUP3 CALLDATALOAD SWAP1 POP PUSH8 0xFFFFFFFFFFFFFFFF DUP2 GT ISZERO PUSH2 0x714C JUMPI PUSH2 0x714B PUSH2 0x710F JUMP JUMPDEST JUMPDEST PUSH1 0x20 DUP4 ADD SWAP2 POP DUP4 PUSH1 0x1 DUP3 MUL DUP4 ADD GT ISZERO PUSH2 0x7168 JUMPI PUSH2 0x7167 PUSH2 0x7114 JUMP JUMPDEST JUMPDEST SWAP3 POP SWAP3 SWAP1 POP JUMP JUMPDEST PUSH1 0x0 DUP1 DUP4 PUSH1 0x1F DUP5 ADD SLT PUSH2 0x7185 JUMPI PUSH2 0x7184 PUSH2 0x710A JUMP JUMPDEST JUMPDEST DUP3 CALLDATALOAD SWAP1 POP PUSH8 0xFFFFFFFFFFFFFFFF DUP2 GT ISZERO PUSH2 0x71A2 JUMPI PUSH2 0x71A1 PUSH2 0x710F JUMP JUMPDEST JUMPDEST PUSH1 0x20 DUP4 ADD SWAP2 POP DUP4 PUSH1 0x20 DUP3 MUL DUP4 ADD GT ISZERO PUSH2 0x71BE JUMPI PUSH2 0x71BD PUSH2 0x7114 JUMP JUMPDEST JUMPDEST SWAP3 POP SWAP3 SWAP1 POP JUMP JUMPDEST PUSH1 0x0 DUP1 PUSH1 0x0 DUP1 PUSH1 0x40 DUP6 DUP8 SUB SLT ISZERO PUSH2 0x71DF JUMPI PUSH2 0x71DE PUSH2 0x7100 JUMP JUMPDEST JUMPDEST PUSH1 0x0 DUP6 ADD CALLDATALOAD PUSH8 0xFFFFFFFFFFFFFFFF DUP2 GT ISZERO PUSH2 0x71FD JUMPI PUSH2 0x71FC PUSH2 0x7105 JUMP JUMPDEST JUMPDEST PUSH2 0x7209 DUP8 DUP3 DUP9 ADD PUSH2 0x7119 JUMP JUMPDEST SWAP5 POP SWAP5 POP POP PUSH1 0x20 DUP6 ADD CALLDATALOAD PUSH8 0xFFFFFFFFFFFFFFFF DUP2 GT ISZERO PUSH2 0x722C JUMPI PUSH2 0x722B PUSH2 0x7105 JUMP JUMPDEST JUMPDEST PUSH2 0x7238 DUP8 DUP3 DUP9 ADD PUSH2 0x716F JUMP JUMPDEST SWAP3 POP SWAP3 POP POP SWAP3 SWAP6 SWAP2 SWAP5 POP SWAP3 POP JUMP JUMPDEST PUSH1 0x0 DUP2 ISZERO ISZERO SWAP1 POP SWAP2 SWAP1 POP JUMP JUMPDEST PUSH2 0x725B DUP2 PUSH2 0x7246 JUMP JUMPDEST DUP3 MSTORE POP POP JUMP JUMPDEST PUSH1 0x0 PUSH1 0x20 DUP3 ADD SWAP1 POP PUSH2 0x7276 PUSH1 0x0 DUP4 ADD DUP5 PUSH2 0x7252 JUMP JUMPDEST SWAP3 SWAP2 POP POP JUMP JUMPDEST PUSH1 0x0 DUP1 REVERT JUMPDEST PUSH1 0x0 DUP1 REVERT JUMPDEST PUSH1 0x0 DUP1 DUP6 DUP6 GT ISZERO PUSH2 0x729A JUMPI PUSH2 0x7299 PUSH2 0x727C JUMP JUMPDEST JUMPDEST DUP4 DUP7 GT ISZERO PUSH2 0x72AB JUMPI PUSH2 0x72AA PUSH2 0x7281 JUMP JUMPDEST JUMPDEST PUSH1 0x1 DUP6 MUL DUP4 ADD SWAP2 POP DUP5 DUP7 SUB SWAP1 POP SWAP5 POP SWAP5 SWAP3 POP POP POP JUMP JUMPDEST PUSH1 0x0 DUP3 SWAP1 POP SWAP3 SWAP2 POP POP JUMP JUMPDEST PUSH1 0x0 DUP2 SWAP1 POP SWAP2 SWAP1 POP JUMP JUMPDEST PUSH1 0x0 DUP3 DUP3 SHL SWAP1 POP SWAP3 SWAP2 POP POP JUMP JUMPDEST PUSH1 0x0 PUSH2 0x72EF DUP4 DUP4 PUSH2 0x72C1 JUMP JUMPDEST DUP3 PUSH2 0x72FA DUP2 CALLDATALOAD PUSH2 0x72CC JUMP JUMPDEST SWAP3 POP PUSH1 0x20 DUP3 LT ISZERO PUSH2 0x733A JUMPI PUSH2 0x7335 PUSH32 0xFFFFFFFFFFFFFFFFFFFFFFFFFFFFFFFFFFFFFFFFFFFFFFFFFFFFFFFFFFFFFFFF DUP4 PUSH1 0x20 SUB PUSH1 0x8 MUL PUSH2 0x72D6 JUMP JUMPDEST DUP4 AND SWAP3 POP JUMPDEST POP POP SWAP3 SWAP2 POP POP JUMP JUMPDEST PUSH1 0x0 DUP2 SWAP1 POP SWAP2 SWAP1 POP JUMP JUMPDEST PUSH32 0x4E487B7100000000000000000000000000000000000000000000000000000000 PUSH1 0x0 MSTORE PUSH1 0x11 PUSH1 0x4 MSTORE PUSH1 0x24 PUSH1 0x0 REVERT JUMPDEST PUSH1 0x0 PUSH2 0x7386 DUP3 PUSH2 0x7342 JUMP JUMPDEST SWAP2 POP PUSH2 0x7391 DUP4 PUSH2 0x7342 JUMP JUMPDEST SWAP3 POP DUP3 DUP3 MUL PUSH2 0x739F DUP2 PUSH2 0x7342 JUMP JUMPDEST SWAP2 POP DUP3 DUP3 DIV DUP5 EQ DUP4 ISZERO OR PUSH2 0x73B6 JUMPI PUSH2 0x73B5 PUSH2 0x734C JUMP JUMPDEST JUMPDEST POP SWAP3 SWAP2 POP POP JUMP JUMPDEST PUSH1 0x0 PUSH2 0x73C8 DUP3 PUSH2 0x7342 JUMP JUMPDEST SWAP2 POP PUSH2 0x73D3 DUP4 PUSH2 0x7342 JUMP JUMPDEST SWAP3 POP DUP3 DUP3 ADD SWAP1 POP DUP1 DUP3 GT ISZERO PUSH2 0x73EB JUMPI PUSH2 0x73EA PUSH2 0x734C JUMP JUMPDEST JUMPDEST SWAP3 SWAP2 POP POP JUMP JUMPDEST PUSH32 0x4E487B7100000000000000000000000000000000000000000000000000000000 PUSH1 0x0 MSTORE PUSH1 0x32 PUSH1 0x4 MSTORE PUSH1 0x24 PUSH1 0x0 REVERT JUMPDEST PUSH1 0x0 PUSH2 0x742B DUP3 PUSH2 0x7342 JUMP JUMPDEST SWAP2 POP PUSH2 0x7436 DUP4 PUSH2 0x7342 JUMP JUMPDEST SWAP3 POP DUP3 DUP3 SUB SWAP1 POP DUP2 DUP2 GT ISZERO PUSH2 0x744E JUMPI PUSH2 0x744D PUSH2 0x734C JUMP JUMPDEST JUMPDEST SWAP3 SWAP2 POP POP JUMP JUMPDEST PUSH1 0x0 PUSH2 0x745F DUP3 PUSH2 0x7342 JUMP JUMPDEST SWAP2 POP PUSH32 0xFFFFFFFFFFFFFFFFFFFFFFFFFFFFFFFFFFFFFFFFFFFFFFFFFFFFFFFFFFFFFFFF DUP3 SUB PUSH2 0x7491 JUMPI PUSH2 0x7490 PUSH2 0x734C JUMP JUMPDEST JUMPDEST PUSH1 0x1 DUP3 ADD SWAP1 POP SWAP2 SWAP1 POP JUMP JUMPDEST PUSH32 0x4E487B7100000000000000000000000000000000000000000000000000000000 PUSH1 0x0 MSTORE PUSH1 0x12 PUSH1 0x4 MSTORE PUSH1 0x24 PUSH1 0x0 REVERT JUMPDEST PUSH1 0x0 PUSH2 0x74D6 DUP3 PUSH2 0x7342 JUMP JUMPDEST SWAP2 POP PUSH2 0x74E1 DUP4 PUSH2 0x7342 JUMP JUMPDEST SWAP3 POP DUP3 PUSH2 0x74F1 JUMPI PUSH2 0x74F0 PUSH2 0x749C JUMP JUMPDEST JUMPDEST DUP3 DUP3 MOD SWAP1 POP SWAP3 SWAP2 POP POP JUMP JUMPDEST PUSH32 0x4E487B7100000000000000000000000000000000000000000000000000000000 PUSH1 0x0 MSTORE PUSH1 0x41 PUSH1 0x4 MSTORE PUSH1 0x24 PUSH1 0x0 REVERT JUMPDEST PUSH1 0x0 DUP2 MLOAD SWAP1 POP SWAP2 SWAP1 POP JUMP JUMPDEST PUSH1 0x0 DUP2 SWAP1 POP SWAP3 SWAP2 POP POP JUMP JUMPDEST PUSH1 0x0 DUP2 SWAP1 POP PUSH1 0x20 DUP3 ADD SWAP1 POP SWAP2 SWAP1 POP JUMP JUMPDEST PUSH2 0x755A DUP2 PUSH2 0x72CC JUMP JUMPDEST DUP3 MSTORE POP POP JUMP JUMPDEST PUSH1 0x0 PUSH2 0x756C DUP4 DUP4 PUSH2 0x7551 JUMP JUMPDEST PUSH1 0x20 DUP4 ADD SWAP1 POP SWAP3 SWAP2 POP POP JUMP JUMPDEST PUSH1 0x0 PUSH1 0x20 DUP3 ADD SWAP1 POP SWAP2 SWAP1 POP JUMP JUMPDEST PUSH1 0x0 PUSH2 0x7590 DUP3 PUSH2 0x752B JUMP JUMPDEST PUSH2 0x759A DUP2 DUP6 PUSH2 0x7536 JUMP JUMPDEST SWAP4 POP PUSH2 0x75A5 DUP4 PUSH2 0x7541 JUMP JUMPDEST DUP1 PUSH1 0x0 JUMPDEST DUP4 DUP2 LT ISZERO PUSH2 0x75D6 JUMPI DUP2 MLOAD PUSH2 0x75BD DUP9 DUP3 PUSH2 0x7560 JUMP JUMPDEST SWAP8 POP PUSH2 0x75C8 DUP4 PUSH2 0x7578 JUMP JUMPDEST SWAP3 POP POP PUSH1 0x1 DUP2 ADD SWAP1 POP PUSH2 0x75A9 JUMP JUMPDEST POP DUP6 SWAP4 POP POP POP POP SWAP3 SWAP2 POP POP JUMP JUMPDEST PUSH1 0x0 PUSH2 0x75EF DUP3 DUP5 PUSH2 0x7585 JUMP JUMPDEST SWAP2 POP DUP2 SWAP1 POP SWAP3 SWAP2 POP POP JUMP JUMPDEST PUSH1 0x0 DUP2 SWAP1 POP SWAP2 SWAP1 POP JUMP JUMPDEST PUSH2 0x7615 PUSH2 0x7610 DUP3 PUSH2 0x7342 JUMP JUMPDEST PUSH2 0x75FA JUMP JUMPDEST DUP3 MSTORE POP POP JUMP JUMPDEST PUSH1 0x0 PUSH2 0x7627 DUP3 DUP5 PUSH2 0x7604 JUMP JUMPDEST PUSH1 0x20 DUP3 ADD SWAP2 POP DUP2 SWAP1 POP SWAP3 SWAP2 POP POP JUMP JUMPDEST PUSH1 0x0 PUSH1 0xD SWAP1 POP SWAP2 SWAP1 POP JUMP JUMPDEST PUSH1 0x0 DUP2 SWAP1 POP SWAP3 SWAP2 POP POP JUMP JUMPDEST PUSH1 0x0 DUP2 SWAP1 POP SWAP2 SWAP1 POP JUMP JUMPDEST PUSH1 0x0 PUSH1 0x20 DUP3 ADD SWAP1 POP SWAP2 SWAP1 POP JUMP JUMPDEST PUSH2 0x766C DUP2 PUSH2 0x7636 JUMP JUMPDEST PUSH2 0x7676 DUP2 DUP5 PUSH2 0x7641 JUMP JUMPDEST SWAP3 POP PUSH2 0x7681 DUP3 PUSH2 0x764C JUMP JUMPDEST DUP1 PUSH1 0x0 JUMPDEST DUP4 DUP2 LT ISZERO PUSH2 0x76B2 JUMPI DUP2 MLOAD PUSH2 0x7699 DUP8 DUP3 PUSH2 0x7560 JUMP JUMPDEST SWAP7 POP PUSH2 0x76A4 DUP4 PUSH2 0x7656 JUMP JUMPDEST SWAP3 POP POP PUSH1 0x1 DUP2 ADD SWAP1 POP PUSH2 0x7685 JUMP JUMPDEST POP POP POP POP POP POP JUMP JUMPDEST PUSH1 0x0 PUSH2 0x76C6 DUP3 DUP5 PUSH2 0x7663 JUMP JUMPDEST PUSH2 0x1A0 DUP3 ADD SWAP2 POP DUP2 SWAP1 POP SWAP3 SWAP2 POP POP JUMP JUMPDEST PUSH1 0x0 PUSH1 0x9 SWAP1 POP SWAP2 SWAP1 POP JUMP JUMPDEST PUSH1 0x0 DUP2 SWAP1 POP SWAP3 SWAP2 POP POP JUMP JUMPDEST PUSH1 0x0 DUP2 SWAP1 POP SWAP2 SWAP1 POP JUMP JUMPDEST PUSH2 0x76FF DUP2 PUSH2 0x7342 JUMP JUMPDEST DUP3 MSTORE POP POP JUMP JUMPDEST PUSH1 0x0 PUSH2 0x7711 DUP4 DUP4 PUSH2 0x76F6 JUMP JUMPDEST PUSH1 0x20 DUP4 ADD SWAP1 POP SWAP3 SWAP2 POP POP JUMP JUMPDEST PUSH1 0x0 PUSH1 0x20 DUP3 ADD SWAP1 POP SWAP2 SWAP1 POP JUMP JUMPDEST PUSH2 0x7733 DUP2 PUSH2 0x76D6 JUMP JUMPDEST PUSH2 0x773D DUP2 DUP5 PUSH2 0x76E1 JUMP JUMPDEST SWAP3 POP PUSH2 0x7748 DUP3 PUSH2 0x76EC JUMP JUMPDEST DUP1 PUSH1 0x0 JUMPDEST DUP4 DUP2 LT ISZERO PUSH2 0x7779 JUMPI DUP2 MLOAD PUSH2 0x7760 DUP8 DUP3 PUSH2 0x7705 JUMP JUMPDEST SWAP7 POP PUSH2 0x776B DUP4 PUSH2 0x771D JUMP JUMPDEST SWAP3 POP POP PUSH1 0x1 DUP2 ADD SWAP1 POP PUSH2 0x774C JUMP JUMPDEST POP POP POP POP POP POP JUMP JUMPDEST PUSH1 0x0 PUSH2 0x778D DUP3 DUP5 PUSH2 0x772A JUMP JUMPDEST PUSH2 0x120 DUP3 ADD SWAP2 POP DUP2 SWAP1 POP SWAP3 SWAP2 POP POP JUMP JUMPDEST PUSH1 0x0 PUSH2 0x77A8 DUP3 PUSH2 0x7342 JUMP JUMPDEST SWAP2 POP PUSH2 0x77B3 DUP4 PUSH2 0x7342 JUMP JUMPDEST SWAP3 POP DUP3 PUSH2 0x77C3 JUMPI PUSH2 0x77C2 PUSH2 0x749C JUMP JUMPDEST JUMPDEST DUP3 DUP3 DIV SWAP1 POP SWAP3 SWAP2 POP POP JUMP JUMPDEST PUSH1 0x0 PUSH1 0x9 SWAP1 POP SWAP2 SWAP1 POP JUMP JUMPDEST PUSH1 0x0 DUP2 SWAP1 POP SWAP2 SWAP1 POP JUMP JUMPDEST PUSH1 0x0 DUP2 SWAP1 POP SWAP2 SWAP1 POP JUMP JUMPDEST PUSH1 0x0 PUSH2 0x7808 PUSH2 0x7803 PUSH2 0x77FE DUP5 PUSH2 0x7342 JUMP JUMPDEST PUSH2 0x77E3 JUMP JUMPDEST PUSH2 0x7342 JUMP JUMPDEST SWAP1 POP SWAP2 SWAP1 POP JUMP JUMPDEST PUSH2 0x7818 DUP2 PUSH2 0x77ED JUMP JUMPDEST DUP3 MSTORE POP POP JUMP JUMPDEST PUSH1 0x0 PUSH2 0x782A DUP4 DUP4 PUSH2 0x780F JUMP JUMPDEST PUSH1 0x20 DUP4 ADD SWAP1 POP SWAP3 SWAP2 POP POP JUMP JUMPDEST PUSH1 0x0 PUSH1 0x20 DUP3 ADD SWAP1 POP SWAP2 SWAP1 POP JUMP JUMPDEST PUSH2 0x784C DUP2 PUSH2 0x77CE JUMP JUMPDEST PUSH2 0x7856 DUP2 DUP5 PUSH2 0x76E1 JUMP JUMPDEST SWAP3 POP PUSH2 0x7861 DUP3 PUSH2 0x77D9 JUMP JUMPDEST DUP1 PUSH1 0x0 JUMPDEST DUP4 DUP2 LT ISZERO PUSH2 0x7892 JUMPI DUP2 MLOAD PUSH2 0x7879 DUP8 DUP3 PUSH2 0x781E JUMP JUMPDEST SWAP7 POP PUSH2 0x7884 DUP4 PUSH2 0x7836 JUMP JUMPDEST SWAP3 POP POP PUSH1 0x1 DUP2 ADD SWAP1 POP PUSH2 0x7865 JUMP JUMPDEST POP POP POP POP POP POP JUMP JUMPDEST PUSH1 0x0 PUSH2 0x78A6 DUP3 DUP5 PUSH2 0x7843 JUMP JUMPDEST PUSH2 0x120 DUP3 ADD SWAP2 POP DUP2 SWAP1 POP SWAP3 SWAP2 POP POP JUMP JUMPDEST PUSH1 0x0 PUSH1 0x2D SWAP1 POP SWAP2 SWAP1 POP JUMP JUMPDEST PUSH1 0x0 DUP2 SWAP1 POP SWAP3 SWAP2 POP POP JUMP JUMPDEST PUSH1 0x0 DUP2 SWAP1 POP SWAP2 SWAP1 POP JUMP JUMPDEST PUSH1 0x0 PUSH1 0x20 DUP3 ADD SWAP1 POP SWAP2 SWAP1 POP JUMP JUMPDEST PUSH2 0x78EC DUP2 PUSH2 0x78B6 JUMP JUMPDEST PUSH2 0x78F6 DUP2 DUP5 PUSH2 0x78C1 JUMP JUMPDEST SWAP3 POP PUSH2 0x7901 DUP3 PUSH2 0x78CC JUMP JUMPDEST DUP1 PUSH1 0x0 JUMPDEST DUP4 DUP2 LT ISZERO PUSH2 0x7932 JUMPI DUP2 MLOAD PUSH2 0x7919 DUP8 DUP3 PUSH2 0x781E JUMP JUMPDEST SWAP7 POP PUSH2 0x7924 DUP4 PUSH2 0x78D6 JUMP JUMPDEST SWAP3 POP POP PUSH1 0x1 DUP2 ADD SWAP1 POP PUSH2 0x7905 JUMP JUMPDEST POP POP POP POP POP POP JUMP JUMPDEST PUSH1 0x0 PUSH2 0x7946 DUP3 DUP5 PUSH2 0x78E3 JUMP JUMPDEST PUSH2 0x5A0 DUP3 ADD SWAP2 POP DUP2 SWAP1 POP SWAP3 SWAP2 POP POP JUMP JUMPDEST PUSH1 0x0 PUSH1 0x6D SWAP1 POP SWAP2 SWAP1 POP JUMP JUMPDEST PUSH1 0x0 DUP2 SWAP1 POP SWAP3 SWAP2 POP POP JUMP JUMPDEST PUSH1 0x0 DUP2 SWAP1 POP SWAP2 SWAP1 POP JUMP JUMPDEST PUSH1 0x0 PUSH1 0x20 DUP3 ADD SWAP1 POP SWAP2 SWAP1 POP JUMP JUMPDEST PUSH2 0x798C DUP2 PUSH2 0x7956 JUMP JUMPDEST PUSH2 0x7996 DUP2 DUP5 PUSH2 0x7961 JUMP JUMPDEST SWAP3 POP PUSH2 0x79A1 DUP3 PUSH2 0x796C JUMP JUMPDEST DUP1 PUSH1 0x0 JUMPDEST DUP4 DUP2 LT ISZERO PUSH2 0x79D2 JUMPI DUP2 MLOAD PUSH2 0x79B9 DUP8 DUP3 PUSH2 0x7705 JUMP JUMPDEST SWAP7 POP PUSH2 0x79C4 DUP4 PUSH2 0x7976 JUMP JUMPDEST SWAP3 POP POP PUSH1 0x1 DUP2 ADD SWAP1 POP PUSH2 0x79A5 JUMP JUMPDEST POP POP POP POP POP POP JUMP JUMPDEST PUSH1 0x0 PUSH2 0x79E6 DUP3 DUP5 PUSH2 0x7983 JUMP JUMPDEST PUSH2 0xDA0 DUP3 ADD SWAP2 POP DUP2 SWAP1 POP SWAP3 SWAP2 POP POP JUMP JUMPDEST PUSH1 0x0 PUSH1 0x1D SWAP1 POP SWAP2 SWAP1 POP JUMP JUMPDEST PUSH1 0x0 DUP2 SWAP1 POP SWAP3 SWAP2 POP POP JUMP JUMPDEST PUSH1 0x0 DUP2 SWAP1 POP SWAP2 SWAP1 POP JUMP JUMPDEST PUSH1 0x0 PUSH1 0x20 DUP3 ADD SWAP1 POP SWAP2 SWAP1 POP JUMP JUMPDEST PUSH2 0x7A2C DUP2 PUSH2 0x79F6 JUMP JUMPDEST PUSH2 0x7A36 DUP2 DUP5 PUSH2 0x7A01 JUMP JUMPDEST SWAP3 POP PUSH2 0x7A41 DUP3 PUSH2 0x7A0C JUMP JUMPDEST DUP1 PUSH1 0x0 JUMPDEST DUP4 DUP2 LT ISZERO PUSH2 0x7A72 JUMPI DUP2 MLOAD PUSH2 0x7A59 DUP8 DUP3 PUSH2 0x7705 JUMP JUMPDEST SWAP7 POP PUSH2 0x7A64 DUP4 PUSH2 0x7A16 JUMP JUMPDEST SWAP3 POP POP PUSH1 0x1 DUP2 ADD SWAP1 POP PUSH2 0x7A45 JUMP JUMPDEST POP POP POP POP POP POP JUMP JUMPDEST PUSH1 0x0 PUSH2 0x7A86 DUP3 DUP5 PUSH2 0x7A23 JUMP JUMPDEST PUSH2 0x3A0 DUP3 ADD SWAP2 POP DUP2 SWAP1 POP SWAP3 SWAP2 POP POP JUMP JUMPDEST PUSH1 0x0 PUSH1 0x5 SWAP1 POP SWAP2 SWAP1 POP JUMP JUMPDEST PUSH1 0x0 DUP2 SWAP1 POP SWAP3 SWAP2 POP POP JUMP JUMPDEST PUSH1 0x0 DUP2 SWAP1 POP SWAP2 SWAP1 POP JUMP JUMPDEST PUSH1 0x0 PUSH1 0x20 DUP3 ADD SWAP1 POP SWAP2 SWAP1 POP JUMP JUMPDEST PUSH2 0x7ACC DUP2 PUSH2 0x7A96 JUMP JUMPDEST PUSH2 0x7AD6 DUP2 DUP5 PUSH2 0x7AA1 JUMP JUMPDEST SWAP3 POP PUSH2 0x7AE1 DUP3 PUSH2 0x7AAC JUMP JUMPDEST DUP1 PUSH1 0x0 JUMPDEST DUP4 DUP2 LT ISZERO PUSH2 0x7B12 JUMPI DUP2 MLOAD PUSH2 0x7AF9 DUP8 DUP3 PUSH2 0x7705 JUMP JUMPDEST SWAP7 POP PUSH2 0x7B04 DUP4 PUSH2 0x7AB6 JUMP JUMPDEST SWAP3 POP POP PUSH1 0x1 DUP2 ADD SWAP1 POP PUSH2 0x7AE5 JUMP JUMPDEST POP POP POP POP POP POP JUMP JUMPDEST PUSH1 0x0 PUSH2 0x7B26 DUP3 DUP5 PUSH2 0x7AC3 JUMP JUMPDEST PUSH1 0xA0 DUP3 ADD SWAP2 POP DUP2 SWAP1 POP SWAP3 SWAP2 POP POP JUMP JUMPDEST PUSH1 0x0 PUSH2 0x7B40 DUP3 PUSH2 0x7342 JUMP JUMPDEST SWAP2 POP PUSH1 0x0 DUP3 SUB PUSH2 0x7B53 JUMPI PUSH2 0x7B52 PUSH2 0x734C JUMP JUMPDEST JUMPDEST PUSH1 0x1 DUP3 SUB SWAP1 POP SWAP2 SWAP1 POP JUMP JUMPDEST PUSH1 0x0 PUSH2 0x7B6A DUP3 DUP16 PUSH2 0x7604 JUMP JUMPDEST PUSH1 0x20 DUP3 ADD SWAP2 POP PUSH2 0x7B7A DUP3 DUP15 PUSH2 0x7604 JUMP JUMPDEST PUSH1 0x20 DUP3 ADD SWAP2 POP PUSH2 0x7B8A DUP3 DUP14 PUSH2 0x7604 JUMP JUMPDEST PUSH1 0x20 DUP3 ADD SWAP2 POP PUSH2 0x7B9A DUP3 DUP13 PUSH2 0x7604 JUMP JUMPDEST PUSH1 0x20 DUP3 ADD SWAP2 POP PUSH2 0x7BAA DUP3 DUP12 PUSH2 0x7604 JUMP JUMPDEST PUSH1 0x20 DUP3 ADD SWAP2 POP PUSH2 0x7BBA DUP3 DUP11 PUSH2 0x7604 JUMP JUMPDEST PUSH1 0x20 DUP3 ADD SWAP2 POP PUSH2 0x7BCA DUP3 DUP10 PUSH2 0x7604 JUMP JUMPDEST PUSH1 0x20 DUP3 ADD SWAP2 POP PUSH2 0x7BDA DUP3 DUP9 PUSH2 0x7604 JUMP JUMPDEST PUSH1 0x20 DUP3 ADD SWAP2 POP PUSH2 0x7BEA DUP3 DUP8 PUSH2 0x7604 JUMP JUMPDEST PUSH1 0x20 DUP3 ADD SWAP2 POP PUSH2 0x7BFA DUP3 DUP7 PUSH2 0x7604 JUMP JUMPDEST PUSH1 0x20 DUP3 ADD SWAP2 POP PUSH2 0x7C0A DUP3 DUP6 PUSH2 0x7604 JUMP JUMPDEST PUSH1 0x20 DUP3 ADD SWAP2 POP PUSH2 0x7C1A DUP3 DUP5 PUSH2 0x7604 JUMP JUMPDEST PUSH1 0x20 DUP3 ADD SWAP2 POP DUP2 SWAP1 POP SWAP14 SWAP13 POP POP POP POP POP POP POP POP POP POP POP POP POP JUMP JUMPDEST PUSH1 0x0 DUP2 MLOAD SWAP1 POP SWAP2 SWAP1 POP JUMP JUMPDEST PUSH1 0x0 DUP2 SWAP1 POP SWAP3 SWAP2 POP POP JUMP JUMPDEST PUSH1 0x0 JUMPDEST DUP4 DUP2 LT ISZERO PUSH2 0x7C68 JUMPI DUP1 DUP3 ADD MLOAD DUP2 DUP5 ADD MSTORE PUSH1 0x20 DUP2 ADD SWAP1 POP PUSH2 0x7C4D JUMP JUMPDEST PUSH1 0x0 DUP5 DUP5 ADD MSTORE POP POP POP POP JUMP JUMPDEST PUSH1 0x0 PUSH2 0x7C7F DUP3 PUSH2 0x7C34 JUMP JUMPDEST PUSH2 0x7C89 DUP2 DUP6 PUSH2 0x7C3F JUMP JUMPDEST SWAP4 POP PUSH2 0x7C99 DUP2 DUP6 PUSH1 0x20 DUP7 ADD PUSH2 0x7C4A JUMP JUMPDEST DUP1 DUP5 ADD SWAP2 POP POP SWAP3 SWAP2 POP POP JUMP JUMPDEST PUSH1 0x0 PUSH2 0x7CB1 DUP3 DUP5 PUSH2 0x7C74 JUMP JUMPDEST SWAP2 POP DUP2 SWAP1 POP SWAP3 SWAP2 POP POP JUMP JUMPDEST PUSH2 0x7CC5 DUP2 PUSH2 0x7246 JUMP JUMPDEST DUP2 EQ PUSH2 0x7CD0 JUMPI PUSH1 0x0 DUP1 REVERT JUMPDEST POP JUMP JUMPDEST PUSH1 0x0 DUP2 MLOAD SWAP1 POP PUSH2 0x7CE2 DUP2 PUSH2 0x7CBC JUMP JUMPDEST SWAP3 SWAP2 POP POP JUMP JUMPDEST PUSH1 0x0 PUSH1 0x20 DUP3 DUP5 SUB SLT ISZERO PUSH2 0x7CFE JUMPI PUSH2 0x7CFD PUSH2 0x7100 JUMP JUMPDEST JUMPDEST PUSH1 0x0 PUSH2 0x7D0C DUP5 DUP3 DUP6 ADD PUSH2 0x7CD3 JUMP JUMPDEST SWAP2 POP POP SWAP3 SWAP2 POP POP JUMP JUMPDEST PUSH32 0x4E487B7100000000000000000000000000000000000000000000000000000000 PUSH1 0x0 MSTORE PUSH1 0x21 PUSH1 0x4 MSTORE PUSH1 0x24 PUSH1 0x0 REVERT INVALID LOG2 PUSH5 0x6970667358 0x22 SLT KECCAK256 CALLCODE CALLDATASIZE DUP1 DUP8 MSTORE 0xBD 0xC5 0x25 SELFBALANCE 0x2B PUSH3 0x51415C 0xBE 0xBC 0xC7 PREVRANDAO EXTCODESIZE 0xC BALANCE SUB PUSH24 0xC840D6C58DE5A46D5D64736F6C634300081C003300000000 "},"methodIdentifiers":{"verifier()":"2b7ac3f3","verify(bytes,uint256,uint256)":"198e744a"}}}}}